:020000021000EC
:10C00000008000208DD00100C9D00100CBD00100FC
:10C010000000000000000000000000000000000020
:10C02000000000000000000000000000CDD0010072
:10C030000000000000000000CFD00100D1D00100BE
:10C04000D3D00100D3D00100A90C0200D3D001004D
:10C05000D3D0010000000000D3D00100D3D00100F4
:10C06000D3D00100D3D00100D3D00100D3D0010040
:10C07000D3D00100D3D00100D3D00100D3D0010030
:10C08000D3D00100950D0200D3D00100D3D0010020
:10C09000D3D00100BD2E020099090200D3D00100C7
:10C0A000D3D00100D3D00100000000000000000048
:10C0B0000000000000000000000000000000000080
:10C0C00010B5064C2378002B07D1054B002B02D06E
:10C0D000044800E000BF0123237010BD9428002015
:10C0E00000000000284D020008B5084B002B03D0CB
:10C0F0000748084900E000BF07480368002B03D049
:10C10000064B002B00D0984708BDC0460000000039
:10C11000284D0200982800209428002000000000EC
:10C12000164B002B00D1144B9D46402292029A1AC6
:10C13000924600218B460F461348144A121A07F004
:10C140004BF80F4B002B00D098470E4B002B00D024
:10C1500098470020002104000D000D48002802D05F
:10C160000C4800E000BF06F0C1FF2000290002F0EB
:10C17000A0FF06F0A5FFC0460000080000800020D8
:10C18000000000000000000094280020A42E0020E1
:10C19000000000000000000070B501700621427030
:10C1A0008370012201720176F5230224FF21C380EE
:10C1B000C4750023017704248118027142748274CB
:10C1C000C2740275827542768276C276C2774372F5
:10C1D0008372C372037343738373C37303744377AC
:10C1E0008377CC77811C0724CC77C11CCB77041DC7
:10C1F0000321E177441DE177811DCB77C11DCB770A
:10C200008918CA77021CC4180021261CD1639164C6
:10C210005165603600216C3402333180F180043284
:10C220002180062BEFD18030017070BD10B5012147
:10C23000041C6B221E23FFF7AFFF201C10BD000063
:10C24000C388FA225200934207D0FA22D2009342C6
:10C2500005D0F52B05D1034B02E0034B00E0034B67
:10C2600043677047295C0F3C295C8F3C295C8F3DFC
:10C27000C37D042B0AD003D8022B0BD1064B08E058
:10C28000082B05D0102B05D1044B02E0044B00E035
:10C29000044B83677047C04640DA7F38B0E33F3ACB
:10C2A00040DAFF3840DA7F3900B5421C031CD07FEA
:10C2B00004380C2810D807F0E9FB070F0F0F090FFF
:10C2C0000F0F0B0F0F0F0D00044A04E0044A02E0A9
:10C2D000044A00E0044ADA6700BDC046F7CC1239D0
:10C2E000240B98399F71E139240B183AC388F52B38
:10C2F00009D0FA225200934205D0FA22D20093428A
:10C3000001D0F523C380C37D022B07D0042B05D0B9
:10C31000082B03D0102B01D00223C3750130C37F3B
:10C320000822191C9143042905D0082B03D0102B97
:10C3300001D00423C377704770B5094C161C201C2C
:10C340001D1C00F05AFA311C201C00F0F8F9291CC1
:10C35000201C00F0F4F9201C00F094FA70BDC046D7
:10C36000B028002010B5131C021C0C1C733211786D
:10C37000221CFFF7E1FF10BD10B502790023041C59
:10C380009A4202D0037A5B01DBB2E288FA214900CB
:10C390008A4205D0FA21C9008A4203D1182200E05E
:10C3A00008221343617A03220A401A43201C1021F9
:10C3B000FFF7D8FF0022201C1121FFF7D3FFA27A3C
:10C3C000531E9A41E37AD201002B05D0217B0F2323
:10C3D0000B4040210B431A43201C1221FFF7C2FFE0
:10C3E000E27C531E9A41A37C5201002B01D0102302
:10C3F0001A43637C002B01D008231A43237D002BB2
:10C4000001D002231A43201C1E21FFF7ABFF627BE1
:10C41000531E9A41A37B5201002B01D010231A43D3
:10C42000E37B002B01D008231A43201C1321FFF7C4
:10C4300099FF10BD10B5C27E041C531E9A41837E25
:10C440005201002B01D010231A43637E002B01D030
:10C4500008231A43201C1F21FFF784FFA37D00221D
:10C46000934202D0227E5201D2B2E37D082B05D046
:10C47000102B05D0042B05D1102302E0182300E077
:10C4800008231A43237F59B2002904DB03210B4000
:10C4900004210A431A43201C2021FFF763FF637F16
:10C4A0000022934205D0A27F03231A405201802329
:10C4B0001A43201C2121FFF755FF10BD10B5131C96
:10C4C000021C0C1C72321178221CFFF735FF10BDC4
:10C4D00038B5C31CDB7F041C5A1E9341821CD17FDC
:10C4E00007221140021DD07F032202408900520121
:10C4F000DB010A431A43201C2021FFF7DFFF631CE6
:10C50000DB7F0022083BDBB2082B01D8104AD25C4B
:10C51000201C2121FFF7D2FFA31DDB7F03255A1E1C
:10C520009341E21DD27F5B012A401A43201C222145
:10C53000FFF7C4FF631DDA7F201C1540AA002321EA
:10C54000FFF7BCFF201C24210022FFF7B7FF38BDF6
:10C55000A044020070B50C4C161C201C0D1C00F0F1
:10C560004CF9311C201C00F0EAF8201C002100F0DE
:10C5700053F9291C0122201C00F0A8F9201C00F00E
:10C58000BFF8C0B270BDC046B028002008B5031C7B
:10C5900073330A1C1978FFF7DDFF08BD08B5031CCB
:10C5A00072330A1C1978FFF7D5FF08BD70B5031C5C
:10C5B000427873331A708278013B1A70041CFFF7BB
:10C5C00095FE201CFFF73CFE201CFFF76DFE201C93
:10C5D000FFF74EFE0E4800F0FDF80F21201CFFF77C
:10C5E000DDFF0F21061C201CFFF7D0FF05022E43A4
:10C5F000084B35B200209D4209D1201CFFF7BCFE3C
:10C60000201CFFF717FF201CFFF762FF281C70BDDE
:10C61000B02800203D680000F7B5164C1D1C201CFA
:10C6200008AB0F1C01921E7800F0E7F82368019A0E
:10C63000802111431B68201C9847201C002100F01A
:10C64000EBF8002801D0002012E0391C201C321C1D
:10C6500000F03CF9071EB742F5D12E1C731BBB42FC
:10C6600005DA201C00F04CF830700136F6E7381C73
:10C67000FEBDC046B028002037B5141C021C0D1C9E
:10C680007332117800932A1C231CFFF7C5FF3EBDAF
:10C6900037B5062328216A46041CFFF7EDFF06285C
:10C6A00023D168464178037809021943E185C278AD
:10C6B000837812021A432286437900791B020343CE
:10C6C000201C63868030007800280ED0201C663045
:10C6D0000088091AE185211C68310988521A2286CE
:10C6E000221C6A3212889B1A638637BD031C3133C1
:10C6F000303002781B780020934200D8D01A70475F
:10C70000021C011C3132303113780978994204D966
:10C71000591C1170C318187C01E001204042704779
:10C72000031C021C313330321B7812789A4202D932
:10C73000C018007C01E0012040427047704710B5EE
:10C74000021C68321278031C0120022A0AD11C1C28
:10C75000523422781F2A05D89B18101830332070C5
:10C760009970002010BD70B5031C68331C7800233D
:10C77000022C0ED193420CD0051C52352C781F2C64
:10C7800007D8661C2E70CD5C04193034A5700133B7
:10C79000F0E7181C70BD000038B5FA239B008360D9
:10C7A0000B4B002508330360031C303345601D70BC
:10C7B0005D702233041C1D705D709D70291C102259
:10C7C000583006F009FD231C68331D70201C38BD4D
:10C7D000B044020038B5041C032000F047FF051CDC
:10C7E000022000F043FF011C201C2A1C583000F0DE
:10C7F0007BFD68340023237038BD031C490054338B
:10C80000021C1970533200231370013A1370683000
:10C810000223037070470000F7B5031C051C071CBA
:10C820000E1C5433021C52375835041C197832320E
:10C830003B78281C009600F02BFE231C0020683358
:10C84000012238701A70A36D041C191CFC318A6A0D
:10C85000012A0DD10A481F58BF0703D58C625A61BF
:10C86000FF2405E01858470702D58C625A61FE2460
:10C87000002E02D0281C00F09BFD60B2FEBDC04619
:10C88000C404000008B50121FFF7C6FF08BD73B559
:10C89000151C4900021CC9B25432041C1170202D11
:10C8A00002D8002D0AD000E02025201C221C009375
:10C8B000583010322B1C00F0A7FDC6B2231C3133B8
:10C8C00000223034301C1A70267076BD08B5012362
:10C8D000FFF7DDFF08BD000008B50248FFF75CFF69
:10C8E00008BDC046B028002008B50368002B01D061
:10C8F000081C984708BD08B50368002B01D0081C28
:10C90000984708BD08B50368002B01D0081C98475C
:10C9100008BD08B50368002B01D0081C984708BD66
:10C9200008B50368002B01D0081C984708BD00001B
:10C9300010B5054B041C036002F04FFB201C02F0F5
:10C940009DFB201C10BDC0468048020010B5041C91
:10C95000FFF7EEFF201C06F06EFB201C10BD000050
:10C9600030B5094A4388D48B87B09C4209D1074827
:10C9700000F060FF0368211C5D686B4601AA02336A
:10C98000A84707B030BDC046B0290020E42A0020E7
:10C9900070B51D1CC37F041C5E1901201D2E13DC05
:10C9A0002818E054E37F0133DBB2E377E154E07F02
:10C9B000111C0130C0B2E0772A1C201806F0EAFBF7
:10C9C000E37F0020ED18E57770BD0000F7B58E1EFF
:10C9D000F6B2051C089C132E22D80120071CB74074
:10C9E0003E1C284F3E421BD0E97FCE1869181F2EEF
:10C9F00046DC601C814203D90878C8540139F8E745
:10CA00000021C8B2984204D2565C60188670013189
:10CA1000F7E722789A182270EA7F9B18EB770FE0ED
:10CA20002078061C013EF6B20090B3420AD10021E4
:10CA3000C8B2984204D2555C601885700131F7E79E
:10CA400000201DE0E87F801BC01884466746012057
:10CA50001F2F15DCE87F8446B01C20180190674624
:10CA6000E819019F874204D2A01980782070013410
:10CA7000F0E70098C7436744EF77281CFFF788FF6B
:10CA8000FEBDC0463F000800F7B5C67F0024B44293
:10CA90000CD205196F788F4203D10095FFF796FFEE
:10CAA00006E0055D01356419E4B2F0E7FFF770FFB9
:10CAB000FEBD70B5061C8AB00A360C1C2222311C41
:10CAC000051C01A806F066FB6A460121033201A895
:10CAD0000B1C1470FFF7D8FF041E0DD12B682A1C05
:10CAE00034329B6F281C01A99847041E04D1301CC6
:10CAF00001A9222206F04EFB201C0AB070BD70B5C1
:10CB00000123041C0370261CC018031C11360025C9
:10CB10001D700133B342FAD1012365822370AA420A
:10CB200008D10B1C10338B4207D0013B1A780270DE
:10CB30000130F8E7102206F036FBA37B627B1B0274
:10CB40001343201C638270BD10B500F063FE011C0E
:10CB500008C9041CDB6F9847002804D15834237897
:10CB600001221343237010BD08B50248FFF7ECFF04
:10CB700008BDC046E42A002008B500F03BFE806DE9
:10CB800008BDF7B51C1C08AB0E1C151C1F7800F067
:10CB900051FE03680097DF68311C2A1C231CB8472C
:10CBA000FEBD0000F0B5364C85B0201CFFF7E4FF59
:10CBB000830762D500F076FD324E334D3768334B34
:10CBC00080B2C01B30601870281CFFF761FDEB8D30
:10CBD0002F48039303802B8E2E4A36781380698E5C
:10CBE0002D4B2E4D0296039E19802968F6B2092717
:10CBF0000396022910DC7943294C6118029C4C7081
:10CC00004078CE7088705078127808714A715A78DE
:10CC10001B788A71CB7125E08E1E7743214EBC466E
:10CC2000371C029E67447E704078B8700398F87095
:10CC30005078127838717A715A781B78BA71FB7112
:10CC400003290FD1184F0026F98B154A132300969C
:10CC5000201CFFF796FFF98B201C0096114A132326
:10CC6000FFF78FFF2A68114B0132134004D50422CD
:10CC7000013B5242134301332B6005B0F0BDC04667
:10CC8000E42A0020042A00200C2A00203529002054
:10CC90001C2900201E29002020290020082A00200D
:10CCA000582900206B290020902A002003000080D2
:10CCB000F0B591B002AD07AC0021281C0C2206F0A3
:10CCC0008BFA2A1C231C43CA43C3544B0027211C44
:10CCD0005348E360276100F035FD391C0C22281C05
:10CCE00006F07AFA4E4800F095FD4E4E01900296FD
:10CCF000231C07CD07C3142006F0B6F90796031CC2
:10CD0000221C62CA62C3484B0761C360019B444E48
:10CD1000A4331A68BA4200D002611860301C00F0D7
:10CD200089FD00210C220190201C06F055FA1420E8
:10CD300006F09AF93D4A211C0792021CA8C9A8C214
:10CD40003B4A019DC26000220261AA69002A01D10A
:10CD5000A86102E0019F0261B861301C00F05AFD39
:10CD60000621FFF7A6FE301C00F054FD071C0A3711
:10CD7000391C2222051C201C06F00CFA201C08215C
:10CD80002C4A0723FFF780FE00280DD12B682A1CB0
:10CD900034329B6F281C211C9847002804D1381C72
:10CDA000211C222206F0F6F9301C00F033FD00248D
:10CDB0000471301C00F03EFD03681F491B68984752
:10CDC000301C00F027FD03681A495B6B9847301C44
:10CDD00000F020FD0368211C5B6C9847301C00F0BC
:10CDE00019FD0368041C9B689847A023984204D946
:10CDF0002368201C9B689847031CFA2080000F4979
:10CE0000584306F04DFEE080301C00F003FD002387
:10CE10000381301CFFF798FE11B0F0BD05C9010079
:10CE2000E42A002069CB010021C9010061C9010089
:10CE300013C90100F04402003829002071020000EB
:10CE400070B51E4C1E4E0025201C1E49A661E562D1
:10CE500002F0CBF80D20012100F02CFCFFF728FF99
:10CE60001948FFF7A3FBA84210D101210D2000F0C3
:10CE700049FCFA20400000F00EFC0D20002100F0DB
:10CE800041FCFA20400000F006FCEEE701210D20F5
:10CE900000F038FC0D4B1D6000F004FC0C4B0D4AFB
:10CEA00080B2186001231370FA210B4AA661E56273
:10CEB000201C4901137002F098F870BD80290020F1
:10CEC000A5CB0100102700000C2A0020082A002012
:10CED000042A0020582900206B29002010B5054C99
:10CEE000201CFFF749FE830702D4201C00F0B2FC8F
:10CEF00010BDC046E42A0020F0B5002187B051489B
:10CF000000F038FC5048FFF791F9504D0024281CE0
:10CF100002F08EF84E4B01AEAC61EC62281C4D491C
:10CF20004D4A2B6006F080F8221C301C4B49FFF75D
:10CF3000E6FD4B4D33786F1C2B70738A69466B820C
:10CF4000381C0531102206F025F9464B13226B617F
:10CF500001236B8308232A83FB770122AB1CDA773A
:10CF60002B1C28331C702B1C29330C271C70281CED
:10CF70002B1C2A77EC832A33211C3A1C2C306C6240
:10CF80001C7006F029F9384B281CAB63EC63211C9C
:10CF90003A1C403006F020F9344A2C65EA64301C13
:10CFA000221C3349FFF7ABFD324D337869462B70B5
:10CFB000738A05316B8210222F4806F0EBF82F4B55
:10CFC00001226B6113232B836A8301232A4A2B7767
:10CFD0001023D377AB1C0122DA772B1C28331C706B
:10CFE0002B1C29331C70281C2B1CEC832A33211C7E
:10CFF0003A1C2C306C621C7006F0EEF81A4B281CA0
:10D00000AB63EC63211C3A1C403006F0E5F8174A8C
:10D010002C65EA64301C221C1949FFF770FD194D7C
:10D02000337869462B70738A681C6B820531102235
:10D0300006F0B0F802232B75134BAC83AB6107B03D
:10D04000F0BDC046E42A00200C2A002080290020E0
:10D050008048020031C9010000280020E04402009D
:10D06000B029002022290020F7C80100E9C80100EA
:10D07000F8440200902A0020912A0020EC2A002087
:10D08000D044020038290020042800200848026803
:10D0900003210A4302600749074A084B9B1A03DD34
:10D0A000043BC858D050FBDC054880470548004782
:10D0B00024050040344D0200002800209428002060
:10D0C000D5D0010021C10100FEE7FEE7FEE7FEE743
:10D0D000FEE7FEE7334B10B51A78181C012A12D16F
:10D0E000314B1B6819070ED1304BF0221B68E0242E
:10D0F000191C1140234204D12D4B1B68134202D14D
:10D1000040E03029F8D00378012B0DD1264A12686F
:10D11000110709D1254A1168F0221140402903D195
:10D1200023490968114235D08023A321DB05012260
:10D13000C9005A501F49002088609A601E4B8A68B7
:10D14000002A2DD1C822C046C046C046C046C046AF
:10D15000C046C046C046C046C046C046C046C0469F
:10D16000C046013A002AEED1013B002BE7D18022D4
:10D17000A320D205C0001350012393608B68002BBD
:10D18000FCD00DE00D490E4A116080210D4A0902C4
:10D190001160B8E7C1228021D200C9058B50C3E7D6
:10D1A00010BDC046E00F00F0E40F00F0E80F00F003
:10D1B000EC0F00F0FC00004088130000DFFF07C008
:10D1C00004050040186C0040036800211A1CFC3262
:10D1D000916001215961064B9168002904D1013BFE
:10D1E000002BF9D1012002E000230373181C7047C3
:10D1F000A1860100084B0068C150084B021CFC329C
:10D20000116A002904D1013B002BF7D1012001E074
:10D21000002010627047C0461C050000A186010076
:10D2200010B50368002A03D0022080228240985063
:10D2300001221A62084A1C1CFC34E068002804D150
:10D24000013A002AF7D1012005E00020A322E06086
:10D25000D2009B580B7010BDA186010010B50B4C7D
:10D2600002680B4BA14204DC0A498160CC214904CD
:10D270000AE0094CA14203DC08498160802102E0F8
:10D2800007498160CD21C904D15010BD8FD0030062
:10D2900024050000A08601007F1A060090D003003C
:10D2A000801A0600F8B5E0256D00041C5619A02070
:10D2B000C025E027C005ED007F00B6003550CE192F
:10D2C000B60035502068A125ED004251054A815035
:10D2D000191C201CFFF7C2FF2268A0230521DB00D8
:10D2E000D150F8BD0C050000F8B52A4B0F1C197879
:10D2F000161CC9B2051C1A1C012909D15C78F8B2A8
:10D30000844205D19878F3B2984201D1697316E04E
:10D31000214908780B1C012807D14C78F8B28442C7
:10D3200003D18878F1B2884214D01178002908D14D
:10D330000123F9B213705170F1B291706B73174CF5
:10D3400010E01A78002A09D101221A70FAB25A7034
:10D35000F2B29A7002236B73114C03E0114803F090
:10D360008AFB0024201C00F035F9221C0023FC322B
:10D370006E712F712C609362A022D200A3500A4AD2
:10D38000281CA3500123A350391C321C074BFFF764
:10D3900089FFF8BDFF2A0020032B00200030004049
:10D3A0000040004008450200FC0F0000A08601007C
:10D3B00008B503680022191CFC318A62A021C9004B
:10D3C0005A5006495A5001225A500421052241560A
:10D3D00082568368FFF766FF08BDC046FC0F000059
:10D3E000036830B5191CFC318A6A0020012A08D173
:10D3F000044C1C5988625A610220A50700D4012000
:10D40000404230BDC4040000F7B51F1C0192036800
:10D41000B1224910D20099508021012289005A502E
:10D42000191CFC310026CE60051C1A607C1E019B75
:10D43000A64213DA9919281C0022FFF7F1FE0028F2
:10D440000AD0281CFFF7CCFF071C281CFFF7B0FFF1
:10D45000341C002F1ADA18E00136E7E71919281CE6
:10D460000122FFF7DDFE002803D0281CFFF7A0FFF4
:10D470000CE0089B3C1C002B08D029680B1CFC33DB
:10D480009A68002AFAD000229A603C1C201CFEBD3B
:10D49000F8B5171C1E1CB1220368D2004910995020
:10D4A0008022920000259D500122041C9A60B54202
:10D4B00011DA795D201CFFF79DFE002809D0201CA1
:10D4C000FFF776FF201CFFF78BFF00280EDA051C04
:10D4D0000CE00135EBE7069B351C002B06D0201C29
:10D4E000FFF772FE002801D001256D42281CF8BD0F
:10D4F00082B00190C046C046C046C046C046C04645
:10D50000C046C046C046C046C046C046C046C046EB
:10D51000019B013B0193002BECD102B0704700004E
:10D52000F0B5A023DB000022C158A024C250EE2297
:10D53000E405D200A35885B00293234B234E0191FA
:10D54000A350A15980220391A351A123DB0092058E
:10D55000E25080225205E250051C0420FFF7C8FF6C
:10D56000A223DB00E258910004D5E2580123120FF8
:10D570001A4217D11324013C002C15D0144BA026BD
:10D580008027F6057F05F7500420FFF7B1FFA123A0
:10D59000DB00F7500420FFF7ABFFA223DB00F358BA
:10D5A0009A00E8D5012000E0201C0299A023EE2279
:10D5B000DB05D20099500399044A9950019AA0239F
:10D5C000DB00EA5005B0F0BD0D0600007407000056
:10D5D0000C050000164AA023EE21DB05C90010B59A
:10D5E0005A5014495A50031CFC330022DA601A6264
:10D5F000A122D2001C2383500F4B1D21C1500F4B81
:10D60000CC214904C1509C235B00C418A2210C4BBF
:10D61000C9005C500B491D3CFF3C5C5001219950F6
:10D62000A0230522DB00C250FFF77AFF10BDC046E1
:10D630000C060000740700000C0500002405000023
:10D6400000F0014014050000F8B5061C0C1C8F18F2
:10D650000025BC4207D0336821781B68301C9847EE
:10D6600001342D18F5E7281CF8BD0000FF230E2813
:10D6700001D8024B1B5C58B27047C04619450200E6
:10D6800038B5041C03F0F0FB051C03F0EDFB401B58
:10D69000A042FAD338BD08B5FA239B005843FFF7E0
:10D6A000EFFF08BD08B503F0DFFBFA21890006F0A3
:10D6B000F7F908BD30B587B00C1CFFF7D7FF051C84
:10D6C000431C04D10D480E490F2203F077F96B4635
:10D6D0001D70012C06D0002C04D0022C0BD100218F
:10D6E000032501E0211C0025684603F0A1FA6846E5
:10D6F000291C03F097FA07B030BDC0462845020048
:10D700003F45020038B50D1CFFF7B0FF041C431C59
:10D7100004D109480949232203F050F90122A0232A
:10D72000A240DB05141C002D02D0A121C90000E09D
:10D7300003495C5038BDC046284502003F45020001
:10D740000C050000F0B5021C406812680B1C016853
:10D7500089B00C68019203AA151C1E1CA44692CE27
:10D7600092C5DB680199D36000231361E04709B0DB
:10D77000F0BD000038B50023041C016043609942ED
:10D780000AD1064D2B68002B02D100F051FD286014
:10D7900022689300ED586560201C38BD142B0020D2
:10D7A000F8B500280DD1104C2668002E07D10820AE
:10D7B00005F05AFC311C051CFFF7DCFF25602068D2
:10D7C00010E00A4D01272E68094C3E4009D1281C63
:10D7D00005F037FC002804D0281C2760666005F09F
:10D7E0003FFC201CF8BDC046082B0020182B002051
:10D7F0000C2B0020436810B5041C002B02D10448F8
:10D8000003F039F9606803681B69984710BDC0468A
:10D81000AE450200436810B5041C002B02D1044839
:10D8200003F029F9606803681B69984710BDC0467A
:10D83000AE450200436810B5041C002B02D1044819
:10D8400003F019F9606803689B69984710BDC046EA
:10D85000AE450200436810B5041C002B02D10448F9
:10D8600003F009F960680368DB6A984710BDC04699
:10D87000AE4502007047022070470220704700202A
:10D88000704700207047000000487047FFFF00000D
:10D890000220704702207047022070470220704724
:10D8A0000220704702207047022070470220704714
:10D8B0000220704702207047022070470220704704
:10D8C0000220704700231360704700207047022039
:10D8D00070470220704702207047022070470220E4
:10D8E00070470020704700207047002070470220DA
:10D8F0007047022070474160704781607047C16087
:10D9000070470161704741617047022070470220F3
:10D9100070470220704702207047022070470220A3
:10D920007047022070470020704702207047002097
:10D930007047704790DF704766DF704748DF704779
:10D940005F300078431E9841C0B27047007970473D
:10D950000C3070470C30704708B5FFF7EFFF08BD7B
:10D9600008B50368002B01D0081C984708BD08B50E
:10D970000368002B01D0081C984708BD08B5036850
:10D98000002B01D0081C984708BD08B50368002B80
:10D9900001D0081C984708BD08B50368002B01D0CA
:10D9A000081C984708BD000010B5034B041C036019
:10D9B000FEF7BEFF201C10BD9848020010B5041CE5
:10D9C000FFF7F2FF201C05F036FB201C10BD08B548
:10D9D000081C111C1A1C029B01F0F8F908BD08B5BF
:10D9E000081C111C01F06CFA08BD08B5081C111CBC
:10D9F00001F08CFA08BD08B501F04EFA08BDF0B58B
:10DA000095B008230C1C69460B7104AA0B73684679
:10DA10000CAB0293009201F09FFA0023061C051E36
:10DA20002CD169460B79AB4211D96379AB4201D84D
:10DA3000257124E00722101C68432368009F1818F2
:10DA4000AB00D959013505F0A5FBEDB2E9E7257129
:10DA500000256B461A7B2379EB18AA420ED962790E
:10DA600093420BDA0721029F4B43AA00D059226848
:10DA70000135D11801F08CFAEDB2EAE72371301CC0
:10DA800015B0F0BD7FB50379002B0FD0164E174CA3
:10DA90003378201C002B25D102AD281CFFF74CFF4A
:10DAA000002819D16B88592B16D101E0104819E0D4
:10DAB0002B78AA88D91F012904D80092201C202184
:10DAC0000C4A03E000920C4A201C202105F086FC41
:10DAD00001233370201C05E0201C0849202205F09A
:10DAE000B6FCF7E704B070BD1C2B0020602C0020B2
:10DAF000C0470200DA470200F74702001C48020054
:10DB000038B50379041C0920002B28D002F024FF2B
:10DB1000031C0520002B22D1251CFC35A86B0028F6
:10DB200003D1286C002806D10AE003681B6A9847D5
:10DB30000028F6D013E003689B6A984700280ED1AE
:10DB4000E86B002804D00368DB6A9847002806D1F8
:10DB5000201C0C3003F0CEFE002800D1207138BD0F
:10DB6000F7B50093036801915B68041C171C984784
:10DB7000051C0620002D3BD11C203A1C00194ACA66
:10DB80004AC0FF68009A231CA762E562443383CA37
:10DB900083C3009B0899DB68142223656565A01D7B
:10DBA00005F0F8FA201C09991422303005F0F2FA39
:10DBB000019E231C5D33A680013B5D700121301C5A
:10DBC0001D70D9702A1CFFF7B5FE061C281C002EFC
:10DBD0000ED02368201C9B689847112E07D0054B58
:10DBE0009E4202D00620072E02D1042000E005202C
:10DBF000FEBDC0460230000038B5041CE369236254
:10DC0000206A002807D0C368211C9847236A002B8C
:10DC1000F4D01B69F3E7E069002804D0056905F03A
:10DC20000AFA281CF8E7E0616060A060E06020610B
:10DC3000606138BD08B5FFF7DFFF002800D006207F
:10DC400008BD38B5041C0068002804D0056905F03B
:10DC5000F2F9281CF8E7206038BD000010B5034A2F
:10DC6000041C04C0FFF7EDFF201C10BDD0460200CD
:10DC700010B5041CFFF7F2FF201C05F0DCF9201C96
:10DC800010BD38B5041C0068002804D0056905F0F3
:10DC9000D2F9281CF8E7206038BD000010B5034A0F
:10DCA000041C04C0FFF7EDFF201C10BDE04602007D
:10DCB00010B5041CFFF7F2FF201C05F0BCF9201C76
:10DCC00010BD000038B5074B041C036040680028F5
:10DCD00004D0056905F0AFF9281CF8E76060201C46
:10DCE00038BDC046F046020010B5041CFFF7EAFF3D
:10DCF000201C05F0A0F9201C10BD000038B5074B12
:10DD0000041C03604068002804D0056905F093F9FD
:10DD1000281CF8E76060201C38BDC046C0460200E1
:10DD200010B5041CFFF7EAFF201C05F084F9201C45
:10DD300010BD000038B5074B041C03604068002884
:10DD400004D0056905F077F9281CF8E76060201C0D
:10DD500038BDC0466047020010B5041CFFF7EAFF5B
:10DD6000201C05F068F9201C10BD000038B5074BD9
:10DD7000041C03604068002804D0056905F05BF9C5
:10DD8000281CF8E76060201C38BDC04650470200E0
:10DD900010B5041CFFF7EAFF201C05F04CF9201C0D
:10DDA00010BD000038B5074B041C03604068002814
:10DDB00004D0056905F03FF9281CF8E76060201CD5
:10DDC00038BDC0461046020010B5041CFFF7EAFF3C
:10DDD000201C05F030F9201C10BD000038B5074BA1
:10DDE000041C03604068002804D0056905F023F98D
:10DDF000281CF8E76060201C38BDC046E0450200E2
:10DE000010B5041CFFF7EAFF201C05F014F9201CD4
:10DE100010BD000038B5074B041C036040680028A3
:10DE200004D0056905F007F9281CF8E76060201C9C
:10DE300038BDC046F045020010B5041CFFF7EAFFEC
:10DE4000201C05F0F8F8201C10BD000038B5074B69
:10DE5000041C03604068002804D0056905F0EBF855
:10DE6000281CF8E76060201C38BDC0460046020050
:10DE700010B5041CFFF7EAFF201C05F0DCF8201C9D
:10DE800010BD000038B5074B041C03604068002833
:10DE900004D0056905F0CFF8281CF8E76060201C65
:10DEA00038BDC046B046020010B5041CFFF7EAFFBB
:10DEB000201C05F0C0F8201C10BD00000F4B10B551
:10DEC000083303600E4B041CC3600130FF30FFF7C2
:10DED0006BFD0C4B201CE360B830FFF763FF201C88
:10DEE000AC30FFF7B3FF201CA030FFF793FF201CDE
:10DEF0006C30FFF773FF201C10BDC046284802009D
:10DF0000904B02002046020010B5041CFFF7D6FF1C
:10DF1000201C05F090F8201C10BD000038B5051C31
:10DF2000FC352C6C002C0DD1242005F09DF8064BFF
:10DF300044608361054B8460C46004614461C461D2
:10DF400003602864286C38BDB04602009047020088
:10DF500038B5051CFC352C6C002C0DD1242005F0A7
:10DF600083F8064B44608361054B8460C4600461A0
:10DF70004461C46103602864286C38BDB046020067
:10DF800090470200F7B50379071C0E1C151C002BE7
:10DF900006D00023019300930A246B461C7109E00C
:10DFA00000F0B0FC041C0C20002C0CD101233B71B0
:10DFB00000940194301CFFF7F3FBEB680090694676
:10DFC000281C9847201CFEBD10B500211F22041CF0
:10DFD00005F002F90023E37710BD0000F0B5051C41
:10DFE000AC35041C686887B0A860A86800280BD00E
:10DFF000C368211C9847AB68002B02D16968A960EF
:10E00000F3E71B69AB60F0E7251CB03528680028F2
:10E0100004D0066905F00FF8301CF8E7231C5833CC
:10E020001978FC220A402860023B9A709871187097
:10E03000201C0A30FFF7C8FF201C3430FFF7C4FF54
:10E04000606E002804D0056904F0F5FF281CF8E78D
:10E05000251C606698352868002804D0066904F0FD
:10E06000EAFF301CF8E7261C2860A4363568002D2E
:10E0700005D02F69281C04F0DEFF3D1CF7E7356052
:10E0800001AE291C301C0C2205F0A6F8231C321C02
:10E090006C3383CA83C3094BE567A3670C22301C2A
:10E0A000291C05F099F8231C803385CE85C3044ACA
:10E0B0009034281C1A60256007B0F0BD6FD90100AC
:10E0C00061D9010010B50023021C03701132431CFA
:10E0D00000241C7001339342FAD1418210BD00002C
:10E0E000F0B589B0002603AC051C8680311C201CCD
:10E0F000FFF7E8FF211CA81D142205F04BF82F1C88
:10E10000311C0C22201C05F067F81C37201C0EC89F
:10E110000EC70F4B311C0190AB62EE62201CFFF763
:10E12000D1FF2B1C221C303383CA83C3019A311CBC
:10E1300081CA81C30C22201C05F04EF82B1C4433ED
:10E1400086CC86C3034B301C2B656E6509B0F0BDD1
:10E150008BD9010099D90100F0B597B005930368F8
:10E1600007AC1B6804910393111C231C061CA1C956
:10E17000A1C3D26800250A92291C0C220CA811AF59
:10E180000B9505F029F8094B291C381C10950F93A5
:10E19000FFF798FF059D01970095301C0499221CFC
:10E1A0000CAB039FB84717B0F0BDC04699D901002A
:10E1B00038B50025041C291C20C0FFF783FF2576F5
:10E1C0006583A583E5832584201C38BD10B58AB0FE
:10E1D000041C0021242201A804F0FEFF01A8FFF77F
:10E1E000E7FFCA235B002222E01801A904F0D2FF56
:10E1F0002368201C5B689847231C5F3300221A7039
:10E2000090420DD0C0235B00E358934208D0054BE9
:10E21000934205D0C0235B00E018A188C3689847EB
:10E220000AB010BD75D8010008B5FFF7CFFF08BDD3
:10E2300000487047202B002000487047202B00200A
:10E24000F0B5434B434A0833061C0360C260002309
:10E25000A0221636011C428285B0041C0371836023
:10E2600003748382321C35310023137001328A42D9
:10E27000FAD180258021C901AD00201CF3770A1C4A
:10E2800035843830009302F009FF221C4032211CF3
:10E290000392131C5F312A1C00251D7001338B4231
:10E2A000FAD1039B201CDD77231C603319791A8077
:10E2B000FC220A409D701A711D72274B291CE366CF
:10E2C00025670C22783004F087FF231C88331D60FB
:10E2D000271C224B0837FB678437291C381C0C226B
:10E2E00004F07AFF1E4B1F4AFB60231CA0333D61E4
:10E2F0001A601D4A5D60DA601C4A1D619A61DD6129
:10E30000301CFFF761FE0398FFF75EFE184B601CA0
:10E31000E360231CC4331D705D709D70FF3000F0FE
:10E3200087FE8C235B00E5508C235B00E3185D6166
:10E33000104A80235B00E250231C0122FE3352422C
:10E340005A86201C023B9D63DD631D6405B0F0BD51
:10E350002848020020460200E04502006FD9010073
:10E3600061D90100F045020000460200104602009B
:10E37000904B02009848020038B50C220D1C002179
:10E38000041C04F029FF00232361024B2560201C9C
:10E39000E36038BD7DD90100314B70B50025041C08
:10E3A0000E1C036085710583291C0C221C3004F0AF
:10E3B00013FF2C4BE562A362231C30331D70201C1D
:10E3C000231DDD87291C44300C2204F005FF264B59
:10E3D00065652365254BA6652360231C5C331D7092
:10E3E0005D709D70DD70261C251C6035C036281CB4
:10E3F0000021FFF767FE0023AB82EB821835B542A0
:10E40000F5D1A8225200A618281C0021242204F0CD
:10E41000E3FE281C2435FFF7CBFEB542F4D1A82338
:10E4200000215B00E150B422231CFC3352009965AB
:10E43000D965196659666C61A15019675967996762
:10E44000D967A3185C61C0235B00E018FFF794FF55
:10E45000CA225200A018FFF7ABFE201C70BDC046B8
:10E46000304702008BD9010099D9010070470200A2
:10E4700070B5061CFC36F56B002D1CD1B420800055
:10E4800004F0F2FD0D4B041C43600D4B85600361ED
:10E490000C4B4561C3610C4B056283620B4BC5623B
:10E4A0000360211C3430FFF777FFF6235B00E01890
:10E4B00002F0D0FEF463F06B70BDC046E04602008F
:10E4C000D04602005047020060470200204C020084
:10E4D000264B70B50360264B00258360254B041C3A
:10E4E0004361254B05710362244B4571C362C560CE
:10E4F000856145620563291C3830FFF73DFF201C0C
:10E50000291C4C30FFF738FF201C291C6030FFF716
:10E5100033FF1B4B251C2360231C7435C43300229E
:10E5200004C59D42FBD1B22149006618281C002178
:10E530000822083504F050FEB542F7D1C2235B0033
:10E54000E218002308C59542FBD1C222C321520024
:10E550004900A3546318CB21490062180021198097
:10E5600002339342FAD1201C70BDC046004702001E
:10E57000C0460200D0460200E0460200F04602001B
:10E58000604C020038B5041CFC34A36B002B07D18F
:10E59000CC20400004F068FD051CFFF799FFA5633F
:10E5A000A06B38BD38B5041CFC34A36B002B07D11D
:10E5B000CC20400004F058FD051CFFF789FFA5633F
:10E5C000A06B38BD70B5031C0A1C70CA70C3C96843
:10E5D0000023C160036170BD08B58130FF30FFF7D3
:10E5E000F1FF08BD30B587B0051CFFF779FD041EAB
:10E5F00024D12B1C5C33187058709870D870A823E5
:10E600005B00E850EA1801235B4253609360D360DB
:10E610001361B4225200A850B4225200AA18211C3F
:10E6200053609360D360136101A8FFF7A5FEC0217A
:10E630004900681801A9FFF7C5FF00E00624201C67
:10E6400007B030BD70B5041C86B0236B6363606B8C
:10E65000002807D0C368211C9847636B002BF4D0B7
:10E660001B69F3E7206B002804D0056904F0E3FC84
:10E67000281CF8E7E568206320716071002D05D043
:10E680002E69281C04F0D7FC351CF7E7201CE56038
:10E690001830FFF7D6FA201C2430FFF7F2FA291CB5
:10E6A00001A8FFF769FE201C01A93830FFF78AFF97
:10E6B000291C01A8FFF760FE201C01A94C30FFF7C0
:10E6C00081FF291C01A8FFF757FE201C01A960301B
:10E6D000FFF778FF281C06B070BD000010B5054C90
:10E6E000201CFFF7ADFD201C0349044A04F09CFCEC
:10E6F00010BDC046202B0020BDDE010000280020F8
:10E7000070DF704771DF704760DF704708B501F058
:10E710008DFE08BD08B502F0A5F8002008BD000078
:10E72000F0B5041C8BB001F09BF8201C00F002FA3D
:10E730000020FFF781FD0368061C1B6998473368BA
:10E74000051C9B69301C9847336801905B6A301C3C
:10E750009847031C208810380B2800D9C8E005F022
:10E7600095F90643C7C7C782C7C7C789C7A7A68881
:10E77000281C311C277D03F0D0F8607B2B1C5833FC
:10E78000009018780122904302221043A179023BA5
:10E790009870187806220130187000986B46D9746A
:10E7A00098761E829F74231C1633E11D05A80993D9
:10E7B00004F0F0FC6846211C0E3194351B30062213
:10E7C00004F0E8FC6968A960A868002800D18FE01F
:10E7D000C36804A99847AB68002B02D16A68AA6095
:10E7E000F2E71B69AB60EFE74449281CA78803F0F8
:10E7F00094F8A379301C009333681B6A9847F6217C
:10E800004900061C06224018391C02F01FFE338FF7
:10E81000BB4204D1736B301C34309B6898472A1C70
:10E8200056321378013BDBB21370002B05D12B1C41
:10E8300058331A7802218A431A70A035009B686801
:10E840006A4617829374A860A868002850D0C368ED
:10E8500004A99847AB68002B02D16968A960F3E767
:10E860001B69AB60F0E75B69A088A11D002B3FD05E
:10E8700098473DE0A679002E05D12B1C58331A7815
:10E8800001218A431A706B6E002B31D01C4A002A7A
:10E890002ED0AB66A86E00282AD0C368311C9847DA
:10E8A000AB6E002B02D16A6EAA66F3E71B69F0E734
:10E8B000A37B68465A07910FDA08677B01700272E2
:10E8C000E11D04A80622DE0704F064FC6B461878FC
:10E8D000197AF60F187659769F75DE75231C0F335B
:10E8E00007932B1C8C33281C80301B6804A9984785
:10E8F0000198211C03F020FD0BB0F0BDFFFF0000CC
:10E9000075D801001FB5A3238022DB00D205D358A0
:10E910000D20DA0700D508201C4948221C4B01F0C5
:10E92000F7FF00280BD080B2002808D1BFF34F8F2B
:10E93000184A194BDA60BFF34F8FC046FDE700233A
:10E9400002A80293436001230370FFF7DDFE002855
:10E9500001D0072017E06846FFF7D4FE0028F8D161
:10E960006946FFF7CDFE0028F3D10C4802F000F80D
:10E9700080B2002807D10A4802F004F880B20028CB
:10E9800001D100F099F905B000BDC046802C0020EF
:10E9900015E701000400FA0500ED00E021E70100A1
:10E9A0000DE701007047000080B2002808D1BFF3D6
:10E9B0004F8F044A044BDA60BFF34F8FC046FDE728
:10E9C0007047C0460400FA0500ED00E010B502787B
:10E9D000002A09D10C78131C002C13D1428A4B8ACF
:10E9E000D31A5A4253410CE00023012A0AD10A7873
:10E9F000012A07D101300131102204F0BCFB43424F
:10EA00004341DBB2181C10BDF0B50E1C011C5F3178
:10EA100091B001910B78071C051C5C37022B7BD150
:10EA200007AC24220021201C04F0D6FB08A80021FA
:10EA3000FFF748FB002323766383A383E3832384C8
:10EA4000CA235B00EB58079A934217D1CC235B0093
:10EA5000E81808A9FFF7BAFF00280FD0CA2149001B
:10EA60006B181A7E510609D15A8B002A06D1DA6931
:10EA7000E1698A4202D11B8C002B4AD0002E32D190
:10EA80003B78182253436033EB18DA8AD9235B00B2
:10EA9000EA522A1C3032311C02A80092FFF712FB06
:10EAA000009802A9FFF792FF002814D1CC235B0045
:10EAB0000098E918FFF78AFF002814D0311C201CA9
:10EAC000FFF700FBA81D211CFFF780FF0123584022
:10EAD000C0B2002807D0696C281C4430002902D03D
:10EAE000134B002B1DD124220021201C04F074FBA9
:10EAF000002108A8FFF7E6FACA2252000023A8184E
:10EB0000211C222223766383A383E383238404F0DE
:10EB100041FB019901230B703B7801333B7011B02D
:10EB2000F0BDCA225200A9182B6D9847DBE7C046FA
:10EB300075D801007FB5051C0020FFF77DFB036839
:10EB4000041C1B6998472368201C1B6A9847061CF5
:10EB5000041C288834363038082800D99AE004F09C
:10EB600095FF05991384212D99486500EB88002BAA
:10EB700005D1291C0C31301C03F072FD8AE0636B57
:10EB8000301C9B68984785E0EB88002B05D1291C39
:10EB90000C31301C03F0E6FD7CE0301C0021FFF757
:10EBA00033FF77E0636B301C5B689847002871D0B7
:10EBB000291C0C31301C03F033FE6BE0AB886A4635
:10EBC0001380AB895380EB8993802B8A1235029591
:10EBD000D380A368E360E06800285BD0C36869461F
:10EBE0009847E368002B02D1A268E260F3E71B6953
:10EBF000F0E7AB886A461380AB895380AB7B137117
:10EC00002B8AD3806B8A1435039513816369A361C2
:10EC1000A06900283ED0C36869469847A369002BC5
:10EC200002D16269A261F3E71B69F0E7AB886A462B
:10EC30001380AB895380AB7B13712B8A12350295FD
:10EC4000D380236A002B25D0164A002A22D0636283
:10EC5000606A00281ED0C36869469847636A002B23
:10EC600001D1236AF3E71B69F1E7F622EB88520032
:10EC7000A018A988002B05D085225200934206D106
:10EC8000002205E02A1C0C3202F0F3FB02E00B220A
:10EC900002F0DCFB301C03F0DBFE301C03F056FE00
:10ECA0007FBDC04675D8010077DF704778DF7047B9
:10ECB0007ADF70477CDF70471FB5002302AC0393F7
:10ECC00028232380C8235B006380E38001A81123ED
:10ECD0000C4905220370FFF7EDFF80B200280FD129
:10ECE00080208000FFF7E2FF80B2002808D1201CBE
:10ECF000FFF7DEFF80B2002802D1FFF7D5FF80B218
:10ED000004B010BD684802007EDF704768DF7047BE
:10ED100038B500200C1CFFF78FFA03685B6A984730
:10ED20002378051C142B17D002D8132B05D042E0F2
:10ED3000152B16D0222B38D03DE063686C681888FC
:10ED40009B78D9079A07C90FDB06C9B2D20F5B0FB0
:10ED5000002C30D0A0472EE0636818889978AB6803
:10ED60001FE0626891780B090907090F012902D099
:10ED7000022908D010E0013BDBB20021022B0ED8A3
:10ED80000E49C95C0BE0012B08D0023B58424341BD
:10ED900005215B42194002E0002100E004211088B7
:10EDA000EB68002B07D0984705E0636818882B694B
:10EDB000002B00D09847002038BDC0466E480200A6
:10EDC000014B18787047C046C92C0020F0B51C1CB8
:10EDD0002D4B87B001921A78071C00200D1C82422F
:10EDE00050D101F055FB002846D1002C0FD0222035
:10EDF00003A90394FFF78AFF002808D0082804D04D
:10EE000011384342584104303CE006203AE00023E8
:10EE10006846037202A800F099FB011E2CD11B4E1C
:10EE2000012433782540A3436A0027401D1C3D433D
:10EE3000019B02270720BD43034015431C22BB4012
:10EE400095431D43357003AD0C22281C04F0C4F912
:10EE50000F4B6846311C0522113003932F7104F0CB
:10EE600099F90C48291C00F0E3FB031E06D0042886
:10EE700007D00620082B05D00B2003E0024A1470AF
:10EE800000E0072007B0F0BDC92C00200C280020AE
:10EE900011ED0100C82C002008B5084800F090FCD6
:10EEA0000023984207D0042804D00623082802D063
:10EEB0000B2300E00723181C08BDC046C82C002007
:10EEC00073B500230193104B01AD1B780E1C291C58
:10EED0002B7000F089FE041E04D00B23052810D1EE
:10EEE00004230EE0281C311C00F0DCFB231C00284E
:10EEF00007D0042804D00623082802D00B2300E002
:10EF00000723181C76BDC046C82C002073B5114CD1
:10EF10000D1C061C211C6846052204F03BF9012D3E
:10EF200006D0022D13D1237801221343AB4303E013
:10EF300023780222AB439343301C69462370FFF7CA
:10EF4000E3FE421E90410B234042034000E00223B7
:10EF5000181C76BD0C28002008B5094B011C1A7836
:10EF60000923002A09D0074800F0D4FB0023984267
:10EF700003D006230E2800D10323181C08BDC04669
:10EF8000C92C0020C82C002008B500F07CFE08BD6C
:10EF900008B502230B708E230B714F234B710A1C93
:10EFA0007C238B710132043100F044FE08BD4368BC
:10EFB000426910B5D118041C00F050F8E36A002B28
:10EFC00004D1A369002B07D0984705E0A069002869
:10EFD00002D0211C1C31984710BD10B5041C00F054
:10EFE00045F80023A361E36210BD38B50D1C041C75
:10EFF00000F03CF86561206901F0D9FD4119201C41
:10F0000000F02CF838BD08B5C36A011C002B04D1F0
:10F010008369002B06D0984704E08069002801D05E
:10F020001C31984708BD08B503689B68984708BD20
:10F03000084B10B508330360002343608360C3604E
:10F04000041C01F0B9FD0449206101F04BFD201CB6
:10F0500010BDC046A848020027F0010008B50A1CF0
:10F06000031C011D006901F069FD08BD08B5011C04
:10F070000431006901F07EFD08BD000010B5044BAD
:10F08000041C08330360FFF7F1FF201C10BDC046CD
:10F09000A848020010B5041CFFF7F0FF201C03F085
:10F0A000CAFF201C10BD08B5012004F009F8704704
:10F0B000704708B5FFF7FCFFFFF7F9FF01F074FF99
:10F0C00008BD0000084B1B681818EFF30882904237
:10F0D00005D3064B0C2201201A60404202E0024A8E
:10F0E0001060181C7047C04614280020A02E002075
:10F0F00008B5002800D1FEE701F084FCFBE77FDFC4
:10F10000704782DF7047A7DF7047A9DF7047AADF2B
:10F110007047002070470020704700207047002093
:10F1200070470020704700207047002070470000A3
:10F13000F0B58BB06C460E23E382039001914B78BF
:10F140000C225343244A1634D318188906A9221CCA
:10F150000323FFF7DCFF00283BD1019B18275B78D6
:10F160001E4D5F4300933B1C26880833EB18181C88
:10F1700006A9321C029303F0FEFF2C1C00280DD1BF
:10F18000009A0C235343144AD318997A0223194046
:10F190001FD1E819182204F01FF81AE0ED196B6866
:10F1A000002B01D00E4F00E00E4F009B18256B4343
:10F1B0000322E250E3185E6006A9321C029803F0B5
:10F1C000E9FF019B039859782A1C69433823611889
:10F1D000B84700200BB0F0BDCE2C0020302D002011
:10F1E000A50602002506020008B5FFF7A1FF08BD2D
:10F1F000F7B5041C0F1C6A468178224801F0EAF931
:10F2000000283DD162780C214A431F4B9A18927A0C
:10F21000530605D4022F03D0012F03D11B4D02E06A
:10F220001B4D00E01B4DA1781C2671431A4B68460C
:10F230005918321C0023A847002813D1022F1FD0D1
:10F2400063780C225343104A4021D3189A7A6846B7
:10F250008A439A726178114B7143321C5918331CDE
:10F26000A84701E0022F0BD023780C2253430C4A0D
:10F270006846D3189A7A0B4B9200D358211C9847B2
:10F28000F7BDC046582D0020CE2C002025060200D8
:10F29000A506020013F10100DC2C0020142D002033
:10F2A000482D0020D0480200F7B50190437818217E
:10F2B0005943264A264F50184468002C0FD00C2082
:10F2C00058433818807A45B2002D07DA450605D430
:10F2D0000E1C0836A5B296198C5802E00024251C95
:10F2E000261C0C225343FB181889311C2A1C231C92
:10F2F000FFF70BFF0B280BD1019A311C53780C221E
:10F300005343FB1818892A1C0123FFF7FEFE012432
:10F31000002800D00F48012C17D1019D0C216B78DB
:10F320000D4A4B43FB181889FFF7EDFE00280CD05F
:10F330000A4B984208D0082806D0094B984203D0BF
:10F34000112801D0002000E00248FEBD302D002031
:10F35000CE2C002041800000FFFF000002300000A2
:10F360000430000008B5FFF79FFF08BD70B5031C0F
:10F37000487818246043094D0E1C2818191C221CBB
:10F38000382301F0CFF9002806D173785C432D199A
:10F390006B68013300D1686070BDC046302D00201D
:10F3A00008B5FFF7E3FF08BDF0B51D1C434B161C65
:10F3B0001A6893B001900F1C002A7CD0189854282A
:10F3C00079D803ABFF22002469465A709A70DA702C
:10F3D0001C700C760B950A90A1B2394804AA01F072
:10F3E000F9F8002809D1019804A9082203F0C3FE06
:10F3F000002802D103AB9C7002E00134022CEBD157
:10F4000003ACA278FF2A56D0032F0AD1189A06AB74
:10F41000542A01D1202200E040221A701A780321D8
:10F420003BE0284BEB1A372B11D8274B002E04D189
:10F4300001211868914008423DD0012191400A1CE9
:10F44000196891431960202206AB1A7020E01F4B07
:10F45000EB1A1B2B09D806AB20221A70002363700D
:10F460000CAB0B9318230A9312E019482D1A172D91
:10F4700021D830236A461376002363700123E3709A
:10F48000144B997A0223194002D1182203F0A4FEEA
:10F4900006AB022F0CD11A7801210A4307481A70D3
:10F4A00009AB079306A90368321C201C984702E0A9
:10F4B0001A780221F1E713B0F0BDC046482D0020B4
:10F4C000582D0020DC2C0020542D0020142D00206D
:10F4D000302D0020CE2C002070B51C2444430E4E4D
:10F4E000051C3019002134190622113003F074FE76
:10F4F000201C0021102203F06FFEFF232374A3764B
:10F5000001235B4223830122044BAA40151C1A6885
:10F51000AA431A6070BDC046DC2C0020542D002088
:10F5200037B581B2051C6A46074801F053F8041E3E
:10F5300008D16846542101F03FF9041E02D1281C6D
:10F54000FFF7CAFF201C3EBD582D0020F0B5061C59
:10F5500085B0002857D02D4B2D48012500246F423F
:10F560001C605C729C72211C0781C7720722857225
:10F5700003F032FE211C1822264803F02DFE201C29
:10F58000FFF7AAFF244CFF23281C2370FFF7A4FFDA
:10F590006A46542367709380204C0223D380204B0B
:10F5A0006846211C009300F0B5FF271C00282BD1D2
:10F5B0001C4A33781570151C002B1BD11C1CA1B2E2
:10F5C000381C02AA01F006F8061E0CD11C22131CDE
:10F5D0006343154802A9C018331C01F0A3F80028A2
:10F5E00004D02E7010E000232B700DE00134022CAB
:10F5F0000AD0E4E76B46D9889B88201C594389B21E
:10F6000001F0DAF800E0094805B0F0BD482D00200F
:10F61000CE2C0020302D0020CA2C0020582D002098
:10F62000A9F30100CC2C0020DC2C00200E8000006F
:10F63000F8B5174B071C1B780D1C002B22D0002897
:10F6400022D0002920D00B68002B1DD0114C266839
:10F65000002E1BD1201C08C00531052203F09AFDA5
:10F66000207A2B79012188430222A37210430423BC
:10F6700098432072E07901430A439A43E271301CB7
:10F680003E7004E0044802E0044800E00448F8BD8D
:10F69000CC2C0020482D0020088000000E800000A7
:10F6A00004800000154B1B78002B22D000281ED0B0
:10F6B00000291CD00378002B1BD1114B1B68002B99
:10F6C00017D04278002A16D10E4B9B7A012B12D00C
:10F6D0002420184003D001230B70101C0CE05BB2F7
:10F6E000002B02DA02230B7006E0087004E00648E3
:10F6F00002E0064800E006487047C046CC2C0020D7
:10F70000482D0020CE2C00200E8000000880000034
:10F7100010800000234BF0B51B78002B25D000286B
:10F7200021D000291FD00B68002B1CD08D68002D24
:10F7300019D00378002B18D11B4A1268002A14D064
:10F740001A481A1C10301C1C194DEE7AB3420ED107
:10F75000AD7AAE070BD501331C30022BF4D10C71FE
:10F760000A7300201CE013481AE0134818E00D7BD0
:10F77000AA420AD2857AEE0707D4061C8F68950044
:10F78000103EEE510D4DAB5401320D79AC42E2D238
:10F79000857AAE07DFD40F68A500E8510134DAE7B7
:10F7A000F0BDC046CC2C0020482D0020DC2C0020D1
:10F7B000CE2C00200E80000008800000CA2C002003
:10F7C000104B10B51B78002B19D0002815D00078ED
:10F7D000002814D10C4B1B68002B10D00B4B9A7EC9
:10F7E0001C1CFF2A01D0FFF79BFE36342378FF2B29
:10F7F00006D00120FFF794FE02E0054800E005482E
:10F8000010BDC046CC2C0020482D0020DC2C002050
:10F810000E8000000880000013B5041C81786A4641
:10F820000B4800F0D7FE002810D160781C23584305
:10F83000084A694610181A1C00F074FF064B684607
:10F840009A7A064B9200D358211C984713BDC046A4
:10F85000582D0020142D0020482D0020E0480200E3
:10F86000F0B5C64A8FB01278FF23061C0393002A16
:10F8700000D1B4E1C24A1168002900D1AFE104AD62
:10F8800005AF6B70AB70EB70031D7B602A233B816F
:10F89000038800222A70BB4C102B22D0A17A8288C8
:10F8A0000191890707D5B8498A4200D149E12189E8
:10F8B000914200D145E1172B00D1ACE007D8132BC2
:10F8C00053D0142B2DD0112B00D088E10FE01C2B2E
:10F8D00000D11CE1522B00D111E1182B00D07EE1A8
:10F8E000E5E0A37A01210B4200D02FE177E10199F5
:10F8F0000223019A9943A172120707D54BB2002B3C
:10F900000BDA281C0021FFF773FC06E0A878FF281B
:10F9100003D0FFF7E1FDFF23AB701023A372122386
:10F92000F6E0E37A994FFF2B14D1F3893A8B9A4290
:10F9300004D0BA8E9A420DD1012300E00023019930
:10F94000082203930A43DBB2E372A272281CAB7055
:10F95000FFF762FFE37A0021FF2B00D08C49B088CB
:10F960003A1C0023FFF7CDFB39E1019A3B700423D9
:10F970001343A372E37AFF2B25D184498B7EFF2B9F
:10F9800006D00B1C36331B780127FF2B29D100E052
:10F99000002723781C207843022B09D07B4AFD23C3
:10F9A00010188376211C0722103003F0F3FB03E0CC
:10F9B000764B1818FE23837603AB1F700399CBB2E6
:10F9C000AB70E3720BE0734816230E22083000215F
:10F9D0003B7003F001FC019A44231343A3720024FB
:10F9E00000E06D4C0021674B0B91DB7A1C225343E6
:10F9F000664A0D91D3180C93654B614A089309919F
:10FA00000A91B088043208ABFFF779FB002800D0D8
:10FA1000E5E0221C7EE05A4901224B7A9343019A89
:10FA20004B7204239A431423A2723B70B379002BC8
:10FA300004D0E07AFFF774FDB2796BE0F3795907EF
:10FA400067D5AB78FF2B64D008210A43F17AA27204
:10FA50008907C90F012906D11C225A434B48821835
:10FA6000907E88439076E27AFF2A52D02178474AE6
:10FA70001C2602290CD05E439619301C0722103038
:10FA8000211C03F087FBB37E02229343B37609E087
:10FA900073433F49D318498A1A1C19839B7E01215D
:10FAA0008B439376281C0121FFF7A2FB31E0B37949
:10FAB000112B15D1019A120712D5364800210E22BA
:10FAC000083003F089FB162301993B7060230B4338
:10FAD0002B4AA372537A2A49022213434B7218E02D
:10FAE000019A80235B421343A37215233B70244B7E
:10FAF000281C9A7A294B9200D358984709E020494C
:10FB0000264B8A7A281C9200D358984767E0132323
:10FB10003B7000221A4905AC0B68281C211C984731
:10FB20002378122B5BD11748837A012B57D00123FE
:10FB300083725B420381C3720021072203F04CFBF6
:10FB40004DE0E27AAA7000226A70B4E611233B709D
:10FB50006A708388871D23810223A372201C391CAD
:10FB6000072203F017FB737DDA071BD50C4A5B08ED
:10FB7000D35CFF2B29D0039327E0C046CC2C002078
:10FB8000482D0020CE2C0020FFFF0000DC2C0020A0
:10FB9000142D0020302D002043800000C0480200BA
:10FBA000CA2C00200F4E391C301C1030072203F0E5
:10FBB000E2FA002808D0301C2C30391C072203F050
:10FBC000DAFA0028A5D101200390039A281CD3B2A9
:10FBD0000A22E372A272AB70FFF71EFE99E70FB024
:10FBE000F0BDC046DC2C002030B5002912D00A78C8
:10FBF000002A11D10A4B1B68002B0DD0FF23094CA2
:10FC00008B7025890523854207D14A70E37A8B7072
:10FC1000131C02E0044B00E0044B181C30BDC0462E
:10FC2000482D0020CE2C00200E800000088000000F
:10FC30004DDF704730B500238DB00D1C141CC21A67
:10FC4000D27B69465A540133102BF8D1002104A805
:10FC50000D2203F0C1FA2B786A46D3776B78684699
:10FC60009377AB785377FFF7E3FF6B462F331B781F
:10FC700023706B462E331B7863706B462D331B78D5
:10FC8000A3700DB030BD30B50378041C85B00D1CD9
:10FC90000020022B16D1611C032201A803F07AFA7E
:10FCA000211D032203A803F075FA281C03A902AA48
:10FCB000FFF7C0FF01A802A9032203F05CFA434248
:10FCC0005841C0B205B030BD08B5064B5869802315
:10FCD0005B05421C04D0196989B203F0E1FE00E023
:10FCE000586908BD0010001029DF704728DF7047F1
:10FCF00008B5034B1A78034B9200D358984708BDB8
:10FD0000A82D0020F048020037B50B1C074C89686D
:10FD10000C254D4324681978021C181C1B6900949B
:10FD2000034C08302C59A04737BDC046B02D0020E9
:10FD3000942D002008B5104A142113784B43D31892
:10FD4000802218695205116904335A8801389B884A
:10FD50008018C01889B203F0A3FE084A031C126879
:10FD600001209A4207D300209A4204D1044B18681C
:10FD700043425841C0B208BD602D00208C2D0020A8
:10FD8000902D002008B5044B082219689143196092
:10FD9000FFF7AEFF08BDC046A42D0020094A08B5F4
:10FDA000136819070AD4990702D501210B43136080
:10FDB000054B02221A70FFF79BFF01E0FFF7E2FFFD
:10FDC00008BDC046A42D0020A82D002008B5064B74
:10FDD0001B681A0705D4054B01221A70FFF788FF2C
:10FDE00001E0FFF7CFFF08BDA42D0020A82D0020C3
:10FDF00008B5002814D0112805D10A4B082219682B
:10FE00000A431A600CE0084B14211A7851435B181E
:10FE1000191DFFF779FF054B04221A7000F096F8C0
:10FE200008BDC046A42D0020602D0020B42D002068
:10FE300008B5FFF759FFFFF7DBFF08BDF8B5134B17
:10FE400014241A78802554436D051C1904342F6935
:10FE50006288BFB2A088E36821690D4EBA420DD90D
:10FE60002C69C018A4B2121B2C6980188918A2B280
:10FE70009208FFF7DDFF2B699BB204E0C0189208DF
:10FE8000FFF7D6FF63883360F8BDC046602D0020C1
:10FE9000C02D002038B50A4A8024640523691568FE
:10FEA0009BB2013D5D43FFF70FFF2169054B013810
:10FEB00089B241431A68281CFFF7BAFF38BDC04613
:10FEC0008C2D0020BC2D002070B5104A1421137811
:10FED00080254B43D3181A89DC880433DB686D0511
:10FEE000A4182969E418201C89B203F01DFE0E1C19
:10FEF000FFF7EAFE2969013889B24143044B8919A9
:10FF00001A68201CFFF794FF70BDC046602D0020CA
:10FF1000902D002010B5FFF7D7FE80235B051C69EC
:10FF200019691A69431EA0B25843044B89B21B6871
:10FF300092B259439208FFF77BFF10BD8C2D002031
:10FF400008B5FFF7D3FEFFF753FF08BDF0B52B4B05
:10FF500085B0187803284FD803F098FD020E114A97
:10FF6000274A00231360274A1360274B5B78002B36
:10FF700042D000F0DFF83FE0FFF760FF3CE0234CA9
:10FF800001232268142601929A431F4B2260029299
:10FF90001A78802756437F059E1933693969181CE2
:10FFA00089B2039303F07CFD194B051C186003987C
:10FFB0003969F3880138C01889B203F071FD8542B0
:10FFC00003D1029A0223134303E0019A03239A43C5
:10FFD000131C23600F4B1A680F4B002A03D12168B2
:10FFE0000222114200D000221A70FFF781FE03E0C6
:10FFF000074B1868FFF7A4FF05B0F0BDB42D002033
:020000022000DC
:10000000B82D0020C02D0020602D0020A42D002040
:100010008C2D0020BC2D0020A82D0020F0B53F4ADB
:100020001421137885B04B43D318D8680C2242436F
:1000300002903B4880258218548910895268604399
:100040006D05821829690192DA881E6903921F8959
:10005000344CD3199B1900930023236089B2301CC0
:1000600003F062FD00290AD12B6903989BB29842E4
:1000700008D00099019A914201D1002F02D0029B31
:10008000022B08D12969301C89B203F009FD264BE7
:10009000186003233CE02969B81989B203F044FDD4
:1000A000224B89081960009A019B80246405296904
:1000B0009A422CD089B2101C03F036FD002926D0BC
:1000C000019A0098216985B289B290B203F0E8FCE8
:1000D0002769061CB9B2281C03F0E2FCB6B280B254
:1000E000864208D1019B00989AB283B2D31A0D4977
:1000F0009B080B600BE023692169281C89B29CB224
:1001000003F012FD89B2641A064AA408146002239F
:1001100007480370FFF71AFF05B0F0BD602D0020FF
:10012000942D0020902D00208C2D0020BC2D00202F
:10013000B42D002008B50B4A142113784B43D31873
:10014000D988094A1B791160032B08D0042B06D0EB
:10015000012B06D1054A1370FFF7F8FE01E0FFF707
:100160005DFF08BD602D0020B02D0020B42D0020C3
:10017000F7B508AC2488114D01946E780424022E42
:1001800019D02C78A419012C00D9023C14277C43E7
:100190002C196261221C20710C3281C981C2E3805A
:1001A000074B01981B782081013600246E70A34212
:1001B00001D1FFF7BFFF201CFEBDC046602D00200F
:1001C000B42D002038B5124C142521780020694345
:1001D00061180431FFF798FD21782A1C4A43002357
:1001E000A21801251371D380D56013615361138167
:1001F0006278013A62704A19D2B2022A01D02270A2
:1002000000E02370034A1370FFF7A0FE38BDC0461C
:10021000602D0020B42D002008B5084B14211A7859
:100220004A439B181B79042B02D0FFF7CBFF04E055
:10023000034B01221A70FFF789FE08BD602D0020D4
:10024000B42D0020F8B51F4D08242E68344023D16A
:100250001D4A142113781D4F4B433F68D31880214A
:100260001869DA88490504339B880969002F16D07C
:1002700001388018C01889B203F012FC144B1B68B7
:1002800083420CD1134B1C6001231E43124B2E6082
:100290001C70FFF72DFD13E0FFF774FD10E0FFF772
:1002A00049FD002804D00B4B00221A60022202E014
:1002B000002F03D00322084B1A70EAE7FFF7ACFFC8
:1002C000F8BDC046A42D0020602D0020902D0020F8
:1002D0008C2D0020BC2D0020A82D002008B5054B3A
:1002E0001B681A0702D4FFF797FF01E0FFF74AFDEA
:1002F00008BDC046A42D002038B5154D2C68220736
:1003000023D4144B1A6801321A60134B04221B6861
:10031000002B04D1FFF70EFD002802D002220F4B64
:100320000CE00F4B1B68002B0CD00121221C0A4053
:100330000A4B02D10C432C6000E003221A70FFF735
:10034000D7FC04E0FFF768FF01E0FFF71BFD38BDB5
:10035000A42D00208C2D0020BC2D0020A82D0020D5
:10036000902D002008B51E4B1B78022B30D0032B9C
:1003700019D0012B32D11B4B08211A680A4222D115
:10038000194B14211A784A439A18184BD1881B68C4
:10039000CB1A9BB2D380002B02D1FFF713FF1DE0D5
:1003A000FFF74CFD1AE00F4B08211A680A420AD1E8
:1003B0000F4B1A6801321A60FFF7BCFC002804D109
:1003C000FFF72AFF0AE08A431A60FFF7BFFD05E046
:1003D000084B1A78084B9200D358984708BDC0467E
:1003E000B42D0020A42D0020602D0020C02D002061
:1003F0008C2D0020A82D00200449020008B5024BD6
:100400001868FFF79DFD08BD8C2D002008B5FFF78B
:100410005BFC80235B051A691969431E90B258433F
:1004200089B203F03DFBFFF78BFD08BD38B5144CD6
:10043000042523781A1CAA4321D002281DD00328A2
:100440001DD1104A1268110717D40F490A680132EA
:100450000A60032A04D0022B0CD1FFF749FC0EE0FE
:100460000A4B14211A780D2051435B18191DFFF710
:100470004BFC2570FFF76AFD01E0FFF773FF38BD05
:10048000B42D0020A42D0020B82D0020602D0020C8
:10049000174B10B5012200241C705C701C71DC80AD
:1004A000DA601C615C611C811C765C831A625C6290
:1004B0009C629C830F4B1C80FFF706FC80235B052E
:1004C0001A69831E90B258430B4B042218600B4BE1
:1004D000201C1C600A4B1C601C815C81094B1C7039
:1004E000094B1C60094B1C60094B1A6010BDC046CB
:1004F000602D0020A02D0020AC2D00208C2D002090
:10050000942D0020B42D0020B82D0020C02D0020F7
:10051000A42D00202B4BF7B51B680E1C0421041CD6
:1005200008200B424DD0002C4AD0002E48D0226823
:10053000002A45D080277F053A69A38892B293426A
:1005400001D907203DE00F2BFBD9E288002AF8D023
:1005500053431D490D685B190193FFF7B5FB3A69D9
:10056000431E90B25843019A8242EAD8A388990761
:10057000E7D1164A04201788012F22D00C20784397
:1005800013493760756026680A1855604650138114
:10059000E08801375081802252055843166911695D
:1005A0001469B2B28018013889B203F0C7FAA4B254
:1005B0004443054E054B651935601F80002000E05F
:1005C0000E20FEBDA42D0020AC2D0020A02D00206B
:1005D000942D0020114B30B51C68082365071AD5EF
:1005E000002815D0002A13D00368002B12D10C4C20
:1005F0002568002D0ED02589406869430918608957
:10060000454360682D18A94204D21360516002E08E
:100610000E2300E00723181C30BDC046A42D002087
:10062000942D0020F0B5141C1C4A051C126885B0DE
:100630000F1C082051072ED5002F2BD0002D29D0BC
:100640002A680720002A26D1154E3168002922D0B9
:100650006A68039232897189766851438C4603999E
:100660006644B14217D2002C15D0944213D8E61834
:10067000964210DC0322102017420CD113420AD1FB
:10068000114208D10093291C3A1C231C0120FFF7BA
:100690006FFD00E00E2005B0F0BDC046A42D002087
:1006A000942D0020F0B5141C1C4A051C126885B05E
:1006B0000F1C082051072ED5002F2BD0002D29D03C
:1006C0002A680720002A26D1154E3168002922D039
:1006D0006A68039232897189766851438C4603991E
:1006E0006644B14217D2002C15D0944213D8E618B4
:1006F000964210DC0322102017420CD113420AD17B
:10070000114208D10093291C3A1C231C0420FFF736
:100710002FFD00E00E2005B0F0BDC046A42D002046
:10072000942D0020F0B5161C214A85B01268029065
:100730000D1C0824500738D5002931D00299002912
:100740002ED02C68002C2DD11A4F3A68002A29D0BF
:10075000398978896A684843844678688444624560
:1007600020D2002E1ED08E421CD8F018884219DCF0
:1007700002980321084217D10B4215D11140039171
:1007800012D19918321C02F005FD29680C234B4345
:100790000096FE58281C0221039A029BB04704E0F1
:1007A0000E2402E0072400E01024201C05B0F0BD58
:1007B000A42D0020942D0020F0B5204B85B01B689F
:1007C000061C0D1C08245A0734D5002831D00368B4
:1007D0000724002B2ED11A4B1A68002A2AD01A8916
:1007E0004768029258685B8953431B1803939F42E2
:1007F00020D21024BB071DD1381A111C03F094F924
:100800000724002916D1281C029903F08DF989B21A
:1008100000290FD1002D0DD0039AEB19934209D86E
:10082000002200920320311C2B1CFFF7A1FC041CAA
:1008300000E00E24201C05B0F0BDC046A42D002011
:10084000942D00202EDF704751DF704710DF704776
:1008500011DF704761DF704708B5081C111CFEF7F7
:10086000A1F808BDF0B5254B85B01B78002B42D010
:10087000234E244F3268544254413A68E4B2554200
:100880005541EDB2002C34D103A8FFF7DDFF052858
:100890000AD0002804D0211C221CFEF785F804E0B1
:1008A00003983368984700E00124002D1ED1164BB1
:1008B00003A91B880B80154B1B68181C0193FFF7BD
:1008C000C9FF051E052D0BD0002805D000210A1CEC
:1008D000FEF76AF8002504E001983A68904700E0C6
:1008E0000125002CCED0002DCCD004E0002C02D16C
:1008F000C8E7002DDBD005B0F0BDC046C42D0020F8
:10090000CC2D0020D02D0020C62D0020C82D002089
:1009100038B5041C0720002913D08D0711D10948D0
:1009200001600949201C0A80084A09491360FFF741
:100930008DFF002805D1074B012216201A70FFF702
:1009400081FF38BDC82D0020C62D0020D42D0020E9
:1009500059080200C42D002008B5FFF779FF021CDA
:10096000531E9A41014BD2B21A7008BDC42D00200B
:10097000002803D0024B1860002000E00E207047D2
:10098000D02D0020002803D0024B1860002000E08A
:100990000E207047CC2D002008B5074B1B68002B9C
:1009A00007D09847002806D000210A1CFDF7FCFF5D
:1009B00001E0FFF757FF08BDD42D002038B5051C16
:1009C0000C1C131C291C0248221C00F054F838BDD2
:1009D0001849020038B50023C356041C0D1C01330E
:1009E00004D1064806492422FFF7E8FF6368002D7A
:1009F00001D0E26800E02269136038BD4949020075
:100A00006149020000B599B068460F2100F065F811
:100A100006A80F2100F061F80CA80F2100F05DF886
:100A200012A80F2100F059F868460121FFF7D2FF04
:100A300006A80021FFF7CEFF0CA80021FFF7CAFF90
:100A400012A80121FFF7C6FF962000F0CCF86846F7
:100A50000021FFF7BFFF06A80121FFF7BBFF0CA88D
:100A60000121FFF7B7FF12A80021FFF7B3FF96207F
:100A700000F0B9F8D8E70FB4012008B502F020FB68
:100A800038B50023C356041C0D1C013304D106489D
:100A900006492422FFF792FF6368002D01D0E26827
:100AA00000E02269136038BD494902006149020033
:100AB00070B50D1C041C161C00F09CF801350BD001
:100AC000201C311CFFF7DCFF201C012100F0B0F8D6
:100AD000201C002100F0A6F870BD08B50022FFF729
:100AE000E7FF08BD38B50368041C1B680D1C984758
:100AF00063681D6038BD38B50368041CDB6898471F
:100B000063685A682368002A02D19B68984714E0FA
:100B10005B681568984763682D1A002D08DC5A68D1
:100B2000916859601B68002BEAD050689847E7E746
:100B30005B68226818681369984738BDF8B50D1CC2
:100B400072B64B600A60416800234C68002C05D0E7
:100B50002768D61B02D4231CA468F7E7002B05D115
:100B600003684D601B69101C984700E09D60AC60F5
:100B700062B6F8BD08B572B6426853688B420FD1B1
:100B80009B6853600268002B02D1936898470CE081
:100B900018681369984708E09A688A4203D0131CC2
:100BA000002BF9D101E08968996062B608BD08B5EB
:100BB00003685B68984708BD00487047144A020004
:100BC00008B50248FFF797FF08BDC046144A020067
:100BD00038B5041C00F048F9051C00F045F9401B2D
:100BE000A042FAD338BD08B5FA239B005843FFF75B
:100BF000EFFF08BD01704B1C0AD001238B404360FE
:100C0000044BC360044B0361044B4361044B83609A
:100C10007047C046080500500C05005010050050F4
:100C20001405005008B5007840B200F01FF808BD68
:100C300038B50023C356051C0C1C013304D10948E8
:100C400009492A22FFF7BAFE002C01D0012C07D156
:100C50000022AA56A023C132FF329200DB05D450F5
:100C600038BDC046494902001C4A020038B5041C80
:100C70000D1C431C04D10A480A491A22FFF79EFEA4
:100C8000A023A000DB05C018E023DB00C2580C2124
:100C90008A43C250C258AD001543C55038BDC04646
:100CA0004E490200B64A0200124AC1239B00D158A5
:100CB00010B5080603D51049096A002911D1D35887
:100CC0005A0716D50C4BDA68002A12D00024DC60D3
:100CD000084AA323DB00D058C0B200F0B5F9211CAC
:100CE00000E00121054B1868002802D0044B1B6866
:100CF000984710BD00200040FC200040E42D00205B
:100D0000E02D002003681A1CFC32106A0128FAD179
:100D100000201062014AC9B2995070471C050000BA
:100D20000368FC33186A0138434258417047000099
:100D30000A490B4A88680B4B002808D01868013014
:100D40001860002088600220D2218140505006495E
:100D50001B6852581806190A10437047FC100140CE
:100D600000100140EC2D0020040500002F23C04698
:100D7000C046C046C046C046C046C046C046C04643
:100D8000C046C046C046C046C046013B002BEED11F
:100D900070470000F8B5184B9A68002A0AD0174A25
:100DA000022011680131116000229A601449D22298
:100DB000824088505B6C124C002B1CD00E4B80255F
:100DC000D222920000266D025E64A5500D4A13786F
:100DD000B34210D00C4B1F68FFF7AAFF3F1AB7426F
:100DE00009DC084BD2221E70C2239B009200E55002
:100DF000A550FFF7E5FEF8BDFC100140EC2D0020EA
:100E000000100140F12D0020E82D002038B5124CD3
:100E10002278002A1FD1114BA121C9005A50022269
:100E2000D22191405A50C12191405A500C4AC421BC
:100E3000890055580B482840C0252D0228435050A2
:100E40008021C020890240000125115011601D60E1
:100E5000FFF78CFF257038BDF02D002000100140F9
:100E600000E100E0FF00FFFF08B50B4B1B78002BF3
:100E700001D1FFF7CBFFFFF75BFF064B044A02F0FF
:100E8000DFFE4904C00B084308BDC046C046C0464B
:100E900040420F0000000000F02D0020C046C04678
:100EA0002F4B70B51B78061C002B01D1FFF7AEFF4E
:100EB000FFF73EFF254B244A02F0C2FE4B04C00B55
:100EC000002400251843CD0B0023321CA4185D41DB
:100ED00080231B06984205D9002E03DB1C4A1D4BBC
:100EE000A4185D41610CEB030B43E2031A481B4954
:100EF00080185941154B144A02F082FE194D041C0A
:100F00002B78194E002B02D0336898421BD0FFF784
:100F10000FFF201A022802DCFFF70AFF841C2102BF
:100F2000124BA822D200090A99502A783460002A6C
:100F300009D101222A70D2218022520289005A50FE
:100F4000C12189005A5070BD40420F0000000000CE
:100F500000000000010000003F420F000000000000
:100F6000F02D0020F12D0020E82D00200010014080
:100F7000074B1A78002A0AD0064A8021C22049026B
:100F800080001150D2208000115000221A7070474A
:100F9000F12D002000100140024B00229A605A649B
:100FA0007047C046FC10014008B5FBF749FFFBF74E
:100FB00095FFFCE701207047054B1A1C4032107862
:100FC00041331B784030C01A3F2318407047C04659
:100FD000F22D0020084A111C101C413140300B78C2
:100FE0000078984205D0D05C01333F2213400B704B
:100FF00001E0012040427047F22D0020064B1A1CF0
:10100000191C4132403112780978914201D0985C24
:1010100001E0012040427047F22D002007B5034B4C
:1010200068460093FFF76EFE0EBDC04600200040EC
:1010300007B5044B00936846FFF772FE0028FAD00C
:1010400007BDC0460020004030B5074B3F211A1CA9
:1010500040321478651C29401D1C41352D788D4285
:1010600001D01855117030BDF22D002000234360CF
:10107000FA239B008360024B083303607047C0462D
:10108000504B020008B5034801F044FF0248FFF747
:10109000EDFF08BDF22D0020342E0020F7B5FA2612
:1010A0000093B60008AB041C1B78301C484314495D
:1010B000171C019302F0F4FC85B2301C25807843A4
:1010C0000F4902F0EDFC009B80B2A380019B608081
:1010D000A371032D01D80423238022888023DB0100
:1010E0009A4200D92380032801D8042262806288B2
:1010F0009A4202D98023DB016380201CFEBDC046DA
:101100007102000093DF704708B50368002B01D01F
:10111000081C984708BD08B50368002B01D0081CBF
:10112000984708BD10B50B78041C03704B8A102239
:1011300043820131013002F02DF8201C10BD38B57A
:1011400002680B68051C0C1C9A4201D000202CE0A0
:101150000379002B07D10B79002BF7D1C28ACB8AF8
:101160009A42F3D10BE0012BF0D10B79012BEDD199
:1011700005300531102201F0FEFF0028E6D12A7E5D
:10118000217E7F231A400B409A42DFD16A8B638B0A
:101190009A42DBD1EA69E36900209A4205D1238CA7
:1011A000288CC01A43425841C0B238BD70B5051CE6
:1011B0000E1C00242819311CFFF7C1FF002803D1A1
:1011C0004C34E42CF6D100E0012070BD07B501AB32
:1011D0001980191C5A80FFF795FF10280CD003D8EE
:1011E000002398420BD009E00523112807D0054AB7
:1011F0000423904203D001E0032300E00B23181CDA
:101200000EBDC0460230000070B50025041C291C2C
:1012100020C0FCF757FF0C26201C291C321C257609
:101220006583A583E5832584243001F0D5FF074B32
:10123000201C65632363291C321C383001F0CCFF6D
:10124000034BA564201C636470BDC04609110200F5
:101250001711020010B5041CFFF7D6FF201C4C30FC
:10126000FFF7D2FF201C9830FFF7CEFF201C10BDE7
:10127000F8B50D1C1E1C08C9041C08C0171CFFF77C
:1012800051FF2B7E3A1C23766B8B6383AB8BA3833E
:10129000EB8BE3832B8C2384231C243323CA23C3AB
:1012A000FF68002227636263311C0833A1C9A1C310
:1012B000F668201C6664A264F8BD70B50E1C8AB086
:1012C0000168041C038C0190684603AD0391123041
:1012D000111CAB80FFF726FF201C6E830295243083
:1012E000236B01A998470AB070BD07B5031C6A4675
:1012F0000090117138305B6C6946984707BDF0B5B6
:10130000A7B00B790C1C086869460B71E38A009042
:101310006846161CCB821022611D053001F03AFF91
:10132000237E6D462B76638B221C6B83A38B24322A
:10133000AB83E38BEB83238C2B8409ABA1CAA1C3C2
:10134000216B00250C910D950EAB083283CA83C327
:10135000626C13A811921295FFF756FF13A9201C77
:10136000222201F017FF231C1CAA243383CA83C343
:101370001F9A65632263083321AA83CA83C3249A10
:10138000A56462646846311CFFF7AFFF27B0F0BD6B
:1013900030B595B0041C01A8FFF736FF201C01A949
:1013A000FFF7CDFE0025A84218D00D9A236B9A4274
:1013B00014D1211C0AA824310C2201F0DCFEA84221
:1013C0000CD1129B626C934208D1211C38310FA8BA
:1013D0000C2201F0D0FE45424541EDB2281C15B06B
:1013E00030BDF8B5061C0F1C00257419201C391CD3
:1013F000FFF7A5FE002804D0201CFFF7C9FF002836
:1014000003D04C35E42DF0D10024201CF8BD10B5DC
:10141000041CFFF7E6FF011E03D0201C0022FFF78B
:101420006EFF10BDF8B50F1C041C0325238C261C71
:10143000BB4204D1201CFFF7ABFF002804D0013DC4
:101440004C34002DF2D12E1C301CF8BD38B5041CD4
:10145000151CFFF7E7FF011E03D0201C2A1CFFF715
:101460004EFF38BD08B5FFF7DDFF431E9841C0B2FF
:1014700008BDF0B589B0061C0091171CFFF7D2FF1C
:10148000041E2AD000253A88062395420FD26B43CA
:10149000FB185A88998803A801920135FCF712FEBF
:1014A000201C019903AAFFF708FFADB2EBE7013A50
:1014B0005343FF187988E28B013189B2914203D9F5
:1014C000301C211C002206E00098FFF77FFE021E60
:1014D00003D0301C211CFFF712FF09B0F0BD70B51E
:1014E000061C00243519281CFFF752FF002803D1E1
:1014F0004C34E42CF6D1051C281C70BDF0B51E1C24
:101500004B8B041C0233C88B99B09BB20D1C039209
:101510000F8C01930290984207D2002705910697FD
:10152000F368301C05A998472DE0201C391CFFF7F3
:1015300099FF002801D0052725E0201CFFF7CFFFE9
:10154000041EF8D0381C0199029AFFF73FFE071ECF
:1015500019D1291C331C039A05A8FFF789FE05A998
:101560002222201C01F016FE231C24330EAA23CABB
:1015700023C3119908332163676313AA23CA23C3C2
:10158000169AA7646264381C19B0F0BD70DF70470A
:1015900071DF704772DF704773DF704774DF704729
:1015A00075DF704776DF704777DF704778DF704709
:1015B00079DF70477ADF70477BDF70477CDF7047E9
:1015C0007DDF704786DF704787DF704788DF7047B1
:1015D0001420704764207047A0208001704708B530
:1015E000FFF7F2FF421E9041404205230340181CC2
:1015F00008BD10B5041CFFF7D1FF021C0320002A10
:1016000006D1201C5830037801218B430370101C35
:1016100010BD08B53B239A4200D01323081C191CA7
:10162000FFF7C0FF002800D0032008BD08B50A1C42
:101630000368011CFE31C98C1B6A984708BD08B5B8
:10164000081CFFF7B9FF002800D0032008BD08B52B
:10165000081CFFF7AFFF002800D0032008BD08B525
:10166000081C111CFFF79CFF421E904140420323BF
:101670000340181C08BD13B50C1E012C07D8684682
:10168000111C0130062201F085FD002005E08B1EB3
:10169000012B01D9032007E001206B4669461C702D
:1016A000FFF774FF0028F5D116BD37B568460D1C4D
:1016B000141CFFF76DFF032300280FD1002D02D06B
:1016C0006A4613782B70002C07D06946201C013124
:1016D000062201F05FFD002300E0231C181C3EBD24
:1016E00008B5081C111CFFF76BFF421E90414042D9
:1016F00003230340181C08BD08B5081CFFF756FF5C
:10170000421E9041404203230340181C08BD08B507
:10171000081CFFF74DFF421E904140420323034047
:10172000181C08BD08B5081CFFF73EFF00239842AF
:1017300003D00523112800D00323181C08BD000086
:10174000024B0B60092313607047C046784B0200C0
:1017500008207047B830017000207047B930017020
:101760000020704702207047B83000787047B930C9
:10177000007870470020704708B5031C1A1CF3322C
:101780006C3011789B6F984708BD10B518C962106E
:10179000E10701D58158CB588018984710BD00004B
:1017A000012008B5054A011C01F098FB421E90413A
:1017B00040420B230340181C08BDC046F917020025
:1017C00070B5061C0D1C0024331CBA331B78A342D1
:1017D0000ED96B79A3420BD90722111C61432B68E8
:1017E000013458187118BB3101F0D4FCE4B2EBE7B6
:1017F0002C71002070BD000010B5041C0020FCF707
:101800001BFD03681B699847031CF3331C70862378
:101810005B00C050074A031CFC335A61862200213A
:10182000520099618318044AF4305A61FDF7DDFBD8
:1018300010BDC046791702008B17020037B511237F
:1018400001AD081C2B700C1C01F0FAFD211C82B2AA
:10185000281CFFF7B3FE421E904140420323034081
:10186000181C3EBDF8B50368061CDB6C0C1C0D791A
:1018700098470323854226D822790023D9B2914282
:1018800008D20721594320680133095C0329F5D1A7
:10189000042318E0371CBA3700253D702379AB428A
:1018A00010D9387807225043111C69432368301837
:1018B0005918BB3001F06EFC3B78013501333B70A9
:1018C000EDB2EBE70023181CF8BD10B50C1CC97F66
:1018D00001201F290DD800290AD0D37F201CFFF733
:1018E00059FE002804D1208CFFF760FE002800D0AC
:1018F000032010BD10B5041CFCF770FB00280AD1B2
:10190000231C0122FE335242DA84BA34463B18705B
:101910005870207000E0062010BDFE30C184704772
:10192000FE30C08C70470000F0B593B003900020EB
:101930000C1CFCF781FC03685B6A9847FDF740FAD2
:1019400006AB00280DD000221A7105AA06920822C3
:101950001A73181C0AAA9A60FDF7FEFA002802D032
:101960004FE0187118730023237323711F1C039B0E
:10197000BA331B78BB4243D907237B430399002525
:10198000CA18B832D278022A2DD106AE337BAB42C8
:1019900033D907207843039BAA001818B368BB30DB
:1019A00099580292FDF7F0FA002819D0B168029B0D
:1019B000CA58237BA1689B005A50237B327B01339A
:1019C0002373531E9D4206D00F49B36852189200EC
:1019D000D25802995A5006AB1A7B013A1A730CE09E
:1019E0000135EDB2D1E703992279CB182168BB33D9
:1019F000920053502379013323717B1CDFB2B6E789
:101A0000002013B0F0BDC046FFFFFF3F70B50B785C
:101A1000021C9AB00D1C0220012B3BD04988032BDD
:101A200004D1A039181C89B21B4B03E020391B4B91
:101A300089B2032099422DD8A988194B03209942D5
:101A400028D80AAB009312AB029369460023161CF8
:101A50000B710B73B8363378002B05D0101C694618
:101A6000FFF762FF002815D104AC0021201C1822CA
:101A700001F0B2FB2B7800A923703378201C23726D
:101A80006B88E1602382AB886382FFF785FD0028C5
:101A900000D003201AB070BD603F0000E03F00009E
:101AA000FF3F000070B598B008AB009310AB0293F5
:101AB0006A460023051C13711373B9352B780C1C6F
:101AC000002B1FD104A82A780678A1790123194098
