:020000021000EC
:10C00000008000209DC80100D9C80100DBC80100E4
:10C010000000000000000000000000000000000020
:10C02000000000000000000000000000DDC801006A
:10C030000000000000000000DFC80100E1C80100AE
:10C04000E3C80100E3C8010075000200E3C8010075
:10C05000E3C8010000000000E3C80100E3C80100DC
:10C06000E3C80100E3C8010011000200E3C80100B9
:10C07000E3C80100E3C80100E3C80100E3C8010010
:10C08000E3C8010061010200E3C80100E3C8010048
:10C09000E3C80100A122020001FD0100E3C8010084
:10C0A000E3C80100E3C80100000000000000000038
:10C0B0000000000000000000000000000000000080
:10C0C00010B5064C2378002B07D1054B002B02D06E
:10C0D000044800E000BF0123237010BDA428002005
:10C0E00000000000E840020008B5084B002B03D018
:10C0F0000748084900E000BF07480368002B03D049
:10C10000064B002B00D0984708BDC0460000000039
:10C11000E8400200A8280020A42800200000000019
:10C12000164B002B00D1144B9D46402292029A1AC6
:10C13000924600218B460F461348144A121A06F005
:10C140004DFA0F4B002B00D098470E4B002B00D020
:10C1500098470020002104000D000D48002802D05F
:10C160000C4800E000BF06F0C3F92000290002F0EF
:10C1700054F906F0A7F9C04600000800008000202E
:10C180000000000000000000A4280020D02D0020A6
:10C19000000000000000000008B50368002B01D07B
:10C1A000081C984708BD08B50368002B01D0081C7F
:10C1B000984708BD08B50368002B01D0081C9847B4
:10C1C00008BD08B50368002B01D0081C984708BDBE
:10C1D00008B50368002B01D0081C984708BD000073
:10C1E00010B5054B041C036002F0ABF8201C02F0F4
:10C1F000F9F8201C10BDC046303C020010B5041CEC
:10C20000FFF7EEFF201C06F019F9201C10BD0000FE
:10C2100030B5094A4388D48B87B09C4209D107487E
:10C2200000F0BCFC0368211C5D686B4601AA023368
:10C23000A84707B030BDC04624290020F0280020C0
:10C2400070B51D1CC37F041C5E1901201D2E13DC5C
:10C250002818E054E37F0133DBB2E377E154E07F59
:10C26000111C0130C0B2E0772A1C201806F094F9A6
:10C27000E37F0020ED18E57770BD0000F7B58E1E56
:10C28000F6B2051C089C132E22D80120071CB740CB
:10C290003E1C284F3E421BD0E97FCE1869181F2E46
:10C2A00046DC601C814203D90878C8540139F8E79C
:10C2B0000021C8B2984204D2565C601886700131E1
:10C2C000F7E722789A182270EA7F9B18EB770FE045
:10C2D0002078061C013EF6B20090B3420AD100213C
:10C2E000C8B2984204D2555C601885700131F7E7F6
:10C2F00000201DE0E87F801BC018844667460120AF
:10C300001F2F15DCE87F8446B01C2018019067467B
:10C31000E819019F874204D2A01980782070013467
:10C32000F0E70098C7436744EF77281CFFF788FFC2
:10C33000FEBDC0463F000800F7B5C67F0024B442EA
:10C340000CD205196F788F4203D10095FFF796FF45
:10C3500006E0055D01356419E4B2F0E7FFF770FF10
:10C36000FEBD70B5061C8AB00A360C1C2222311C98
:10C37000051C01A806F010F96A460121033201A844
:10C380000B1C1470FFF7D8FF041E0DD12B682A1C5C
:10C3900034329B6F281C01A99847041E04D1301C1D
:10C3A00001A9222206F0F8F8201C0AB070BD70B571
:10C3B0000123041C0370261CC018031C1136002521
:10C3C0001D700133B342FAD1012365822370AA4262
:10C3D00008D10B1C10338B4207D0013B1A78027036
:10C3E0000130F8E7102206F0E0F8A37B627B1B0225
:10C3F0001343201C638270BD10B500F0BFFB011C0D
:10C4000008C9041CDB6F9847002804D158342378EE
:10C4100001221343237010BD08B50248FFF7ECFF5B
:10C4200008BDC046F028002008B500F097FB806DDD
:10C4300008BD0000F7B5214E301CFFF7F5FF82075D
:10C440003BD500F02BFB1E4B1E4C1A680025801AB2
:10C4500080B21860012323701B4B301C5A781B7864
:10C460006270A370194B5A781B78E2702371184BD5
:10C470005A781B786271A371164B5A781B78E27157
:10C480002372154B5A781B786272A372134B5A7839
:10C490001B78E2722373124B5D739D73DD731D7401
:10C4A0005D749D740F4BDF8B00F078FB0368009583
:10C4B000DD68391C221C1323A847F7BDF028002093
:10C4C000E8280020FC280020D0290020EC280020AB
:10C4D000F829002078290020E4280020E028002006
:10C4E0000F2900207C290020F0B591B002AD07ACE7
:10C4F0000021281C0C2206F071F82A1C231C43CAB8
:10C5000043C3544B0027211C5348E360276100F0CC
:10C51000CDFA391C0C22281C06F060F84E4800F0B9
:10C520002DFB4E4E01900296231C07CD07C314200D
:10C5300005F09CFF0796031C221C62CA62C3484B8D
:10C540000761C360019B444EA4331A68BA4200D00D
:10C5500002611860301C00F021FB00210C220190C8
:10C56000201C06F03BF8142005F080FF3D4A211CFA
:10C570000792021CA8C9A8C23B4A019DC2600022C2
:10C580000261AA69002A01D1A86102E0019F02614B
:10C59000B861301C00F0F2FA0621FFF7E2FE301C11
:10C5A00000F0ECFA071C0A37391C2222051C201C5B
:10C5B00005F0F2FF0821201C2C4A0B1CFFF7BCFEE3
:10C5C00000280DD12B682A1C34329B6F281C211C9B
:10C5D0009847002804D1381C211C222205F0DCFFDA
:10C5E000301C00F0CBFA00230371301C00F0D6FAA7
:10C5F00003681F491B689847301C00F0BFFA0368A6
:10C600001A495B6B9847301C00F0B8FA03680421A4
:10C610005B6C9847301C00F0B1FA0368041C9B68FF
:10C620009847A023984204D92368201C9B68984708
:10C63000031CFA2080000F49584306F033FCE080C9
:10C64000301C00F09BFA00230381301CFFF7D4FE5E
:10C6500011B0F0BDB5C10100F028002019C40100DF
:10C66000D1C1010011C20100C3C10100D4380200D0
:10C67000C02800207102000010B5FFF735FF084BFD
:10C6800000241C6000F00AFA064BFA2118600648E4
:10C69000064BC4628361490101F05BFE10BDC046D8
:10C6A000F8280020E8280020FC29002035C40100DB
:10C6B00010B5124C201CFFF7B7FE830719D50A20CE
:10C6C00000F08AF90E4B1860082000F085F90D4B38
:10C6D00018600B2000F080F90B4B18600C2000F064
:10C6E0007BF90A4B18600E2000F076F9084B1860B1
:10C6F00002E0201C00F062FA10BDC046F0280020C5
:10C70000EC280020F829002078290020E4280020C7
:10C71000E0280020F0B5002187B04F4800F0DEF996
:10C720004E4D0024281C01F037FE4D4B01AEAC618C
:10C73000EC62281C4B494C4A2B6005F078FE221C09
:10C74000301C4A49FFF733FE494D33786F1C2B707C
:10C75000738A69466B82381C0531102205F01CFF74
:10C76000444B13226B6101236B8308232A83FB77DD
:10C770000122AB1CDA772B1C28331C702B1C2933AD
:10C780000C271C70281C2B1C2A77EC832A33211CB5
:10C790003A1C2C306C621C7005F020FF364B281CB4
:10C7A000AB63EC63211C3A1C403005F017FF334AA1
:10C7B0002C65EA64301C221C3149FFF7F8FD314D2D
:10C7C000337869462B70738A05316B8210222E48AC
:10C7D00005F0E2FE2D4B01226B6113232B836A834C
:10C7E0000123294A2B771023D377AB1C0122DA7758
:10C7F0002B1C28331C702B1C29331C70281C2B1C51
:10C80000EC832A33211C3A1C2C306C621C7005F01E
:10C81000E5FE194B281CAB63EC63211C3A1C40302D
:10C8200005F0DCFE154A2C65EA64301C221C184910
:10C83000FFF7BDFD174D337869462B70738A681C6E
:10C840006B820531102205F0A7FE02232B75124BD7
:10C85000AC83AB6107B0F0BDF0280020FC290020BC
:10C86000303C0200E1C1010000280020C438020071
:10C8700024290020D2290020A7C1010099C101006C
:10C88000B43802007C2900207D290020E529002001
:10C89000A4380200C02800200428002008480268AC
:10C8A00003210A4302600749074A084B9B1A03DD2C
:10C8B000043BC858D050FBDC05488047054800477A
:10C8C00024050040F440020000280020A428002095
:10C8D000E5C8010021C10100FEE7FEE7FEE7FEE733
:10C8E000FEE7FEE7334B10B51A78181C012A12D167
:10C8F000314B1B6819070ED1304BF0221B68E02426
:10C90000191C1140234204D12D4B1B68134202D144
:10C9100040E03029F8D00378012B0DD1264A126867
:10C92000110709D1254A1168F0221140402903D18D
:10C9300023490968114235D08023A321DB05012258
:10C94000C9005A501F49002088609A601E4B8A68AF
:10C95000002A2DD1C822C046C046C046C046C046A7
:10C96000C046C046C046C046C046C046C046C04697
:10C97000C046013A002AEED1013B002BE7D18022CC
:10C98000A320D205C0001350012393608B68002BB5
:10C99000FCD00DE00D490E4A116080210D4A0902BC
:10C9A0001160B8E7C1228021D200C9058B50C3E7CE
:10C9B00010BDC046E00F00F0E40F00F0E80F00F0FB
:10C9C000EC0F00F0FC00004088130000DFFF07C000
:10C9D00004050040186C004010B503F0D3FC041CA3
:10C9E000601C04D1244825495F2203F09BF9631E93
:10C9F000DBB2062B3DD8224B01221968214B89005E
:10CA00001B68101C5B011943022319431E4B1B6852
:10CA10001B041943631C984003020C1C1C431B4954
:10CA20001B4B50425C50C22189005850A021C900C4
:10CA30005A501A60C046C04614498022D2009A5803
:10CA4000D007FAD4A1221248D2008058114A127895
:10CA50000A2A07D0092A03D80A24A21AD04001E0E2
:10CA60000A3A9040A022D20000249C505A585A50B2
:10CA700000E0094810BDC046DD380200F43802006D
:10CA8000142800200C2800202C2A00200405000077
:10CA90000070004010280020FFFF000008B503F0E0
:10CAA000CBFBFA21890006F0FDF908BDF0B5021CA8
:10CAB000406812680B1C016889B00C68019203AAD7
:10CAC000151C1E1CA44692CE92C5DB680199D3604A
:10CAD00000231361E04709B0F0BD000038B5002322
:10CAE000041C0160436099420AD1064D2B68002B5B
:10CAF00002D100F051FD286022689300ED58656076
:10CB0000201C38BD3C2A0020F8B500280DD1104C5F
:10CB10002668002E07D1082005F0A8FC311C051C52
:10CB2000FFF7DCFF2560206810E00A4D01272E6822
:10CB3000094C3E4009D1281C05F086FC002804D091
:10CB4000281C2760666005F08EFC201CF8BDC046DE
:10CB5000302A0020402A0020342A0020436810B5E3
:10CB6000041C002B02D1044803F039F96068036803
:10CB70001B69984710BDC04662390200436810B572
:10CB8000041C002B02D1044803F029F960680368F3
:10CB90001B69984710BDC04662390200436810B552
:10CBA000041C002B02D1044803F019F960680368E3
:10CBB0009B69984710BDC04662390200436810B5B2
:10CBC000041C002B02D1044803F009F960680368D3
:10CBD000DB6A984710BDC0466239020070470220E8
:10CBE0007047022070470020704700207047000007
:10CBF00000487047FFFF0000022070470220704786
:10CC000002207047022070470220704702207047C0
:10CC100002207047022070470220704702207047B0
:10CC200002207047022070470220704700231360E3
:10CC30007047002070470220704702207047022092
:10CC40007047022070470220704700207047002084
:10CC500070470020704702207047022070474160F3
:10CC6000704781607047C1607047016170474161E2
:10CC70007047022070470220704702207047022050
:10CC80007047022070470220704702207047002042
:10CC900070470220704700207047704790DF704750
:10CCA00066DF704748DF70475F300078431E984169
:10CCB000C0B27047007970470C3070470C30704735
:10CCC00008B5FFF7EFFF08BD08B50368002B01D0DA
:10CCD000081C984708BD08B50368002B01D0081C44
:10CCE000984708BD08B50368002B01D0081C984779
:10CCF00008BD08B50368002B01D0081C984708BD83
:10CD000008B50368002B01D0081C984708BD000037
:10CD100010B5034B041C0360FFF762FA201C10BD22
:10CD2000483C020010B5041CFFF7F2FF201C05F080
:10CD300085FB201C10BD08B5081C111C1A1C029B89
:10CD400001F0F8F908BD08B5081C111C01F06CFAD7
:10CD500008BD08B5081C111C01F08CFA08BD08B507
:10CD600001F04EFA08BDF0B595B008230C1C6946D9
:10CD70000B7104AA0B7368460CAB0293009201F08E
:10CD80009FFA0023061C051E2CD169460B79AB4285
:10CD900011D96379AB4201D8257124E00722101C18
:10CDA00068432368009F1818AB00D959013505F076
:10CDB000F3FBEDB2E9E7257100256B461A7B237979
:10CDC000EB18AA420ED9627993420BDA0721029F2F
:10CDD0004B43AA00D05922680135D11801F08CFAD2
:10CDE000EDB2EAE72371301C15B0F0BD7FB50379D1
:10CDF000002B0FD0164E174C3378201C002B25D15A
:10CE000002AD281CFFF74CFF002819D16B88592B65
:10CE100016D101E0104819E02B78AA88D91F012902
:10CE200004D80092201C20210C4A03E000920C4AF6
:10CE3000201C202105F0D4FC01233370201C05E0C8
:10CE4000201C0849202205F004FDF7E704B070BD5E
:10CE5000442A0020882B0020703B02008A3B0200FD
:10CE6000A73B0200CC3B020038B50379041C092023
:10CE7000002B28D002F024FF031C0520002B22D118
:10CE8000251CFC35A86B002803D1286C002806D18E
:10CE90000AE003681B6A98470028F6D013E003688D
:10CEA0009B6A984700280ED1E86B002804D00368DD
:10CEB000DB6A9847002806D1201C0C3003F00CFFD9
:10CEC000002800D1207138BDF7B5009303680191A7
:10CED0005B68041C171C9847051C0620002D3BD1DD
:10CEE0001C203A1C00194ACA4AC0FF68009A231C39
:10CEF000A762E562443383CA83C3009B0899DB6859
:10CF0000142223656565A01D05F046FB201C0999C8
:10CF10001422303005F040FB019E231C5D33A680B7
:10CF2000013B5D700121301C1D70D9702A1CFFF778
:10CF3000B5FE061C281C002E0ED02368201C9B6802
:10CF40009847112E07D0054B9E4202D00620072E8F
:10CF500002D1042000E00520FEBDC04602300000E2
:10CF600038B5041CE3692362206A002807D0C3682F
:10CF7000211C9847236A002BF4D01B69F3E7E06972
:10CF8000002804D0056905F059FA281CF8E7E0618B
:10CF90006060A060E0602061606138BD08B5FFF7A7
:10CFA000DFFF002800D0062008BD38B5041C00684B
:10CFB000002804D0056905F041FA281CF8E7206034
:10CFC00038BD000010B5034A041C04C0FFF7EDFF94
:10CFD000201C10BD803A020010B5041CFFF7F2FFC0
:10CFE000201C05F02BFA201C10BD38B5041C00686D
:10CFF000002804D0056905F021FA281CF8E7206014
:10D0000038BD000010B5034A041C04C0FFF7EDFF53
:10D01000201C10BD903A020010B5041CFFF7F2FF6F
:10D02000201C05F00BFA201C10BD000038B5074B82
:10D03000041C03604068002804D0056905F0FEF96F
:10D04000281CF8E76060201C38BDC046A03A0200EA
:10D0500010B5041CFFF7EAFF201C05F0EFF9201CB7
:10D0600010BD000038B5074B041C03604068002861
:10D0700004D0056905F0E2F9281CF8E76060201C7F
:10D0800038BDC046703A020010B5041CFFF7EAFF35
:10D09000201C05F0D3F9201C10BD000038B5074B4B
:10D0A000041C03604068002804D0056905F0C6F937
:10D0B000281CF8E76060201C38BDC046103B020009
:10D0C00010B5041CFFF7EAFF201C05F0B7F9201C7F
:10D0D00010BD000038B5074B041C036040680028F1
:10D0E00004D0056905F0AAF9281CF8E76060201C47
:10D0F00038BDC046003B020010B5041CFFF7EAFF34
:10D10000201C05F09BF9201C10BD000038B5074B12
:10D11000041C03604068002804D0056905F08EF9FE
:10D12000281CF8E76060201C38BDC046C0390200EA
:10D1300010B5041CFFF7EAFF201C05F07FF9201C46
:10D1400010BD000038B5074B041C03604068002880
:10D1500004D0056905F072F9281CF8E76060201C0E
:10D1600038BDC0469039020010B5041CFFF7EAFF35
:10D17000201C05F063F9201C10BD000038B5074BDA
:10D18000041C03604068002804D0056905F056F9C6
:10D19000281CF8E76060201C38BDC046A03902009A
:10D1A00010B5041CFFF7EAFF201C05F047F9201C0E
:10D1B00010BD000038B5074B041C03604068002810
:10D1C00004D0056905F03AF9281CF8E76060201CD6
:10D1D00038BDC046B039020010B5041CFFF7EAFFA5
:10D1E000201C05F02BF9201C10BD000038B5074BA2
:10D1F000041C03604068002804D0056905F01EF98E
:10D20000281CF8E76060201C38BDC046603A020068
:10D2100010B5041CFFF7EAFF201C05F00FF9201CD5
:10D2200010BD00000F4B10B5083303600E4B041CFB
:10D23000C3600130FF30FFF76BFD0C4B201CE36037
:10D24000B830FFF763FF201CAC30FFF7B3FF201CA2
:10D25000A030FFF793FF201C6C30FFF773FF201CFA
:10D2600010BDC046D83B0200503F0200D03902003A
:10D2700010B5041CFFF7D6FF201C05F0DFF8201CBA
:10D2800010BD000038B5051CFC352C6C002C0DD1F0
:10D29000242005F0EBF8064B44608361054B846065
:10D2A000C46004614461C46103602864286C38BDB3
:10D2B000603A0200403B020038B5051CFC352C6C7E
:10D2C000002C0DD1242005F0D1F8064B4460836179
:10D2D000054B8460C46004614461C46103602864D8
:10D2E000286C38BD603A0200403B0200F7B5037974
:10D2F000071C0E1C151C002B06D000230193009365
:10D300000A246B461C7109E000F0B0FC041C0C20E0
:10D31000002C0CD101233B7100940194301CFFF7C9
:10D32000F3FBEB6800906946281C9847201CFEBD63
:10D3300010B500211F22041C05F050F90023E377EB
:10D3400010BD0000F0B5051CAC35041C686887B042
:10D35000A860A86800280BD0C368211C9847AB6858
:10D36000002B02D16968A960F3E71B69AB60F0E7A5
:10D37000251CB0352868002804D0066905F05EF841
:10D38000301CF8E7231C58331978FC220A40286027
:10D39000023B9A7098711870201C0A30FFF7C8FF82
:10D3A000201C3430FFF7C4FF606E002804D00569EC
:10D3B00005F044F8281CF8E7251C606698352868B5
:10D3C000002804D0066905F039F8301CF8E7261C5F
:10D3D0002860A4363568002D05D02F69281C05F07B
:10D3E0002DF83D1CF7E7356001AE291C301C0C22DE
:10D3F00005F0F4F8231C321C6C3383CA83C3094B39
:10D40000E567A3670C22301C291C05F0E7F8231CF4
:10D41000803385CE85C3044A9034281C1A60256069
:10D4200007B0F0BDD7CC0100C9CC010010B5002376
:10D43000021C03701132431C00241C700133934200
:10D44000FAD1418210BD0000F0B589B0002603ACCE
:10D45000051C8680311C201CFFF7E8FF211CA81D3D
:10D46000142205F099F82F1C311C0C22201C05F009
:10D47000B5F81C37201C0EC80EC70F4B311C01908D
:10D48000AB62EE62201CFFF7D1FF2B1C221C303355
:10D4900083CA83C3019A311C81CA81C30C22201C18
:10D4A00005F09CF82B1C443386CC86C3034B301C00
:10D4B0002B656E6509B0F0BDF3CC010001CD010014
:10D4C000F0B597B00593036807AC1B68049103930C
:10D4D000111C231C061CA1C9A1C3D26800250A92F5
:10D4E000291C0C220CA811AF0B9505F077F8094BFD
:10D4F000291C381C10950F93FFF798FF059D019785
:10D500000095301C0499221C0CAB039FB84717B040
:10D51000F0BDC04601CD010038B50025041C291C12
:10D5200020C0FFF783FF25766583A583E5832584E7
:10D53000201C38BD10B58AB0041C0021242201A88B
:10D5400005F04CF801A8FFF7E7FFCA235B00222291
:10D55000E01801A905F020F82368201C5B689847B3
:10D56000231C5F3300221A7090420DD0C0235B0051
:10D57000E358934208D0054B934205D0C0235B008B
:10D58000E018A188C36898470AB010BDDDCB010040
:10D5900008B5FFF7CFFF08BD00487047482A0020B4
:10D5A00000487047482A0020F0B5434B434A0833EF
:10D5B000061C0360C2600023A0221636011C4282B2
:10D5C00085B0041C0371836003748382321C35317F
:10D5D0000023137001328A42FAD180258021C901CB
:10D5E000AD00201CF3770A1C35843830009302F01C
:10D5F00047FF221C4032211C0392131C5F312A1C5E
:10D6000000251D7001338B42FAD1039B201CDD776E
:10D61000231C603319791A80FC220A409D701A710C
:10D620001D72274B291CE36625670C22783004F015
:10D63000D5FF231C88331D60271C224B0837FB674E
:10D640008437291C381C0C2204F0C8FF1E4B1F4ACB
:10D65000FB60231CA0333D611A601D4A5D60DA60E7
:10D660001C4A1D619A61DD61301CFFF761FE039861
:10D67000FFF75EFE184B601CE360231CC4331D7073
:10D680005D709D70FF3000F087FE8C235B00E550DD
:10D690008C235B00E3185D61104A80235B00E2503D
:10D6A000231C0122FE3352425A86201C023B9D63FA
:10D6B000DD631D6405B0F0BDD83B0200D039020027
:10D6C00090390200D7CC0100C9CC0100A03902007A
:10D6D000B0390200C0390200503F0200483C02004D
:10D6E00038B50C220D1C0021041C04F077FF002328
:10D6F0002361024B2560201CE36038BDE5CC0100AE
:10D70000314B70B50025041C0E1C03608571058328
:10D71000291C0C221C3004F061FF2C4BE562A36233
:10D72000231C30331D70201C231DDD87291C443031
:10D730000C2204F053FF264B65652365254BA66537
:10D740002360231C5C331D705D709D70DD70261C92
:10D75000251C6035C036281C0021FFF767FE00231A
:10D76000AB82EB821835B542F5D1A8225200A6183B
:10D77000281C0021242204F031FF281C2435FFF747
:10D78000CBFEB542F4D1A82300215B00E150B422C6
:10D79000231CFC3352009965D965196659666C6182
:10D7A000A150196759679967D967A3185C61C023AD
:10D7B0005B00E018FFF794FFCA225200A018FFF7A1
:10D7C000ABFE201C70BDC046E03A0200F3CC010065
:10D7D00001CD0100203B020070B5061CFC36F56B44
:10D7E000002D1CD1B420800004F040FE0D4B041C21
:10D7F00043600D4B856003610C4B4561C3610C4B6D
:10D80000056283620B4BC5620360211C3430FFF755
:10D8100077FFF6235B00E01802F00EFFF463F06B75
:10D8200070BDC046903A0200803A0200003B020000
:10D83000103B0200E03F0200264B70B50360264B10
:10D8400000258360254B041C4361254B0571036251
:10D85000244B4571C362C560856145620563291C1F
:10D860003830FFF73DFF201C291C4C30FFF738FFF4
:10D87000201C291C6030FFF733FF1B4B251C236045
:10D88000231C7435C433002204C59D42FBD1B22150
:10D8900049006618281C00210822083504F09EFE65
:10D8A000B542F7D1C2235B00E218002308C59542B8
:10D8B000FBD1C222C32152004900A3546318CB21DB
:10D8C000490062180021198002339342FAD1201CCA
:10D8D00070BDC046B03A0200703A0200803A0200C1
:10D8E000903A0200A03A02002040020038B5041C21
:10D8F000FC34A36B002B07D1CC20400004F0B6FD14
:10D90000051CFFF799FFA563A06B38BD38B5041C53
:10D91000FC34A36B002B07D1CC20400004F0A6FD03
:10D92000051CFFF789FFA563A06B38BD70B5031C0C
:10D930000A1C70CA70C3C9680023C160036170BD4E
:10D9400008B58130FF30FFF7F1FF08BD30B587B073
:10D95000051CFFF779FD041E24D12B1C5C331870C5
:10D9600058709870D870A8235B00E850EA1801231B
:10D970005B4253609360D3601361B4225200A8509D
:10D98000B4225200AA18211C53609360D360136123
:10D9900001A8FFF7A5FEC0214900681801A9FFF7FB
:10D9A000C5FF00E00624201C07B030BD70B5041C84
:10D9B00086B0236B6363606B002807D0C368211CAB
:10D9C0009847636B002BF4D01B69F3E7206B0028AA
:10D9D00004D0056904F032FD281CF8E7E5682063EF
:10D9E00020716071002D05D02E69281C04F026FDE1
:10D9F000351CF7E7201CE5601830FFF7D6FA201C2D
:10DA00002430FFF7F2FA291C01A8FFF769FE201C59
:10DA100001A93830FFF78AFF291C01A8FFF760FE33
:10DA2000201C01A94C30FFF781FF291C01A8FFF73A
:10DA300057FE201C01A96030FFF778FF281C06B0B4
:10DA400070BD000010B5054C201CFFF7ADFD201C7B
:10DA50000349044A04F0EBFC10BDC046482A0020EC
:10DA600025D201000028002070DF704771DF704769
:10DA700060DF704708B501F08DFE08BD08B502F003
:10DA8000A5F8002008BD0000F0B5041C8BB001F023
:10DA90009BF8201C00F002FA0020FFF781FD0368CC
:10DAA000061C1B6998473368051C9B69301C984706
:10DAB000336801905B6A301C9847031C208810383B
:10DAC0000B2800D9C8E005F0E3F90643C7C7C782B1
:10DAD000C7C7C789C7A7A688281C311C277D03F0A4
:10DAE0000EF9607B2B1C583300901878012290436C
:10DAF00002221043A179023B987018780622013067
:10DB0000187000986B46D97498761E829F74231CF7
:10DB10001633E11D05A8099304F03EFD6846211C5B
:10DB20000E3194351B30062204F036FD6968A96079
:10DB3000A868002800D18FE0C36804A99847AB68A3
:10DB4000002B02D16A68AA60F2E71B69AB60EFE7BD
:10DB50004449281CA78803F0D2F8A379301C00930D
:10DB600033681B6A9847F6214900061C06224018B4
:10DB7000391C02F05DFE338FBB4204D1736B301C45
:10DB800034309B6898472A1C56321378013BDBB22D
:10DB90001370002B05D12B1C58331A7802218A43AD
:10DBA0001A70A035009B68686A4617829374A86053
:10DBB000A868002850D0C36804A99847AB68002B18
:10DBC00002D16968A960F3E71B69AB60F0E75B69A4
:10DBD000A088A11D002B3FD098473DE0A679002EDC
:10DBE00005D12B1C58331A7801218A431A706B6EA9
:10DBF000002B31D01C4A002A2ED0AB66A86E00281C
:10DC00002AD0C368311C9847AB6E002B02D16A6ED4
:10DC1000AA66F3E71B69F0E7A37B68465A07910FF2
:10DC2000DA08677B01700272E11D04A80622DE0794
:10DC300004F0B2FC6B461878197AF60F187659760C
:10DC40009F75DE75231C0F3307932B1C8C33281C08
:10DC500080301B6804A998470198211C03F05EFDE1
:10DC60000BB0F0BDFFFF0000DDCB01001FB5A3230B
:10DC70008022DB00D205D3580D20DA0700D508201A
:10DC80001C4948221C4B01F0F7FF00280BD080B242
:10DC9000002808D1BFF34F8F184A194BDA60BFF341
:10DCA0004F8FC046FDE7002302A802934360012383
:10DCB0000370FFF7DDFE002801D0072017E068465B
:10DCC000FFF7D4FE0028F8D16946FFF7CDFE002803
:10DCD000F3D10C4802F000F880B2002807D10A48BE
:10DCE00002F004F880B2002801D100F099F905B0E3
:10DCF00000BDC046A82B00207DDA01000400FA0513
:10DD000000ED00E089DA010075DA010070470000DB
:10DD100080B2002808D1BFF34F8F044A044BDA6069
:10DD2000BFF34F8FC046FDE77047C0460400FA05B9
:10DD300000ED00E010B50278002A09D10C78131C20
:10DD4000002C13D1428A4B8AD31A5A4253410CE019
:10DD50000023012A0AD10A78012A07D101300131B2
:10DD6000102204F00AFC43424341DBB2181C10BDF0
:10DD7000F0B50E1C011C5F3191B001910B78071CAE
:10DD8000051C5C37022B7BD107AC24220021201C10
:10DD900004F024FC08A80021FFF748FB00232376A9
:10DDA0006383A383E3832384CA235B00EB58079A2E
:10DDB000934217D1CC235B00E81808A9FFF7BAFFFC
:10DDC00000280FD0CA2149006B181A7E510609D1CC
:10DDD0005A8B002A06D1DA69E1698A4202D11B8C8A
:10DDE000002B4AD0002E32D13B78182253436033A7
:10DDF000EB18DA8AD9235B00EA522A1C3032311C34
:10DE000002A80092FFF712FB009802A9FFF792FF09
:10DE1000002814D1CC235B000098E918FFF78AFF93
:10DE2000002814D0311C201CFFF700FBA81D211C6A
:10DE3000FFF780FF01235840C0B2002807D0696C6B
:10DE4000281C4430002902D0134B002B1DD1242262
:10DE50000021201C04F0C2FB002108A8FFF7E6FA0D
:10DE6000CA2252000023A818211C22222376638391
:10DE7000A383E383238404F08FFB019901230B70B8
:10DE80003B7801333B7011B0F0BDCA225200A91893
:10DE90002B6D9847DBE7C046DDCB01007FB5051C45
:10DEA0000020FFF77DFB0368041C1B69984723686B
:10DEB000201C1B6A9847061C041C288834363038FE
:10DEC000082800D99AE004F0E3FF05991384212D76
:10DED00099486500EB88002B05D1291C0C31301CBA
:10DEE00003F0B0FD8AE0636B301C9B68984785E0C7
:10DEF000EB88002B05D1291C0C31301C03F024FECB
:10DF00007CE0301C0021FFF733FF77E0636B301CAF
:10DF10005B689847002871D0291C0C31301C03F035
:10DF200071FE6BE0AB886A461380AB895380EB8946
:10DF300093802B8A12350295D380A368E360E06852
:10DF400000285BD0C36869469847E368002B02D17C
:10DF5000A268E260F3E71B69F0E7AB886A461380CA
:10DF6000AB895380AB7B13712B8AD3806B8A1435BA
:10DF7000039513816369A361A06900283ED0C3683B
:10DF800069469847A369002B02D16269A261F3E751
:10DF90001B69F0E7AB886A461380AB895380AB7B83
:10DFA00013712B8A12350295D380236A002B25D05A
:10DFB000164A002A22D06362606A00281ED0C36815
:10DFC00069469847636A002B01D1236AF3E71B690E
:10DFD000F1E7F622EB885200A018A988002B05D0A3
:10DFE00085225200934206D1002205E02A1C0C3201
:10DFF00002F031FC02E00B2202F01AFC301C03F0AC
:10E0000019FF301C03F094FE7FBDC046DDCB01003C
:10E0100077DF704778DF70477ADF70477CDF7047C3
:10E020001FB5002302AC039328232380C8235B0081
:10E030006380E38001A811230C4905220370FFF7D8
:10E04000EDFF80B200280FD180208000FFF7E2FFB3
:10E0500080B2002808D1201CFFF7DEFF80B2002824
:10E0600002D1FFF7D5FF80B204B010BD183C02000A
:10E070007EDF704768DF704738B500200C1CFFF763
:10E080008FFA03685B6A98472378051C142B17D016
:10E0900002D8132B05D042E0152B16D0222B38D0F6
:10E0A0003DE063686C6818889B78D9079A07C90FA8
:10E0B000DB06C9B2D20F5B0F002C30D0A0472EE098
:10E0C000636818889978AB681FE0626891780B09DB
:10E0D0000907090F012902D0022908D010E0013BED
:10E0E000DBB20021022B0ED80E49C95C0BE0012BDC
:10E0F00008D0023B5842434105215B42194002E0EF
:10E10000002100E004211088EB68002B07D098471D
:10E1100005E0636818882B69002B00D09847002021
:10E1200038BDC0461E3C0200014B18787047C046FF
:10E13000F12B0020F0B51C1C2D4B87B001921A78F2
:10E14000071C00200D1C824250D101F055FB002815
:10E1500046D1002C0FD0222003A90394FFF78AFF99
:10E16000002808D0082804D0113843425841043010
:10E170003CE006203AE000236846037202A800F063
:10E1800099FB011E2CD11B4E012433782540A3435B
:10E190006A0027401D1C3D43019B02270720BD4309
:10E1A000034015431C22BB4095431D43357003AD0E
:10E1B0000C22281C04F012FA0F4B6846311C052271
:10E1C000113003932F7104F0E7F90C48291C00F07B
:10E1D000E3FB031E06D0042807D00620082B05D039
:10E1E0000B2003E0024A147000E0072007B0F0BDE6
:10E1F000F12B00201828002079E00100F02B0020EE
:10E2000008B5084800F090FC0023984207D0042885
:10E2100004D00623082802D00B2300E00723181C93
:10E2200008BDC046F02B002073B500230193104BAE
:10E2300001AD1B780E1C291C2B7000F089FE041EFA
:10E2400004D00B23052810D104230EE0281C311C18
:10E2500000F0DCFB231C002807D0042804D0062390
:10E26000082802D00B2300E00723181C76BDC04607
:10E27000F02B002073B5114C0D1C061C211C6846A8
:10E28000052204F089F9012D06D0022D13D123783F
:10E2900001221343AB4303E023780222AB439343B1
:10E2A000301C69462370FFF7E3FE421E90410B23AA
:10E2B0004042034000E00223181C76BD18280020CD
:10E2C00008B5094B011C1A780923002A09D0074810
:10E2D00000F0D4FB0023984203D006230E2800D17F
:10E2E0000323181C08BDC046F12B0020F02B002092
:10E2F00008B500F07CFE08BD08B502230B708E2324
:10E300000B714F234B710A1C7C238B71013204313A
:10E3100000F044FE08BD4368426910B5D118041CE2
:10E3200000F050F8E36A002B04D1A369002B07D05A
:10E33000984705E0A069002802D0211C1C319847AD
:10E3400010BD10B5041C00F045F80023A361E36282
:10E3500010BD38B50D1C041C00F03CF86561206947
:10E3600001F0D9FD4119201C00F02CF838BD08B58A
:10E37000C36A011C002B04D18369002B06D0984787
:10E3800004E08069002801D01C31984708BD08B519
:10E3900003689B68984708BD084B10B508330360B5
:10E3A000002343608360C360041C01F0B9FD04498D
:10E3B000206101F04BFD201C10BDC046583C0200FE
:10E3C0008FE3010008B50A1C031C011D006901F060
:10E3D00069FD08BD08B5011C0431006901F07EFD2E
:10E3E00008BD000010B5044B041C08330360FFF7A0
:10E3F000F1FF201C10BDC046583C020010B5041CA3
:10E40000FFF7F0FF201C04F019F8201C10BD08B520
:10E41000012004F057F87047704708B5FFF7FCFF7C
:10E42000FFF7F9FF01F0A8FF08BD0000084B1B68CB
:10E430001818EFF30882904205D3064B0C220120F6
:10E440001A60404202E0024A1060181C7047C04641
:10E4500020280020CC2D002008B5002800D1FEE7A0
:10E4600001F084FCFBE77FDF704782DF7047A7DFA6
:10E470007047A9DF7047AADF70470020704700206F
:10E480007047002070470020704700207047002030
:10E490007047002070470000F0B58BB06C460E232B
:10E4A000E382039001914B780C225343244A1634A3
:10E4B000D318188906A9221C0323FFF7DCFF0028C4
:10E4C0003BD1019B18275B781E4D5F4300933B1C9B
:10E4D00026880833EB18181C06A9321C029304F096
:10E4E0004CF82C1C00280DD1009A0C235343144ADD
:10E4F000D318997A022319401FD1E819182204F081
:10E500006DF81AE0ED196B68002B01D00E4F00E09A
:10E510000E4F009B18256B430322E250E3185E6008
:10E5200006A9321C029804F037F8019B0398597829
:10E530002A1C694338236118B84700200BB0F0BD8E
:10E54000F62B0020582C00200DFA01008DF9010057
:10E5500008B5FFF7A1FF08BDF7B5041C0F1C6A46FC
:10E560008178224801F0EAF900283DD162780C2137
:10E570004A431F4B9A18927A530605D4022F03D0B0
:10E58000012F03D11B4D02E01B4D00E01B4DA17874
:10E590001C2671431A4B68465918321C0023A847A1
:10E5A000002813D1022F1FD063780C225343104A46
:10E5B0004021D3189A7A68468A439A726178114B3F
:10E5C0007143321C5918331CA84701E0022F0BD0AD
:10E5D00023780C2253430C4A6846D3189A7A0B4B83
:10E5E0009200D358211C9847F7BDC046802C0020CC
:10E5F000F62B00208DF901000DFA01007BE40100EB
:10E60000042C00203C2C0020702C0020803C0200B8
:10E61000F7B50190437818215943264A264F5018E0
:10E620004468002C0FD00C2058433818807A45B22B
:10E63000002D07DA450605D40E1C0836A5B296193A
:10E640008C5802E00024251C261C0C225343FB1886
:10E650001889311C2A1C231CFFF70BFF0B280BD138
:10E66000019A311C53780C225343FB1818892A1C39
:10E670000123FFF7FEFE0124002800D00F48012CE3
:10E6800017D1019D0C216B780D4A4B43FB1818895B
:10E69000FFF7EDFE00280CD00A4B984208D008285E
:10E6A00006D0094B984203D0112801D0002000E089
:10E6B0000248FEBD582C0020F62B002041800000AF
:10E6C000FFFF0000023000000430000008B5FFF733
:10E6D0009FFF08BD70B5031C487818246043094D9E
:10E6E0000E1C2818191C221C382301F0CFF9002811
:10E6F00006D173785C432D196B68013300D16860D3
:10E7000070BDC046582C002008B5FFF7E3FF08BDD8
:10E71000F0B51D1C434B161C1A6893B001900F1CDA
:10E72000002A7CD01898542879D803ABFF22002403
:10E7300069465A709A70DA701C700C760B950A90C4
:10E74000A1B2394804AA01F0F9F8002809D10198CA
:10E7500004A9082203F011FF002802D103AB9C702A
:10E7600002E00134022CEBD103ACA278FF2A56D090
:10E77000032F0AD1189A06AB542A01D1202200E0B7
:10E7800040221A701A7803213BE0284BEB1A372BF2
:10E7900011D8274B002E04D101211868914008425E
:10E7A0003DD0012191400A1C196891431960202233
:10E7B00006AB1A7020E01F4BEB1A1B2B09D806ABD7
:10E7C00020221A70002363700CAB0B9318230A935A
:10E7D00012E019482D1A172D21D830236A461376D6
:10E7E000002363700123E370144B997A02231940CC
:10E7F00002D1182203F0F2FE06AB022F0CD11A78D8
:10E8000001210A4307481A7009AB079306A9036858
:10E81000321C201C984702E01A780221F1E713B05D
:10E82000F0BDC046702C0020802C0020042C00205D
:10E830007C2C00203C2C0020582C0020F62B0020A3
:10E8400070B51C2444430E4E051C301900213419A8
:10E850000622113003F0C2FE201C0021102203F01A
:10E86000BDFEFF232374A37601235B422383012291
:10E87000044BAA40151C1A68AA431A6070BDC04612
:10E88000042C00207C2C002037B581B2051C6A4680
:10E89000074801F053F8041E08D16846542101F0DE
:10E8A0003FF9041E02D1281CFFF7CAFF201C3EBD01
:10E8B000802C0020F0B5061C85B0002857D02D4BC9
:10E8C0002D48012500246F421C605C729C72211C43
:10E8D0000781C7720722857203F080FE211C18226F
:10E8E000264803F07BFE201CFFF7AAFF244CFF23E1
:10E8F000281C2370FFF7A4FF6A4654236770938097
:10E90000204C0223D380204B6846211C009300F04A
:10E91000B5FF271C00282BD11C4A33781570151C15
:10E92000002B1BD11C1CA1B2381C02AA01F006F856
:10E93000061E0CD11C22131C6343154802A9C018E3
:10E94000331C01F0A3F8002804D02E7010E000233F
:10E950002B700DE00134022C0AD0E4E76B46D98815
:10E960009B88201C594389B201F0DAF800E009487D
:10E9700005B0F0BD702C0020F62B0020582C002094
:10E98000F22B0020802C002011E70100F42B002046
:10E99000042C00200E800000F8B5174B071C1B78D4
:10E9A0000D1C002B22D0002822D0002920D00B687B
:10E9B000002B1DD0114C2668002E1BD1201C08C036
:10E9C0000531052203F0E8FD207A2B7901218843E7
:10E9D0000222A3721043042398432072E07901437A
:10E9E0000A439A43E271301C3E7004E0044802E09E
:10E9F000044800E00448F8BDF42B0020702C0020EF
:10EA0000088000000E80000004800000154B1B7879
:10EA1000002B22D000281ED000291CD00378002B08
:10EA20001BD1114B1B68002B17D04278002A16D13E
:10EA30000E4B9B7A012B12D02420184003D00123C7
:10EA40000B70101C0CE05BB2002B02DA02230B707F
:10EA500006E0087004E0064802E0064800E00648C8
:10EA60007047C046F42B0020702C0020F62B0020AD
:10EA70000E8000000880000010800000234BF0B5DD
:10EA80001B78002B25D0002821D000291FD00B682F
:10EA9000002B1CD08D68002D19D00378002B18D1C5
:10EAA0001B4A1268002A14D01A481A1C10301C1C69
:10EAB000194DEE7AB3420ED1AD7AAE070BD50133C4
:10EAC0001C30022BF4D10C710A7300201CE0134897
:10EAD0001AE0134818E00D7BAA420AD2857AEE07A5
:10EAE00007D4061C8F689500103EEE510D4DAB54B7
:10EAF00001320D79AC42E2D2857AAE07DFD40F68DD
:10EB0000A500E8510134DAE7F0BDC046F42B00203F
:10EB1000702C0020042C0020F62B00200E8000001A
:10EB200008800000F22B0020104B10B51B78002B42
:10EB300019D0002815D00078002814D10C4B1B6880
:10EB4000002B10D00B4B9A7E1C1CFF2A01D0FFF724
:10EB50009BFE36342378FF2B06D00120FFF794FE6E
:10EB600002E0054800E0054810BDC046F42B002037
:10EB7000702C0020042C00200E8000000880000073
:10EB800013B5041C81786A460B4800F0D7FE0028B4
:10EB900010D160781C235843084A694610181A1C83
:10EBA00000F074FF064B68469A7A064B9200D358E1
:10EBB000211C984713BDC046802C00203C2C00200F
:10EBC000702C0020903C0200F0B5C64A8FB012783D
:10EBD000FF23061C0393002A00D1B4E1C24A116846
:10EBE000002900D1AFE104AD05AF6B70AB70EB70E5
:10EBF000031D7B602A233B81038800222A70BB4CC3
:10EC0000102B22D0A17A82880191890707D5B849B3
:10EC10008A4200D149E12189914200D145E1172B77
:10EC200000D1ACE007D8132B53D0142B2DD0112BCF
:10EC300000D088E10FE01C2B00D11CE1522B00D149
:10EC400011E1182B00D07EE1E5E0A37A01210B420F
:10EC500000D02FE177E101990223019A9943A17233
:10EC6000120707D54BB2002B0BDA281C0021FFF747
:10EC700073FC06E0A878FF2803D0FFF7E1FDFF232F
:10EC8000AB701023A3721223F6E0E37A994FFF2BA7
:10EC900014D1F3893A8B9A4204D0BA8E9A420DD19C
:10ECA000012300E000230199082203930A43DBB209
:10ECB000E372A272281CAB70FFF762FFE37A0021B7
:10ECC000FF2B00D08C49B0883A1C0023FFF7CDFB06
:10ECD00039E1019A3B7004231343A372E37AFF2BBB
:10ECE00025D184498B7EFF2B06D00B1C36331B7835
:10ECF0000127FF2B29D100E0002723781C2078432F
:10ED0000022B09D07B4AFD2310188376211C072291
:10ED1000103003F041FC03E0764B1818FE23837695
:10ED200003AB1F700399CBB2AB70E3720BE0734877
:10ED300016230E22083000213B7003F04FFC019A8D
:10ED400044231343A372002400E06D4C0021674B61
:10ED50000B91DB7A1C225343664A0D91D3180C9316
:10ED6000654B614A089309910A91B088043208AB57
:10ED7000FFF779FB002800D0E5E0221C7EE05A492D
:10ED800001224B7A9343019A4B7204239A43142332
:10ED9000A2723B70B379002B04D0E07AFFF774FDC8
:10EDA000B2796BE0F379590767D5AB78FF2B64D064
:10EDB00008210A43F17AA2728907C90F012906D1F5
:10EDC0001C225A434B488218907E88439076E27A00
:10EDD000FF2A52D02178474A1C2602290CD05E43D4
:10EDE0009619301C07221030211C03F0D5FBB37E8E
:10EDF00002229343B37609E073433F49D318498A0B
:10EE00001A1C19839B7E01218B439376281C0121B8
:10EE1000FFF7A2FB31E0B379112B15D1019A12074C
:10EE200012D5364800210E22083003F0D7FB1623F6
:10EE300001993B7060230B432B4AA372537A2A49F2
:10EE4000022213434B7218E0019A80235B42134362
:10EE5000A37215233B70244B281C9A7A294B9200ED
:10EE6000D358984709E02049264B8A7A281C9200FB
:10EE7000D358984767E013233B7000221A4905AC2A
:10EE80000B68281C211C98472378122B5BD117484C
:10EE9000837A012B57D0012383725B420381C372B3
:10EEA0000021072203F09AFB4DE0E27AAA700022CB
:10EEB0006A70B4E611233B706A708388871D2381D2
:10EEC0000223A372201C391C072203F065FB737D0B
:10EED000DA071BD50C4A5B08D35CFF2B29D00393C0
:10EEE00027E0C046F42B0020702C0020F62B0020D9
:10EEF000FFFF0000042C00203C2C0020582C002098
:10EF000043800000703C0200F22B00200F4E391CA1
:10EF1000301C1030072203F030FB002808D0301CD2
:10EF20002C30391C072203F028FB0028A5D1012032
:10EF30000390039A281CD3B20A22E372A272AB7028
:10EF4000FFF71EFE99E70FB0F0BDC046042C00206D
:10EF500030B5002912D00A78002A11D10A4B1B685B
:10EF6000002B0DD0FF23094C8B702589052385428A
:10EF700007D14A70E37A8B70131C02E0044B00E067
:10EF8000044B181C30BDC046702C0020F62B00200E
:10EF90000E800000088000004DDF704730B5002370
:10EFA0008DB00D1C141CC21AD27B69465A54013311
:10EFB000102BF8D1002104A80D2203F00FFB2B78B1
:10EFC0006A46D3776B7868469377AB785377FFF7C9
:10EFD000E3FF6B462F331B7823706B462E331B7871
:10EFE00063706B462D331B78A3700DB030BD30B508
:10EFF0000378041C85B00D1C0020022B16D1611C67
:10F00000032201A803F0C8FA211D032203A803F07C
:10F01000C3FA281C03A902AAFFF7C0FF01A802A98E
:10F02000032203F0AAFA43425841C0B205B030BDF2
:10F0300008B5064B586980235B05421C04D019694A
:10F0400089B203F02FFF00E0586908BD00100010DE
:10F0500029DF704728DF704708B5034B1A78034B48
:10F060009200D358984708BDD02C0020A03C020045
:10F0700037B50B1C074C89680C254D43246819785B
:10F08000021C181C1B690094034C08302C59A04723
:10F0900037BDC046D82C0020BC2C002008B5104A33
:10F0A000142113784B43D318802218695205116933
:10F0B00004335A8801389B888018C01889B203F03D
:10F0C000F1FE084A031C126801209A4207D300206F
:10F0D0009A4204D1044B186843425841C0B208BD5B
:10F0E000882C0020B42C0020B82C002008B5044B3C
:10F0F0000822196891431960FFF7AEFF08BDC046AA
:10F10000CC2C0020094A08B5136819070AD49907BE
:10F1100002D501210B431360054B02221A70FFF741
:10F120009BFF01E0FFF7E2FF08BDC046CC2C0020AA
:10F13000D02C002008B5064B1B681A0705D4054BD8
:10F1400001221A70FFF788FF01E0FFF7CFFF08BD2B
:10F15000CC2C0020D02C002008B5002814D0112879
:10F1600005D10A4B082219680A431A600CE0084BC3
:10F1700014211A7851435B18191DFFF779FF054BCD
:10F1800004221A7000F096F808BDC046CC2C00206E
:10F19000882C0020DC2C002008B5FFF759FFFFF772
:10F1A000DBFF08BDF8B5134B14241A7880255443AF
:10F1B0006D051C1904342F696288BFB2A088E3680A
:10F1C00021690D4EBA420DD92C69C018A4B2121B88
:10F1D0002C6980188918A2B29208FFF7DDFF2B690D
:10F1E0009BB204E0C0189208FFF7D6FF6388336033
:10F1F000F8BDC046882C0020E82C002038B50A4A0B
:10F2000080246405236915689BB2013D5D43FFF7C7
:10F210000FFF2169054B013889B241431A68281C48
:10F22000FFF7BAFF38BDC046B42C0020E42C002004
:10F2300070B5104A1421137880254B43D3181A89CE
:10F24000DC880433DB686D05A4182969E418201CE8
:10F2500089B203F06BFE0E1CFFF7EAFE2969013844
:10F2600089B24143044B89191A68201CFFF794FFA7
:10F2700070BDC046882C0020B82C002010B5FFF7C8
:10F28000D7FE80235B051C6919691A69431EA0B269
:10F290005843044B89B21B6892B259439208FFF756
:10F2A0007BFF10BDB42C002008B5FFF7D3FEFFF79D
:10F2B00053FF08BDF0B52B4B85B0187803284FD805
:10F2C00003F0E6FD020E114A274A00231360274A85
:10F2D0001360274B5B78002B42D000F0DFF83FE053
:10F2E000FFF760FF3CE0234C0123226814260192C3
:10F2F0009A431F4B226002921A78802756437F055B
:10F300009E1933693969181C89B2039303F0CAFD49
:10F31000194B051C186003983969F3880138C01827
:10F3200089B203F0BFFD854203D1029A0223134341
:10F3300003E0019A03239A43131C23600F4B1A68BE
:10F340000F4B002A03D121680222114200D0002273
:10F350001A70FFF781FE03E0074B1868FFF7A4FF60
:10F3600005B0F0BDDC2C0020E02C0020E82C0020B3
:10F37000882C0020CC2C0020B42C0020E42C002071
:10F38000D02C0020F0B53F4A1421137885B04B43B0
:10F39000D318D8680C22424302903B48802582183B
:10F3A00054891089526860436D0582182969019259
:10F3B000DA881E6903921F89344CD3199B19009374
:10F3C0000023236089B2301C03F0B0FD00290AD16C
:10F3D0002B6903989BB2984208D00099019A9142F8
:10F3E00001D1002F02D0029B022B08D12969301CC9
:10F3F00089B203F057FD264B186003233CE02969CE
:10F40000B81989B203F092FD224B89081960009A5D
:10F41000019B8024640529699A422CD089B2101C72
:10F4200003F084FD002926D0019A0098216985B255
:10F4300089B290B203F036FD2769061CB9B2281CC8
:10F4400003F030FDB6B280B2864208D1019B00982D
:10F450009AB283B2D31A0D499B080B600BE0236963
:10F460002169281C89B29CB203F060FD89B2641A3C
:10F47000064AA4081460022307480370FFF71AFF26
:10F4800005B0F0BD882C0020BC2C0020B82C00203A
:10F49000B42C0020E42C0020DC2C002008B50B4A02
:10F4A000142113784B43D318D988094A1B7911606A
:10F4B000032B08D0042B06D0012B06D1054A13706C
:10F4C000FFF7F8FE01E0FFF75DFF08BD882C002084
:10F4D000D82C0020DC2C0020F7B508AC2488114D76
:10F4E00001946E780424022E19D02C78A419012CD2
:10F4F00000D9023C14277C432C196261221C207124
:10F500000C3281C981C2E380074B01981B782081AE
:10F51000013600246E70A34201D1FFF7BFFF201C0B
:10F52000FEBDC046882C0020DC2C002038B5124CD3
:10F53000142521780020694361180431FFF798FDF4
:10F5400021782A1C4A430023A21801251371D38075
:10F55000D5601361536113816278013A62704A1970
:10F56000D2B2022A01D0227000E02370034A137045
:10F57000FFF7A0FE38BDC046882C0020DC2C002000
:10F5800008B5084B14211A784A439B181B79042BA1
:10F5900002D0FFF7CBFF04E0034B01221A70FFF704
:10F5A00089FE08BD882C0020DC2C0020F8B51F4DFA
:10F5B00008242E68344023D11D4A142113781D4F8E
:10F5C0004B433F68D31880211869DA884905043312
:10F5D0009B880969002F16D001388018C01889B29D
:10F5E00003F060FC144B1B6883420CD1134B1C606E
:10F5F00001231E43124B2E601C70FFF72DFD13E0FC
:10F60000FFF774FD10E0FFF749FD002804D00B4B15
:10F6100000221A60022202E0002F03D00322084BCE
:10F620001A70EAE7FFF7ACFFF8BDC046CC2C00200B
:10F63000882C0020B82C0020B42C0020E42C0020C2
:10F64000D02C002008B5054B1B681A0702D4FFF721
:10F6500097FF01E0FFF74AFD08BDC046CC2C002013
:10F6600038B5154D2C68220723D4144B1A68013283
:10F670001A60134B04221B68002B04D1FFF70EFD08
:10F68000002802D002220F4B0CE00F4B1B68002B0E
:10F690000CD00121221C0A400A4B02D10C432C60E1
:10F6A00000E003221A70FFF7D7FC04E0FFF768FFC1
:10F6B00001E0FFF71BFD38BDCC2C0020B42C00204E
:10F6C000E42C0020D02C0020B82C002008B51E4BC4
:10F6D0001B78022B30D0032B19D0012B32D11B4BBE
:10F6E00008211A680A4222D1194B14211A784A4378
:10F6F0009A18184BD1881B68CB1A9BB2D380002B69
:10F7000002D1FFF713FF1DE0FFF74CFD1AE00F4B8E
:10F7100008211A680A420AD10F4B1A6801321A608E
:10F72000FFF7BCFC002804D1FFF72AFF0AE08A4358
:10F730001A60FFF7BFFD05E0084B1A78084B9200EE
:10F74000D358984708BDC046DC2C0020CC2C0020A4
:10F75000882C0020E82C0020B42C0020D02C002085
:10F76000B43C020008B5024B1868FFF79DFD08BDC8
:10F77000B42C002008B5FFF75BFC80235B051A69F9
:10F780001969431E90B2584389B203F08BFBFFF70F
:10F790008BFD08BD38B5144C042523781A1CAA43E8
:10F7A00021D002281DD003281DD1104A126811074C
:10F7B00017D40F490A6801320A60032A04D0022BC9
:10F7C0000CD1FFF749FC0EE00A4B14211A780D20EA
:10F7D00051435B18191DFFF74BFC2570FFF76AFDBD
:10F7E00001E0FFF773FF38BDDC2C0020CC2C00209B
:10F7F000E02C0020882C0020174B10B5012200249B
:10F800001C705C701C71DC80DA601C615C611C81A6
:10F810001C765C831A625C629C629C830F4B1C802A
:10F82000FFF706FC80235B051A69831E90B25843DC
:10F830000B4B042218600B4B201C1C600A4B1C60F5
:10F840001C815C81094B1C70094B1C60094B1C60BE
:10F85000094B1A6010BDC046882C0020C82C00201F
:10F86000D42C0020B42C0020BC2C0020DC2C002048
:10F87000E02C0020E82C0020CC2C00202B4BF7B5EE
:10F880001B680E1C0421041C08200B424DD0002CC8
:10F890004AD0002E48D02268002A45D080277F0514
:10F8A0003A69A38892B2934201D907203DE00F2B19
:10F8B000FBD9E288002AF8D053431D490D685B1933
:10F8C0000193FFF7B5FB3A69431E90B25843019A82
:10F8D0008242EAD8A3889907E7D1164A04201788FC
:10F8E000012F22D00C2078431349376075602668B9
:10F8F0000A18556046501381E088013750818022F4
:10F9000052055843166911691469B2B2801801385A
:10F9100089B203F015FBA4B24443054E054B6519AB
:10F9200035601F80002000E00E20FEBDCC2C0020A2
:10F93000D42C0020C82C0020BC2C0020114B30B54A
:10F940001C68082365071AD5002815D0002A13D093
:10F950000368002B12D10C4C2568002D0ED0258990
:10F960004068694309186089454360682D18A942B9
:10F9700004D21360516002E00E2300E00723181C3C
:10F9800030BDC046CC2C0020BC2C0020F0B5141C8F
:10F990001C4A051C126885B00F1C082051072ED583
:10F9A000002F2BD0002D29D02A680720002A26D12D
:10F9B000154E3168002922D06A6803923289718914
:10F9C000766851438C4603996644B14217D2002CA5
:10F9D00015D0944213D8E618964210DC032210206A
:10F9E00017420CD113420AD1114208D10093291CAD
:10F9F0003A1C231C0120FFF76FFD00E00E2005B02C
:10FA0000F0BDC046CC2C0020BC2C0020F0B5141C4E
:10FA10001C4A051C126885B00F1C082051072ED502
:10FA2000002F2BD0002D29D02A680720002A26D1AC
:10FA3000154E3168002922D06A6803923289718993
:10FA4000766851438C4603996644B14217D2002C24
:10FA500015D0944213D8E618964210DC03221020E9
:10FA600017420CD113420AD1114208D10093291C2C
:10FA70003A1C231C0420FFF72FFD00E00E2005B0E8
:10FA8000F0BDC046CC2C0020BC2C0020F0B5161CCC
:10FA9000214A85B0126802900D1C0824500738D501
:10FAA000002931D0029900292ED02C68002C2DD1AC
:10FAB0001A4F3A68002A29D0398978896A684843F8
:10FAC000844678688444624520D2002E1ED08E423F
:10FAD0001CD8F018884219DC02980321084217D17B
:10FAE0000B4215D11140039112D19918321C02F02A
:10FAF00053FD29680C234B430096FE58281C022115
:10FB0000039A029BB04704E00E2402E0072400E0C1
:10FB10001024201C05B0F0BDCC2C0020BC2C0020F3
:10FB2000F0B5204B85B01B68061C0D1C08245A0735
:10FB300034D5002831D003680724002B2ED11A4B6E
:10FB40001A68002A2AD01A894768029258685B8985
:10FB500053431B1803939F4220D21024BB071DD18F
:10FB6000381A111C03F0E2F90724002916D1281CC9
:10FB7000029903F0DBF989B200290FD1002D0DD0D5
:10FB8000039AEB19934209D8002200920320311CFA
:10FB90002B1CFFF7A1FC041C00E00E24201C05B068
:10FBA000F0BDC046CC2C0020BC2C00202EDF7047BE
:10FBB00051DF704710DF704711DF704761DF70471A
:10FBC00008B5081C111CFEF7A1F808BDF0B5254BBF
:10FBD00085B01B78002B42D0234E244F326854420C
:10FBE00054413A68E4B255425541EDB2002C34D14B
:10FBF00003A8FFF7DDFF05280AD0002804D0211C48
:10FC0000221CFEF785F804E003983368984700E06B
:10FC10000124002D1ED1164B03A91B880B80154B08
:10FC20001B68181C0193FFF7C9FF051E052D0BD09B
:10FC3000002805D000210A1CFEF76AF8002504E020
:10FC400001983A68904700E00125002CCED0002DA5
:10FC5000CCD004E0002C02D1C8E7002DDBD005B0E9
:10FC6000F0BDC046EC2C0020F42C0020F82C002025
:10FC7000EE2C0020F02C002038B5041C07200029B1
:10FC800013D08D0711D1094801600949201C0A8051
:10FC9000084A09491360FFF78DFF002805D1074B7B
:10FCA000012216201A70FFF781FF38BDF02C0020CA
:10FCB000EE2C0020FC2C0020C1FB0100EC2C0020CD
:10FCC00008B5FFF779FF021C531E9A41014BD2B2CF
:10FCD0001A7008BDEC2C0020002803D0024B1860DD
:10FCE000002000E00E207047F82C0020002803D0F0
:10FCF000024B1860002000E00E207047F42C00201A
:10FD000008B5074B1B68002B07D09847002806D082
:10FD100000210A1CFDF7FCFF01E0FFF757FF08BDBB
:10FD2000FC2C002038B5051C0C1C131C291C024897
:10FD3000221C00F054F838BDC83C020038B500233E
:10FD4000C356041C0D1C013304D106480649242265
:10FD5000FFF7E8FF6368002D01D0E26800E0226948
:10FD6000136038BDF93C0200113D020000B599B0A6
:10FD700068460F2100F065F806A80F2100F061F831
:10FD80000CA80F2100F05DF812A80F2100F059F81F
:10FD900068460121FFF7D2FF06A80021FFF7CEFF3A
:10FDA0000CA80021FFF7CAFF12A80121FFF7C6FF28
:10FDB000962000F0CCF868460021FFF7BFFF06A8A8
:10FDC0000121FFF7BBFF0CA80121FFF7B7FF12A825
:10FDD0000021FFF7B3FF962000F0B9F8D8E70FB481
:10FDE000012008B502F06EFB38B50023C356041C91
:10FDF0000D1C013304D1064806492422FFF792FF67
:10FE00006368002D01D0E26800E02269136038BD0C
:10FE1000F93C0200113D020070B50D1C041C161CBB
:10FE200000F09CF801350BD0201C311CFFF7DCFFE3
:10FE3000201C012100F0B0F8201C002100F0A6F8E1
:10FE400070BD08B50022FFF7E7FF08BD38B50368AD
:10FE5000041C1B680D1C984763681D6038BD38B5CD
:10FE60000368041CDB68984763685A682368002AA3
:10FE700002D19B68984714E05B68156898476368EF
:10FE80002D1A002D08DC5A68916859601B68002BF8
:10FE9000EAD050689847E7E75B68226818681369FA
:10FEA000984738BDF8B50D1C72B64B600A604168C2
:10FEB00000234C68002C05D02768D61B02D4231CD5
:10FEC000A468F7E7002B05D103684D601B69101C7F
:10FED000984700E09D60AC6062B6F8BD08B572B6A8
:10FEE000426853688B420FD19B6853600268002BB5
:10FEF00002D1936898470CE018681369984708E0A6
:10FF00009A688A4203D0131C002BF9D101E089685A
:10FF1000996062B608BD08B503685B68984708BD7C
:10FF200000487047C43D020008B50248FFF797FF3C
:10FF300008BDC046C43D020038B5041C00F07CF981
:10FF4000051C00F079F9401BA042FAD338BD08B572
:10FF5000FA239B005843FFF7EFFF08BD01704B1CCD
:10FF60000AD001238B404360044BC360044B036100
:10FF7000044B4361044B83607047C0460805005042
:10FF80000C050050100500501405005008B500780D
:10FF900040B200F01FF808BD38B50023C356051C59
:10FFA0000C1C013304D1094809492A22FFF7BAFE83
:10FFB000002C01D0012C07D10022AA56A023C13267
:10FFC000FF329200DB05D45038BDC046F93C020038
:10FFD000CC3D020038B5041C0D1C431C04D10A485A
:10FFE0000A491A22FFF79EFEA023A000DB05C018D5
:10FFF000E023DB00C2580C218A43C250C258AD0036
:020000022000DC
:100000001543C55038BDC046FE3C0200663E0200A6
:10001000114A00211165114A114B1188114A99505A
:10002000114A1178002904D010490888A821C90074
:1000300058505178002903D00C4948880C49585031
:100040009278002A04D0094A9188A922D2009950B6
:1000500001221A607047C046FCA0004024280020FE
:1000600000A000404C050000082D0020262800209C
:1000700044050000124AC1239B00D15810B5080660
:1000800003D51049096A002911D1D3585A0716D54A
:100090000C4BDA68002A12D00024DC60084AA32343
:1000A000DB00D058C0B200F0C1F9211C00E00121F2
:1000B000054B1868002802D0044B1B68984710BDF8
:1000C00000200040FC200040102D00200C2D0020BE
:1000D00003681A1CFC32106A0128FAD10020106251
:1000E000014AC9B2995070471C0500000368FC33EF
:1000F000186A013843425841704700000A490B4AC8
:1001000088680B4B002808D0186801301860002060
:1001100088600220D2218140505006491B68525805
:100120001806190A10437047FC10014000100140E6
:10013000182D0020040500002F23C046C046C046ED
:10014000C046C046C046C046C046C046C046C0467F
:10015000C046C046C046013B002BEED170470000B0
:10016000F8B5184B9A68002A0AD0174A022011687D
:100170000131116000229A601449D22282408850D5
:100180005B6C124C002B1CD00E4B8025D2229200AF
:1001900000266D025E64A5500D4A1378B34210D05C
:1001A0000C4B1F68FFF7AAFF3F1AB74209DC084B48
:1001B000D2221E70C2239B009200E550A550FFF78B
:1001C000B3FEF8BDFC100140182D002000100140C6
:1001D0001D2D0020142D002038B5124C2278002A45
:1001E0001FD1114BA121C9005A500222D2219140A6
:1001F0005A50C12191405A500C4AC4218900555887
:100200000B482840C0252D02284350508021C02093
:10021000890240000125115011601D60FFF78CFF1D
:10022000257038BD1C2D00200010014000E100E0C9
:10023000FF00FFFF0000000008B50B4B1B78002BF0
:1002400001D1FFF7C9FFFFF759FF064B044A02F03F
:10025000F9FE4904C00B084308BDC046C046C0466D
:1002600040420F00000000001C2D0020C046C04688
:100270002F4B70B51B78061C002B01D1FFF7ACFF8C
:10028000FFF73CFF254B244A02F0DCFE4B04C00B79
:10029000002400251843CD0B0023321CA4185D4117
:1002A00080231B06984205D9002E03DB1C4A1D4BF8
:1002B000A4185D41610CEB030B43E2031A481B4990
:1002C00080185941154B144A02F09CFE194D041C2C
:1002D0002B78194E002B02D0336898421BD0FFF7C1
:1002E0000DFF201A022802DCFFF708FF841C210200
:1002F000124BA822D200090A99502A783460002AA9
:1003000009D101222A70D2218022520289005A503A
:10031000C12189005A5070BD40420F00000000000A
:1003200000000000010000003F420F00000000003C
:100330001C2D00201D2D0020142D00200010014038
:10034000074B1A78002A0AD0064A8021C2204902A7
:1003500080001150D2208000115000221A70704786
:100360001D2D002000100140024B00229A605A64AB
:100370007047C046FC10014008B5FCF77DF9FCF75A
:1003800097F9FCE7FF230E2801D8024B1B5C58B2FB
:100390007047C046FE3E020001207047054B1A1C04
:1003A0004032107841331B784030C01A3F23184048
:1003B0007047C0461E2D0020084A111C101C4131F8
:1003C00040300B780078984205D0D05C01333F2252
:1003D00013400B7001E00120404270471E2D0020A9
:1003E000064B1A1C191C413240311278097891428F
:1003F00001D0985C01E00120404270471E2D002092
:1004000007B5034B68460093FFF762FE0EBDC0467A
:100410000020004007B5044B00936846FFF766FED6
:100420000028FAD007BDC0460020004030B5074B79
:100430003F211A1C40321478651C29401D1C41358F
:100440002D788D4201D01855117030BD1E2D002021
:1004500000234360FA239B008360024B0833036050
:100460007047C046103F020008B5034801F055FF31
:100470000248FFF7EDFF08BD1E2D0020602D002073
:10048000F7B5FA260093B60008AB041C1B78301CA5
:1004900048431449171C019302F004FD85B2301C37
:1004A000258078430F4902F0FDFC009B80B2A380B9
:1004B000019B6080A371032D01D80423238022882F
:1004C0008023DB019A4200D92380032801D804222B
:1004D000628062889A4202D98023DB016380201CFB
:1004E000FEBDC0467102000093DF704708B5036887
:1004F000002B01D0081C984708BD08B50368002BE5
:1005000001D0081C984708BD10B50B78041C037077
:100510004B8A102243820131013002F03DF8201C49
:1005200010BD38B502680B68051C0C1C9A4201D03E
:1005300000202CE00379002B07D10B79002BF7D199
:10054000C28ACB8A9A42F3D10BE0012BF0D10B790E
:10055000012BEDD105300531102202F00EF80028F4
:10056000E6D12A7E217E7F231A400B409A42DFD1BA
:100570006A8B638B9A42DBD1EA69E36900209A4275
:1005800005D1238C288CC01A43425841C0B238BDD3
:1005900070B5051C0E1C00242819311CFFF7C1FF83
:1005A000002803D14C34E42CF6D100E0012070BDCA
:1005B00007B501AB1980191C5A80FFF795FF102869
:1005C0000CD003D8002398420BD009E00523112852
:1005D00007D0054A0423904203D001E0032300E042
:1005E0000B23181C0EBDC0460230000070B500255C
:1005F000041C291C20C0FCF719FF0C26201C291CF8
:10060000321C25766583A583E5832584243001F09B
:10061000E5FF074B201C65632363291C321C38301F
:1006200001F0DCFF034BA564201C636470BDC04671
:10063000ED040200FB04020010B5041CFFF7D6FF16
:10064000201C4C30FFF7D2FF201C9830FFF7CEFF64
:10065000201C10BDF8B50D1C1E1C08C9041C08C0C8
:10066000171CFFF751FF2B7E3A1C23766B8B63839D
:10067000AB8BA383EB8BE3832B8C2384231C24334E
:1006800023CA23C3FF68002227636263311C083337
:10069000A1C9A1C3F668201C6664A264F8BD70B548
:1006A0000E1C8AB00168041C038C0190684603ADDF
:1006B00003911230111CAB80FFF726FF201C6E83C4
:1006C00002952430236B01A998470AB070BD07B585
:1006D000031C6A460090117138305B6C694698477C
:1006E00007BDF0B5A7B00B790C1C086869460B7103
:1006F000E38A00906846161CCB821022611D0530EB
:1007000001F04AFF237E6D462B76638B221C6B83A0
:10071000A38B2432AB83E38BEB83238C2B8409AB39
:10072000A1CAA1C3216B00250C910D950EAB083217
:1007300083CA83C3626C13A811921295FFF756FF08
:1007400013A9201C222201F027FF231C1CAA2433FA
:1007500083CA83C31F9A65632263083321AA83CAAD
:1007600083C3249AA56462646846311CFFF7AFFF17
:1007700027B0F0BD30B595B0041C01A8FFF736FFD7
:10078000201C01A9FFF7CDFE0025A84218D00D9A24
:10079000236B9A4214D1211C0AA824310C2201F0A7
:1007A000ECFEA8420CD1129B626C934208D1211C32
:1007B00038310FA80C2201F0E0FE45424541EDB270
:1007C000281C15B030BDF8B5061C0F1C0025741987
:1007D000201C391CFFF7A5FE002804D0201CFFF7C1
:1007E000C9FF002803D04C35E42DF0D10024201C93
:1007F000F8BD10B5041CFFF7E6FF011E03D0201C56
:100800000022FFF76EFF10BDF8B50F1C041C032576
:10081000238C261CBB4204D1201CFFF7ABFF002811
:1008200004D0013D4C34002DF2D12E1C301CF8BDFB
:1008300038B5041C151CFFF7E7FF011E03D0201C70
:100840002A1CFFF74EFF38BD08B5FFF7DDFF431E3A
:100850009841C0B208BDF0B589B0061C0091171CC4
:10086000FFF7D2FF041E2AD000253A8806239542BE
:100870000FD26B43FB185A88998803A8019201355F
:10088000FCF7D4FD201C019903AAFFF708FFADB2C5
:10089000EBE7013A5343FF187988E28B013189B2C3
:1008A000914203D9301C211C002206E00098FFF77A
:1008B0007FFE021E03D0301C211CFFF712FF09B07F
:1008C000F0BD70B5061C00243519281CFFF752FF37
:1008D000002803D14C34E42CF6D1051C281C70BD33
:1008E000F0B51E1C4B8B041C0233C88B99B09BB215
:1008F0000D1C03920F8C01930290984207D200279F
:1009000005910697F368301C05A998472DE0201C37
:10091000391CFFF799FF002801D0052725E0201C8E
:10092000FFF7CFFF041EF8D0381C0199029AFFF799
:100930003FFE071E19D1291C331C039A05A8FFF797
:1009400089FE05A92222201C01F026FE231C243347
:100950000EAA23CA23C3119908332163676313AA1C
:1009600023CA23C3169AA7646264381C19B0F0BD69
:1009700070DF704771DF704772DF704773DF704759
:1009800074DF704775DF704776DF704777DF704739
:1009900078DF704779DF70477ADF70477BDF704719
:1009A0007CDF70477DDF704786DF704787DF7047E9
:1009B00088DF70471420704764207047A0208001B2
:1009C000704708B5FFF7F2FF421E904140420523F1
:1009D0000340181C08BD10B5041CFFF7D1FF021C12
:1009E0000320002A06D1201C5830037801218B43B4
:1009F0000370101C10BD08B53B239A4200D013238E
:100A0000081C191CFFF7C0FF002800D0032008BDF8
:100A100008B50A1C0368011CFE31C98C1B6A984783
:100A200008BD08B5081CFFF7B9FF002800D0032057
:100A300008BD08B5081CFFF7AFFF002800D0032051
:100A400008BD08B5081C111CFFF79CFF421E904111
:100A5000404203230340181C08BD13B50C1E012C93
:100A600007D86846111C0130062201F095FD0020D0
:100A700005E08B1E012B01D9032007E001206B4606
:100A800069461C70FFF774FF0028F5D116BD37B515
:100A900068460D1C141CFFF76DFF032300280FD1BF
:100AA000002D02D06A4613782B70002C07D06946BF
:100AB000201C0131062201F06FFD002300E0231C01
:100AC000181C3EBD08B5081C111CFFF76BFF421E29
:100AD0009041404203230340181C08BD08B5081C80
:100AE000FFF756FF421E9041404203230340181C6B
:100AF00008BD08B5081CFFF74DFF421E904140425B
:100B000003230340181C08BD08B5081CFFF73EFF6F
:100B10000023984203D00523112800D00323181C7A
:100B200008BD0000024B0B60092313607047C046EC
:100B3000383F020008207047B8300170002070472D
:100B4000B93001700020704702207047B83000783B
:100B50007047B930007870470020704708B5031C13
:100B60001A1CF3326C3011789B6F984708BD10B592
:100B700018C96210E10701D58158CB5880189847F1
:100B800010BD0000012008B5054A011C01F098FBCA
:100B9000421E904140420B230340181C08BDC04632
:100BA000DD0B020070B5061C0D1C0024331CBA338B
:100BB0001B78A3420ED96B79A3420BD90722111CD3
:100BC00061432B68013458187118BB3101F0E4FC03
:100BD000E4B2EBE72C71002070BD000010B5041CDE
:100BE0000020FCF7DDFC03681B699847031CF33306
:100BF0001C7086235B00C050074A031CFC335A61FB
:100C000086220021520099618318044AF4305A6107
:100C1000FDF79FFB10BDC0465D0B02006F0B02008D
:100C200037B5112301AD081C2B700C1C01F00AFE16
:100C3000211C82B2281CFFF7B3FE421E90414042A5
:100C400003230340181C3EBDF8B50368061CDB6C8B
:100C50000C1C0D7998470323854226D8227900235E
:100C6000D9B2914208D20721594320680133095C67
:100C70000329F5D1042318E0371CBA3700253D704D
:100C80002379AB4210D9387807225043111C6943AD
:100C9000236830185918BB3001F07EFC3B780135D1
:100CA00001333B70EDB2EBE70023181CF8BD10B523
:100CB0000C1CC97F01201F290DD800290AD0D37F21
:100CC000201CFFF759FE002804D1208CFFF760FE9E
:100CD000002800D0032010BD10B5041CFCF732FB27
:100CE00000280AD1231C0122FE335242DA84BA348E
:100CF000463B18705870207000E0062010BDFE3092
:100D0000C1847047FE30C08C70470000F0B593B0CE
:100D1000039000200C1CFCF743FC03685B6A9847B7
:100D2000FDF702FA06AB00280DD000221A7105AAC1
:100D3000069208221A73181C0AAA9A60FDF7C0FAD4
:100D4000002802D04FE01871187300232373237119
:100D50001F1C039BBA331B78BB4243D907237B4339
:100D600003990025CA18B832D278022A2DD106AECE
:100D7000337BAB4233D907207843039BAA00181872
:100D8000B368BB3099580292FDF7B2FA002819D027
:100D9000B168029BCA58237BA1689B005A50237BF1
:100DA000327B01332373531E9D4206D00F49B36833
:100DB00052189200D25802995A5006AB1A7B013A47
:100DC0001A730CE00135EDB2D1E703992279CB1803
:100DD0002168BB33920053502379013323717B1C6C
:100DE000DFB2B6E7002013B0F0BDC046FFFFFF3F03
:100DF00070B50B78021C9AB00D1C0220012B3BD061
:100E00004988032B04D1A039181C89B21B4B03E07D
:100E100020391B4B89B2032099422DD8A988194B40
:100E20000320994228D80AAB009312AB029369467B
:100E30000023161C0B710B73B8363378002B05D0CA
:100E4000101C6946FFF762FF002815D104AC002191
:100E5000201C182201F0C2FB2B7800A923703378E4
:100E6000201C23726B88E1602382AB886382FFF7CA
:100E700085FD002800D003201AB070BD603F00003F
:100E8000E03F0000FF3F000070B598B008AB009352
:100E900010AB02936A460023051C13711373B93516
:100EA0002B780C1C002B1FD104A82A780678A17976
:100EB000012319409E4313405A00331C0B43022167
:100EC0008B431343037000AB436023880381638823
:100ED0004381A3888381FFF767FD031C5A1E93415A
:100EE00003205B42184004E06946FFF70FFF00282B
:100EF000DAD018B070BD0000F0B59DB0051C1F1C05
:100F000068466B461A7001300622229E02AC01F040
:100F100043FB002F07D03B8823807B886380BB88FE
:100F2000A380FB8806E0322323806423638096231A
:100F3000A7809B00E3800CAB04A9049314AB8B60E7
:100F40002F1C00230B710B73B9373B78002B17D183
:100F5000387808A901230A7802271840BA43984034
:100F600004AF4F600243002E10D0B0799A4318406E
:100F7000338802430B8173880A704B81B38811E078
:100F8000281CFFF7C3FE0028E2D02AE0281C3230DC
:100F900000789A431840AB8D02430B81EB8D0A70A9
:100FA0004B812B8E6846221C8B81FFF701FD031CB1
:100FB0000020834215D0082B12D005D80720042B1F
:100FC0000FD083420AD107E00520112B09D0064A31
:100FD000934201D0102B01D1042002E00B2000E04D
:100FE00006201DB0F0BDC0460232000090DF704701
:100FF00095DF704797DF704793300078431E984124
:10100000C0B2704708B5081C111C1A1CFFF7F0FF8E
:10101000031C0020834204D0113B58424341062068
:10102000C01A08BD30B585B001AC6380089B0025AF
:10103000E380099B2170101C211C6570A58003931F
:10104000FFF7D8FFA84208D0112805D0044BC518D7
:1010500068424541063500E00525281C05B030BD35
:10106000FCCFFFFF08B5ED30FF30FFF739FC08BDBE
:1010700008B5ED30FF30FFF78BFA08BD08B5ED304D
:10108000FF30FFF7B6FB08BDF0B587B001AB1A1C07
:101090000C1CE0CCE0C2DA2464000219C968E0CB81
:1010A000E0C200190023C160036107B0F0BD000079
:1010B000F0B5051C91B006AE34350195009103964C
:1010C000041C311C101CE0C8E0C10BAD0295D768B0
:1010D000191C2A1C61C961C2DB6801980593636B06
:1010E0005B689847051C0620002D3AD1039A231C03
:1010F000503343CA43C3029AE76525661C33C1CA0D
:10110000C1C3059E201C1E6004331D601699142265
:101110003A3001F041FA201C17991422643001F092
:101120003BFA009F231C91332787013B5D7001210F
:10113000381C1D70D9702A1CFFF758FF071C281C8B
:10114000002F0ED0636B01989B689847112F07D032
:10115000054B9F4202D00620072F02D1042000E059
:10116000052011B0F0BDC0460230000070B5041C6F
:10117000C06A86B02063206B00280BD0C368211C96
:101180009847236B002B02D1E16A2163F3E71B69C7
:101190002363F0E7E06A002804D0056901F04EF906
:1011A000281CF8E7E062A068002804D0056901F077
:1011B00045F9281CF8E7A0606069002804D005699B
:1011C00001F03CF9281CF8E7256A6061002D05D084
:1011D0002E69281C01F032F9351CF7E7201C256226
:1011E0003430FCF731F9002829D1231C90331D70CD
:1011F0005D709D70DD70C2235B00E550E218012335
:101200005B4253609360D3601361CE225200A550BD
:10121000CE225200A21801AE53609360D3601361D6
:10122000301C291C0C2201F0D9F9DA225200A31833
:1012300007CE07C3B534034BFF34E36025610020BC
:1012400006B070BDE5CC010008B53430FCF772F98A
:1012500008BDA0DF7047A4DF7047A5DF7047A6DF99
:101260007047A8DF7047A9DF7047000073B5151CF1
:1012700002680E1C009394682B1C321C0149A04785
:1012800076BDC046FFFF000037B5069C00200090E9
:1012900020886D462880081C111C6A460193FFF7C0
:1012A000DCFF0323002802D12B882380031C181C99
:1012B0003EBD000073B5151C06AA0E1C117802680D
:1012C0000093019114692B1C321C0149A04776BD83
:1012D000FFFF0000F8B5041C00200E1C151CFCF7D5
:1012E0005FF903681B69984723689F69FFF70AFD48
:1012F000321C011C2B1C201CB847F8BDF0B5D48B48
:1013000042791E1C85B00023934218D2DD00451996
:10131000C4352D88A54210D11833DB00C3186C46A4
:101320001A890E3402232380036803AD00949F685A
:101330002B1CB847021E04D00DE00133E4E7042063
:1013400009E023880620022B05D12B88101C9A0760
:1013500001D00123337005B0F0BD000070B50D1C45
:1013600086B000210091161C0AA90BAA09881278E0
:101370006C4621800193002A01D141790EE0281C9E
:10138000311C6A46FFF767FF00283ED16CE0D400AD
:101390000419C4342488B44203D001328A42F6D3FB
:1013A00035E01C3292008018426830210132D27F31
:1013B0000A422CD002AC10210A40E3600AAB514231
:1013C0004A41A360294B013200202680A270A080F0
:1013D0009D4207D1FCF7E4F803681B699847FFF7C3
:1013E00091FC051C281C211CFFF739FF83B2181E35
:1013F0003AD0112B37D02EDC082B32D0281C311CD0
:101400006A46FFF728FF00282DD003202CE0281C77
:10141000311C6A46FFF71FFF031E0C2BF5D00C286A
:101420000AD80528F1D0072801D104201CE00020AB
:10143000834219D00B2017E01028F6D003D80820DB
:101440000F2B11D0F6E70A4A9042DED0D02292014B
:101450009042DAD0EEE7074B984204D0064B984210
:10146000CCD1062000E0052006B070BDFFFF0000D3
:10147000023000000330000001340000F0B5061C0B
:1014800099B0081C0F9100F0D7FD6C4646341290BD
:1014900012A90120221CFFF7DCFE002801D0032046
:1014A000BEE023880F990E908B830F990E9A0B7DC7
:1014B00093426AD97379132B01D90720B0E00F9AB0
:1014C0000E9992698B009C586269002A62D1638BE5
:1014D000002B5FD1631CDB7F022B5BD150E0616A84
:1014E000AB005F5813A84F49FBF7A0FF381C13A9A6
:1014F000FCF720FC002803D07A697F8B0C920D97B3
:101500000135EDB2231C28331B78AB42E7D8616963
:10151000631CDA7FA31CDB7F0091618B00200191AB
:10152000218B0291217F03910C9904910D990591D2
:10153000211C293109780691211C2A31097807914B
:1015400071791831C90071180431089112A900F09D
:10155000C5FD0028A3D173791A1C1C3292001833E0
:10156000B218DB005460F3189B880C90E383737906
:1015700001337371231C28331B780C9A934211D8C2
:101580000E9B0133DBB20E938FE7337900200133DA
:10159000337145E0201C00F04FFD002512900D95A1
:1015A0000C95AFE7C2277F00F35D072B85D80C9A17
:1015B000616A93005D5813A81A49FBF737FF281C8E
:1015C00013A9FCF7B7FB0D90002824D1281C00F0CC
:1015D00033FD298B6A696B8B0091297F12900191F1
:1015E000F15D0D98C031490071180631029112A9C0
:1015F00000F021FE002800D051E7F35D1A1C58329C
:101600009200C033B2185B005560F318DB88EB839F
:10161000F35D0133F3550C9B0133DBB20C93A9E767
:1016200019B0F0BD0129000038B5051CFCF7BEF962
:10163000041E1DD1281C211C5022743000F0CEFF46
:10164000B2235B00E818211C202200F0C7FF281CF1
:10165000211C0822C43000F0C1FFC3235B00E8183E
:10166000211C102200F0BAFFC2235B00EC5400E002
:101670000624201C38BD00000B68002B01D103603C
:1016800002E0024B0360002343607047DDCB0100A2
:1016900038B5041C0D1C6368A360A068002807D03F
:1016A000C368291C9847A368002BF4D01B69F3E793
:1016B00038BD08B5C368984708BD30B5141C87B05D
:1016C00004290ED0052917D0032925D1051C38354A
:1016D00004A8291CFFF7D0FF049A002A18D1059B03
:1016E00014E0051C4C356846291CFFF7C5FF009B1C
:1016F000002B0DD1019B09E0051C603502A8291CB7
:10170000FFF7BAFF029B002B02D1039BDA0703D538
:10171000281C211CFFF7CDFF07B030BDF0B50B88AA
:101720008FB0051C0C1C512B41D008D8012B24D0A4
:10173000502B00D002E1CE88427900230EE0522BDC
:101740002ED0532B00D0F9E0CE8805213AE0D90005
:101750006918C8310988B14203D001339342F6D3E6
:1017600009E01C339B00EB185A683021531CDB7FC7
:101770000B4200D0CCE0022124E0C0680C7A286142
:101780002869002800D1D9E0C368211C98472B693B
:10179000002B02D1E9682961F2E71B692B61EFE7B1
:1017A000888800210A1C0B1CFFF75DFDC6E08B79C1
:1017B000012B05D0022B00D0C0E00E89072101E0EB
:1017C0000E8906216B79002200920098984200D37E
:1017D000B4E00098C200AA18C4321288B24212D1F2
:1017E000062957D0072911D0022900D08BE0A38801
:1017F0000AA90B804E80237A0B71A38BCB80E38BDD
:1018000020340B8140E0009A0132DDE700211022F4
:1018100002A800F0E3FEA38869460B814E81E38BAA
:10182000221C8B81238C223206AFCB810192049241
:1018300000211022381C00F0D1FE02233B70009BD7
:101840001C339B00EB185B681A1C2A3211780022AB
:10185000914206D0181C4030DB6C02A998476B46B9
:101860009A8AA088391CBA80FFF7FBFCBB88002B42
:1018700064D1A3880AA90B804E80A37A0B71E38BF5
:10188000CB80238C019C0B81281CCC601430FFF78B
:10189000FFFE53E006AF00211022381C00F09EFE30
:1018A000A3887E803B80A38B0AAE00211022301CCF
:1018B000BB8000F093FE01233370009B1C339B0020
:1018C000ED186B681A1C293211780022914205D05C
:1018D000181C2C309B6B391C9847BA89B280BB8985
:1018E000002B0BD1BB68002B08D0B27901210A4331
:1018F000B271BA883281FA88F3607281A088311C93
:10190000FFF7AFFC1AE0281C321CFFF7D6FE15E0EB
:10191000A11CC87F0134E17F00020843990602D56B
:101920000321840707D40421DC0604D501210840E3
:10193000414241410331D28B281CE6E70FB0F0BD94
:1019400090DF704792DF704794DF704738B50268C8
:101950000B68051C0C1C9A4201D000231AE00430CD
:101960000431FCF7E7F90028F7D02A7E217E7F2397
:101970001A400B409A42F0D16A8B638B9A42ECD1A9
:10198000EA69E3699A42E8D12A8C238CD31A5A4235
:101990005341DBB20120584038BD036810B5021C2A
:1019A000002B0BD0591E40681160990000230433AE
:1019B0008B4205D0D4186468D450F8E70120404227
:1019C00010BD036810B5021C002B0BD0591E4068D7
:1019D00011609900002304338B4205D0D418646849
:1019E000D450F8E70120404210BD000073B5051C3B
:1019F0002B686C69002B1CD0231C5F3303221A70E8
:101A00006E680F490422684600F0C6FD1823734330
:101A10006033E318998ADB8A01AA11805380A08879
:101A20006946FFF791FF002809D0281CFFF7B5FF92
:101A3000DEE75F342378032B01D10123237073BDCC
:101A400048400200F0B5031C5C3300221A700A788B
:101A500089B0041C0133042A00D904221A70A82377
:101A600000205B00E050A82301225B005242E318F3
:101A7000271C5A609A60DA601A610D1C7437061CC4
:101A8000231C5D331B789E4226D22B79002B0DD16F
:101A9000A8225200A358591C9B00E3185133FF336E
:101AA000A1505E60EA882B893A8010E0698803A81B
:101AB000FBF7BCFCEB88381C00932B89143803A976
:101AC0001422019300F068FD009B3B80019B7B800A
