:020000021000EC
:10C000000000012099CC0100C1CC0100C3CC01008B
:10C01000C5CC0100C7CC0100C9CC01000000000064
:10C02000000000000000000000000000CBCC010078
:10C03000CDCC010000000000CFCC0100D1CC01002C
:10C04000D3CC0100D3CC01005D250200895D020044
:10C05000995D0200D3CC01001D5E0200D3CC01002B
:10C06000D3CC0100D3CC0100D3CC0100D3CC010050
:10C07000D3CC0100D3CC0100D3CC0100D3CC010040
:10C08000D3CC0100B1270200D3CC0100D3CC0100F6
:10C09000D3CC0100D5470200E9240200D3CC010033
:10C0A000D3CC0100D3CC0100D3CC0100D3CC010010
:10C0B000ED5F0200D3CC0100000000000000000092
:10C0C000D3CC0100FD5F02000D600200A95D0200FB
:10C0D000D3CC0100D3CC0100D3CC01000000000080
:10C0E0000000000000000000000000000000000050
:10C0F0000000000000000000000000000000000040
:10C10000000000000000000000000000000000002F
:10C11000000000000000000000000000000000001F
:10C4000010B5054C237833B9044B13B10448AFF38E
:10C4100000800123237010BD0052002000000000A6
:10C42000049F020008B5064B1BB106480649AFF34E
:10C4300000800648036813B1054B03B1984708BD57
:10C4400000000000049F020004520020145100204C
:10C4500000000000154B002B08BF134B9D46A3F5B1
:10C46000803A00218B460F461348144A121A0AF0EC
:10C4700055FC0F4B002B00D098470E4B002B00D0E3
:10C4800098470020002104000D000D48002802D02C
:10C490000C48AFF300800AF0C9FB2000290000F02F
:10C4A0005DFD0AF0AFFB00BF0000080000000120A6
:10C4B0000000000087EF010000520020145E002001
:10C4C000000000000000000008B503680BB108463A
:10C4D000984708BD08B503680BB10846984708BDE2
:10C4E00008B50368984708BD08B10B68036070473A
:10C4F000704708B503680BB10846984708BD08B5F2
:10C5000003680BB10846984708BD08B503680BB12E
:10C510000846984708BD000030B5094A4388D48BC7
:10C520009C4287B009D1074800F05CFE03682146B1
:10C530005D6801AA0DF10203A84707B030BD00BF36
:10C54000E052002098520020F8B50446C07F1D46F6
:10C55000C3181D2B0F4616461BDC691C2044012204
:10C560000AF0DCFBE07F0130C0B2E07739462044BE
:10C5700001220AF0D3FBE07F0130C0B2E0772A4607
:10C58000204431460AF0A6FBE37F1D44E5770020F6
:10C59000F8BD0120F8BD0000F8B58D1EEDB2132DD9
:10C5A000069C22D8012606FA05F7264D3D40E5B146
:10C5B000C17FCD181F2D42DC0144651CA94204D95E
:10C5C00011F80169CD186E70F7E70021CDB29D42D8
:10C5D00004D26518565CAE700131F7E722781A4430
:10C5E0002270C27F1344C3770DE02678751EEDB22A
:10C5F000AB420AD10021C8B2984204D26018555CFF
:10C6000085700131F7E70020F8BDC77F7F1B1F440D
:10C610001F2F12DCAF1C3C44C77F00EB070E744594
:10C6200005D214F801EB671B07F803ECF4E7F643B7
:10C630003744C777FFF788FFF8BD0120F8BD3046C3
:10C64000F8BD00BF3F000800F7B5C67F0024B44224
:10C650000CD205196F788F4203D10095FFF79CFF2C
:10C6600006E0055D01352C44E4B2F0E7FFF76CFF0E
:10C6700003B0F0BDF0B58BB000F10A0301AA044687
:10C680008E4600F12A0C1F46164618685968154652
:10C6900003C5083363452A46F7D10AAA1B882B80B5
:10C6A000012102F825ED30460B46FFF7CDFFB0B96A
:10C6B0002246204652F8343B31469B6F984770B96A
:10C6C00034463B4609AD224603CAAA421860596067
:10C6D000144603F10803F6D112881A8000200BB02B
:10C6E000F0BD38B50123044600F8013B00230025C6
:10C6F000C5540133102BFAD165820125257042B94A
:10C7000001F110038B4207D013F8012D00F8012B23
:10C71000F8E71A460AF0E7FAA27B637B43EA0223B2
:10C720006382204638BD10B500F04EFD0146044638
:10C7300051F8043BDB6F984728B994F8583043F020
:10C74000010384F8583010BD08B50248FFF7EBFF2D
:10C7500008BD00BF9852002008B500F027FD806D8D
:10C7600008BDF7B516461D460F4600F03BFD9DF887
:10C77000202003680092DC68394632462B46A047E9
:10C7800003B0F0BDF7B52748FFF7E6FF830746D5AE
:10C79000254F264D264C00F097FC3968254B022981
:10C7A00018604FF0060324480FDC4B43234A697896
:10C7B000D15413442A785A7062789A702278DA70C9
:10C7C00042781A7102785A7121E0CA1E53431C4EF6
:10C7D0006A78F25433442A785A7062789A702278D0
:10C7E000DA7042781A71052902785A710FD1154D05
:10C7F000124AE98B0B48002413230094FFF7B1FF82
:10C80000E98B0848009432461323FFF7AAFF3A68E1
:10C810000623013292FBF3F103FB11233B6003B0CB
:10C82000F0BD00BF98520020B452002034530020C5
:10C8300094520020905200205C530020B8520020F7
:10C84000CB5200203C5200202DE9F0418EB0002157
:10C850000C2268460AF062FA9DE8070005AC5D4BC1
:10C86000089384E80700002621465B48099600F0FB
:10C870003AFC31460C2268460AF050FA5648DFF876
:10C88000708100F0A1FCCDF8008007469DE807000C
:10C8900084E80700142002F0EFFBCDF81480034673
:10C8A00094E8070083E807004C4ADA601E61D7F875
:10C8B000A42002B11A61C7F8A430474800F092FCE6
:10C8C00000210C22054620460AF028FA142002F026
:10C8D000D3FB434A0592034694E8070083E8070028
:10C8E000404ADA6000221A61AA6902B11A61AB619A
:10C8F000394800F069FC0621FFF7BCFE364800F01D
:10C9000063FC00F10A030546224600F12A0E1F4689
:10C9100018685968164603C6083373453246F7D17E
:10C920001B883380204608212F4A0B23FFF78CFEFB
:10C93000A0B92A46284652F8343B21469B6F9847B7
:10C9400060B93B460DAD224603CAAA421860596041
:10C95000144603F10803F6D112881A801E4800F02D
:10C9600033FC002303711C4800F03CFC03681F49A2
:10C970001B689847184800F027FC03681A495B6B4E
:10C980009847154800F020FC036804215B6C984729
:10C99000114800F019FC03689B6804469847A028DA
:10C9A00004D9236820469B68984700E0A0204FF4F4
:10C9B0007A73584340F27123B0FBF3F0E0800648ED
:10C9C00000F002FC002303810348FFF7ACFE0EB029
:10C9D000BDE8F081F3C40100985200200BC50100AE
:10C9E00019C50100FFC40100108B02001C52002079
:10C9F00049C7010008B50E48FFF7AEFE830711D501
:10CA000000F062FB0B4B0C4A1B68C01A108003201D
:10CA100000F0AAFA094B1860052000F0A5FA084BAF
:10CA2000186008BD0248BDE8084000F0E9BB00BF3F
:10CA3000985200209052002034530020945200203D
:10CA40005C53002010B5C36804460BB19B6898473F
:10CA5000204610BD38B505460B4B45F8183B04463B
:10CA600002F022FA2846FFF7EDFF204602F06CFAAA
:10CA7000204638BD2846FFF7E5FFFFE7204602F0D5
:10CA800063FA09F02EFC00BFE096020010B50446E0
:10CA9000FFF7E0FF204602F003FB204610BD000038
:10CAA0001FB5FFF7D1FE134B00221A6000F00CFBFC
:10CAB000114B1860114B00931148124B0393FFF771
:10CAC000C1FF039B63B91048039B43624FF4FA51C3
:10CAD00002F0D6F96846FFF7B5FF05B05DF804FB34
:10CAE0005B68074869469847EDE76846FFF7AAFF85
:10CAF00009F0F7FBB45200209052002085C70100D6
:10CB000078530020E48A0200605300202DE9F047AA
:10CB1000514D5248DFF878A1DFF8789186B00021B6
:10CB2000002400F0F5FA284602F0EEF94C4B6C6256
:10CB300028464C494C4A2B604C4D02F053FA224691
:10CB400001A84B49FFF7CDFD9DF804302B70BDF8CF
:10CB500016306B820DF10501681C10220AF0BAF83C
:10CB600001260C274FF01308424B6B61A5F8188083
:10CB700008236E832E77EC8321463A4605F12C007C
:10CB800085F8203085F821606C6285F8284085F8AA
:10CB9000294085F82A400AF0C1F8EC63C5F838A0AE
:10CBA00021463A4605F140000AF0B8F82C65C5F870
:10CBB0004C902246304D314901A8FFF792FD9DF877
:10CBC00004302B70BDF816306B82A8190DF10501E9
:10CBD00010220AF07FF82A4B6B61A5F818806E834B
:10CBE0002E77EC834FF0100821463A4605F12C00D1
:10CBF00085F8208085F821606C6285F8284085F8EA
:10CC0000294085F82A400AF089F8EC63C5F838A075
:10CC100021463A4605F140000AF080F82C65C5F837
:10CC20004C902246174D184901A8FFF75AFD9DF870
:10CC300004302B70BDF816306B82A8190DF1050178
:10CC400042460AF047F802232B75104BAB61AC83C8
:10CC500006B0BDE8F08700BF605300209852002066
:10CC6000E096020055CA010000500020E05200206A
:10CC70001C8B0200365300203C520020008B020027
:10CC8000495300201C520020F08A0200045000206A
:10CC9000D5C40100C9C401000649074A074B9B1AC5
:10CCA00003DD043BC858D050FBDC00F013F8FFF75D
:10CCB000D1FB0000FCA70200005000200052002021
:10CCC000FEE7FEE7FEE7FEE7FEE7FEE7FEE7FEE73C
:10CCD000FEE7FEE7904B1B78062B0AD18F4B1B68B3
:10CCE0001A0706D18E4B1B6803F0F003302B00F0BF
:10CCF000A280894B1B78062B0FD1884B1B681B0722
:10CD00000BD1874B1B6803F0F002302A00F09780AC
:10CD100003F0E003402B00F092807F4B1B78062B42
:10CD20000AD17E4B1B68180706D17D4B1B6803F0A8
:10CD3000F003302B00F08A80774B1B78062B0ED146
:10CD4000764B1B6819070AD1754B1B6803F0F0027C
:10CD5000302A00F0818003F0E003402B7CD06E4B42
:10CD60001B78062B09D16D4B1B681A0705D16C4B3C
:10CD70001B6803F0F003302B78D0674B1B78062B31
:10CD80000AD1664B1B6813F00F0305D1644A126881
:10CD900002F0F002302A6DD05F4B1B78062B09D1D0
:10CDA0005E4B1B681B0705D15D4B1B6803F0F0034E
:10CDB000502B69D04FF01023D3F80C3213F001013F
:10CDC00027D0584B0122C3F80425D3F80024002AA9
:10CDD000FBD04FF01023D3F80C2222F00102C3F84D
:10CDE0000C22504BD3F80024002AFAD00022C3F8BA
:10CDF0000425D3F80024002AFBD0BFF34F8F4A4A02
:10CE00004A4BD16801F4E0610B43D360BFF34F8F0D
:10CE1000FEE7474B474A1A604FF080430122C3F8B0
:10CE20001825C3F804119A604FF08043D3F80431F9
:10CE3000002BF9D07047404B404A1A6059E7404BED
:10CE40001A68404BC2F342321A6066E73E4BDA681A
:10CE500022F08072DA606FE74FF080430022C3F85F
:10CE60000C21C3F81021C3F8382578E7374B03228B
:10CE70001A6082E7364A05211160012191679360AB
:10CE8000344B3F221A6087E74FF08052324BD2F882
:10CE90000414C3F82015D2F80814C3F82415D2F8E6
:10CEA0000C14C3F82815D2F81014C3F82C15D2F8B6
:10CEB0001414C3F83015D2F81814C3F83415D2F886
:10CEC0001C14C3F84015D2F82014C3F84415D2F846
:10CED0002414C3F84815D2F82814C3F84C15D2F816
:10CEE0002C14C3F85015D2F83014C3F85415D2F8E6
:10CEF0003414C3F86015D2F83814C3F86415D2F8A6
:10CF00003C14C3F86815D2F84014C3F86C15D2F875
:10CF10004424C3F870254DE7E00F00F0E40F00F063
:10CF2000E80F00F000E0014000ED00E00400FA0529
:10CF30000C5000200090D00374C007400DF0ADBA33
:10CF4000440200103C050040F0ED00E0A005004068
:10CF5000105600401456004000C0004008B5FFF7CE
:10CF60009FFDFFF747FDFCE770B505F003FD0528C1
:10CF700019D007DC03281CD013DC022840F09A806B
:10CF8000012317E01D2810D004DC1C2840F09280FB
:10CF900005230FE01E280AD01F2840F08B800823AD
:10CFA00008E0032306E0042304E0062302E007234D
:10CFB00000E00223404D2A78082A09D90A2A0AD912
:10CFC0000C2A8CBF0E210C218CBF0320022004E010
:10CFD0000821002001E00A210120384A4FF0FF34E7
:10CFE000C2F8F0050020C2F8F405C2F80843012495
:10CFF000C2F80401C2F80801C2F800450246140153
:10D0000004F1804404F5E04401320020082AC4F809
:10D010001405C4F81005F2D1294A126882424FEA79
:10D02000023414BF4FF400760646244A44F4003418
:10D030003443C2F81845C2F81405C2F81035214B24
:10D0400018800120C2F82C36C2F83006106018464D
:10D05000D2F80041194B002CFAD00022C3F800216D
:10D0600001225A60154BD3F80421002AFAD000227D
:10D07000C3F8042101229A60D3F81421002AFBD0BE
:10D080000E4A0023C2F81431B0F900209A42BCBF06
:10D090000C4A1380094AC2F800352B78B0F9000019
:10D0A000994208D08BBFC3EB0101C1EB0301C8401B
:10D0B000884070BD002070BD1450002000700040FA
:10D0C000105000208853002008B505F02BFC4FF4C9
:10D0D0007A73B0FBF3F008BD704708B503680BB175
:10D0E0000846984708BDF0B5456807682B680C46A8
:10D0F00007C987B09E6801AB83E80700E268049225
:10D1000000220592284639461A46B04707B0F0BDBE
:10D1100070B50446002521600E464560294608305A
:10D120000C2209F0FBFD084BA56163614EB9074D68
:10D130002B6813B900F04EFE2860236855F82330A1
:10D140006360204670BD00BFDBD00100AC530020FF
:10D1500070B560B9124D2E683EB91C2001F08CFFED
:10D1600031460446FFF7D4FF2C60286870BD0D4897
:10D170000368DB0709D401F037FF30B10A48012109
:10D18000FFF7C6FF074801F049FF074870BD20467A
:10D1900001F086FF02E0034801F058FF09F0A1F812
:10D1A0008C530020B05300209053002010B54368EA
:10D1B000044613B9034802F097F8606803689B6956
:10D1C000984710BD2C8B020010B54368044613B974
:10D1D000034802F089F8606803689B69984710BDAE
:10D1E0002C8B020010B54368044613B9034802F0C3
:10D1F0007BF8606803681B6A984710BD2C8B02009F
:10D2000010B54368044613B9034802F06DF860682E
:10D2100003685B6B984710BD2C8B020007B5034673
:10D2200008309A6832B1054A22B102A941F8043D9A
:10D230005B69984703B05DF804FB00BFD9D00100DB
:10D24000022070470220704700207047002070477E
:10D250004FF6FF707047022070470220704702208F
:10D26000704702207047022070470220704702205A
:10D27000704702207047022070470220704702204A
:10D2800070470220704702207047002313607047E8
:10D29000002070470220704702207047022070472C
:10D2A000022070470220704700207047002070471E
:10D2B000002070470220704702207047416070478D
:10D2C00081607047C160704701617047416170477C
:10D2D00002207047022070470220704702207047EA
:10D2E00002207047022070470220704700207047DC
:10D2F00002207047022070470020704770470220CC
:10D300007047022070477047022070470020704726
:10D31000704790DF704766DF704748DF704790F8CE
:10D320005F00003018BF01207047007970470C3053
:10D3300070470C30704708B503689B6B9847BDE891
:10D340000840FFF7EABF08B503680BB108469847E5
:10D3500008BD08B503680BB10846984708BD08B575
:10D3600003680BB10846984708BD08B503680BB1C0
:10D370000846984708BD08B503680BB108469847AA
:10D3800008BD084611461A46009B01F0F5BA08464A
:10D39000114601F051BB0846114601F077BB01F080
:10D3A00037BBF0B595B008238DF8043004AA8DF88A
:10D3B0000C3068460CAB0C460092029301F0A2FBC5
:10D3C000054608B9024611E0002323712CE0561CE3
:10D3D00062799A42F9D92168C3EBC30008440099E5
:10D3E000072251F8231009F075FC32469DF804100D
:10D3F000D3B29942EBD8237100229DF80C10D3B21E
:10D400009942217919440ED9571C627991420ADA5E
:10D4100026680298C1EBC10150F82300314401F0A5
:10D4200087FB3A46E9E72171284615B0F0BD0000B8
:10D43000034B1A781AB100221A7004F0A9BF704782
:10D44000145500201FB5037963B1164B1A781C469A
:10D45000CAB902A8FFF75FFFE0B9BDF80A30592B3F
:10D4600018D101E010481BE09DF80830DA1F012AAE
:10D47000BDF80C2009D800920C480D4A202109F073
:10D4800041FD0123237009480AE000920748094A38
:10D490002021F4E708490548202209F077FDF2E74A
:10D4A00004B010BDB453002078950200F45400205D
:10D4B00092950200AF950200D495020038B5037929
:10D4C0000446002B2CD004F0EFFF00282AD1D4F81A
:10D4D0002C0118B9D4F8340150B905E003681B6A6F
:10D4E00098470028F6D038BDD4F8300180B905E05F
:10D4F00003689B6A98470028F6D038BD04F10C00F9
:10D5000005F076FF054648B901F026FB257105E0D8
:10D510000368DB6A98470028F0D038BD284638BD3C
:10D52000092038BD052038BDF8B51E4603685B6884
:10D5300004460F46154698470346002849D195E80A
:10D54000070004F11C0E8EE80700EA68A262E3629D
:10D5500096E8070004F1440585E80700F268636572
:10D56000069B226503F11401A21D53F8040B42F837
:10D57000040B8B42F9D1079B04F1300203F1100632
:10D5800018685968154603C50833B3422A46F7D1CF
:10D590001868286000220121A78084F85D2084F8A3
:10D5A0005C2084F85F103846FFF7B3FE054668B18B
:10D5B000236820469B689847112D08D043F2020348
:10D5C0009D4201D0072D04D10420F8BDF8BD0520EF
:10D5D000F8BD0620F8BD38B50446E3692362206A29
:10D5E00038B1C36821469847236A002BF5D01B69E0
:10D5F000F4E7E06920B1056901F052FD2846F9E73A
:10D60000E0616060A060E0602061606138BD08B5E5
:10D61000FFF7E1FF002814BF0620002008BD38B541
:10D620000446006820B1056901F03AFD2846F9E793
:10D63000206038BD10B5044A044640F8042BFFF7BB
:10D64000EEFF204610BD00BF4894020010B504460E
:10D65000FFF7F0FF204601F023FD204610BD38B54E
:10D660000446006820B1056901F01AFD2846F9E773
:10D67000206038BD10B5044A044640F8042BFFF77B
:10D68000EEFF204610BD00BF5894020010B50446BE
:10D69000FFF7F0FF204601F003FD204610BD38B52E
:10D6A0000446E36A2363206B38B1C3682146984778
:10D6B000236B002BF5D01B69F4E7E06A20B1056904
:10D6C00001F0EEFC2846F9E7E06204F10800FFF7FC
:10D6D000C6FF04F11400FFF7A2FF206A20B105691C
:10D6E00001F0DEFC2846F9E7206238BD38B5064B6C
:10D6F00003600446406820B1056901F0D1FC28466A
:10D70000F9E76060204638BD6894020010B5044611
:10D71000FFF7ECFF204601F0C3FC204610BD0000DF
:10D7200038B5064B03600446406820B1056901F036
:10D73000B7FC2846F9E76060204638BD289402000F
:10D7400010B50446FFF7ECFF204601F0A9FC204687
:10D7500010BD000038B5064B03600446406820B198
:10D76000056901F09DFC2846F9E76060204638BD58
:10D770006893020010B50446FFF7ECFF204601F065
:10D780008FFC204610BD000038B5064B03600446F0
:10D79000406820B1056901F083FC2846F9E7606024
:10D7A000204638BD7893020010B50446FFF7ECFF21
:10D7B000204601F075FC204610BD000038B5064B30
:10D7C00003600446406820B1056901F069FC284601
:10D7D000F9E76060204638BD8893020010B5044622
:10D7E000FFF7ECFF204601F05BFC204610BD000077
:10D7F00038B5064B03600446406820B1056901F066
:10D800004FFC2846F9E76060204638BD5893020077
:10D8100010B50446FFF7ECFF204601F041FC20461E
:10D8200010BD000038B5064B03600446406820B1C7
:10D83000056901F035FC2846F9E76060204638BDEF
:10D84000D894020010B50446FFF7ECFF204601F023
:10D8500027FC204610BD000038B5064B0360044687
:10D86000406820B1056901F01BFC2846F9E76060BB
:10D87000204638BDC894020010B50446FFF7ECFFFF
:10D88000204601F00DFC204610BD000038B5064BC7
:10D8900003600446406820B1056901F001FC284698
:10D8A000F9E76060204638BD3894020010B50446A0
:10D8B000FFF7ECFF204601F0F3FB204610BD00000F
:10D8C00038B5D0F83441054674B9242001F0D4FBB2
:10D8D000074A8261074A44608460C460046144610D
:10D8E000C4610260C5F83401D5F8340138BD00BF09
:10D8F000289402004095020038B5D0F8344105461E
:10D9000074B9242001F0B8FB074A8261074A4460D9
:10D910008460C46004614461C4610260C5F834017C
:10D92000D5F8340138BD00BF2894020040950200AC
:10D93000F7B5037906460F46144633B100230A258E
:10D94000019300938DF8045007E000F077FD054641
:10D9500078B901233371009001903846FFF7F8FB46
:10D9600002A941F8080D2046E36869469847284611
:10D9700000E00C2003B0F0BD10B5002104461F22CA
:10D9800009F0CCF90023E37710BD000070B5044620
:10D9900086B0D4F8B030C4F8B430D4F8B40040B194
:10D9A000C36821469847D4F8B430002BF1D01B69E6
:10D9B000F1E7D4F8B00020B1056901F071FB284609
:10D9C000F9E794F85830C4F8B00060F3000360F34E
:10D9D000410384F8583084F8560084F85C0004F160
:10D9E0000A00FFF7C9FF04F13400FFF7C5FF606EBE
:10D9F00020B1056901F054FB2846F9E76066D4F8C8
:10DA0000980020B1056901F04BFB2846F9E7D4F8EE
:10DA1000A450C4F898002DB12E69284601F040FBAF
:10DA20003546F8E701AE2946C4F8A45030460C222A
:10DA300009F074F996E8070004F16C0383E8070025
:10DA40000A4BA3672946E56730460C2209F066F9C0
:10DA500096E8070004F1800383E80700044BC4F84C
:10DA60008C302846C4F8905006B070BD53D30100E6
:10DA700047D301000246002310B502F8013B002401
:10DA8000D4540133102BFAD1418210BD2DE9F0415D
:10DA900086B0002101AC054681802046FFF7EAFFF1
:10DAA0002646AB1D05AF324603CABA42186059601C
:10DAB000164603F10803F6D11068186000212046CD
:10DAC0000C2209F02BF994E8070005F11C0383E808
:10DAD00007004FF00008114BAB624146C5F82C809F
:10DAE00020462746FFF7C6FF0FCF05F130060FC6C9
:10DAF0003B683360414620460C2209F00FF994E858
:10DB0000070005F1440383E80700054B2B654046F9
:10DB1000C5F8548006B0BDE8F08100BF6BD30100AA
:10DB200077D301002DE9F0470646894615469A4607
:10DB3000036807CA92B003ACD3F8008084E80700FA
:10DB4000EA680692002529460C220DAF08A8079521
:10DB500009F0E4F8084B0B93294638460C95FFF77B
:10DB600089FFCDF800A0019730464946224608AB10
:10DB7000C04712B0BDE8F08777D3010010B50A4B5B
:10DB8000044640F8AC3BFFF719FE04F1A000FFF794
:10DB9000FBFD04F19400FFF7DDFD04F16000FFF7E9
:10DBA00027FE204610BD00BF9893020038B50446FA
:10DBB000002540F8045B2946FFF75CFF2576658366
:10DBC000A583E5832584204638BD000070B58AB062
:10DBD00004460021242201A809F0A0F801A8FFF7BB
:10DBE000E5FF01AD04F5CA7309AE2A4603CAB24285
:10DBF00018605960154603F10803F6D112881A809F
:10DC0000236820465B689847002384F85F3050B152
:10DC1000D4F880313BB1054B2BB1D4F88C31A188BD
:10DC200004F5C07098470AB070BD00BFD9D001009C
:10DC300008B5FFF7CBFF08BDF7B5494B494A03606C
:10DC4000C2600023A02242820446037183600374F1
:10DC5000838200F116061A460023B35401321F2AAC
:10DC6000FAD14FF400724FF48041E28684F83530E7
:10DC7000009304F138000A4604F0FAFE04F140076C
:10DC800000230025FD5401331F2BFAD14FF40073FC
:10DC9000A4F8603094F8643084F85F5003F0FE0319
:10DCA00065F3410384F864302F4BE36629460C2268
:10DCB00084F8625084F86850256704F1780009F010
:10DCC0002DF82A4BC4F8843029460C22C4F8885019
:10DCD00004F18C0009F022F8254BC4F89830254B4C
:10DCE000C4F8A030244BC4F8AC30244BC4F8B8308E
:10DCF0003046C4F89C50C4F8A450C4F8B050C4F8DE
:10DD0000BC50FFF739FE3846FFF736FE1C4BE36088
:10DD100084F8C45084F8C55084F8C65004F5807067
:10DD200001F0F2F8174AC4F8002100234FF6FF7201
:10DD30002046C4F82431A4F82821C4F82C31C4F8B2
:10DD40003031C4F8343103B0F0BD04F10C00FFF7FA
:10DD500015FFFFE7204604F073FE08F0C2FA00BF8B
:10DD6000F0950200989302005893020053D30100EB
:10DD700047D3010068930200789302008893020061
:10DD8000409B02000897020008B50D480368DB07B6
:10DD900013D401F029F980B10A48FFF74DFF084874
:10DDA00001F03CF90849094A064801F01BF904E072
:10DDB000034801F04BF908F094FA024808BD00BF8F
:10DDC000F0540020B853002001DE01000050002074
:10DDD000FFF7DABFFFF7D8BF10B5034B0360044667
:10DDE000FEF738FE204610BD0897020010B5044625
:10DDF000FFF7F2FF204601F053F9204610BD000066
:10DE000038B50D4B03600D4BC360044600F10C05A3
:10DE100000F58070FFF7E0FF2846FFF7AFFE2046D1
:10DE200004F00EFE204638BD2846FFF7A7FE204628
:10DE300004F006FE08F055FAF0950200409B02003F
:10DE400010B50446FFF7DCFF204601F029F9204613
:10DE500010BD000038B50C2204460D46002108F024
:10DE60005DFF00232361024B2560E360204638BD3F
:10DE70005FD3010070B5324B0360002504460E46A7
:10DE80008571058329460C221C3008F047FF2D4B75
:10DE9000E562A36284F83050A4F84250294604F1A8
:10DEA00044000C2208F03AFF274B2365274B656599
:10DEB000A66584F85C5084F85D5084F85E5084F860
:10DEC0005F50236004F1600504F1C006284600217C
:10DED000FFF7D0FD0023AB82EB821835B542F5D1B8
:10DEE00004F5A87628460021242208F017FF2846CA
:10DEF0002435FFF75BFEB542F4D10021C4F8501180
:10DF0000C4F85411C4F85811C4F85C11C4F8601175
:10DF1000C4F86811C4F86C11C4F87011C4F8741115
:10DF2000C4F87811C4F86441C4F87C4104F5C070A9
:10DF3000FFF790FF04F5CA70FFF738FE204670BD6A
:10DF4000A89402006BD3010077D301002095020052
:10DF500070B5D0F830510646002D33D14FF43470EF
:10DF600001F08AF8194B4360194B0361194BC361E7
:10DF7000194B83620446194B856045610562C56291
:10DF8000214640F8343BFFF775FF04F5F67004F0C6
:10DF900061FEC6F8304115E02046114B40F8283BA1
:10DFA000FFF740FC04F11C00FFF756FC04F11000E1
:10DFB000FFF740FB201DFFF75DFB204601F070F8E6
:10DFC00008F08FF9D6F8300170BD00BF58940200F8
:10DFD00048940200C8940200D8940200E89B020012
:10DFE000E8940200234B70B50360234B8360234BFE
:10DFF0004361234B03620025224BC3620446057133
:10E000004571C56085614562056329463830FFF773
:10E0100021FF294604F14C00FFF71CFF04F16000CA
:10E020002946FFF717FF2346174A43F8742B0022AF
:10E030005A510435502DFAD104F1C40504F5B276D5
:10E04000284600210822083508F068FEB542F7D1BD
:10E0500000220023B3500432202AFAD184F88431FC
:10E0600004F5C3720021D1520233102BFAD120469D
:10E0700070BD00BF789402003894020048940200FA
:10E080005894020068940200489C020038B5D0F809
:10E090002C31044643B94FF4CC7000F0EDFF054637
:10E0A000FFF7A0FFC4F82C51D4F82C0138BD38B5C7
:10E0B000D0F82C31044643B94FF4CC7000F0DCFFAB
:10E0C0000546FFF78FFFC4F82C51D4F82C0138BD5A
:10E0D00010B503460C4607C983E80700E268DA601A
:10E0E00000221A61184610BD08B500F5C070FFF790
:10E0F000EFFF08BD30B587B00446FFF7C7FC054603
:10E1000038BB4FF0FF3384F85C0084F85D0084F87E
:10E110005E0084F85F00C4F85001C4F86801294625
:10E12000C4F85431C4F85831C4F85C31C4F86031D3
:10E13000C4F86C31C4F87031C4F87431C4F8783163
:10E1400001A8FFF787FE04F5C07001A9FFF7C0FF23
:10E1500000E00625284607B030BD70B5044686B0FD
:10E16000236B6363606B38B1C36821469847636B68
:10E17000002BF5D01B69F4E7206B20B1056900F096
:10E180008FFF2846F9E7E5682063207160712DB1A3
:10E190002E69284600F084FF3546F8E704F11800A0
:10E1A000E560FFF73CFA04F12400FFF758FA29462E
:10E1B00001A8FFF74FFE01A904F13800FFF788FF1F
:10E1C000294601A8FFF746FE01A904F14C00FFF71C
:10E1D0007FFF294601A8FFF73DFE04F1600001A979
:10E1E000FFF776FF284606B070BD70DF704771DF1D
:10E1F000704703F0BDBF000010B5064B1C783CB95A
:10E20000012220461A70FFF7E3FD214604F028FCA6
:10E21000002010BD145500202DE9F047054686B0BA
:10E2200001F07EF8284602F0DDF9284600F01CFADD
:10E230000020FFF7CDFD036806469B6998473368C9
:10E2400004461B6A3046984733688046DB6A30468E
:10E2500098472B88103B0D2B00F2E680DFE813F087
:10E260000E006600E400E400E400A300E400E40023
:10E27000E400E400E400AC00E400C400AE88AF7D3C
:10E280002046314605F0C6F894F858102B7AEA7B00
:10E2900001F0FE0141F0020184F8581094F8561084
:10E2A000013184F856108DF8033000238DF80430C6
:10E2B0008DF805308DF806308DF807308DF8083070
:10E2C0008DF809308DF80A208DF80B308DF80C3060
:10E2D0008DF80D308DF80E308DF80F308DF8103030
:10E2E00005F1090105F11803062201A8ADF8006047
:10E2F0008DF80270059308F0EDFC0DF10B0005F1AF
:10E300001001062208F0E6FCD4F89830C4F89C30DE
:10E31000D4F89C00002800F08780C36869469847BD
:10E32000D4F89C30002BEFD01B69EFE74FF6FF715C
:10E330002046AF8805F06EF8336895F808909B6A20
:10E34000304698470646394600F5F670062204F036
:10E350009AFD338FBB4204D1736B06F134009B6886
:10E36000984794F85630013BDBB284F856302BB90D
:10E3700094F8582063F3410284F85820ADF80070F7
:10E380008DF80290D4F8A430C4F8A830D4F8A800CE
:10E39000002849D0C36869469847D4F8A830002BB4
:10E3A000F0D01B69F0E74369AA8805F10801002B4A
:10E3B0003AD01046984737E02E7A2EB994F8583064
:10E3C00066F3000384F85830636E6BB31A4A5AB38D
:10E3D000A366A06E40B3C36831469847A36E0BB9DD
:10E3E000636EF5E71B69F3E72B7C95F80FA005F149
:10E3F000090168460622C3F30009C3F34107C3F3CA
:10E40000C40608F067FC05F111038DF806A08DF82D
:10E4100007908DF808708DF809600393D4F88C305C
:10E4200004F18000694698474046294605F036FDCC
:10E4300006B0BDE8F08700BFD9D0010000B51620B6
:10E4400089B0244904F08EFA01238DF800300723A7
:10E450008DF8033000238DF801308DF802306846C6
:10E460001D491E4B482203F0E3FF08B103F0DAFE1A
:10E470000320012103AA04F049F84FF4C063079375
:10E480009DF8183043F001038DF818300423ADF8DF
:10E490000C3008B107201AE003A804F04FF8002858
:10E4A000F8D101A8FFF7A3FE0028F3D101A9FFF7D7
:10E4B0009CFE0028EED10A4804F002F880B230B980
:10E4C000084804F007F880B208B900F08FF909B0E5
:10E4D0005DF804FBE924020018550020F9E1010071
:10E4E00019E20100F3E1010008B503783BB90B78AC
:10E4F0008BB9428A4B8A9A420DD1012008BD012B6B
:10E5000009D10B78012B06D101300131102208F01E
:10E51000D2FB0028F1D0002008BD0000F0B590F833
:10E520005F30022B8FB004460D4640F08F802422CE
:10E53000002105A808F0F2FB06A80021FFF79AFACF
:10E5400000238DF82C30ADF82E30ADF83030ADF81A
:10E550003230ADF83430D4F89421059B9A4220D162
:10E5600004F5CC7006A9FFF7BFFFD0B194F8AC2139
:10E570009DF82C3002F07F0203F07F039A4210D105
:10E58000B4F8AE21BDF82E309A420AD1D4F8B021A9
:10E590000C9B9A4205D1B4F8B421BDF834309A42AC
:10E5A00051D004F5CA7765BB94F85C30182202FBA1
:10E5B00003432946B3F87630A4F8B23104F13006AB
:10E5C0006846FFF757FA30466946FFF78DFF90B966
:10E5D000304604F5CC71FFF787FF90B1294605A8B6
:10E5E000FFF748FAA01D05A9FFF77EFF80F00100A4
:10E5F00010F0FF0F05D0636C04F144000BB1194B10
:10E600005BBB2422002105A808F088FB0EAE06A8FB
:10E610000021FFF72FFA00228DF82C20ADF82E20D4
:10E62000ADF83020ADF8322026F8042D05AD3B467C
:10E630002A4603CAB24218605960154603F108031E
:10E64000F6D112881A80012384F85F3094F85C3088
:10E65000013384F85C300FB0F0BD236D3946984724
:10E66000CFE700BFD9D001007FB504460020FFF7F7
:10E67000AFFB03689B6A98472388303B054600F14F
:10E68000340600F5F670092B00F29E80DFE803F0F7
:10E69000059C1284911E2A9C4665E3882BB930465E
:10E6A00004F10C0105F0A6FD8EE06B6B30469B6813
:10E6B000984789E0E388304623B904F10C0105F05E
:10E6C00023FE81E00021FFF729FF7DE06B6B3046E0
:10E6D0005B689847002877D0304604F10C0105F0BC
:10E6E00071FE71E0A388ADF80030A389ADF8023067
:10E6F000E389ADF80430123434F8023CADF806304A
:10E700000294AB68EB60E86800285DD0C368694696
:10E710009847EB68002BF4D01B69F3E7A388ADF8AA
:10E720000030A389ADF80230A37B8DF80430238A32
:10E73000ADF80630143434F8023CADF808300394D8
:10E740006B69AB61A86900283ED0C36869469847E9
:10E75000AB69002BF4D01B69F3E7A388ADF8003058
:10E76000A389ADF80230A37B8DF80430123434F85D
:10E77000023CADF8063002942B6A2BB3164A1AB34A
:10E780006B62686A00B3C368694698476B6A0BB9E5
:10E790002B6AF5E71B69F3E7E388A18823B1B3F59A
:10E7A000857F0ED100220DE004F10C0204F080FB05
:10E7B0000AE0E388A18823B904F10C0204F0BDFB50
:10E7C00002E00B2204F05FFB304605F01FFF3046ED
:10E7D00005F0A0FE04B070BDD9D0010077DF70470E
:10E7E00078DF70477ADF70477CDF70471FB5002302
:10E7F00003931023ADF80830A023ADF80A3064234A
:10E80000ADF80E309DF804301048012262F3030386
:10E8100004AC62F3071304F80C3D08F0AFFB0B499E
:10E8200082B22046FFF7E0FF80B268B94FF4007073
:10E83000FFF7D6FF80B238B902A8FFF7D3FF80B246
:10E8400010B9FFF7CBFF80B204B010BD30960200C4
:10E8500087DF704768DF704737B504460020FFF751
:10E86000B7FA0368DB6A9847237805460C2B73D800
:10E87000DFE803F0500715476B6172547272725BE8
:10E880005D00364B60881B786C6803F00101C3F3B0
:10E890004002C3F3021304B1A04701222EE0237A01
:10E8A000012B02D1A08802F017F8AB6860880BB189
:10E8B00000219847608801A9FFF7CAFF9DF804303E
:10E8C00003F00F02012A02D0022A07D00EE01B0932
:10E8D000013B022B0AD8224AD15C0AE01B09012B1A
:10E8E00006D0022B0CBF0521002102E0002100E030
:10E8F00004216088EB6803B198470022194B1A7015
:10E900002AE061896088AB68B1F5805F34BFC9B225
:10E910008821F0E7A08801F0DFFF1DE0637ADBB912
:10E920002B696088C3B1984716E0002200E00322FB
:10E930000D4B1A6010E003F04DFA0E280CD030F0A9
:10E94000080209D003F06EFC06E002A9012301F8D9
:10E95000043D608801F0CCFE03B030BD15500020AE
:10E96000369602006555002060550020014B18784E
:10E97000704700BF64550020F7B5224D16462A782F
:10E9800004460F46B2BB73B102A9222041F8083DEC
:10E990006946FFF75FFF30B1082829D011280CBF66
:10E9A000052004202BE001F031FE28BB164B1A781D
:10E9B00064F3000267F3410266F306121A70DA7814
:10E9C00014B142F0030203E064F3000264F3410275
:10E9D0000D48DA7001F072FE10B90C4801F05AFED1
:10E9E00007280BD0082803D030B901232B7006E08C
:10E9F000062004E0002002E00B2000E0042003B029
:10EA0000F0BD00BF645500201550002059E80100FA
:10EA100010B5084C1123236001F0DAFE28B92368F1
:10EA2000112BFCD0034B186818B108280CBF062026
:10EA30000B2010BD6055002013B50C4601A901F054
:10EA400063FEA0B99DF80430C3F3400212B1022363
:10EA5000237016E013F0010013D00B4B1B781BB191
:10EA60000123237010460CE02370184609E00828A3
:10EA700006D043F2020398420CBF04200B2000E0B2
:10EA8000062002B010BD00BF65550020012910B559
:10EA900004460CD002292CD1184B1A7842F00102FE
:10EAA0006FF341021A70DA7842F0010209E0134B69
:10EAB0001A7802F0FE026FF341021A70DA786FF3EF
:10EAC00000020E48DA7001F0F9FD014618B920463F
:10EAD00001F004FE014607290DD0082905D031B9FF
:10EAE000074B01221A70084610BD062010BD0B20EE
:10EAF00010BD022010BD042010BD00BF1550002025
:10EB00006455002008B5084B1B7802464BB1002025
:10EB1000082101F0EFFD28B10E2814BF06200320C4
:10EB200008BD092008BD00BF6455002000F06CBF7F
:10EB300002230B708E230B714F230A464B717C23EB
:10EB40008B710132043100F037BFA2DF7047A3DFC1
:10EB5000704763DF70470000014B00221A60704766
:10EB6000685500207FB500238DF8073002AAC15CEC
:10EB700099540133102BF9D110460DF10701FFF71D
:10EB8000E8FF10B99DF8070000E0002007B05DF82D
:10EB900004FB00002DE9F3470378B0F81280044627
:10EBA000EBB1264A1768461C00239146BB4225D08C
:10EBB00019012348CD1805440022A2F1020CBCF132
:10EBC000010F05D915F802A016F802C0E24513D1CD
:10EBD0000132102AF1D10B441844057C00E00125D4
:10EBE0008DF80650BDF80630002068F30F0063F37F
:10EBF0001F4002B0BDE8F0870133D7E73046FFF78A
:10EC0000B1FF237805460BB904F11206042FE7D0B3
:10EC10000B4C07EB071031461022204408F05AF83D
:10EC2000D9F8003003EB0312224400210133917024
:10EC3000D1701574C9F80030D2E700BF68550020C4
:10EC40006C5500202DE9F04192B007468DF8072061
:10EC5000884603A80DF1070101221D461C9EBDF840
:10EC6000744008F037F89DF80C3013F0300F1BD0CB
:10EC7000032204A8002108F051F89DF81230012267
:10EC800062F342038DF812309DF8103062F30303F3
:10EC900062F307138DF810309DF8113062F303030F
:10ECA00062F307138DF811301C220BA8002108F025
:10ECB00035F89DF80C208DF82C2012F0300318BF89
:10ECC00004AB10932CB126B10C96ADF83440ADF8DE
:10ECD00036409DF878100023ADF8143061F3C3037B
:10ECE0009DF87C1061F30413012161F342039DF848
:10ECF0006C1012F0320F61F300038DF8163029D03A
:10ED00006B1E042B26D8DFE803F003070E151C004A
:10ED10009DF81430012117E09DF81430012161F3B2
:10ED20000303022112E09DF81430012161F3030373
:10ED300003210BE09DF81430022161F3030301214C
:10ED400004E09DF81430022161F3030361F307131B
:10ED50008DF8143012F00C0F29D0013D042D26D867
:10ED6000DFE805F003070E151C009DF815300122A1
:10ED700017E09DF81530012262F30303022212E02E
:10ED80009DF81530012262F3030303220BE09DF886
:10ED90001530022262F30303012204E09DF81530CE
:10EDA000022262F3030362F307138DF8153006A8FD
:10EDB0000021142207F0B2FF05AB0793BDF86430C1
:10EDC000ADF82030BDF86830ADF82430189B0A93B8
:10EDD00038460BA906AA209BCDF81880FFF7B5FE90
:10EDE00080B212B0BDE8F0812DE9F04387B0012474
:10EDF00099469DF83C3004FA04F563F300058DF85C
:10EE00000250254664F307158DF8005025468046CC
:10EE10000F46164664F3071501A8002114228DF849
:10EE2000015007F07BFF00AB02934046BDF838303D
:10EE3000109A019701A9ADF80C90ADF81030059625
:10EE4000FFF785FE80B207B0BDE8F08338B54368B0
:10EE500041690446194400F06BF8636A04F118052F
:10EE60002BB90548054940F28F2200F09DF9636AED
:10EE700028461B68984738BD489602004D96020008
:10EE800038B504460D4600F0E7F9204600F056F884
:10EE90006561206900F078F94119204600F048F8D2
:10EEA000BDE8384000F002BA38B5044604F1180550
:10EEB00000F0D2F9204600F041F82846FDF7C2FDE7
:10EEC0000DB100236362BDE8384000F0EFB90000E7
:10EED00038B5436A044600F118052BB905480649C0
:10EEE00040F28F2200F060F9636A28461B68984759
:10EEF00038BD00BF489602004D96020008B5036871
:10EF00009B68984708BD0000074B10B503600023BD
:10EF100043608360C360044600F03CF9034920610C
:10EF200000F0C2F8204610BD38970200FDEE010047
:10EF300003460A460069191D00F0E2B80146043193
:10EF4000006900F0FEB8000010B5034B03600446F2
:10EF5000FFF7F4FF204610BD3897020010B50446B5
:10EF6000FFF7F2FF204600F09BF8204610BD7047E7
:10EF7000014800F0B9B900BF5C97020008B5012054
:10EF800007F040FE704708B5FFF7F1FFFFF7FAFF03
:10EF900008BD00000C4B1A681318EFF308818B4270
:10EFA00005D30A4B0C221A604FF0FF307047084916
:10EFB000096821B10748006801448B42F1D2024937
:10EFC00010460B60704700BF1C500020105E0020F0
:10EFD000B0550020B455002008B500B9FEE700F098
:10EFE000F5F8FBE70120704710B5037803F0030341
:10EFF000012B04460CD02BB10648074940F22132C0
:10F0000000F0D2F8237843F002032370012010BDF2
:10F01000002010BD669702008C97020010B503789F
:10F0200003F00303022B044605D00648064940F2CC
:10F03000293200F0B9F8237823F0030343F00103E9
:10F04000237010BD069802008C97020010B503785B
:10F0500003F00303022B044605D00548054940F29E
:10F06000313200F0A1F8237823F00203237010BDA1
:10F07000069802008C97020010B507F0FDFD0446CB
:10F0800048B9064800F030F905E0013101D007F039
:10F0900028F907F009FA204610BD00BF4598020084
:10F0A00008B107F0F1BD704738B5036804461B6826
:10F0B0000D46984763681D6038BD38B50368DB6846
:10F0C0000446984763685A68236812B99B68984752
:10F0D00038BD5B6815689847281A0028636809DC02
:10F0E0005A689168596063681B68002BEAD05068C1
:10F0F0009847E7E75A68216810680B69984738BD58
:10F10000F8B50D461C461646074600F0A5F82E60D9
:10F110006C607A685468002334B12168711A002940
:10F1200002DB2346A468F7E72BB955603B683046FD
:10F130001B69984700E09D60AC60BDE8F84000F0B6
:10F14000B5B838B504460D4600F086F862685368D5
:10F15000AB4210D19B685360636822685B6813B947
:10F16000936898470CE012691868904708E09A681D
:10F17000AA4203D01346002BF9D101E0AA689A6095
:10F18000BDE8384000F092B808B503685B6898475E
:10F1900008BD0000004870472C9902000148FFF7A5
:10F1A0008CBF00BF2C99020070B506460D46144670
:10F1B00000F052F831462A462346034800F038F85A
:10F1C000BDE8704000F002B83499020008B500F0C4
:10F1D00043F8962000F09EF8962000F09BF8F8E7A0
:10F1E00030B50546A1B00C4600F036F82946684611
:10F1F000224608F0C5F9051E03DC00F057F821B0DF
:10F2000030BD094B1B6823B908480621082203F0CA
:10F210000BFA00241DF804100448013403F0B4FA7A
:10F22000AC42F7D1E9E700BF3C5C00200C5E002057
:10F230000FB407B504A951F8040B0191FFF7D0FFF3
:10F2400003B05DF804EB04B07047EFF3108000F0FA
:10F25000010080F00100704738B5FFF7F6FF80F03D
:10F260000100C5B272B60C4C23680BB90B4B1D7074
:10F270002368013304D10A480A493322FFF794FF77
:10F2800023682BB125B9084806493722FFF78CFFC0
:10F2900023680133236038BDC0550020C4550020C9
:10F2A000659902008B990200089A020010B50A4C79
:10F2B000236883B1FFF7C9FF20B1084808494822F5
:10F2C000FFF772FF2368013B236023681BB9054BDE
:10F2D0001B7803B962B610BDC0550020089A020021
:10F2E0008B990200C45500200FB407B504A951F84A
:10F2F000040B0191FFF774FF012007F083FC38B580
:10F30000044603F00FFB054603F00CFB401BA04234
:10F31000FAD338BD4FF47A735843FFF7F0BF0000BB
:10F32000F0B50388112B89B0044644D01A2B48D07D
:10F33000102B60D1314E727D337D03A8311D23EA3D
:10F34000020203F001F80025039B9D420DD203AA9F
:10F3500002EB45032A489B880022009200F110012D
:10F360001D2202F0B7FF0135EEE7307DA788234D5F
:10F37000C043C0B202F0A0FF4FF6FF73984237D0EF
:10F3800005EB400005F1150187803A46281D012351
:10F3900002F0C0FF281D05F114013A46012302F0D6
:10F3A000B9FFA37DA2889C1E634205F1040005F10C
:10F3B0001601634119E01248A28800F111010023EF
:10F3C00013E0037A0E48A2881F2B00F1130194BFAB
:10F3D0000023012302F09EFF237A0948A2882F2BE5
:10F3E00000F1140194BF0023012302F093FF02E017
:10F3F000042002F017FF09B0F0BD00BFC85500207F
:10F40000CC55002038B5094C0546217D201D2A46E3
:10F4100002F089FF40B1201DA17D2A4602F083FF42
:10F4200000280CBF0120022038BD00BFC8550020B5
:10F4300038B5094C0546217D201D2A4602F073FF90
:10F4400040B1201D617D2A4602F06DFF00280CBFEF
:10F450000120022038BD00BFC8550020024B0246E3
:10F46000D97D181D02F05FBFC8550020024B02462F
:10F47000197E181D02F057BFC855002010B5044B67
:10F480000446191D1A7D02F05FFF204610BD00BF23
:10F49000C855002010B508490A6800230C46012110
:10F4A00099401142D8B202D10A43226010BD013303
:10F4B000182BF4D1184610BDC855002030B5084BA4
:10F4C00001251C688D40024615EA040006D0194447
:10F4D000181D497EBDE8304002F025BF30BD00BF99
:10F4E000C855002060B50646074813460568012246
:10F4F0008A402A4207D00144324604301931BDE81F
:10F50000604002F007BF60BDC8550020044A0121D9
:10F51000136881400B401ABF8018407E1846704720
:10F52000C85500204DDF704738B505460024054B0F
:10F530001A7B944205D253F8243028469847013468
:10F54000F5E738BDFC55002010B50024084B0C220F
:10F5500002FB043293F83711108AFFF7AFFF08B9A6
:10F56000E0B210BD0134082CF0D1FF2010BD00BF67
:10F57000FC55002038B50A4C94F837110546FFF7C2
:10F580009DFF58B100230C2202FB0342128AAA42BB
:10F5900001D1D8B238BD0133082BF4D1FF2038BDDA
:10F5A000FC55002070B505460C4609B9FF2070BD1A
:10F5B0004FF6FF739842F9D00F4E012296F837119B
:10F5C000FFF790FF2846FFF7D5FFFF2803D1FFF78D
:10F5D000BBFFFF28EAD00C2303FB00634FF6FF714B
:10F5E0001D82D9812168C3F8121003F11202A38889
:10F5F0009380A379937170BDFC5500200023C25CF9
:10F6000022B90133102BFAD1104670470120704700
:10F6100008B588B169B102780B789A420BD10131F3
:10F620000622013007F047FBD0F1010038BF00206F
:10F6300008BD084608BD002008BDF8B5471C0546B2
:10F6400038460C46FFF7DAFF48B13846611C1022F5
:10F6500007F031FBD0F1010638BF002600E0064676
:10F6600005F1110004F11101FFF7D2FF16F0010FAF
:10F6700018BF012000F00100F8BD000070B506467B
:10F6800078B3194C257B25B1237B174A022B22D94D
:10F6900019E0204629464FF49C7207F03FFB1823DF
:10F6A000257384F8365184F8373163190C354FF6D9
:10F6B000FF72602D1A82F8D1FFF7ECFE0A4B182872
:10F6C00083F8370101D1042070BD084800F0CCFA5E
:10F6D0000028D9D070BD591C42F823601173002056
:10F6E00070BD0E2070BD00BFFC55002075F70100F5
:10F6F00008B5FFF73FFF064B1A7B32B1FF2804D055
:10F700000C2202FB0033D88908BD4FF6FF7008BDFC
:10F71000FC55002038B50D4D2B7B0C4683B189B1CB
:10F72000FFF728FFFF280FD00C2303FB005050F8F1
:10F73000123F23608388A3808379A371002038BDA2
:10F74000082038BD0E2038BD052038BDFC550020EE
:10F750000023074A0C2101FB0322D189814201D1F8
:10F76000108A70470133082BF3D14FF6FF707047B2
:10F77000FC550020F0B5054687B0002833D003784B
:10F780008BBB017907292ED140886A4600F0CAFA5E
:10F7900048BB4FF6FF7000F031FD4FF6FF73984203
:10F7A000044620D02046072102AA002300F0BAFA1E
:10F7B0000646B0B96B88A34213D001980399FFF7AE
:10F7C0003CFF70B16F883846FFF7C2FFADF81200FA
:10F7D00004A88DF81060ADF81470ADF81640FFF76E
:10F7E000A3FE2046D7E707B0F0BD03883BB9C21897
:10F7F000927822B90133082BF9D1104670470120C5
:10F80000704738B504460D46FFF7EFFF70B1228808
:10F810002B889A4209D1A01CA91C082207F04BFA98
:10F82000D0F1010038BF002038BD002038BD37B509
:10F8300005464FF6FF7000F0E1FC4FF6FF7398426B
:10F84000044614D0204607216A46002300F06AFAD5
:10F8500058B9019928464631FFF7D3FF38B90199C5
:10F8600028462A31FFF7CDFF08B92046E3E72046B6
:10F8700003B030BD10B50C46FFF77CFEFF2804D066
:10F88000024B0C2202FB0030C48110BDFC5500204D
:10F89000F8B50F4D2B7B0446ABB1FFF759FF074678
:10F8A000204600F013FB4FF6FF76B74204460CD01B
:10F8B00058B93846FFF75EFEFF2806D00C2303FB3D
:10F8C0000055EE8101E00820F8BD2046F8BD00BFDC
:10F8D000FC5500202DE9F74F354E337B8946144601
:10F8E000002B5ED0002A5ED000251571157380466E
:10F8F00086F8365106F1FF074D4550D238F8020B15
:10F90000FFF726FFFFF794FD022845D038F8020CD8
:10F9100007216A46002300F005FA20F002000528BE
:10F9200001D1072040E02368A3B101994B7C023B41
:10F93000012B0FD906223846123107F0CBF9019B73
:10F940005A7C3B4603F8012D226842F82530237982
:10F9500001332371A368FBB1019B03F1010B5846EE
:10F96000FFF74CFEC0B1134B03EB051A10225046B3
:10F97000594607F0AFF9A36843F825A0237B01336C
:10F98000237306EB450338F8022CA3F86E2096F893
:10F990003631013386F8363101350737ACE70020C0
:10F9A00002E0082000E00E2003B0BDE8F08F00BFA9
:10F9B000FC5500207A56002030B500238DB00D464E
:10F9C0001446C21AD27B0DF803200133102BF8D154
:10F9D00000210D2204A807F0A1F92B788DF81F3023
:10F9E0006B788DF81E306846AB788DF81D30FFF7C8
:10F9F00099FD9DF82F3023709DF82E3063709DF88F
:10FA00002D30A3700DB030BD30B50378022B85B01A
:10FA100004460D4618D1611C032201A807F05AF9CB
:10FA2000211D032203A807F055F9284603A902AABD
:10FA3000FFF7C2FF01A802A9032207F03CF9D0F1A9
:10FA4000010038BF002000E0002005B030BD0000FC
:10FA500073B50388102B044660D1C37DDA0705D542
:10FA60002F4A03F0FE031344DD883AE0037A032BA8
:10FA700035D04FF6FF7000F0C1FB4FF6FF7506461C
:10FA80004FF6FF739E422CD09D422AD1237A012B40
:10FA900002D9022B0ED01DE0304607216A46002312
:10FAA00000F040F9B0B9019904F108001131FFF7F5
:10FAB000AFFD0CE0304607216A46002300F032F922
:10FAC00040B9019904F108000131FFF79DFF0028BA
:10FAD00018BF3546304600F091FB0646D0E74FF69A
:10FAE000FF75A08804F10801FFF75CFD4FF6FF7376
:10FAF0009D4213D0A088FFF73DFDFF2804D0094B9D
:10FB00000C2202FB0030C581A388ADF8023002A8A8
:10FB1000012300F8083D6846FFF706FD02B070BDFE
:10FB200064560020FC55002038B505460024054BDE
:10FB30001A7E944205D253F824302846984701345F
:10FB4000F5E738BDB45900208378013B072B0ED868
:10FB5000DFE803F0060D0D0D0D060408142305E083
:10FB6000012303E043689B8809339B0803807047A7
:10FB7000F0B585B016461D4602AA01AB07460A9CA1
:10FB800005F0CEFA60B9204605F060FB08B10E28FA
:10FB900014D138463146019A2B4605F0FFFB0EE0A2
:10FBA00005280CD1384631461CB92A4605F0AEFB73
:10FBB00005E022462B4605F061FB00E0032005B07E
:10FBC000F0BD000038B50446002563689D4207D2A9
:10FBD000E1780C482944C9B200F01EFF0135F4E772
:10FBE0004FF6FF732380A370FF23E370237A03F0A3
:10FBF000FC036FF38203237200236360E3602361DD
:10FC000038BD00BFD059002070B500230446144D04
:10FC1000142058432A18928DA24202D128442C3035
:10FC200003E00133082BF2D100200023B8B1827821
:10FC30008A4214D00B48013314261A4606FB0300EF
:10FC4000072A0AD830F8146FA64204D1142000FB0A
:10FC500002502C30EAE70132F2E7002070BD70BD9F
:10FC6000B4590020CC59002030B5244C217E052900
:10FC700085B005463CD800283CD031B1237E44F8FD
:10FC8000235001332376002035E02046D02207F0B0
:10FC900045F8234604F1A0004FF6FF71998583F8DB
:10FCA0002E10FF2183F82F1093F8341001F0FC017F
:10FCB00000226FF3820183F834101A639A63DA63C7
:10FCC00014338342E8D10E4805F000FA08B103204E
:10FCD00011E00121082250238DE80E0009480A494D
:10FCE0000A4B4FF4207200F065FE0028EFD1C5E703
:10FCF000042000E00E2005B030BD00BFB459002044
:10FD0000BD000200D059002034570020845A002042
:10FD1000034B1B7E0BB105F091BB4FF6FF70704794
:10FD2000B459002010B5044C247E1CB1BDE810402D
:10FD300005F0F6B9082010BDB45900202DE9F843AC
:10FD40001F46514B1B7E81460E461546002B00F088
:10FD50008C80002F00F08C80CB1F012B02D9072054
:10FD6000BDE8F883531E072BF9D805F093FB002854
:10FD7000F5D048463146FFF747FF0446002834D007
:10FD80004368AB4220D24FF0000862685FFA88F304
:10FD9000934208F1010806D2E2783C489918C9B2AA
:10FDA00000F03AFEF1E74FF6FF732380A370FF23C4
:10FDB000E370237A03F0FC036FF3820323720023C2
:10FDC0006360E360236110E01AD95FFA85F8636825
:10FDD000984515D2E1782D484144C9B208F101088F
:10FDE00000F01AFE5FFA88F8F1E74FF6FF70FF2186
:10FDF000FFF70AFF0446002843D0A4F80090A6703D
:10FE0000E378FF2B15D12148294600F019FEFF2881
:10FE1000E07011D14FF6FF732380237AA07003F0B6
:10FE2000FC036FF38203237200236360E3602361AA
:10FE300027E04FF0000801E04FF00108656013482B
:10FE4000E17800F0D2FDB0B105EB85052D01ADB232
:10FE5000AD08BE7078603D80B8F1000F0ED0082E5E
:10FE60000CD1AD00063D858008E00820BDE8F88390
:10FE70000E20BDE8F8830320BDE8F8830020BDE82C
:10FE8000F8831120BDE8F883B4590020D059002030
:10FE900038B50D4B1B7E93B1FFF7B6FE044680B11B
:10FEA000C06830B105F0D2F9002814BF0325002541
:10FEB00000E005462046FFF785FE284638BD0820AD
:10FEC00038BD052038BD00BFB4590020F8B5204F1B
:10FED0003B7E0646002B36D0002214235343F918EC
:10FEE000898DB14203D11A4A13442C3303E0013205
:10FEF000082AF2D1002300252C46D3B13046997848
:10FF0000FFF7C6FF10B1052818BF0324114A0135B9
:10FF100014212B4601FB0522072B0AD832F8141FA7
:10FF2000B14204D1142202FB03732C33E5E7013301
:10FF3000F2E754B9304605F095FA30B1072814BFFE
:10FF400003200720F8BD0820F8BD2046F8BD00BFFB
:10FF5000B4590020CC590020F7B51B4F3B7E0E460C
:10FF600043B3CB1F012B27D8FFF74EFE044628B31F
:10FF7000C5682DBB07F11C00E17800F036FD009547
:10FF800001958DF8026098B16368019003EB8303DB
:10FF90001B019BB202AD9B0825F8083D6846FFF7A0
:10FFA000D3FD684604F10C0105F026F9092808D1B3
:10FFB000032006E0082004E0072002E0052000E01E
:10FFC000002003B0F0BD00BFB45900202DE9FF416F
:10FFD000394D2B7E80460E46002B62D0CB1F012B65
:10FFE00061D80027029703978DF80A10FFF70CFEDF
:10FFF0000446002859D0037A5B0758D405F11C0049
:020000022000DC
:10000000E17800F0F2FC08B9032051E06268039047
:1000100002EB8202120104AF92B2920827F8082D77
:1000200038468DF80A60FFF78FFDE368009340467D
:1000300004F1100331463A46FFF79AFD237A03F0A4
:100040000303032B04D1D5F8CC30013BC5F8CC30E9
:1000500038B9237A43F0040360F3000360F34103EB
:100060001AE011280CD1D5F8CC300133C5F8CC30CA
:10007000237A43F001036FF341032372002017E05A
:1000800004280BD1D5F8CC300133C5F8CC30237A15
:1000900003F0FE0343F00203237209E00728B3D103
:1000A00006E0082004E0072002E0052000E03846D2
:1000B00004B0BDE8F08100BFB4590020F0B505469A
:1000C00085B000211022684606F028FE688829794C
:1000D000ADF802008DF80410FFF796FD2B78464E20
:1000E000092B53D8DFE803F00505371D1D3E4042BC
:1000F000485088B1037A5C070ED5FFF763FD2B7873
:10010000581E43424341002468468DF800408DF854
:100110000830FFF709FD3AE001238DF80030AB68A5
:1001200028E090B10269AB689A420ED1037A590770
:100130000BD5D6F8CC300133C6F8CC30037A03F0B7
:10014000FB0343F00103037220E002238DF800302B
:10015000EB68039302E003238DF800306846FFF755
:10016000E3FC13E0042302E00523F5E706238DF802
:100170000030EB680293F1E7072368468DF8003002
:100180000124FFF7D1FC02E0EB6802930024D6F8CB
:10019000CC3073B3184F0025142303FB056393F889
:1001A0003430DA0702D49B071ED5ECB1B88D97F82E
:1001B0002E10FFF70BFFB8B1142303FB05650428CD
:1001C000AB8DADF8023095F82E308DF8043003D1A8
:1001D00008238DF8003003E009238DF800300290E9
:1001E0006846FFF7A1FC04E00135082D07F114076C
:1001F000D2D105B0F0BD00BFB4590020034B1B7E27
:100200000BB105F059B94FF6FF707047B459002093
:1002100010B5054C247E13461CB1BDE8104004F017
:10022000C1BF082010BD00BFB459002013B513464C
:10023000064A127E0C4632B100228978009222468C
:10024000FFF796FC00E0082002B010BDB459002072
:1002500038B505460024064B1A7F944206DA03EBB4
:10026000840328461B6998470134F4E738BD00BF72
:10027000885A002010B5044686B00021142201A837
:1002800006F04CFD6088ADF80800FFF761FA2378AE
:10029000ADF80600092B2CD8DFE803F005050D0F9B
:1002A000111B1D2E1F2307238DF8043000238DF80A
:1002B0000D3008230AE00D2310E00E230EE0072383
:1002C0008DF8043000238DF80D3005238DF80C30A7
:1002D0000FE00F2302E0102300E005238DF8043027
:1002E00007E006238DF80430A3680393A388ADF8D4
:1002F000063001A8FFF7ACFF06B010BDF0B504460C
:1003000087B001A80021142206F008FD2378608838
:10031000ADF80600013B0B2B00F29080DFE803F004
:100320009806192E3A46515D6C72748A2679494FA7
:10033000321C18BF01220125797F8DF80450FFF788
:10034000D1F8731B5A426088B97F5A41FFF7CAF847
:1003500075E002238DF8043023793E4D002B0CBF4D
:1003600002230123697F8DF80C300122FFF7BAF8D0
:100370006088A97F2279FFF7B5F859E003238DF84B
:100380000430344B997FFFF799F800280CBF022303
:1003900001230FE02F4B597FFFF790F8002857D12A
:1003A00002238DF804308DF80C0041E003238DF812
:1003B000043000238DF80C30A3798DF81030A38819
:1003C00034E007238DF80430A2888DF80C30002328
:1003D000ADF808208DF80D3037E008238DF8043093
:1003E000A388ADF8083007238DF80C3000238DF872
:1003F0000D30A368059328E006238DF80430636868
:10040000039315E0052316E003238DF80430114B08
:10041000997FFFF753F800280CBF022301238DF8C2
:100420000C3000238DF8103041F20113ADF80E307E
:10043000012504E004238DF80430F9E700256088E5
:10044000FFF756F9ADF8080015B101A8FFF700FF56
:1004500007B0F0BD885A002030B504468BB00021AB
:100460001422684606F05AFC6088ADF80400FFF7D5
:100470006FF92378ADF80200092B00F2AE80DFE8B7
:1004800003F00516324B576384ACA4A607238DF8FE
:10049000003023798DF8083000238DF8093003935C
:1004A0009DF80A3043F001038DF80A3092E09DF880
:1004B0000A20A168039142F001028DF80A20484AFF
:1004C00007238DF80030506823798DF80830002319
:1004D0008DF8093000287DD088427BD1BDF804100A
:1004E0005360918122E008238DF8003023798DF844
:1004F0000830E36804933A4BA168586803910022DE
:100500008DF80920002865D0884263D199685A6027
:100510000139996003925DE007238DF8003023795B
:100520008DF8083001238DF809300023039351E042
:1005300008238DF8003023798DF8083001238DF8D9
:100540000930A368049345E0254D09238DF8003058
:100550002B7858073ED54FF6FF70FFF74FFE4FF64A
:10056000FF739842044635D12B7805A86FF38203B8
:10057000002114222B7006F0D1FB0B238DF81430D0
:10058000ADF81840ADF816401BE00A238DF8003096
:10059000A3680293124B1A7851071BD56FF382029E
:1005A0001A7005A80021142206F0B8FB0C238DF860
:1005B00014304FF6FF73ADF81830ADF81630A3685D
:1005C000079305A8FFF744FE04E0052300E0062397
:1005D0008DF800306846FFF73BFE0BB030BD00BF22
:1005E000885A002010B5084B1B78DB07044609D554
:1005F000FFF72EFA204600F0E5FC2046BDE810404B
:1006000004F0B4BA10BD00BF885A002038B51C48A9
:10061000FFF72AFB18B1082830D0032038BD19484D
:1006200000F084FC0028F8D1174804F05BFA002899
:10063000F3D11648FFF722F805460028EDD1144CF7
:1006400029462022204606F069FB4FF6FF73A3815E
:10065000182365606377A377FEF71CFF182860777F
:10066000DBD0FEF717FF1828A077D6D0237865F3E4
:100670004103DBB243F001032370284638BD00BFBD
:1006800059040200FD020200750202008507020003
:10069000885A0020084B1A78D20709D51A7F022AF7
:1006A00008D8111D013243F821001A770020704745
:1006B0000820704704207047885A002008B5064B70
:1006C0001B78DB0705D500F08BFC082808BF03204A
:1006D00008BD082008BD00BF885A0020034B1B78C6
:1006E000DB0701D500F0D0BC08207047885A0020F5
:1006F00000F0C0BC034B1B78DB0701D5FFF7EAB85D
:1007000008207047885A002070B5184E3378DA07F1
:1007100005460C4622D519B3FEF78AFE10B3831E98
:1007200058425841237860F300032370B17F284674
:10073000FEF7C4FE237860F3C30323702846FEF758
:100740008DFE237860F3410323702846FEF78EFE6A
:10075000237860F382032370002070BD082070BDF1
:100760000E2070BD43F2020070BD00BF885A002009
:10077000034B1B78DB0701D5FFF78AB808207047C9
:10078000885A002010B5027886B00446CAB1012A02
:100790001AD10E4B4088997FFEF7A4FE0021142247
:1007A00001A806F0BBFA6088ADF80600FEF7A0FFCE
:1007B0000023ADF8080001A88DF80430FFF748FDCC
:1007C00002E0C088FFF7D4FF06B010BD885A0020B1
:1007D00010B50E4B1A78D10713D542F004021A70E7
:1007E0004FF6FF70FFF70AFD4FF6FF73984204467D
:1007F00005D02046FFF7BCFF28B92046F2E70020CD
:1008000010BD082010BD032010BD00BF885A002075
:100810002DE9F04F1F462F4B1B78DB0787B083462F
:100820008A4691464CD54FF6FF70FFF7E7FC00254E
:10083000012304950621ADF8103004AA03AB044649
:1008400003950593FFF7E4FC07283BD04FF6FF78AC
:10085000C4464FF0FF362B46B0B9039D9D4224BFDE
:10086000A4462B462046B5422CBF3546A0468DE80F
:100870000810FFF7C3FC062104AA04462E46FFF722
:10088000C7FC9DE80810E7E7052802D10022039283
:10089000E3E74FF6FF72944216D1BBF1000F01D08F
:1008A000ABF800C0BAF1000F01D0CAF80030B9F1BE
:1008B000000F01D0A9F8008047B13E60002006E09B
:1008C000082004E0052002E0032000E0384607B0DD
:1008D000BDE8F08F885A00202DE9F041334D2A7889
:1008E000D10788B006465BD5314B93E803000DF184
:1008F0000408C2F3400288E803006AB905F10C005D
:1009000005F108011346FFF783FF08B1052803D15D
:100910002B7843F002032B702A78244B920701D4E2
:1009200011243EE05C68002CFAD19A89B24220D1B1
:100930009B68F3B12146142203A806F0EFF90723C0
:1009400030468DF80C30FEF703FF06238DF8143087
:100950009DF81630ADF80E0064F3000303A8ADF85F
:1009600010608DF8154006948DF81630FFF770FC76
:1009700017E0AB680D4F0133304641463A1DAB607E
:10098000FFF754FC68B100237B60BB68112803F1BA
:10099000FF33BB60C4D004280CBF0424032400E050
:1009A0000824204608B0BDE8F08100BF885A002026
:1009B0001C9A020070B5059C069DA0B199B193B137
:1009C00005FB04F6B2420ED3049AE61DB2EBD60F35
:1009D00009D344B13DB180E83A001846A1B200F015
:1009E00067F8002070BD072070BD38B50D4604467D
:1009F00008B9002038BD0368002BFAD040680028F1
:100A0000F7D0FF29F5D000F0CEF80028F1D0E0684B
:100A1000236800FB053038BD38B50D46044670B17B
:100A2000036863B1406850B1FF2908D000F0BBF8FB
:100A300028B160682946BDE8384000F065B838BD87
:100A40002DE9F8438846064610B9FF20BDE8F88333
:100A50000368002BF9D04368002BF6D00027FF2550
:100A6000B368FCB29C42A146EFD27068214600F008
:100A700026F850B1FF2D18BF2C46C4EB09035A1CB1
:100A800010DB013343450DD10FE0FF2D01D1FF24D1
:100A900008E0A542FBD2294630460135FFF7BCFFEE
:100AA000EDB2F6E701372546DAE72046BDE8F883E0
:100AB00020B1CA1DD208002106F030B970472DE9D7
:100AC000F3410446E0B1CE0801F007054FF00108FC
:100AD00008FA05F5875DEDB22F4010D102A800F8A5
:100AE000017D01F0ADFBA35D9DF807002B4205BF22
:100AF0001D43A5553C46444601F0C8FB00E00024D8
:100B0000204602B0BDE8F08173B5C1F3C7050126E8
:100B100001F007018E40F3B2044680B1425D1342FA
:100B20000DD002A8002300F8013D01F089FB635DB0
:100B30009DF8070023EA0606665501F0A7FB02B000
:100B400070BD2DE9F74F8946054608B9484627E0AC
:100B50000027BCB24C45F9D24FEAD40804F007068E
:100B60004FF0010B0BFA06F615F808A0F6B216EADC
:100B70000A0A12D102A800F801AD01F061FB15F8D4
:100B800008309DF80700334205BF1E4305F8086092
:100B900056465E4601F07AFB0EB90137D9E720468A
:100BA00003B0BDE8F08F58B1CB080122C35C01F05F
:100BB000070102FA01F10B420CBF0020012070472F
:100BC0000120704738B505460024054B1A7B944236
:100BD00005D253F82430284698470134F5E738BD4C
:100BE0002050002010B50378182B044602D1FEF7E0
:100BF00051FC207010BD30B585B00C460546002173
:100C000001A80C2206F08AF80D2CADF806500294CB
:100C100001D10B2303E0042C0CBF0A23092301A8F4
:100C20008DF80430FFF7CEFF05B030BDF0B585B0CC
:100C30000446FEF7E7FB012805462F4E19D1204652
:100C4000FEF756FD4FF6FF73984212D02046F17C16
:100C50002A46FEF747FC01A800210C2206F05EF8A8
:100C60000C2301A88DF80430ADF80640FFF7AAFF69
:100C700004E02046F17C0022FEF734FC737D1E4D1B
:100C80004BB12046E97CFEF719FC20B9204605F15E
:100C90001601EA6902E0002120460A4604F0C6FD7A
:100CA000042805460DD0112805D020B1204629463C
:100CB000FFF7A1FF1DE0B5F111035F425F41002284
:100CC00001E0002701222046B17CFEF70BFC204604
:100CD000717C3A46FEF706FC2046B17B0022FEF707
:100CE00001FC2046717B0022FEF7FCFB0DB1112DAB
:100CF000DCD105B0F0BD00BF2050002070B586B03B
:100D0000064601A8FEF7BAFB0024019B9C420DD2C7
:100D100001AA02EB440331469D882846FEF7CEFB2C
:100D200010B12846FFF782FF0134EEE706B070BD30
:100D30002DE9F0470546174698460E4629B933492E
:100D40004B7D23B90520BDE8F087002100E0163176
:100D500004F008FE042804460BD0112801D0002816
:100D600050D1B4F11103D3F1000959EB030900226A
:100D700002E04FF000090122DFF890A028469AF81F
:100D80000E10FEF7AFFB28469AF80D104A46FEF704
:100D9000A9FBB8F1000F06D08CB3112C21D0284646
:100DA0002146FFF728FF082C29D011D83CB3042C8A
:100DB00024D1DFF85880284698F810103246FEF704
:100DC00091FB284698F80F103A46FEF78BFB16E089
:100DD000112C06D043F202039C4210D00D2C0DD1F1
:100DE0000DE00A4C2846217C3246FEF77BFBE17B76
:100DF00028463A46FEF776FB002400E0032420460E
:100E0000BDE8F087B8F1000FCDD0C8E72050002032
:100E10001FB503780446092B31D8DFE803F0050934
:100E200020202020202020204088FFF7FFFE26E001
:100E3000144B5A7D6AB1997D037901F001029A42FF
:100E400007DB4379C1F340019942ACBF0021012186
:100E500000E00121608800220123FFF769FF237869
:100E60008DF80430043434F8023CADF8063094E8D0
:100E7000030004AB03E9030001A8FFF7A3FE04B0DD
:100E800010BD00BF205000202DE9F04186B007467C
:100E9000FEF73CFB08B301A8FEF7F0FA0025019B22
:100EA0009D421AD201AA02EB450339469C8820468E
:100EB000FEF704FB78B10A4E2046F17BFEF7FEFAFE
:100EC000317C80462046FEF7F9FA4246014601236E
:100ED0002046FFF72DFF0135E1E706B0BDE8F081C0
:100EE0002050002038B50378062B0DD9072B19D1D7
:100EF0000D4DAC7C2046FEF709FB10B12046FFF7F4
:100F0000FDFEA87BFFF7C0FF074D6C7C2046FEF777
:100F1000FDFA10B12046FFF7F1FE687BBDE83840CE
:100F2000FFF7B2BF38BD00BF2050002038B50546DE
:100F300000283ED0204C237B2BB1237B1E4A022B62
:100F400031D9042038BD04F10D00FFF74BFE04F148
:100F50000E00FFF747FE04F10F00FFF743FE04F118
:100F60001000FFF73FFE04F11100FFF73BFE04F114
:100F70001200FFF737FE04F11300FFF733FEE37CA6
:100F8000182B01D1032038BD237D33B90B48FEF760
:100F90006BFE0028F6D101232375094804F010FCEC
:100FA0000028EFD1C9E7591C42F8235011730020E3
:100FB00038BD0E2038BD00BF20500020E50E0200D5
:100FC000110E020010B5054C237B33B104F0A8FDCF
:100FD000607BBDE81040FFF757BF10BD20500020D8
:100FE00010B5224B1A7B1C468AB308B9587510BD40
:100FF000027802F08203802B2BD0C2F30213042B61
:1010000027DC02F0F203322B23D041788378994217
:101010001FD806291DD9102B1BD8C1784B0718D40F
:10102000037913F0040F14D111F0080F11D113F04C
:10103000080F0ED112F0010F01F0030103D141B9E5
:101040009A0708D005E031B99B0704D101E00820D8
:1010500010BD072010BD0368C4F81630044B027998
:101060001A7101236375002010BD00BF20500020BD
:10107000365000200A78034B82F00102D97CFEF73B
:1010800031BA00BF20500020044B1B7B0A461BB125
:1010900000210B46FFF74CBE08207047205000206F
:1010A00038B505460024044BE3580BB12846984751
:1010B00004340C2CF7D138BDC05B00202DE9F04181
:1010C000174D02230B802B6800F580570024083051
:1010D000B84203D32B6002BBBDE8F081066801363D
:1010E000F8D0B0F8048006884FF6FF7CE04503D0C6
:1010F000003618BF012600E0002626B18668B342FC
:1011000038BF334600E001244688B1F800C00336FA
:1011100000EB860066440E80DAE71470BDE8F081CB
:10112000005B0020033080B240F2FD33984230B5BE
:1011300020D8124B1A7842B95D891C892C4410FAC8
:1011400084F4A4B2B4F5806F0CD31C7C0B4A9CB918
:10115000548B128B224410FA82F292B2B2F5806F55
:101160000AD2012203EB02130A805A8910445881E3
:10117000002030BD092030BD072030BD945B002029
:101180000A6830B50001144C22B15388033302EBD6
:10119000830302E023185B6808330444646804F5A1
:1011A0008054A34215D21A68013212D09D88188843
:1011B0004FF6FF72954203D0003018BF012000E0C7
:1011C000002008B10B6030BD5A88033203EB820364
:1011D000E7E7002030BD00BF945B002037B54368CF
:1011E00005460C4663B1294A11688B420AD35268FE
:1011F000934207D813F0030F14BF0022012202E02C
:101200001A4600E00022D20724D5214A29891289F2
:1012100091421FD129689A6891421BD11D494A68A1
:10122000934203D902F58052934209D34A6993420B
:101230000AD902F58052934238BF012304D200E05C
:1012400000232380002000E00A20D0F1010038BFF5
:10125000002019E0002323802388012B4FF0000099
:1012600012D80190208801A9FFF78AFF48B1019B9D
:101270002A6899689142F5D16B60054B1B892B81D7
:1012800002E023880133E6E703B030BDF0510020CF
:10129000045B0020945B002010B50D4C0D4B628860
:1012A00003EB02139A893AB959680B48012200F0FE
:1012B0001DFF0423237010BD05232370074B064830
:1012C000196802229A80012200F010FF10BD00BFB1
:1012D000045B0020945B0020F05100208C5B002018
:1012E00008B50146044A0548012300F0B9FE00286C
:1012F00014BF0E20002008BD249A0200F0510020E7
:1013000038B50848084B42689C88196853880325FB
:101310000333057001EB84019BB2044800F0A0FE8A
:1013200038BD00BF045B00208C5B0020F051002022
:1013300008B5074948880431FFF722FF18B1BDE816
:101340000840FFF7DDBFBDE80840FFF7A5BF00BFBD
:10135000045B0020F8B51C461B4B1B789B07064618
:101360000F4615462BD5002A2BD0002C29D0A38858
:10137000012B22D81B01154AD35CD3B9A088214682
:10138000FFF7FEFEA0B123681EB199883288914212
:10139000F4D147B99B682B6023686B600C4B1B89A9
:1013A0002B810020F8BD19883A889142E6D1F1E7F7
:1013B0002060A3880133A380D9E70A20F8BD02206A
:1013C000F8BD0520F8BD00BFB45B0020945B002091
:1013D000045B00202DE9F04FDFF8CC82D8F87030A4
:1013E0004FF01C0909FB03F987B018F80930013BDD
:1013F000074608EB0904C246052B00F2E481DFE84A
:1014000013F006005F005F00E800E800360128B135
:101410009B4B1A7822F001021A70C6E12379032B44
:1014200047D8DFE803F00D02222C964B1A78022AE7
:101430001E460ED01B7C022B40F03682012509E0AF
:10144000914B92481968924A022300F009FE012349
:101450002BE000252D0173198C4859688D4A022311
:1014600000F0FEFD0023735520E0874D8748296872
:10147000012200F03BFE0223AB80002315E0824DE9
:10148000844A296881487F4E022300F0E9FD824B9F
:101490002F685A881201B31859682960A9885F60BB
:1014A00019810223AB800023B3542371002800F07C
:1014B0000A82734B1A7822F001021A700E257BE122
:1014C000668A704B03EB061648B1E38832891A44EA
:1014D000033232817289033AD31A738165E17368EA
:1014E000378903EB8707237C062B00F2EA81DFE8CC
:1014F00013F012004E001A00280007005C00E501FE
:1015000066480023436001A9A3690360FFF766FEF4
:1015100008B90A2550E101235C483946221D00F034
:101520009FFD02232DE00123584807F1080104F133
:101530000C0200F095FDA37D002B0CBF01230323BB
:101540001FE0574B5A6C4AB1196C03EBC1050131CE
:1015500001F00701013A19645A6400E01546A18AB6
:101560002A68AB88494807EB810100F079FDA38A1E
:10157000AA881344A382A37D013BDBB2A3750BB9F8
:1015800001232374002800F09E810E2517E001231B
:101590003E48391D04F1080200F062FD18F80930D8
:1015A000032B14BF06230523EBE73C4B5868FFF7DA
:1015B00097FE062323740546002800F08481E38803
:1015C00032891A44033232817289033AD31A738101
:1015D000EFE0002840F0E98094F804B0BBF1010F7F
:1015E00028D006D3BBF1020F41F61D5518BF0F25B9
:1015F000E2E0394601A80C2205F090FBE368019374
:1016000001A80DF10201FFF7E9FD78B10298838886
:10161000E38003882381FFF763FEBDF80220194BA6
:1016200003EB0213012205469A7300E00A25022308
:101630002371BEE01B4EA01D394601AA3346FFF7B9
:1016400089FE054650B90298FFF74AFEB2880D4B55
:1016500003EB0213054683F80EB004E0304639462A
:10166000082205F05BFB0A2D40F0A38023E100284F
:1016700040F09B80084B1A7BC2B118734FE000BF4B
:10168000B45B0020945B00208C5B0020F0510020B4
:10169000289A0200309A0200045B0020F05A0020D1
:1016A000A85A0020B85B0020145B00201A78072A93
:1016B00035D8DFE802F004343418213030321A898A
:1016C00001321A8100225A801A73804A1178127CE2
:1016D000D1F1010138BF0021D2F1010238BF00224F
:1016E0009972DA7219E07A4A5968488891880144F7
:1016F00003319180022211E058887449744A01EB49
:10170000001115684868106090884D6008810221BA
:101710009180062202E0072200E001221A701A7866
:10172000013A062A43D8DFE802F0042023264229A2
:1017300033009A7A3AB1674A0021917263498A89E3
:101740000AB9897B51B9DA7A52B1624A0021D17261
:101750005E4A918B21B9927F12B101225A8004E036
:1017600000221A705A805A60A5E0FFF7E1FD1AE0E6
:10177000FFF7C6FD17E0FFF78FFD14E006221A7091
:101780005A88524B544803EB0213544A596807E0F5
:1017900007221A7000225A604D4B4F481968504A70
:1017A000022300F05DFC054603E0012504E00F255F
:1017B00002E0002D00F0878041F61D539D4203D1C9
:1017C000002302930EE00F2518F809300295023B22
:1017D000012B07D8434BA27D196C11441964596C35
:1017E0008A1A5A6418F80930013B052B39D8DFE80A
:1017F00003F003050D1F2B35002330E001238DF886
:1018000004302389ADF81030A38818E002238DF846
:1018100004302389ADF81030A388ADF81230E368A6
:101820000393237C9A1F534253418DF8143018E0E0
:1018300003238DF80430E388ADF810302389ADF828
:101840001230E36803930CE004238DF80430E3883E
:10185000ADF810300023ADF8123002E005238DF80A
:10186000043001A8FFF71CFCDAF870001E4C1C22A3
:1018700002FB00A0002105F051FADAF8743033B110
:10188000226F013202F00302013B22676367DAF83C
:1018900074301BB10020FFF79DFD14E0134B1A7844
:1018A00022F004021A700EE0104B1A7842F0020285
:1018B00022F001021A7041F61D557DE741F61D55D3
:1018C0007DE60F257BE607B0BDE8F08F945B002036
:1018D0008C5B0020045B0020F0510020309A020055
:1018E000289A0200A85A0020145B0020B45B002054
:1018F0000846FFF76FBD0000064B1A7802F004019E
:1019000001F0FF0021B942F004021A70FFF762BD36
:10191000704700BFB45B0020044B026803F138013C
:101920008A421ABF0832026003607047A85A00203A
:101930002DE9F347214FD7F874C0BCF1030F884657
:10194000914634D81E4ED6F844A0C1F108039A45FA
:101950002DD83C6F64441C2304F00304054603FBAC
:1019600004740FCD0FC495E807000CF1010384E85F
:1019700007007B67B8F1000F1BD0336C534403F0B2
:10198000070306EBC3030193002402AB09EBC40178
:1019900003C953F8042D013482E803001846FFF709
:1019A000BBFF4445F1D1736C1C44746401E000201A
:1019B00000E0012002B0BDE8F08700BF145B00200A
:1019C000A85A0020F0B51F463E4B1B789B0789B0F4
:1019D00005460C4614D5A9B109884FF6FF73994204
:1019E00012D0638883B163682089002181420DD2BF
:1019F00053F83160B60701D10131F7E703205EE00B
:101A000002205CE005205AE0042058E0002A45D07E
:101A100013885688ADF8023000232B4A8DF8143015
:101A2000BDF80230ADF816300323ADF81830136856
:101A300021898DF804700133136004932388ADF875
:101A40000C30032F63888DF81A10ADF80830ADF80C
:101A50000A6004D104238DF814302B680793002703
:101A600001A86268ADF80E70FFF762FF50B9BDF8CB
:101A70000220164B03EB021308205A89033A961BE7
:101A80005E811CE035B1049B2B60114B6F601B899C
:101A9000AF722B81FFF730FF002010E01646824224
:101AA00006D203EBC201013289880E44B6B2F6E7D2
:101AB00030460DF10201FFF735FB0028ACD009B02C
:101AC000F0BD00BFB45B0020005B0020945B0020F1
:101AD000045B0020064A1378032B06D0054941F821
:101AE000230001331370002070470C20704700BFA3
:101AF000FC5A0020C05B00202DE9F041504F8CB013
:101B000014226846002105F009F93B7803F002022F
:101B100002F0FF00002A56D113F0010640F08C803D
:101B200043F001033B7000F057FA34463546454B0D
:101B30001B689A599819444B9A4201D000231AE025
:101B40004368424A934262D001329342F6D1DFF8B1
:101B500000814146002241F8040BFFF7AFFAB8F8C4
:101B60000430022B14BF082304231C431BE004335E
:101B7000B3F5805F03D0C2580132F8D013E0344B84
:101B800019680222002954D0DFF8CCC029010CEBDF
:101B900001030CF8012058601A812E4B5D8001353D
:101BA000ADB244F0010406F58056B6F5405FBED1F3
:101BB00014F0FF0429D0062C09D13B7843F002032E
:101BC00023F001033B706846FFF76AFA1BE001232C
:101BD000013C8DF814300A2C0ED8DFE804F0060D15
:101BE000060D0B0D0B0D080A0800002302E003236D
:101BF00000E002238DF8183000210A4605A8FFF7FF
:101C000097FEFFF779FE002016E00B2014E0124B40
:101C100029014FF0000E5A1803F801E00831194469
:101C2000506001358A1DFFF749FA44F00204ADB255
:101C3000B9E718609A80B4E70CB0BDE8F08100BF46
:101C4000B45B0020F0510020DEC0ADDEFE011EF1CD
:101C50008C5B0020045B0020945B002037B50D46B0
:101C60000446B0B1A9B10DF10601FFF7B7FA90B182
:101C7000BDF80610094B626803EB01130020998937
:101C8000013199812A6063680C336B600123A37270
:101C900002E0052000E00A2003B030BD945B002084
:101CA00013B5044698B10DF10601FFF797FA80B11C
:101CB000BDF80620094B03EB021308339A8852B192
:101CC000A17A41B1013A00209A80A07204E0052077
:101CD00002E00A2000E0062002B010BD945B002064
:101CE00037B50B4B1B789B0704460D460BD560B1EF
:101CF00008460DF10601FFF715FA38B9BDF80630B0
:101D00002380658002E0022000E0052003B030BDA2
:101D1000B45B002010B5114B1B789B0717D5C0B1E1
:101D20000388022B17D80E49428801EB03116FF08C
:101D300002034C899B1ADC420DD401F10803E11E19
:101D40008A1A5A80002303804380184610BD02205F
:101D500010BD052010BD042010BD00BFB45B0020E5
:101D6000945B002000220223FFF72CBE12B1022355
:101D7000FFF728BE0520704718B100220323FFF7A4
:101D800021BE05207047000000B5114B1B789B0752
:101D900089B015D54FF6FF73984213D00523002163
:101DA0008DF80430ADF80A00012301A80A468DF829
