:020000021000EC
:10C000000080002085D40100C1D40100C3D4010008
:10C010000000000000000000000000000000000020
:10C02000000000000000000000000000C5D4010076
:10C030000000000000000000C7D40100C9D40100C6
:10C04000CBD40100CBD40100ED140200CBD401000D
:10C05000CBD4010000000000CBD40100CBD4010000
:10C06000CBD40100CBD4010055130200CBD4010086
:10C07000CBD40100CBD40100CBD40100CBD4010040
:10C08000CBD4010001170200CBD40100CBD40100B6
:10C09000CBD401004937020045100200CBD4010087
:10C0A000CBD40100CBD40100000000000000000050
:10C0B0000000000000000000000000000000000080
:10C0C00010B5064C2378002B07D1054B002B02D06E
:10C0D000044800E000BF0123237010BDC4280020E5
:10C0E000000000009856020008B5084B002B03D052
:10C0F0000748084900E000BF07480368002B03D049
:10C10000064B002B00D0984708BDC0460000000039
:10C1100098560200C8280020C42800200000000013
:10C12000164B002B00D1144B9D46402292029A1AC6
:10C13000924600218B460F461348144A121A07F004
:10C1400083FC0F4B002B00D098470E4B002B00D0E8
:10C1500098470020002104000D000D48002802D05F
:10C160000C4800E000BF07F0F9FB2000290003F0B5
:10C17000F6FA07F0DDFBC046000008000080002052
:10C180000000000000000000C428002068310020EA
:10C19000000000000000000008B50368002B01D07B
:10C1A000081C984708BD08B50368002B01D0081C7F
:10C1B000984708BD08B50368002B01D0081C9847B4
:10C1C00008BD08B50368002B01D0081C984708BDBE
:10C1D00010B5054B041C036003F055FA201C03F056
:10C1E000A3FA201C10BDC0468051020010B5041CEB
:10C1F000FFF7EEFF201C07F065FB201C10BD70B59B
:10C200001D1CC37F041C5E1901201D2E13DC281881
:10C21000E054E37F0133DBB2E377E154E07F111CAC
:10C220000130C0B2E0772A1C201807F0EBFBE37F57
:10C230000020ED18E57770BDF7B58E1EF6B2051C2F
:10C24000089C132E22D80120071CB7403E1C284F03
:10C250003E421BD0E97FCE1869181F2E46DC601CB9
:10C26000814203D90878C8540139F8E70021C8B2DF
:10C27000984204D2565C601886700131F7E7227844
:10C280009A182270EA7F9B18EB770FE02078061C43
:10C29000013EF6B20090B3420AD10021C8B29842E2
:10C2A00004D2555C601885700131F7E700201DE06D
:10C2B000E87F801BC0188446674601201F2F15DCCD
:10C2C000E87F8446B01C201801906746E819019F5A
:10C2D000874204D2A019807820700134F0E70098DA
:10C2E000C7436744EF77281CFFF789FFFEBDC046B0
:10C2F0003F000800F7B5C67F0024B4420CD20519F0
:10C300006F788F4203D10095FFF796FF06E0055D39
:10C3100001356419E4B2F0E7FFF771FFFEBD70B5B7
:10C32000061C8AB00A360C1C2222311C051C01A8EE
:10C3300007F068FB6A460121033201A80B1C147048
:10C34000FFF7D8FF041E0DD12B682A1C34329B6FD7
:10C35000281C01A99847041E04D1301C01A92222DF
:10C3600007F050FB201C0AB070BDF0B5051C8DB065
:10C370000A35161C0F1C2222291C041C03A8019339
:10C3800007F040FB321C03A8391C019BFFF7B2FFEA
:10C39000061E0DD12368221C34329B6F201C03A97A
:10C3A0009847061E04D1281C03A9222207F02AFB65
:10C3B000301C0DB0F0BD10B50023021C037011320B
:10C3C000431C00241C7001339342FAD1418210BDFA
:10C3D00010B50B78041C03704B8A10224382013184
:10C3E000013007F00FFB201C10BD0000F7B50093D3
:10C3F00008AB1E8809AB1B78041C01930CAB171CFF
:10C400001D78FFF7E5FF009A25776283019A0025E2
:10C41000631C67612683E583DA77A31C0122DA7740
:10C420000A9B0B9A6362231C28330C26201C5D7028
:10C430009D70291C1A702C30321C07F005FB074B2D
:10C44000201CE563A363291C321C403007F0FCFA72
:10C45000034B2565201CE364FEBDC046A7C1010057
:10C4600099C1010010B501F039FD011C08C9041C77
:10C47000DB6F9847002804D15834237801221343F6
:10C48000237010BD08B50248FFF7ECFF08BDC04699
:10C49000602C002010B50C1C01F030FD0368211C3D
:10C4A0001B68984710BDF7B51C1C08AB0E1C151C6B
:10C4B0001F7801F023FD03680097DF68311C2A1CF8
:10C4C000231CB847FEBD0000F0B5964899B001F0B6
:10C4D000F5FC836D9348990703D5934B1B78002B8C
:10C4E0000CD1924A002313709149924AC98B537020
:10C4F00000930223FFF7D7FF19B0F0BD8E4D5A24E9
:10C50000281C00F03FFE281C00F06AFE281C00F0EA
:10C51000A1FE0B2001F032FB00210B1C0094874A86
:10C5200001F017FB864A10700C2001F027FB002158
:10C530000B1C0094814A01F00CFB824B824A18705C
:10C54000E98D824C8B189BB2238023702388804E08
:10C550001B1209B2301C0A22637001F0F0FA6178F4
:10C560002378090219437B4B301CC91809B20A22EF
:10C5700001F0E5FA2A8E7449774B521892B21A806C
:10C58000D2B21A7003921A8812AE120A5A7004922A
:10C590006A8E724B521892B21A80D2B21A700592F9
:10C5A0001A88301C120A5A7006922A8D6C4B521847
:10C5B00092B21A80D2B21A7007921A88120A5A706E
:10C5C00008926A8D674B521892B21A80D2B21A70D2
:10C5D00009921A88120A5A700A92AA8D624B52184E
:10C5E00092B21A80D2B21A700B921A88120A5A703A
:10C5F0000C92AA8E5D4B521892B21A80D2B21A7067
:10C600000D921A88120A5A700E92EA8E584B5218DE
:10C6100092B21A80D2B21A700F921A88120A5A7005
:10C6200010922A8F534B521892B21A80D2B21A70BB
:10C630001F8811923F0A002107225F7007F004FA59
:10C640006378049A737023780699F270059A14AD92
:10C65000B370039B7171B27100210722281C3371E2
:10C6600007F0F2F907990A9A089BA970EA700C99E9
:10C670000B9A16AC6B70099B6971AA71201C002182
:10C6800007222B7107F0E0F90E9B0D9963700F9B49
:10C69000A1702371109A1199374B67710027E270CE
:10C6A000A171321CD98B1F4807230097FFF7FBFEAF
:10C6B000324B2A1CD98B1B4807230097FFF7F3FE48
:10C6C0002F4B221CD98B174807230097FFF7EBFE4F
:10C6D0001B492C4A0B781B4953702B4C0B78114883
:10C6E00063702A4BD98B02230097FFF7DCFE284B9F
:10C6F000221CD98B0B4802230097FFF7D4FE0B496D
:10C700000C4A0878431CDBB20B705370BB4203D158
:10C710000230C0B208705070054B0248D98B00231C
:10C720000093E6E6602C00203A2D0020BC2C00206F
:10C73000682C0020F72B0020342A0020FF03000083
:10C74000002A0020F62B0020FF7F0000F42B0020A1
:10C75000FC2D00200180FFFF8A2900207C2B002077
:10C76000542C0020022A0020FC2B0020222B002029
:10C77000362D0020182B002034290020BC2A002050
:10C78000282B0020242B0020382D0020002C0020F6
:10C79000AC290020F0B58DB002AD07AC0021281CFB
:10C7A0000C2207F051F9231C2A1C43CA43C33F4EF5
:10C7B0003F4B0027211C301C0A930B9701F026FBEE
:10C7C0000C22391C281C07F03FF9301C01F086FBB5
:10C7D00001903848231C029007CD07C3142007F0AE
:10C7E0005DF8344D031C079526CC26C3324B0761F8
:10C7F000C360019BA4331A68BA4200D0026118607A
:10C80000301C01F06BFB0621FFF789FD301C01F0A5
:10C8100065FB0321294A0623FFF7A7FD301C01F021
:10C820005DFB274C0921221C0B23FFF79EFD301CCA
:10C8300001F054FB002303712249301CFFF72AFE4C
:10C840002149301CFFF726FE2049301CFFF722FE4D
:10C85000301C01F043FB0368211C5B6B9847301CC4
:10C8600001F03CFB036804215B6C9847301C01F02D
:10C8700035FB0368041C9B689847A023984204D9A1
:10C880002368201C9B689847031CFA2080001049ED
:10C89000584307F03DFDE080301C01F01FFB0023F2
:10C8A0000381301CFFF7DEFD0DB0F0BD602C0020D1
:10C8B000B5C1010085C40100C3C10100364D0200AD
:10C8C000104D0200142D0020802B00208C29002008
:10C8D0007102000008481E2310B5837001246B23E9
:10C8E0004370047000F0DCFB044B002801D1187089
:10C8F00000E01C7010BDC046342A00203A2D0020F4
:10C9000010B5114C9621201C890101F06DFA201CF4
:10C910000E4901F0C5F80D20012101F091F90D201B
:10C92000002101F0B5F90A480A4B0B498361002345
:10C93000C36202F0B0FEFFF72DFF0D20012101F0D0
:10C94000A7F9FFF7C7FF10BDFC2D00201B4D02000B
:10C95000042A0020C9C4010020A1070008B502482C
:10C9600001F0DCFA08BDC046602C0020F0B50021C3
:10C970008DB08E4801F062FA8D4800F0D1F98D4CEF
:10C980000027201C02F0AAFE8B4BA761E762201C47
:10C990008A498B4A236006F0ADFF8A4B8A4E5A784B
:10C9A0001B787270B370894B89495A781B78F27082
:10C9B0003371884B884C5A781B787271B371874BEE
:10C9C00007A85A781B784A708B70854B02255A78D5
:10C9D0001B78CA700B71834B5A781B784A718B7124
:10C9E000814B82495A7862701B78A370804B5A78C9
:10C9F0001B78E27023717F4B5A781B786271A371A8
:10CA0000FFF7D9FC0722012300920493321C07A9E7
:10CA100007230195029703977748FFF7E7FC07A8DC
:10CA20007649FFF7C8FC072101220091049207A96B
:10CA3000674A07230195029703977148FFF7D6FCD1
:10CA400007A87049FFF7B7FC072301210093221CB8
:10CA50000491019507A9029703976B48FFF7C6FC5D
:10CA6000802107A8C901FFF7A6FC684C07A9201C74
:10CA7000FFF7AEFC03232375654BA783A361654BCA
:10CA8000654C1B78654A6370654B664E1B7866493A
:10CA90005370664B664A1B7807A87370654B1B780A
:10CAA0004B70654B65491B785370FFF784FC01237D
:10CAB000221C049307A92B1C00950195029703974C
:10CAC0005F48FFF793FC07A85E49FFF774FC01215C
:10CAD0002B1C0491514A07A90095019502970397D1
:10CAE0005948FFF783FC07A85849FFF764FC012267
:10CAF0002B1C049207A9321C0095019502970397FD
:10CB00005348FFF773FC07A85249FFF754FC012371
:10CB1000049307A92B1C444A00950195029703979B
:10CB20004D48FFF763FC07A84C49FFF744FC01217F
:10CB30003F4A2B1C0491009507A901950297039782
:10CB40004748FFF753FC07A84649FFF734FC464C1B
:10CB500007A9201CFFF73CFC05232375434BA78343
:10CB6000A361434B434C1B7807A843496370FFF70D
:10CB700022FC10230122019304922B1C221C07A9E2
:10CB80000095029703973D48FFF730FC07A83C4902
:10CB9000FFF711FC3B4C07A9201CFFF719FC0123F0
:10CBA0002375394BA783A3610DB0F0BD602C002025
:10CBB000342A0020042A002080510200D1C1010043
:10CBC00000280020F42B00201A2B00208A290020A6
:10CBD000562C00207C2B0020102B0020542C0020F1
:10CBE000022A0020FC2B0020222B00200140000004
:10CBF000362D0020182B0020342900200240000090
:10CC0000BC2A002003400000282B0020142D002007
:10CC100004280020002A0020242B0020382D00208A
:10CC2000F62B0020F92B00203B2D00208829002026
:10CC3000342D0020172B0020B82A002005400000CA
:10CC4000002C002006400000AC2900200740000016
:10CC5000A02B002008400000E02800200940000030
:10CC6000C02C0020044000008C2900201428002043
:10CC7000BC2C0020F72B00200B400000682C00206B
:10CC80000A400000802B00201028002070B50170A1
:10CC9000062142708370012201720176F52302247D
:10CCA000FF21C380C4750023017704248118027119
:10CCB00042748274C2740275827542768276C2763C
:10CCC000C27743728372C372037343738373C373F4
:10CCD000037443778377CC77811C0724CC77C11CFE
:10CCE000CB77041D0321E177441DE177811DCB77CC
:10CCF000C11DCB778918CA77021CC4180021261CD5
:10CD0000D16391645165603600216C340233318007
:10CD1000F18004322180062BEFD18030017070BD8C
:10CD200010B50121041C6B221E23FFF7AFFF201C4E
:10CD300010BD0000C388FA225200934207D0FA22A5
:10CD4000D200934205D0F52B05D1034B02E0034BF3
:10CD500000E0034B43677047295C0F3C295C8F3C24
:10CD6000295C8F3DC37D042B0AD003D8022B0BD145
:10CD7000064B08E0082B05D0102B05D1044B02E030
:10CD8000044B00E0044B83677047C04640DA7F38AD
:10CD9000B0E33F3A40DAFF3840DA7F3900B5421C51
:10CDA000031CD07F04380C2810D807F0A7FA070F0F
:10CDB0000F0F090F0F0F0B0F0F0F0D00044A04E0A8
:10CDC000044A02E0044A00E0044ADA6700BDC046B3
:10CDD000F7CC1239240B98399F71E139240B183A9A
:10CDE000C388F52B09D0FA225200934205D0FA22CB
:10CDF000D200934201D0F523C380C37D022B07D01C
:10CE0000042B05D0082B03D0102B01D00223C375AF
:10CE10000130C37F0822191C9143042905D0082B37
:10CE200003D0102B01D00423C377704770B5094C91
:10CE3000161C201C1D1C00F0AEFA311C201C00F03A
:10CE40004CFA291C201C00F048FA201C00F0E8FADB
:10CE500070BDC046402D002010B5131C021C0C1CD8
:10CE600073321178221CFFF7E1FF10BD10B5027973
:10CE70000023041C9A4202D0037A5B01DBB2E288F1
:10CE8000FA2149008A4205D0FA21C9008A4203D119
:10CE9000182200E008221343617A03220A401A4351
:10CEA000201C1021FFF7D8FF0022201C1121FFF7C2
:10CEB000D3FFA27A531E9A41E37AD201002B05D008
:10CEC000217B0F230B4040210B431A43201C1221CE
:10CED000FFF7C2FFE27C531E9A41A37C5201002B54
:10CEE00001D010231A43637C002B01D008231A437E
:10CEF000237D002B01D002231A43201C1E21FFF7A3
:10CF0000ABFF627B531E9A41A37B5201002B01D0E1
:10CF100010231A43E37B002B01D008231A43201C63
:10CF20001321FFF799FF10BD10B5C27E041C531EDC
:10CF30009A41837E5201002B01D010231A43637E55
:10CF4000002B01D008231A43201C1F21FFF784FF68
:10CF5000A37D0022934202D0227E5201D2B2E37D11
:10CF6000082B05D0102B05D0042B05D1102302E08F
:10CF7000182300E008231A43237F59B2002904DB59
:10CF800003210B4004210A431A43201C2021FFF7F0
:10CF900063FF637F0022934205D0A27F03231A40E0
:10CFA000520180231A43201C2121FFF755FF10BD99
:10CFB00010B5131C021C0C1C72321178221CFFF7D6
:10CFC00035FF10BD38B5C31CDB7F041C5A1E9341CE
:10CFD000821CD17F07221140021DD07F0322024014
:10CFE00089005201DB010A431A43201C2021FFF76C
:10CFF000DFFF631CDB7F0022083BDBB2082B01D87C
:10D00000104AD25C201C2121FFF7D2FFA31DDB7F39
:10D0100003255A1E9341E21DD27F5B012A401A4329
:10D02000201C2221FFF7C4FF631DDA7F201C15405E
:10D03000AA002321FFF7BCFF201C24210022FFF7B8
:10D04000B7FF38BD3C4D020070B50C4C161C201CBF
:10D050000D1C00F0A0F9311C201C00F03EF9201C32
:10D06000002100F0A7F9291C0122201C00F0FCF986
:10D07000201C00F013F9C0B270BDC046402D002046
:10D0800008B5031C73330A1C1978FFF7DDFF08BDD0
:10D0900008B5031C72330A1C1978FFF7D5FF08BDC9
:10D0A00070B5031C427873331A708278013B1A7092
:10D0B000041CFFF795FE201CFFF73CFE201CFFF729
:10D0C0006DFE201CFFF74EFE0E4800F051F90F21B7
:10D0D000201CFFF7DDFF0F21061C201CFFF7D0FFEF
:10D0E00005022E43084B35B200209D4209D1201C79
:10D0F000FFF7BCFE201CFFF717FF201CFFF762FFA5
:10D10000281C70BD402D00203D680000F7B5164C6E
:10D110001D1C201C08AB0F1C01921E7800F03BF96F
:10D120002368019A802111431B68201C9847201C0A
:10D13000002100F03FF9002801D0002012E0391C46
:10D14000201C321C00F090F9071EB742F5D12E1CAE
:10D15000731BBB4205DA201C00F0A0F830700136CA
:10D16000F6E7381CFEBDC046402D002037B5141C24
:10D17000021C0D1C7332117800932A1C231CFFF72C
:10D18000C5FF3EBD37B5062328216A46041CFFF7BC
:10D19000EDFF062823D16846417803780902194338
:10D1A000E185C278837812021A4322864379007996
:10D1B0001B020343201C63868030007800280ED0B9
:10D1C000201C66300088091AE185211C6831098815
:10D1D000521A2286221C6A3212889B1A638637BD35
:10D1E00037B5062318216A46041CFFF7BFFF06283F
:10D1F00023D1684641780378090219432185C27812
:10D20000837812021A436285437900791B02034333
:10D21000201CA3858030007800280ED0201C6030B0
:10D220000088091A2185211C62310988521A6285F9
:10D23000221C643212889B1AA38537BD37B5141C93
:10D24000021C0D1C7232117800932A1C231CFFF75C
:10D250005DFF3EBD13B5062328216A46041CFFF777
:10D26000EDFF06280FD169464B780A781B0213435D
:10D27000A386CB788A781B021343E3864B790A791D
:10D280001B021343238713BD031C31333030027854
:10D290001B780020934200D8D01A7047021C011C52
:10D2A0003132303113780978994204D9591C117000
:10D2B000C318187C01E0012040427047031C021C87
:10D2C000313330321B7812789A4202D9C018007C70
:10D2D00001E0012040427047704710B5021C6832DF
:10D2E0001278031C0120022A0AD11C1C5234227815
:10D2F0001F2A05D89B181018303320709970002011
:10D3000010BD70B5031C68331C780023022C0ED1AD
:10D3100093420CD0051C52352C781F2C07D8661C64
:10D320002E70CD5C04193034A5700133F0E7181C61
:10D3300070BD000038B5FA239B0083600B4B0025BD
:10D3400008330360031C303345601D705D70223369
:10D35000041C1D705D709D70291C1022583006F051
:10D3600073FB231C68331D70201C38BD484D020020
:10D3700038B5041C032000F0F7FB051C022000F068
:10D38000F3FB011C201C2A1C583000F0A9F968345A
:10D390000023237038BD031C49005433021C19704C
:10D3A000533200231370013A137068300223037064
:10D3B00070470000F7B5031C051C071C0E1C5433F6
:10D3C000021C52375835041C197832323B78281C1D
:10D3D000009600F059FA231C0020683301223870AF
:10D3E0001A70A36D041C191CFC318A6A012A0DD124
:10D3F0000A481F58BF0703D58C625A61FF2405E015
:10D400001858470702D58C625A61FE24002E02D0BC
:10D41000281C00F0C9F960B2FEBDC046C40400007B
:10D4200008B50121FFF7C6FF08BD73B5151C4900FB
:10D43000021CC9B25432041C1170202D02D8002DD8
:10D440000AD000E02025201C221C00935830103206
:10D450002B1C00F0D5F9C6B2231C31330022303426
:10D46000301C1A70267076BD08B50123FFF7DDFF6A
:10D4700008BD000008B50248FFF75CFF08BDC046C4
:10D48000402D00200848026803210A430260074932
:10D49000074A084B9B1A03DD043BC858D050FBDCFD
:10D4A000054880470548004724050040A45602006F
:10D4B00000280020C4280020CDD4010021C1010093
:10D4C000FEE7FEE7FEE7FEE7FEE7FEE7334B10B5BB
:10D4D0001A78181C012A12D1314B1B6819070ED17A
:10D4E000304BF0221B68E024191C1140234204D168
:10D4F0002D4B1B68134202D140E03029F8D003784D
:10D50000012B0DD1264A1268110709D1254A11684D
:10D51000F0221140402903D123490968114235D036
:10D520008023A321DB050122C9005A501F49002096
:10D5300088609A601E4B8A68002A2DD1C822C04696
:10D54000C046C046C046C046C046C046C046C046AB
:10D55000C046C046C046C046C046013A002AEED189
:10D56000013B002BE7D18022A320D205C00013503D
:10D57000012393608B68002BFCD00DE00D490E4A0F
:10D58000116080210D4A09021160B8E7C122802193
:10D59000D200C9058B50C3E710BDC046E00F00F0B4
:10D5A000E40F00F0E80F00F0EC0F00F0FC0000408A
:10D5B00088130000DFFF07C004050040186C00401E
:10D5C000036800211A1CFC32916001215961064B4D
:10D5D0009168002904D1013B002BF9D1012002E020
:10D5E00000230373181C7047A1860100084B0068D4
:10D5F000C150084B021CFC32116A002904D1013BC6
:10D60000002BF7D1012001E0002010627047C046D6
:10D610001C050000A186010010B50368002A03D094
:10D62000022080228240985001221A62084A1C1C63
:10D63000FC34E068002804D1013A002AF7D1012027
:10D6400005E00020A322E060D2009B580B7010BDC3
:10D65000A186010010B50B4C02680B4BA14204DC03
:10D660000A498160CC2149040AE0094CA14203DC4B
:10D6700008498160802102E007498160CD21C90409
:10D68000D15010BD8FD0030024050000A0860100FA
:10D690007F1A060090D00300801A0600F8B5E02536
:10D6A0006D00041C5619A020C025E027C005ED0020
:10D6B0007F00B6003550CE19B60035502068A12540
:10D6C000ED004251054A8150191C201CFFF7C2FF92
:10D6D0002268A0230521DB00D150F8BD0C05000015
:10D6E000F8B52A4B0F1C1978161CC9B2051C1A1C58
:10D6F000012909D15C78F8B2844205D19878F3B257
:10D70000984201D1697316E0214908780B1C012861
:10D7100007D14C78F8B2844203D18878F1B28842BC
:10D7200014D01178002908D10123F9B21370517077
:10D73000F1B291706B73174C10E01A78002A09D17E
:10D7400001221A70FAB25A70F2B29A7002236B7305
:10D75000114C03E0114803F0E4FC0024201C00F00D
:10D7600035F9221C0023FC326E712F712C609362FC
:10D77000A022D200A3500A4A281CA3500123A35080
:10D78000391C321C074BFFF789FFF8BDAC2D002078
:10D79000B02D00200030004000400040684D0200E5
:10D7A000FC0F0000A086010008B503680022191CC8
:10D7B000FC318A62A021C9005A5006495A50012200
:10D7C0005A5004210522415682568368FFF766FFAE
:10D7D00008BDC046FC0F0000036830B5191CFC31C1
:10D7E0008A6A0020012A08D1044C1C5988625A61B7
:10D7F0000220A50700D40120404230BDC40400002F
:10D80000F7B51F1C01920368B1224910D20099504C
:10D810008021012289005A50191CFC310026CE605B
:10D82000051C1A607C1E019BA64213DA9919281C5C
:10D830000022FFF7F1FE00280AD0281CFFF7CCFFDA
:10D84000071C281CFFF7B0FF341C002F1ADA18E061
:10D850000136E7E71919281C0122FFF7DDFE002831
:10D8600003D0281CFFF7A0FF0CE0089B3C1C002BFA
:10D8700008D029680B1CFC339A68002AFAD00022D1
:10D880009A603C1C201CFEBDF8B5171C1E1CB12262
:10D890000368D200491099508022920000259D50C3
:10D8A0000122041C9A60B54211DA795D201CFFF751
:10D8B0009DFE002809D0201CFFF776FF201CFFF7F3
:10D8C0008BFF00280EDA051C0CE00135EBE7069B08
:10D8D000351C002B06D0201CFFF772FE002801D05B
:10D8E00001256D42281CF8BD82B00190C046C0469B
:10D8F000C046C046C046C046C046C046C046C046F8
:10D90000C046C046C046C046019B013B0193002B68
:10D91000ECD102B070470000F0B5A023DB0000227C
:10D92000C158A024C250EE22E405D200A35885B00D
:10D930000293234B234E0191A350A15980220391BE
:10D94000A351A123DB009205E25080225205E25050
:10D95000051C0420FFF7C8FFA223DB00E25891005A
:10D9600004D5E2580123120F1A4217D11324013CA7
:10D97000002C15D0144BA0268027F6057F05F75004
:10D980000420FFF7B1FFA123DB00F7500420FFF7CD
:10D99000ABFFA223DB00F3589A00E8D5012000E09A
:10D9A000201C0299A023EE22DB05D2009950039996
:10D9B000044A9950019AA023DB00EA5005B0F0BD5B
:10D9C0000D060000740700000C050000164AA02395
:10D9D000EE21DB05C90010B55A5014495A50031CFA
:10D9E000FC330022DA601A62A122D2001C23835089
:10D9F0000F4B1D21C1500F4BCC214904C1509C231A
:10DA00005B00C418A2210C4BC9005C500B491D3CA3
:10DA1000FF3C5C5001219950A0230522DB00C2503D
:10DA2000FFF77AFF10BDC0460C0600007407000027
:10DA30000C0500002405000000F001401405000062
:10DA4000F8B5061C0C1C8F180025BC4207D03368A3
:10DA500021781B68301C984701342D18F5E7281CE5
:10DA6000F8BD38B5051C0C1C081E07D006F020F9BF
:10DA70002B68021C5B68281C211C984738BD08B520
:10DA800003681B68984708BD38B50D21041CFFF7D3
:10DA9000F6FF0A21051C201CFFF7F1FF401938BDD5
:10DAA00038B5041CFFF7DDFF051C201CFFF7ECFF59
:10DAB000281838BDF0B58BB0151C09AB0022071C27
:10DAC0000E1C1A70012D00D80A256C462334301C18
:10DAD000291C06F01DFC031C6B43F61AF6B2211C30
:10DAE000092E01D8303600E03736F6B22670013CF8
:10DAF000002801D0061CEAE7381CFFF7B2FF0BB084
:10DB0000F0BDF8B5041C0D1C161E04D10368C9B283
:10DB10001B68984712E00A2A0DD100290ADA2D2144
:10DB2000FFF7ADFF6942071C321C201CFFF7C2FF44
:10DB3000C01903E000E0D2B2FFF7BCFFF8BD38B572
:10DB4000041CFFF7DEFF051C201CFFF79DFF2818B3
:10DB500038BD38B5049D1C1C401AEB1A5843511AA5
:10DB600006F024FC001938BDFF230E2801D8024B13
:10DB70001B5C58B27047C046794D020010B5FFF7E4
:10DB8000F3FF041C601C04D1244825495F2203F0E4
:10DB90006BFA631EDBB2062B3DD8224B01221968BB
:10DBA000214B89001B68101C5B0119430223194398
:10DBB0001E4B1B681B041943631C984003020C1C7A
:10DBC0001C431B491B4B50425C50C22189005850DA
:10DBD000A021C9005A501A60C046C046144980228C
:10DBE000D2009A58D007FAD4A1221248D200805805
:10DBF000114A12780A2A07D0092A03D80A24A21A3D
:10DC0000D04001E00A3A9040A022D20000249C506B
:10DC10005A585A5000E0094810BDC046884D0200CD
:10DC20009F4D02003028002028280020B42D00201D
:10DC300004050000007000402C280020FFFF0000B9
:10DC400030B587B00C1CFFF78FFF051C431C04D1B7
:10DC50000D480E490F2203F007FA6B461D70012C88
:10DC600006D0002C04D0022C0BD10021032501E0AA
:10DC7000211C0025684603F031FB6846291C03F08F
:10DC800027FB07B030BDC046884D0200124E02008F
:10DC900038B50D1CFFF768FF041C431C04D109486C
:10DCA0000949232203F0E0F90122A023A240DB0569
:10DCB000141C002D02D0A121C90000E003495C50D2
:10DCC00038BDC046884D0200124E02000C0500000F
:10DCD00001207047054B1A1C4032107841331B78E5
:10DCE0004030C01A3F2318407047C046B82D00206E
:10DCF000084A111C101C413140300B7800789842C2
:10DD000005D0D05C01333F2213400B7001E00120AD
:10DD100040427047B82D0020064B1A1C191C413296
:10DD2000403112780978914201D0985C01E00120DD
:10DD300040427047B82D002007B5034B684600935A
:10DD400003F048FC0EBDC0460020004007B5044B60
:10DD50000093684603F04CFC0028FAD007BDC0468B
:10DD60000020004030B5074B3F211A1C4032147888
:10DD7000651C29401D1C41352D788D4201D0185558
:10DD8000117030BDB82D002000234360FA239B00A2
:10DD90008360024B083303607047C046884E020020
:10DDA00073B5101C1E1C0C1CFFF7DEFE051C301C7E
:10DDB000FFF7DAFE0B4B2A1C011C6846009303F0A8
:10DDC0001FFB01235B421A1C6846002103F018FC6C
:10DDD0006846211C03F0F0FA68460021012203F096
:10DDE000B3FB73BD0020004008B500220123FFF7FC
:10DDF000D7FF08BD08B5034803F094FD0248FFF7BC
:10DE0000C3FF08BDB82D0020FC2D0020F0B5021C7A
:10DE1000406812680B1C016889B00C68019203AA63
:10DE2000151C1E1CA44692CE92C5DB680199D360D6
:10DE300000231361E04709B0F0BD000038B50023AE
:10DE4000041C0160436099420AD1064D2B68002BE7
:10DE500002D100F043FD286022689300ED58656010
:10DE6000201C38BD182E0020F8B500280DD1104C0C
:10DE70002668002E07D1082005F010FD311C051C76
:10DE8000FFF7DCFF2560206810E00A4D01272E68AF
:10DE9000094C3E4009D1281C05F01AFD002804D089
:10DEA000281C2760666005F022FD201CF8BDC046D6
:10DEB0000C2E00201C2E0020102E0020436810B5D0
:10DEC000041C002B02D1044803F02BF9606803689E
:10DED0001B69984710BDC046B04E0200436810B59C
:10DEE000041C002B02D1044803F01BF9606803688E
:10DEF0001B69984710BDC046B04E0200436810B57C
:10DF0000041C002B02D1044803F00BF9606803687D
:10DF10009B69984710BDC046B04E0200436810B5DB
:10DF2000041C002B02D1044803F0FBF8606803686E
:10DF3000DB6A984710BDC046B04E02007047022011
:10DF40007047022070470020704700207047000093
:10DF500000487047FFFF0000022070470220704712
:10DF6000022070470220704702207047022070474D
:10DF7000022070470220704702207047022070473D
:10DF80000220704702207047022070470023136070
:10DF9000704700207047022070470220704702201F
:10DFA0007047022070470220704700207047002011
:10DFB0007047002070470220704702207047416080
:10DFC000704781607047C16070470161704741616F
:10DFD00070470220704702207047022070470220DD
:10DFE00070470220704702207047022070470020CF
:10DFF00070470220704700207047704790DF7047DD
:10E0000066DF704748DF70475F300078431E9841F5
:10E01000C0B27047007970470C3070470C307047C1
:10E0200008B5FFF7EFFF08BD08B50368002B01D066
:10E03000081C984708BD08B50368002B01D0081CD0
:10E04000984708BD08B50368002B01D0081C984705
:10E0500008BD08B50368002B01D0081C984708BD0F
:10E0600008B50368002B01D0081C984708BD0000C4
:10E0700010B5034B041C0360FEF7AAF8201C10BD6A
:10E080009851020010B5041CFFF7F2FF201C05F0A8
:10E0900019FC201C10BD08B5081C111C1A1C029B81
:10E0A00001F0EAF908BD08B5081C111C01F05EFA80
:10E0B00008BD08B5081C111C01F07EFA08BD08B5A2
:10E0C00001F040FA08BDF0B595B008230C1C694674
:10E0D0000B7104AA0B7368460CAB0293009201F01B
:10E0E00091FA0023061C051E2CD169460B79AB4220
:10E0F00011D96379AB4201D8257124E00722101CA5
:10E1000068432368009F1818AB00D959013505F002
:10E1100079FCEDB2E9E7257100256B461A7B23797E
:10E12000EB18AA420ED9627993420BDA0721029FBB
:10E130004B43AA00D05922680135D11801F07EFA6C
:10E14000EDB2EAE72371301C15B0F0BD7FB503795D
:10E15000002B0FD0164E174C3378201C002B25D1E6
:10E1600002AD281CFFF74CFF002819D16B88592BF2
:10E1700016D101E0104819E02B78AA88D91F01298F
:10E1800004D80092201C20210C4A03E000920C4A83
:10E19000201C202105F05AFD01233370201C05E0CE
:10E1A000201C0849202205F08AFDF7E704B070BD65
:10E1B000202E0020642F0020C0500200DA50020000
:10E1C000F75002001C51020038B50379041C0920E5
:10E1D000002B28D002F016FF031C0520002B22D1B3
:10E1E000251CFC35A86B002803D1286C002806D11B
:10E1F0000AE003681B6A98470028F6D013E003681A
:10E200009B6A984700280ED1E86B002804D0036869
:10E21000DB6A9847002806D1201C0C3003F0B0FFC1
:10E22000002800D1207138BDF7B500930368019133
:10E230005B68041C171C9847051C0620002D3BD169
:10E240001C203A1C00194ACA4AC0FF68009A231CC5
:10E25000A762E562443383CA83C3009B0899DB68E5
:10E26000142223656565A01D05F0CCFB201C0999CF
:10E270001422303005F0C6FB019E231C5D33A680BE
:10E28000013B5D700121301C1D70D9702A1CFFF705
:10E29000B5FE061C281C002E0ED02368201C9B688F
:10E2A0009847112E07D0054B9E4202D00620072E1C
:10E2B00002D1042000E00520FEBDC046023000006F
:10E2C00038B5041CE3692362206A002807D0C368BC
:10E2D000211C9847236A002BF4D01B69F3E7E069FF
:10E2E000002804D0056905F0EDFA281CF8E7E06184
:10E2F0006060A060E0602061606138BD08B5FFF734
:10E30000DFFF002800D0062008BD38B5041C0068D7
:10E31000002804D0056905F0D5FA281CF8E720602C
:10E3200038BD000010B5034A041C04C0FFF7EDFF20
:10E33000201C10BDD04F020010B5041CFFF7F2FFE7
:10E34000201C05F0BFFA201C10BD38B5041C006865
:10E35000002804D0056905F0B5FA281CF8E720600C
:10E3600038BD000010B5034A041C04C0FFF7EDFFE0
:10E37000201C10BDE04F020010B5041CFFF7F2FF97
:10E38000201C05F09FFA201C10BD000038B5074B7B
:10E39000041C03604068002804D0056905F092FA67
:10E3A000281CF8E76060201C38BDC046F04F020012
:10E3B00010B5041CFFF7EAFF201C05F083FA201CAF
:10E3C00010BD000038B5074B041C036040680028EE
:10E3D00004D0056905F076FA281CF8E76060201C77
:10E3E00038BDC046C04F020010B5041CFFF7EAFF5D
:10E3F000201C05F067FA201C10BD000038B5074B43
:10E40000041C03604068002804D0056905F05AFA2E
:10E41000281CF8E76060201C38BDC0466050020030
:10E4200010B5041CFFF7EAFF201C05F04BFA201C76
:10E4300010BD000038B5074B041C0360406800287D
:10E4400004D0056905F03EFA281CF8E76060201C3E
:10E4500038BDC0465050020010B5041CFFF7EAFF5B
:10E46000201C05F02FFA201C10BD000038B5074B0A
:10E47000041C03604068002804D0056905F022FAF6
:10E48000281CF8E76060201C38BDC046104F020011
:10E4900010B5041CFFF7EAFF201C05F013FA201C3E
:10E4A00010BD000038B5074B041C0360406800280D
:10E4B00004D0056905F006FA281CF8E76060201C06
:10E4C00038BDC046E04E020010B5041CFFF7EAFF5D
:10E4D000201C05F0F7F9201C10BD000038B5074BD3
:10E4E000041C03604068002804D0056905F0EAF9BF
:10E4F000281CF8E76060201C38BDC046F04E0200C2
:10E5000010B5041CFFF7EAFF201C05F0DBF9201C06
:10E5100010BD000038B5074B041C0360406800289C
:10E5200004D0056905F0CEF9281CF8E76060201CCE
:10E5300038BDC046004F020010B5041CFFF7EAFFCB
:10E54000201C05F0BFF9201C10BD000038B5074B9A
:10E55000041C03604068002804D0056905F0B2F986
:10E56000281CF8E76060201C38BDC046B04F020090
:10E5700010B5041CFFF7EAFF201C05F0A3F9201CCE
:10E5800010BD00000F4B10B5083303600E4B041C88
:10E59000C3600130FF30FFF76BFD0C4B201CE360C4
:10E5A000B830FFF763FF201CAC30FFF7B3FF201C2F
:10E5B000A030FFF793FF201C6C30FFF773FF201C87
:10E5C00010BDC0462851020000550200204F020035
:10E5D00010B5041CFFF7D6FF201C05F073F9201CB2
:10E5E00010BD000038B5051CFC352C6C002C0DD17D
:10E5F000242005F053F9064B44608361054B846089
:10E60000C46004614461C46103602864286C38BD3F
:10E61000B04F02009050020038B5051CFC352C6C40
:10E62000002C0DD1242005F039F9064B446083619C
:10E63000054B8460C46004614461C4610360286464
:10E64000286C38BDB04F020090500200F7B5037936
:10E65000071C0E1C151C002B06D0002301930093F1
:10E660000A246B461C7109E000F0A2FC041C0C207B
:10E67000002C0CD101233B7100940194301CFFF756
:10E68000F3FBEB6800906946281C9847201CFEBDF0
:10E6900010B500211F22041C05F0D6F90023E377F2
:10E6A00010BD0000F0B5051CAC35041C686887B0CF
:10E6B000A860A86800280BD0C368211C9847AB68E5
:10E6C000002B02D16968A960F3E71B69AB60F0E732
:10E6D000251CB0352868002804D0066905F0F2F83A
:10E6E000301CF8E7231C58331978FC220A402860B4
:10E6F000023B9A7098711870201C0A30FFF7C8FF0F
:10E70000201C3430FFF7C4FF606E002804D0056978
:10E7100005F0D8F8281CF8E7251C606698352868AD
:10E72000002804D0066905F0CDF8301CF8E7261C57
:10E730002860A4363568002D05D02F69281C05F007
:10E74000C1F83D1CF7E7356001AE291C301C0C22D6
:10E7500005F07AF9231C321C6C3383CA83C3094B3E
:10E76000E567A3670C22301C291C05F06DF9231CFA
:10E77000803385CE85C3044A9034281C1A602560F6
:10E7800007B0F0BD37E0010029E00100F0B589B025
:10E79000002603AC051C8680311C201CFDF70BFEF7
:10E7A000211CA81D142205F02DF92F1C311C0C2250
:10E7B000201C05F049F91C37201C0EC80EC70F4B52
:10E7C000311C0190AB62EE62201CFDF7F4FD2B1CA6
:10E7D000221C303383CA83C3019A311C81CA81C38E
:10E7E0000C22201C05F030F92B1C443386CC86C348
:10E7F000034B301C2B656E6509B0F0BD53E0010082
:10E8000061E00100F0B597B00593036807AC1B68A1
:10E8100004910393111C231C061CA1C9A1C3D26837
:10E8200000250A92291C0C220CA811AF0B9505F0AB
:10E830000BF9094B291C381C10950F93FDF7BBFDF4
:10E84000059D01970095301C0499221C0CAB039F79
:10E85000B84717B0F0BDC04661E0010038B50025EB
:10E86000041C291C20C0FDF7A6FD25766583A58321
:10E87000E5832584201C38BD10B58AB0041C002116
:10E88000242201A805F0E0F801A8FFF7E7FFCA235A
:10E890005B002222E01801A905F0B4F82368201CCF
:10E8A0005B689847231C5F3300221A7090420DD09A
:10E8B000C0235B00E358934208D0054B934205D038
:10E8C000C0235B00E018A188C36898470AB010BD58
:10E8D0003DDF010008B5FFF7CFFF08BD00487047D6
:10E8E000242E002000487047242E0020F0B5434B12
:10E8F000434A0833061C0360C2600023A022163678
:10E90000011C428285B0041C0371836003748382FE
:10E91000321C35310023137001328A42FAD180252E
:10E920008021C901AD00201CF3770A1C35843830E2
:10E93000009303F005F8221C4032211C0392131CA3
:10E940005F312A1C00251D7001338B42FAD1039BD5
:10E95000201CDD77231C603319791A80FC220A40C1
:10E960009D701A711D72274B291CE36625670C22C6
:10E97000783005F069F8231C88331D60271C224B72
:10E980000837FB678437291C381C0C2205F05CF81B
:10E990001E4B1F4AFB60231CA0333D611A601D4AB9
:10E9A0005D60DA601C4A1D619A61DD61301CFFF711
:10E9B0006FFE0398FFF76CFE184B601CE360231C8E
:10E9C000C4331D705D709D70FF3000F087FE8C2396
:10E9D0005B00E5508C235B00E3185D61104A8023E7
:10E9E0005B00E250231C0122FE3352425A86201C57
:10E9F000023B9D63DD631D6405B0F0BD285102003C
:10EA0000204F0200E04E020037E0010029E0010043
:10EA1000F04E0200004F0200104F020000550200AD
:10EA20009851020038B50C220D1C0021041C05F081
:10EA30000BF800232361024B2560201CE36038BDE6
:10EA400045E00100314B70B50025041C0E1C03602D
:10EA500085710583291C0C221C3004F0F5FF2C4B1A
:10EA6000E562A362231C30331D70201C231DDD874B
:10EA7000291C44300C2204F0E7FF264B6565236512
:10EA8000254BA6652360231C5C331D705D709D7053
:10EA9000DD70261C251C6035C036281C0021FDF7C2
:10EAA0008AFC0023AB82EB821835B542F5D1A8224F
:10EAB0005200A618281C0021242204F0C5FF281C9F
:10EAC0002435FFF7CBFEB542F4D1A82300215B002B
:10EAD000E150B422231CFC3352009965D9651966B4
:10EAE00059666C61A150196759679967D967A3186E
:10EAF0005C61C0235B00E018FFF794FFCA2252005C
:10EB0000A018FFF7ABFE201C70BDC04630500200BD
:10EB100053E0010061E001007050020070B5061C76
:10EB2000FC36F56B002D1CD1B420800004F0B6FE3D
:10EB30000D4B041C43600D4B856003610C4B45611C
:10EB4000C3610C4B056283620B4BC5620360211CE1
:10EB50003430FFF777FFF6235B00E01802F0C0FFC8
:10EB6000F463F06B70BDC046E04F0200D04F02006E
:10EB7000505002006050020090550200264B70B5C4
:10EB80000360264B00258360254B041C4361254B05
:10EB900005710362244B4571C362C560856145629E
:10EBA0000563291C3830FFF73DFF201C291C4C3021
:10EBB000FFF738FF201C291C6030FFF733FF1B4B89
:10EBC000251C2360231C7435C433002204C59D42D8
:10EBD000FBD1B22149006618281C00210822083503
:10EBE00004F032FFB542F7D1C2235B00E2180023E4
:10EBF00008C59542FBD1C222C32152004900A3544B
:10EC00006318CB2149006218002119800233934216
:10EC1000FAD1201C70BDC04600500200C04F020057
:10EC2000D04F0200E04F0200F04F0200D05502002A
:10EC300038B5041CFC34A36B002B07D1CC2040005A
:10EC400004F02CFE051CFFF799FFA563A06B38BDEF
:10EC500038B5041CFC34A36B002B07D1CC2040003A
:10EC600004F01CFE051CFFF789FFA563A06B38BDEF
:10EC700070B5031C0A1C70CA70C3C9680023C16048
:10EC8000036170BD08B58130FF30FFF7F1FF08BDAB
:10EC900030B587B0051CFFF779FD041E24D12B1C6D
:10ECA0005C33187058709870D870A8235B00E850D7
:10ECB000EA1801235B4253609360D3601361B4226E
:10ECC0005200A850B4225200AA18211C536093602D
:10ECD000D360136101A8FFF7A5FEC02149006818A1
:10ECE00001A9FFF7C5FF00E00624201C07B030BDD6
:10ECF00070B5041C86B0236B6363606B002807D07B
:10ED0000C368211C9847636B002BF4D01B69F3E7A1
:10ED1000206B002804D0056904F0D4FD281CF8E716
:10ED2000E568206320716071002D05D02E69281CD4
:10ED300004F0C8FD351CF7E7201CE5601830FFF72C
:10ED4000E4FA201C2430FFF700FB291C01A8FFF780
:10ED500069FE201C01A93830FFF78AFF291C01A891
:10ED6000FFF760FE201C01A94C30FFF781FF291C32
:10ED700001A8FFF757FE201C01A96030FFF778FFBC
:10ED8000281C06B070BD000010B5054C201CFFF714
:10ED9000ADFD201C0349044A04F0ACFD10BDC04683
:10EDA000242E002085E501000028002070DF704738
:10EDB00071DF704760DF704708B501F08DFE08BD58
:10EDC00008B502F0A5F8002008BD0000F0B5041C4D
:10EDD0008BB001F09BF8201C00F002FA0020FFF736
:10EDE00081FD0368061C1B6998473368051C9B69F5
:10EDF000301C9847336801905B6A301C9847031CAD
:10EE0000208810380B2800D9C8E005F077FA0643AF
:10EE1000C7C7C782C7C7C789C7A7A688281C311C10
:10EE2000277D03F0C0F9607B2B1C583300901878C5
:10EE30000122904302221043A179023B9870187876
:10EE400006220130187000986B46D97498761E829D
:10EE50009F74231C1633E11D05A8099304F0D2FD0D
:10EE60006846211C0E3194351B30062204F0CAFD81
:10EE70006968A960A868002800D18FE0C36804A968
:10EE80009847AB68002B02D16A68AA60F2E71B6959
:10EE9000AB60EFE74449281CA78803F084F9A37905
:10EEA000301C009333681B6A9847F6214900061C02
:10EEB00006224018391C02F00FFF338FBB4204D1E9
:10EEC000736B301C34309B6898472A1C5632137879
:10EED000013BDBB21370002B05D12B1C58331A7881
:10EEE00002218A431A70A035009B68686A4617821F
:10EEF0009374A860A868002850D0C36804A99847F4
:10EF0000AB68002B02D16968A960F3E71B69AB60AD
:10EF1000F0E75B69A088A11D002B3FD098473DE03A
:10EF2000A679002E05D12B1C58331A7801218A436B
:10EF30001A706B6E002B31D01C4A002A2ED0AB66A3
:10EF4000A86E00282AD0C368311C9847AB6E002BEE
:10EF500002D16A6EAA66F3E71B69F0E7A37B6846F5
:10EF60005A07910FDA08677B01700272E11D04A84D
:10EF70000622DE0704F046FD6B461878197AF60F74
:10EF8000187659769F75DE75231C0F3307932B1C5B
:10EF90008C33281C80301B6804A998470198211CD9
:10EFA00003F010FE0BB0F0BDFFFF00003DDF0100DD
:10EFB0001FB5A3238022DB00D205D3580D20DA072A
:10EFC00000D508201C4948221C4B01F0F7FF0028FF
:10EFD0000BD080B2002808D1BFF34F8F184A194BCD
:10EFE000DA60BFF34F8FC046FDE7002302A802930B
:10EFF000436001230370FFF7DDFE002801D00720E6
:10F0000017E06846FFF7D4FE0028F8D16946FFF7FD
:10F01000CDFE0028F3D10C4802F000F880B20028A1
:10F0200007D10A4802F004F880B2002801D100F0AC
:10F0300099F905B000BDC046842F0020C1ED010044
:10F040000400FA0500ED00E0CDED0100B9ED01008E
:10F050007047000080B2002808D1BFF34F8F044AE8
:10F06000044BDA60BFF34F8FC046FDE77047C046E0
:10F070000400FA0500ED00E010B50278002A09D17D
:10F080000C78131C002C13D1428A4B8AD31A5A4293
:10F0900053410CE00023012A0AD10A78012A07D142
:10F0A00001300131102204F09EFC43424341DBB2A7
:10F0B000181C10BDF0B50E1C011C5F3191B0019100
:10F0C0000B78071C051C5C37022B7BD107AC242274
:10F0D0000021201C04F0B8FC08A80021FDF76BF902
:10F0E000002323766383A383E3832384CA235B0003
:10F0F000EB58079A934217D1CC235B00E81808A974
:10F10000FFF7BAFF00280FD0CA2149006B181A7EFA
:10F11000510609D15A8B002A06D1DA69E1698A427F
:10F1200002D11B8C002B4AD0002E32D13B78182202
:10F1300053436033EB18DA8AD9235B00EA522A1C66
:10F140003032311C02A80092FDF735F9009802A96F
:10F15000FFF792FF002814D1CC235B000098E91838
:10F16000FFF78AFF002814D0311C201CFDF723F97B
:10F17000A81D211CFFF780FF01235840C0B20028C2
:10F1800007D0696C281C4430002902D0134B002B97
:10F190001DD124220021201C04F056FC002108A8C7
:10F1A000FDF709F9CA2252000023A818211C2222C7
:10F1B00023766383A383E383238404F023FC0199F0
:10F1C00001230B703B7801333B7011B0F0BDCA22B4
:10F1D0005200A9182B6D9847DBE7C0463DDF0100C0
:10F1E0007FB5051C0020FFF77DFB0368041C1B692D
:10F1F00098472368201C1B6A9847061C041C288813
:10F2000034363038082800D99AE005F077F80599A7
:10F210001384212D99486500EB88002B05D1291C0A
:10F220000C31301C03F062FE8AE0636B301C9B687B
:10F23000984785E0EB88002B05D1291C0C31301C48
:10F2400003F0D6FE7CE0301C0021FFF733FF77E0AF
:10F25000636B301C5B689847002871D0291C0C3107
:10F26000301C03F023FF6BE0AB886A461380AB8948
:10F270005380EB8993802B8A12350295D380A36843
:10F28000E360E06800285BD0C36869469847E3689C
:10F29000002B02D1A268E260F3E71B69F0E7AB88BC
:10F2A0006A461380AB895380AB7B13712B8AD38062
:10F2B0006B8A1435039513816369A361A0690028E3
:10F2C0003ED0C36869469847A369002B02D16269A2
:10F2D000A261F3E71B69F0E7AB886A461380AB894C
:10F2E0005380AB7B13712B8A12350295D380236A2E
:10F2F000002B25D0164A002A22D06362606A0028BB
:10F300001ED0C36869469847636A002B01D1236AFF
:10F31000F3E71B69F1E7F622EB885200A018A988F1
:10F32000002B05D085225200934206D1002205E031
:10F330002A1C0C3202F0E3FC02E00B2202F0CCFCAF
:10F34000301C03F0CBFF301C03F046FF7FBDC046EE
:10F350003DDF010077DF704778DF70477ADF704765
:10F360007CDF70471FB5002302AC03932823238062
:10F37000C8235B006380E38001A811230C490522A8
:10F380000370FFF7EDFF80B200280FD180208000CE
:10F39000FFF7E2FF80B2002808D1201CFFF7DEFF54
:10F3A00080B2002802D1FFF7D5FF80B204B010BDB3
:10F3B000685102007EDF704768DF704738B5002073
:10F3C0000C1CFFF78FFA03685B6A98472378051CCB
:10F3D000142B17D002D8132B05D042E0152B16D0D2
:10F3E000222B38D03DE063686C6818889B78D90779
:10F3F0009A07C90FDB06C9B2D20F5B0F002C30D0C1
:10F40000A0472EE0636818889978AB681FE06268AF
:10F4100091780B090907090F012902D0022908D0A8
:10F4200010E0013BDBB20021022B0ED80E49C95C73
:10F430000BE0012B08D0023B5842434105215B42BF
:10F44000194002E0002100E004211088EB68002B45
:10F4500007D0984705E0636818882B69002B00D017
:10F460009847002038BDC0466E510200014B187805
:10F470007047C046CD2F0020F0B51C1C2D4B87B027
:10F4800001921A78071C00200D1C824250D101F015
:10F4900055FB002846D1002C0FD0222003A903944D
:10F4A000FFF78AFF002808D0082804D0113843420B
:10F4B000584104303CE006203AE0002368460372DD
:10F4C00002A800F099FB011E2CD11B4E01243378B9
:10F4D0002540A3436A0027401D1C3D43019B022792
:10F4E0000720BD43034015431C22BB4095431D43E9
:10F4F000357003AD0C22281C04F0A6FA0F4B6846A9
:10F50000311C0522113003932F7104F07BFA0C4853
:10F51000291C00F0E3FB031E06D0042807D00620B8
:10F52000082B05D00B2003E0024A147000E00720EE
:10F5300007B0F0BDCD2F002034280020BDF301001E
:10F54000CC2F002008B5084800F090FC002398421A
:10F5500007D0042804D00623082802D00B2300E09B
:10F560000723181C08BDC046CC2F002073B500230C
:10F570000193104B01AD1B780E1C291C2B7000F061
:10F5800089FE041E04D00B23052810D104230EE0AD
:10F59000281C311C00F0DCFB231C002807D00428A9
:10F5A00004D00623082802D00B2300E00723181CF0
:10F5B00076BDC046CC2F002073B5114C0D1C061C27
:10F5C000211C6846052204F01DFA012D06D0022DEB
:10F5D00013D1237801221343AB4303E023780222A3
:10F5E000AB439343301C69462370FFF7E3FE421E92
:10F5F00090410B234042034000E00223181C76BDDB
:10F600003428002008B5094B011C1A780923002A68
:10F6100009D0074800F0D4FB0023984203D006230A
:10F620000E2800D10323181C08BDC046CD2F002092
:10F63000CC2F002008B500F07CFE08BD08B50223E1
:10F640000B708E230B714F234B710A1C7C238B7123
:10F650000132043100F044FE08BD4368426910B530
:10F66000D118041C00F050F8E36A002B04D1A36900
:10F67000002B07D0984705E0A069002802D0211C84
:10F680001C31984710BD10B5041C00F045F800234C
:10F69000A361E36210BD38B50D1C041C00F03CF8FA
:10F6A0006561206901F0D9FD4119201C00F02CF89A
:10F6B00038BD08B5C36A011C002B04D18369002B37
:10F6C00006D0984704E08069002801D01C31984793
:10F6D00008BD08B503689B68984708BD084B10B57E
:10F6E00008330360002343608360C360041C01F09F
:10F6F000B9FD0449206101F04BFD201C10BDC0463E
:10F70000A8510200D3F6010008B50A1C031C011D14
:10F71000006901F069FD08BD08B5011C04310069EC
:10F7200001F07EFD08BD000010B5044B041C083339
:10F730000360FFF7F1FF201C10BDC046A851020076
:10F7400010B5041CFFF7F0FF201C04F0BBF8201CD0
:10F7500010BD08B5012004F0EBF87047704708B5FC
:10F76000FFF7FCFFFFF7F9FF02F0D6F808BD000035
:10F77000084B1B681818EFF30882904205D3064B1C
:10F780000C2201201A60404202E0024A1060181C5C
:10F790007047C0463C2800206431002008B500288E
:10F7A00000D1FEE701F084FCFBE77FDF704782DFDA
:10F7B0007047A7DF7047A9DF7047AADF70470020B6
:10F7C00070470020704700207047002070470020DD
:10F7D000704700207047002070470000F0B58BB0E4
:10F7E0006C460E23E382039001914B780C22534325
:10F7F000244A1634D318188906A9221C0323FFF7BC
:10F80000DCFF00283BD1019B18275B781E4D5F432E
:10F8100000933B1C26880833EB18181C06A9321CE1
:10F82000029304F0E0F82C1C00280DD1009A0C2360
:10F830005343144AD318997A022319401FD1E81967
:10F84000182204F001F91AE0ED196B68002B01D0C1
:10F850000E4F00E00E4F009B18256B430322E25031
:10F86000E3185E6006A9321C029804F0CBF8019BF5
:10F87000039859782A1C694338236118B847002037
:10F880000BB0F0BDD22F002034300020510D02000B
:10F89000D10C020008B5FFF7A1FF08BDF7B5041CA5
:10F8A0000F1C6A468178224801F0EAF900283DD110
:10F8B00062780C214A431F4B9A18927A530605D45A
:10F8C000022F03D0012F03D11B4D02E01B4D00E09E
:10F8D0001B4DA1781C2671431A4B68465918321CDF
:10F8E0000023A847002813D1022F1FD063780C22D1
:10F8F0005343104A4021D3189A7A68468A439A7231
:10F900006178114B7143321C5918331CA84701E030
:10F91000022F0BD023780C2253430C4A6846D3188D
:10F920009A7A0B4B9200D358211C9847F7BDC046DA
:10F930005C300020D22F0020D10C0200510D0200BB
:10F94000BFF70100E02F0020183000204C300020CD
:10F95000D0510200F7B50190437818215943264A47
:10F96000264F50184468002C0FD00C2058433818EC
:10F97000807A45B2002D07DA450605D40E1C0836FC
:10F98000A5B296198C5802E00024251C261C0C22D6
:10F990005343FB181889311C2A1C231CFFF70BFF4B
:10F9A0000B280BD1019A311C53780C225343FB18BE
:10F9B00018892A1C0123FFF7FEFE0124002800D02D
:10F9C0000F48012C17D1019D0C216B780D4A4B4338
:10F9D000FB181889FFF7EDFE00280CD00A4B98425F
:10F9E00008D0082806D0094B984203D0112801D02E
:10F9F000002000E00248FEBD34300020D22F00205D
:10FA000041800000FFFF00000230000004300000D1
:10FA100008B5FFF79FFF08BD70B5031C4878182490
:10FA20006043094D0E1C2818191C221C382301F0B4
:10FA3000CFF9002806D173785C432D196B68013328
:10FA400000D1686070BDC0463430002008B5FFF7B3
:10FA5000E3FF08BDF0B51D1C434B161C1A6893B09C
:10FA600001900F1C002A7CD01898542879D803AB39
:10FA7000FF22002469465A709A70DA701C700C7666
:10FA80000B950A90A1B2394804AA01F0F9F80028B0
:10FA900009D1019804A9082203F0A5FF002802D18A
:10FAA00003AB9C7002E00134022CEBD103ACA278D2
:10FAB000FF2A56D0032F0AD1189A06AB542A01D137
:10FAC000202200E040221A701A7803213BE0284BE4
:10FAD000EB1A372B11D8274B002E04D101211868BF
:10FAE000914008423DD0012191400A1C1968914380
:10FAF0001960202206AB1A7020E01F4BEB1A1B2B5B
:10FB000009D806AB20221A70002363700CAB0B934C
:10FB100018230A9312E019482D1A172D21D83023E3
:10FB20006A461376002363700123E370144B997ABD
:10FB30000223194002D1182203F086FF06AB022FE0
:10FB40000CD11A7801210A4307481A7009AB0793B0
:10FB500006A90368321C201C984702E01A7802218B
:10FB6000F1E713B0F0BDC0464C3000205C300020FF
:10FB7000E02F0020583000201830002034300020C2
:10FB8000D22F002070B51C2444430E4E051C3019A2
:10FB9000002134190622113003F056FF201C0021E9
:10FBA000102203F051FFFF232374A37601235B424D
:10FBB00023830122044BAA40151C1A68AA431A6029
:10FBC00070BDC046E02F00205830002037B581B20C
:10FBD000051C6A46074801F053F8041E08D1684620
:10FBE000542101F03FF9041E02D1281CFFF7CAFF7F
:10FBF000201C3EBD5C300020F0B5061C85B00028FE
:10FC000057D02D4B2D48012500246F421C605C729B
:10FC10009C72211C0781C7720722857203F014FFB2
:10FC2000211C1822264803F00FFF201CFFF7AAFF13
:10FC3000244CFF23281C2370FFF7A4FF6A4654239B
:10FC400067709380204C0223D380204B6846211C90
:10FC5000009300F0B5FF271C00282BD11C4A3378F5
:10FC60001570151C002B1BD11C1CA1B2381C02AA3C
:10FC700001F006F8061E0CD11C22131C6343154824
:10FC800002A9C018331C01F0A3F8002804D02E707C
:10FC900010E000232B700DE00134022C0AD0E4E7C1
:10FCA0006B46D9889B88201C594389B201F0DAF849
:10FCB00000E0094805B0F0BD4C300020D22F0020F4
:10FCC00034300020CE2F00205C30002055FA010097
:10FCD000D02F0020E02F00200E800000F8B5174B39
:10FCE000071C1B780D1C002B22D0002822D00029D5
:10FCF00020D00B68002B1DD0114C2668002E1BD184
:10FD0000201C08C00531052203F07CFE207A2B79E7
:10FD1000012188430222A3721043042398432072D6
:10FD2000E07901430A439A43E271301C3E7004E0DB
:10FD3000044802E0044800E00448F8BDD02F002049
:10FD40004C300020088000000E800000048000007D
:10FD5000154B1B78002B22D000281ED000291CD068
:10FD60000378002B1BD1114B1B68002B17D0427856
:10FD7000002A16D10E4B9B7A012B12D0242018405A
:10FD800003D001230B70101C0CE05BB2002B02DAD5
:10FD900002230B7006E0087004E0064802E0064803
:10FDA00000E006487047C046D02F00204C300020AD
:10FDB000D22F00200E80000008800000108000007C
:10FDC000234BF0B51B78002B25D0002821D000292B
:10FDD0001FD00B68002B1CD08D68002D19D0037824
:10FDE000002B18D11B4A1268002A14D01A481A1C7A
:10FDF00010301C1C194DEE7AB3420ED1AD7AAE070D
:10FE00000BD501331C30022BF4D10C710A73002086
:10FE10001CE013481AE0134818E00D7BAA420AD2EE
:10FE2000857AEE0707D4061C8F689500103EEE51C8
:10FE30000D4DAB5401320D79AC42E2D2857AAE075A
:10FE4000DFD40F68A500E8510134DAE7F0BDC04601
:10FE5000D02F00204C300020E02F0020D22F002097
:10FE60000E80000008800000CE2F0020104B10B53F
:10FE70001B78002B19D0002815D00078002814D149
:10FE80000C4B1B68002B10D00B4B9A7E1C1CFF2ABE
:10FE900001D0FFF79BFE36342378FF2B06D00120DC
:10FEA000FFF794FE02E0054800E0054810BDC0469B
:10FEB000D02F00204C300020E02F00200E800000CA
:10FEC0000880000013B5041C81786A460B4800F0D6
:10FED000D7FE002810D160781C235843084A694691
:10FEE00010181A1C00F074FF064B68469A7A064BED
:10FEF0009200D358211C984713BDC0465C300020A7
:10FF0000183000204C300020E0510200F0B5C64A05
:10FF10008FB01278FF23061C0393002A00D1B4E1AE
:10FF2000C24A1168002900D1AFE104AD05AF6B7082
:10FF3000AB70EB70031D7B602A233B81038800229A
:10FF40002A70BB4C102B22D0A17A8288019189079C
:10FF500007D5B8498A4200D149E12189914200D1AF
:10FF600045E1172B00D1ACE007D8132B53D0142B4D
:10FF70002DD0112B00D088E10FE01C2B00D11CE10B
:10FF8000522B00D111E1182B00D07EE1E5E0A37ADD
:10FF900001210B4200D02FE177E101990223019A60
:10FFA0009943A172120707D54BB2002B0BDA281C1C
:10FFB0000021FFF773FC06E0A878FF2803D0FFF7C5
:10FFC000E1FDFF23AB701023A3721223F6E0E37A66
:10FFD000994FFF2B14D1F3893A8B9A4204D0BA8EF1
:10FFE0009A420DD1012300E00023019908220393D6
:10FFF0000A43DBB2E372A272281CAB70FFF762FF08
:020000022000DC
:10000000E37A0021FF2B00D08C49B0883A1C0023F2
:10001000FFF7CDFB39E1019A3B7004231343A37230
:10002000E37AFF2B25D184498B7EFF2B06D00B1C56
:1000300036331B780127FF2B29D100E000272378D6
:100040001C207843022B09D07B4AFD2310188376AD
:10005000211C0722103003F0D5FC03E0764B181862
:10006000FE23837603AB1F700399CBB2AB70E372B0
:100070000BE0734816230E22083000213B7003F07A
:10008000E3FC019A44231343A372002400E06D4C67
:100090000021674B0B91DB7A1C225343664A0D917A
:1000A000D3180C93654B614A089309910A91B08863
:1000B000043208ABFFF779FB002800D0E5E0221CF2
:1000C0007EE05A4901224B7A9343019A4B720423F2
:1000D0009A431423A2723B70B379002B04D0E07AC8
:1000E000FFF774FDB2796BE0F379590767D5AB7808
:1000F000FF2B64D008210A43F17AA2728907C90F45
:10010000012906D11C225A434B488218907E88430D
:100110009076E27AFF2A52D02178474A1C2602299B
:100120000CD05E439619301C07221030211C03F0BE
:1001300069FCB37E02229343B37609E073433F49DF
:10014000D318498A1A1C19839B7E01218B4393760D
:10015000281C0121FFF7A2FB31E0B379112B15D147
:10016000019A120712D5364800210E22083003F0FA
:100170006BFC162301993B7060230B432B4AA3723F
:10018000537A2A49022213434B7218E0019A8023C2
:100190005B421343A37215233B70244B281C9A7AAD
:1001A000294B9200D358984709E02049264B8A7A78
:1001B000281C9200D358984767E013233B70002215
:1001C0001A4905AC0B68281C211C98472378122B70
:1001D0005BD11748837A012B57D0012383725B428E
:1001E0000381C3720021072203F02EFC4DE0E27A66
:1001F000AA7000226A70B4E611233B706A7083888B
:10020000871D23810223A372201C391C072203F0BF
:10021000F9FB737DDA071BD50C4A5B08D35CFF2B17
:1002200029D0039327E0C046D02F00204C30002077
:10023000D22F0020FFFF0000E02F00201830002008
:100240003430002043800000C0510200CE2F002037
:100250000F4E391C301C1030072203F0C4FB00285D
:1002600008D0301C2C30391C072203F0BCFB0028BE
:10027000A5D101200390039A281CD3B20A22E3726D
:10028000A272AB70FFF71EFE99E70FB0F0BDC0463B
:10029000E02F002030B5002912D00A78002A11D1B1
:1002A0000A4B1B68002B0DD0FF23094C8B7025894E
:1002B0000523854207D14A70E37A8B70131C02E054
:1002C000044B00E0044B181C30BDC0464C300020ED
:1002D000D22F00200E800000088000004DDF704704
:1002E00030B500238DB00D1C141CC21AD27B694698
:1002F0005A540133102BF8D1002104A80D2203F029
:10030000A3FB2B786A46D3776B7868469377AB78F4
:100310005377FFF7E3FF6B462F331B7823706B4651
:100320002E331B7863706B462D331B78A3700DB092
:1003300030BD30B50378041C85B00D1C0020022BA5
:1003400016D1611C032201A803F05CFB211D0322CE
:1003500003A803F057FB281C03A902AAFFF7C0FF5C
:1003600001A802A9032203F03EFB43425841C0B258
:1003700005B030BD08B5064B586980235B05421CAB
:1003800004D0196989B203F0C3FF00E0586908BDC1
:100390000010001029DF704728DF704708B5034BB5
:1003A0001A78034B9200D358984708BDAC30002010
:1003B000F051020037B50B1C074C89680C254D43E2
:1003C00024681978021C181C1B690094034C08301F
:1003D0002C59A04737BDC046B430002098300020CB
:1003E00008B5104A142113784B43D318802218699A
:1003F0005205116904335A8801389B888018C01847
:1004000089B203F085FF084A031C126801209A4252
:1004100007D300209A4204D1044B18684342584144
:10042000C0B208BD6430002090300020943000201D
:1004300008B5044B0822196891431960FFF7AEFF15
:1004400008BDC046A8300020094A08B5136819073E
:100450000AD4990702D501210B431360054B0222F0
:100460001A70FFF79BFF01E0FFF7E2FF08BDC046EF
:10047000A8300020AC30002008B5064B1B681A07D6
:1004800005D4054B01221A70FFF788FF01E0FFF742
:10049000CFFF08BDA8300020AC30002008B50028F0
:1004A00014D0112805D10A4B082219680A431A6092
:1004B0000CE0084B14211A7851435B18191DFFF703
:1004C00079FF054B04221A7000F096F808BDC0466B
:1004D000A830002064300020B830002008B5FFF7B5
:1004E00059FFFFF7DBFF08BDF8B5134B14241A784A
:1004F000802554436D051C1904342F696288BFB2EE
:10050000A088E36821690D4EBA420DD92C69C01844
:10051000A4B2121B2C6980188918A2B29208FFF7A6
:10052000DDFF2B699BB204E0C0189208FFF7D6FFED
:1005300063883360F8BDC04664300020C4300020BA
:1005400038B50A4A80246405236915689BB2013DC9
:100550005D43FFF70FFF2169054B013889B2414325
:100560001A68281CFFF7BAFF38BDC046903000203B
:10057000C030002070B5104A1421137880254B43F9
:10058000D3181A89DC880433DB686D05A41829693F
:10059000E418201C89B203F0FFFE0E1CFFF7EAFEF0
:1005A0002969013889B24143044B89191A68201C12
:1005B000FFF794FF70BDC0466430002094300020E7
:1005C00010B5FFF7D7FE80235B051C6919691A690E
:1005D000431EA0B25843044B89B21B6892B25943E0
:1005E0009208FFF77BFF10BD9030002008B5FFF7A1
:1005F000D3FEFFF753FF08BDF0B52B4B85B018783D
:1006000003284FD803F07AFE020E114A274A00232E
:100610001360274A1360274B5B78002B42D000F011
:10062000DFF83FE0FFF760FF3CE0234C0123226846
:10063000142601929A431F4B226002921A78802757
:1006400056437F059E1933693969181C89B2039393
:1006500003F05EFE194B051C186003983969F38896
:100660000138C01889B203F053FE854203D1029AC3
:100670000223134303E0019A03239A43131C2360CC
:100680000F4B1A680F4B002A03D121680222114236
:1006900000D000221A70FFF781FE03E0074B1868B4
:1006A000FFF7A4FF05B0F0BDB8300020BC3000203B
:1006B000C430002064300020A8300020903000209A
:1006C000C0300020AC300020F0B53F4A1421137830
:1006D00085B04B43D318D8680C22424302903B4864
:1006E0008025821854891089526860436D058218EC
:1006F00029690192DA881E6903921F89344CD31943
:100700009B1900930023236089B2301C03F044FE40
:1007100000290AD12B6903989BB2984208D000990E
:10072000019A914201D1002F02D0029B022B08D1E5
:100730002969301C89B203F0EBFD264B18600323B6
:100740003CE02969B81989B203F026FE224B8908DA
:100750001960009A019B8024640529699A422CD073
:1007600089B2101C03F018FE002926D0019A0098C7
:10077000216985B289B290B203F0CAFD2769061CCF
:10078000B9B2281C03F0C4FDB6B280B2864208D1CB
:10079000019B00989AB283B2D31A0D499B080B6053
:1007A0000BE023692169281C89B29CB203F0F4FD97
:1007B00089B2641A064AA408146002230748037029
:1007C000FFF71AFF05B0F0BD64300020983000201C
:1007D0009430002090300020C0300020B83000203D
:1007E00008B50B4A142113784B43D318D988094A0A
:1007F0001B791160032B08D0042B06D0012B06D1E6
:10080000054A1370FFF7F8FE01E0FFF75DFF08BD32
:1008100064300020B4300020B8300020F7B508ACB8
:100820002488114D01946E780424022E19D02C785E
:10083000A419012C00D9023C14277C432C196261B5
:10084000221C20710C3281C981C2E380074B0198C0
:100850001B782081013600246E70A34201D1FFF77E
:10086000BFFF201CFEBDC04664300020B830002011
:1008700038B5124C142521780020694361180431E1
:10088000FFF798FD21782A1C4A430023A21801256E
:100890001371D380D5601361536113816278013A7B
:1008A00062704A19D2B2022A01D0227000E023708D
:1008B000034A1370FFF7A0FE38BDC0466430002025
:1008C000B830002008B5084B14211A784A439B1809
:1008D0001B79042B02D0FFF7CBFF04E0034B01226E
:1008E0001A70FFF789FE08BD64300020B830002080
:1008F000F8B51F4D08242E68344023D11D4A142119
:1009000013781D4F4B433F68D31880211869DA884C
:10091000490504339B880969002F16D001388018D7
:10092000C01889B203F0F4FC144B1B6883420CD14D
:10093000134B1C6001231E43124B2E601C70FFF7EB
:100940002DFD13E0FFF774FD10E0FFF749FD0028CF
:1009500004D00B4B00221A60022202E0002F03D0C9
:100960000322084B1A70EAE7FFF7ACFFF8BDC04658
:10097000A830002064300020943000209030002007
:10098000C0300020AC30002008B5054B1B681A07AA
:1009900002D4FFF797FF01E0FFF74AFD08BDC0460C
:1009A000A830002038B5154D2C68220723D4144BED
:1009B0001A6801321A60134B04221B68002B04D101
:1009C000FFF70EFD002802D002220F4B0CE00F4B68
:1009D0001B68002B0CD00121221C0A400A4B02D1BB
:1009E0000C432C6000E003221A70FFF7D7FC04E0F0
:1009F000FFF768FF01E0FFF71BFD38BDA8300020BE
:100A000090300020C0300020AC3000209430002016
:100A100008B51E4B1B78022B30D0032B19D0012BAD
:100A200032D11B4B08211A680A4222D1194B1421DA
:100A30001A784A439A18184BD1881B68CB1A9BB274
:100A4000D380002B02D1FFF713FF1DE0FFF74CFD11
:100A50001AE00F4B08211A680A420AD10F4B1A6894
:100A600001321A60FFF7BCFC002804D1FFF72AFF0F
:100A70000AE08A431A60FFF7BFFD05E0084B1A78C9
:100A8000084B9200D358984708BDC046B8300020A4
:100A9000A830002064300020C430002090300020B6
:100AA000AC3000200452020008B5024B1868FFF772
:100AB0009DFD08BD9030002008B5FFF75BFC80234A
:100AC0005B051A691969431E90B2584389B203F055
:100AD0001FFCFFF78BFD08BD38B5144C04252378A7
:100AE0001A1CAA4321D002281DD003281DD1104A68
:100AF0001268110717D40F490A6801320A60032AE5
:100B000004D0022B0CD1FFF749FC0EE00A4B142154
:100B10001A780D2051435B18191DFFF74BFC257007
:100B2000FFF76AFD01E0FFF773FF38BDB830002022
:100B3000A8300020BC30002064300020174B10B5D6
:100B4000012200241C705C701C71DC80DA601C6166
:100B50005C611C811C765C831A625C629C629C8373
:100B60000F4B1C80FFF706FC80235B051A69831E70
:100B700090B258430B4B042218600B4B201C1C6096
:100B80000A4B1C601C815C81094B1C70094B1C606A
:100B9000094B1C60094B1A6010BDC0466430002030
:100BA000A4300020B0300020903000209830002089
:100BB000B8300020BC300020C4300020A830002015
:100BC0002B4BF7B51B680E1C0421041C08200B429C
:100BD0004DD0002C4AD0002E48D02268002A45D0A3
:100BE00080277F053A69A38892B2934201D90720F2
:100BF0003DE00F2BFBD9E288002AF8D053431D4972
:100C00000D685B190193FFF7B5FB3A69431E90B27B
:100C10005843019A8242EAD8A3889907E7D1164A35
:100C200004201788012F22D00C2078431349376005
:100C3000756026680A18556046501381E0880137B0
:100C40005081802252055843166911691469B2B265
:100C50008018013889B203F0A9FBA4B24443054EC1
:100C6000054B651935601F80002000E00E20FEBD99
:100C7000A8300020B0300020A430002098300020A0
:100C8000114B30B51C68082365071AD5002815D00C
:100C9000002A13D00368002B12D10C4C2568002DBC
:100CA0000ED025894068694309186089454360680A
:100CB0002D18A94204D21360516002E00E2300E017
:100CC0000723181C30BDC046A830002098300020F3
:100CD000F0B5141C1C4A051C126885B00F1C0820B6
:100CE00051072ED5002F2BD0002D29D02A680720A0
:100CF000002A26D1154E3168002922D06A68039255
:100D000032897189766851438C4603996644B142B1
:100D100017D2002C15D0944213D8E618964210DC56
:100D20000322102017420CD113420AD1114208D1DC
:100D30000093291C3A1C231C0120FFF76FFD00E0E3
:100D40000E2005B0F0BDC046A8300020983000202D
:100D5000F0B5141C1C4A051C126885B00F1C082035
:100D600051072ED5002F2BD0002D29D02A6807201F
:100D7000002A26D1154E3168002922D06A680392D4
:100D800032897189766851438C4603996644B14231
:100D900017D2002C15D0944213D8E618964210DCD6
:100DA0000322102017420CD113420AD1114208D15C
:100DB0000093291C3A1C231C0420FFF72FFD00E0A0
:100DC0000E2005B0F0BDC046A830002098300020AD
:100DD000F0B5161C214A85B0126802900D1C08243B
:100DE000500738D5002931D0029900292ED02C681F
:100DF000002C2DD11A4F3A68002A29D039897889D8
:100E00006A684843844678688444624520D2002E4C
:100E10001ED08E421CD8F018884219DC029803219B
:100E2000084217D10B4215D11140039112D19918E4
:100E3000321C02F0E7FD29680C234B430096FE5854
:100E4000281C0221039A029BB04704E00E2402E012
:100E5000072400E01024201C05B0F0BDA8300020BD
:100E600098300020F0B5204B85B01B68061C0D1C87
:100E700008245A0734D5002831D003680724002BF2
:100E80002ED11A4B1A68002A2AD01A894768029272
:100E900058685B8953431B1803939F4220D2102448
:100EA000BB071DD1381A111C03F076FA072400295C
:100EB00016D1281C029903F06FFA89B200290FD1CC
:100EC000002D0DD0039AEB19934209D8002200920D
:100ED0000320311C2B1CFFF7A1FC041C00E00E2496
:100EE000201C05B0F0BDC046A8300020983000207E
:100EF0002EDF704751DF704710DF704711DF7047FA
:100F000061DF704708B5081C111CFEF7A1F808BD89
:100F1000F0B5254B85B01B78002B42D0234E244FD3
:100F20003268544254413A68E4B255425541EDB2F8
:100F3000002C34D103A8FFF7DDFF05280AD00028D4
:100F400004D0211C221CFEF785F804E003983368C6
:100F5000984700E00124002D1ED1164B03A91B88E1
:100F60000B80154B1B68181C0193FFF7C9FF051E6A
:100F7000052D0BD0002805D000210A1CFEF76AF8C9
:100F8000002504E001983A68904700E00125002C14
:100F9000CED0002DCCD004E0002C02D1C8E7002D2B
:100FA000DBD005B0F0BDC046C8300020D0300020F6
:100FB000D4300020CA300020CC30002038B5041CCA
:100FC0000720002913D08D0711D109480160094974
:100FD000201C0A80084A09491360FFF78DFF00288A
:100FE00005D1074B012216201A70FFF781FF38BD8B
:100FF000CC300020CA300020D8300020050F02007D
:10100000C830002008B5FFF779FF021C531E9A4133
:10101000014BD2B21A7008BDC8300020002803D09E
:10102000024B1860002000E00E207047D4300020F2
:10103000002803D0024B1860002000E00E2070470B
:10104000D030002008B5074B1B68002B07D098470D
:10105000002806D000210A1CFDF7FCFF01E0FFF785
:1010600057FF08BDD830002038B5051C0C1C131CD8
:10107000291C0248221C00F054F838BD1852020006
:1010800038B50023C356041C0D1C013304D1064897
:1010900006492422FFF7E8FF6368002D01D0E268CB
:1010A00000E02269136038BD49520200615202001B
:1010B00000B599B068460F2100F065F806A80F2129
:1010C00000F061F80CA80F2100F05DF812A80F21C4
:1010D00000F059F868460121FFF7D2FF06A8002169
:1010E000FFF7CEFF0CA80021FFF7CAFF12A80121CD
:1010F000FFF7C6FF962000F0CCF868460021FFF706
:10110000BFFF06A80121FFF7BBFF0CA80121FFF7D5
:10111000B7FF12A80021FFF7B3FF962000F0B9F83F
:10112000D8E70FB4012008B502F002FC38B500235F
:10113000C356041C0D1C013304D106480649242261
:10114000FFF792FF6368002D01D0E26800E022699A
:10115000136038BD495202006152020070B50D1C87
:10116000041C161C00F09CF801350BD0201C311C0F
:10117000FFF7DCFF201C012100F0B0F8201C00214B
:1011800000F0A6F870BD08B50022FFF7E7FF08BD24
:1011900038B50368041C1B680D1C984763681D6004
:1011A00038BD38B50368041CDB68984763685A6823
:1011B0002368002A02D19B68984714E05B68156891
:1011C000984763682D1A002D08DC5A6891685960A9
:1011D0001B68002BEAD050689847E7E75B682268F5
:1011E00018681369984738BDF8B50D1C72B64B6086
:1011F0000A60416800234C68002C05D02768D61B84
:1012000002D4231CA468F7E7002B05D103684D60C6
:101210001B69101C984700E09D60AC6062B6F8BD89
:1012200008B572B6426853688B420FD19B68536011
:101230000268002B02D1936898470CE01868136984
:10124000984708E09A688A4203D0131C002BF9D112
:1012500001E08968996062B608BD08B503685B68FB
:10126000984708BD004870471853020008B5024867
:10127000FFF797FF08BDC0461853020038B5041C9D
:1012800000F0AAFA051C00F0A7FA401BA042FAD30E
:1012900038BD08B5FA239B005843FFF7EFFF08BDA0
:1012A00001704B1C0AD001238B404360044BC36088
:1012B000044B0361044B4361044B83607047C04699
:1012C000080500500C050050100500501405005092
:1012D00008B5007840B200F01FF808BD38B500230B
:1012E000C356051C0C1C013304D1094809492A22A4
:1012F000FFF7BAFE002C01D0012C07D10022AA561C
:10130000A023C132FF329200DB05D45038BDC04665
:10131000495202002053020038B5041C0D1C431C26
:1013200004D10A480A491A22FFF79EFEA023A00012
:10133000DB05C018E023DB00C2580C218A43C250F1
:10134000C258AD001543C55038BDC0464E520200CC
:10135000BF530200114A00211165114A114B118837
:10136000114A9950114A1178002904D0104908886F
:10137000A821C90058505178002903D00C49488849
:101380000C4958509278002A04D0094A9188A92221
:10139000D200995001221A607047C046FCA000405C
:1013A0004028002000A000404C050000E430002050
:1013B0004228002044050000962210B50123D200E7
:1013C000914203DC9E210268C90212E00A4ADC0055
:1013D000A458A14207DA013BDB00D2180168526829
:1013E000064BCA5007E00133112BEFD18021026870
:1013F0004905024BD15010BD5C5402002405000089
:10140000F8B5314B161C0360304AA023DB05051CE0
:101410000F1C01209958B840014399509C588021D5
:1014200049000C439C502A4C1A59104318511A5920
:10143000281C114319511A590121B1408A431A51EC
:101440001959244A0A4096211A518901FFF7B4FF1D
:101450002B68214900205850A0210420C900585071
:10146000012199601960191CFC3100220120CA6019
:1014700042421A481A501A4800220A621A50174863
:101480000A6A012AFCD10021A1226960D200082148
:101490009950A2220A21D2001F5099501E517A1C45
:1014A00003D0381C0321FFF737FF731C03D0301C17
:1014B0000321FFF731FF0B4B01221A60291C082280
:1014C000094802F09FFAF8BD002000400405000022
:1014D00014050000FFFBFFFF6C0500000C05000079
:1014E0001C050000E8300020F4300020124AC1231F
:1014F0009B00D15810B5080603D51049096A002988
:1015000011D1D3585A0716D50C4BDA68002A12D0DD
:101510000024DC60084AA323DB00D058C0B2FCF7EB
:1015200021FC211C00E00121054B1868002802D095
:10153000044B1B68984710BD00200040FC20004071
:10154000F0300020EC30002030B503681E4C181934
:10155000444260414000002A1BD0002903D00129E9
:1015600005D1802100E00421C12292009950174B3F
:10157000C022920040B29C58C100FF258D40AC4370
:10158000C0258D40291C21439950012282401A60B8
:1015900018E0002908D0012914D1C2229200802429
:1015A0009C509B589B0806E0C2229200042199504F
:1015B0009B580121DB09994304D001238340181C67
:1015C000034BD86730BDC04600E0FFBF00E100E03C
:1015D00004E100E003681A1CFC32106A0128FAD109
:1015E00000201062014AC9B2995070471C050000E2
:1015F0000368FC33186A01384342584170470000C1
:10160000F7B50E1C01930223041C0D1C171C9E43EE
:10161000012E13D11F4BA022D205D158301CB84047
:101620000143D150381C0321FFF776FE2368A12225
:10163000D2009F50184A99580E439E50AB1E012B62
:1016400016D8144BA022019ED2050125D158281C82
:10165000B0408143D150301C0321FFF75DFE236869
:10166000A222D2009E500C4A99580D439D500FE083
:10167000002D0DD123680122A1215242C9005A50E8
:10168000A221C9005A50044A012099588143995017
:10169000F7BDC046140500006C0500000A490B4A5E
:1016A00088680B4B002808D01868013018600020AB
:1016B00088600220D2218140505006491B68525850
:1016C0001806190A10437047FC1001400010014031
:1016D00000310020040500002F23C046C046C0464C
:1016E000C046C046C046C046C046C046C046C046CA
:1016F000C046C046C046013B002BEED170470000FB
:10170000F8B5184B9A68002A0AD0174A02201168C7
:101710000131116000229A601449D222824088501F
:101720005B6C124C002B1CD00E4B8025D2229200F9
:1017300000266D025E64A5500D4A1378B34210D0A6
:101740000C4B1F68FFF7AAFF3F1AB74209DC084B92
:10175000D2221E70C2239B009200E550A550FFF7D5
:1017600085FDF8BDFC100140003100200010014053
:1017700005310020FC30002038B5124C2278002AB8
:101780001FD1114BA121C9005A500222D2219140F0
:101790005A50C12191405A500C4AC42189005558D1
:1017A0000B482840C0252D02284350508021C020DE
:1017B000890240000125115011601D60FFF78CFF68
:1017C000257038BD043100200010014000E100E028
:1017D000FF00FFFF0000000008B50B4B1B78002B3B
:1017E00001D1FFF7C9FFFFF759FF064B044A02F08A
:1017F0005FFE4904C00B084308BDC046C046C04652
:1018000040420F000000000004310020C046C046E6
:101810002F4B70B51B78061C002B01D1FFF7ACFFD6
:10182000FFF73CFF254B244A02F042FE4B04C00B5D
:10183000002400251843CD0B0023321CA4185D4161
:1018400080231B06984205D9002E03DB1C4A1D4B42
:10185000A4185D41610CEB030B43E2031A481B49DA
:1018600080185941154B144A02F002FE194D041C10
:101870002B78194E002B02D0336898421BD0FFF70B
:101880000DFF201A022802DCFFF708FF841C21024A
:10189000124BA822D200090A99502A783460002AF3
:1018A00009D101222A70D2218022520289005A5085
:1018B000C12189005A5070BD40420F000000000055
:1018C00000000000010000003F420F000000000087
:1018D0000431002005310020FC30002000100140C0
:1018E000074B1A78002A0AD0064A8021C2204902F2
:1018F00080001150D2208000115000221A707047D1
:101900000531002000100140024B00229A605A6409
:101910007047C046FC10014008B5FAF7F1FFFBF72D
:101920001DF8FCE710B50021041C402202F08CF8E1
:10193000221C40320023201C1370537010BD000085
:10194000F7B5FA260093B60008AB041C1B78301CD0
:1019500048431449171C019302F0DAFC85B2301C8D
:10196000258078430F4902F0D3FC009B80B2A3800E
:10197000019B6080A371032D01D80423238022885A
:101980008023DB019A4200D92380032801D8042256
:10199000628062889A4202D98023DB016380201C26
:1019A000FEBDC0467102000093DF704708B50368B2
:1019B000002B01D0081C984708BD08B50368002B10
:1019C00001D0081C984708BD38B502680B68051C93
:1019D0000C1C9A4201D000202CE00379002B07D187
:1019E0000B79002BF7D1C28ACB8A9A42F3D10BE054
:1019F000012BF0D10B79012BEDD1053005311022EF
:101A000001F0F1FF0028E6D12A7E217E7F231A40D3
:101A10000B409A42DFD16A8B638B9A42DBD1EA6931
:101A2000E36900209A4205D1238C288CC01A4342D6
:101A30005841C0B238BD70B5051C0E1C00242819D1
:101A4000311CFFF7C1FF002803D14C34E42CF6D140
:101A500000E0012070BD000007B501AB1980191C22
:101A60005A80FFF7A1FF10280CD003D8002398421A
:101A70000BD009E00523112807D0054A0423904222
:101A800003D001E0032300E00B23181C0EBDC04669
:101A90000230000070B50025041C291C20C0FAF794
:101AA0008AFC0C26201C291C321C25766583A58304
:101AB000E5832584243001F0C7FF074B201C6563B4
:101AC0002363291C321C383001F0BEFF034BA56490
