:020000021000EC
:10C0000000800020E9D2010025D3010027D30100E0
:10C010000000000000000000000000000000000020
:10C0200000000000000000000000000029D3010013
:10C0300000000000000000002BD301002DD3010000
:10C040002FD301002FD3010051F001002FD30100A5
:10C050002FD30100000000002FD301002FD30100D7
:10C060002FD301002FD30100EDEF01002FD30100EA
:10C070002FD301002FD301002FD301002FD30100B4
:10C080002FD301003DF101002FD301002FD3010078
:10C090002FD3010081180200DDEC01002FD3010035
:10C0A0002FD301002FD3010000000000000000008A
:10C0B0000000000000000000000000000000000080
:10C0C00010B5064C2378002B07D1054B002B02D06E
:10C0D000044800E000BF0123237010BDAC280020FD
:10C0E000000000002051020008B5084B002B03D0CF
:10C0F0000748084900E000BF07480368002B03D049
:10C10000064B002B00D0984708BDC0460000000039
:10C1100020510200B0280020AC28002000000000C0
:10C12000164B002B00D1144B9D46402292029A1AC6
:10C13000924600218B460F461348144A121A07F004
:10C1400017FA0F4B002B00D098470E4B002B00D056
:10C1500098470020002104000D000D48002802D05F
:10C160000C4800E000BF07F08DF92000290002F024
:10C1700016FC07F071F9C04600000800008000209E
:10C180000000000000000000AC280020E42E002089
:10C19000000000000000000070B5102442708370A1
:10C1A0000122C475F523FF240170C38003210023FD
:10C1B000047704258418027142748274C274017277
:10C1C0000275827542768276C2760176C2774372B4
:10C1D0008372C372037343738373C37303744377AC
:10C1E0008377E577841C0725E5774418E377041DFA
:10C1F000E177441DE177811DCB774119CB77891811
:10C20000CA77021CC4180021261CD16391645165B1
:10C21000603600216C3402333180F1800432218099
:10C22000062BEFD18030017070BD10B50121041CC8
:10C230006B221E23FFF7B0FF201C10BDC388FA221B
:10C240005200934207D0FA22D200934205D0F52B38
:10C2500005D1034B02E0034B00E0034B43677047FB
:10C26000295C0F3C295C8F3C295C8F3DC37D042BEE
:10C270000AD003D8022B0BD1064B08E0082B05D0BF
:10C28000102B05D1044B02E0044B00E0044B836704
:10C290007047C04640DA7F38B0E33F3A40DAFF38B3
:10C2A00040DA7F3900B5421C031CD07F04380C28CB
:10C2B00010D807F0B7FD070F0F0F090F0F0F0B0F67
:10C2C0000F0F0D00044A04E0044A02E0044A00E0B3
:10C2D000044ADA6700BDC046F7CC1239240B9839FE
:10C2E0009F71E139240B183AC388F52B09D0FA2243
:10C2F0005200934205D0FA22D200934201D0F52396
:10C30000C380C37D022B07D0042B05D0082B03D09C
:10C31000102B01D00223C3750130C37F0822191CE2
:10C320009143042905D0082B03D0102B01D00423FE
:10C33000C377704770B5094C161C201C1D1C00F0FB
:10C3400088FA311C201C00F026FA291C201C00F061
:10C3500022FA201C00F0C2FA70BDC046C828002096
:10C3600010B5131C021C0C1C73321178221CFFF731
:10C37000E1FF10BD10B502790023041C9A4202D0DF
:10C38000037A5B01DBB2E288FA2149008A4205D0D8
:10C39000FA21C9008A4203D1182200E0082213437F
:10C3A000617A03220A401A43201C1021FFF7D8FFAC
:10C3B0000022201C1121FFF7D3FFA27A531E9A41BD
:10C3C000E37AD201002B05D0217B0F230B404021C3
:10C3D0000B431A43201C1221FFF7C2FFE27C531EBD
:10C3E0009A41A37C5201002B01D010231A43637C95
:10C3F000002B01D008231A43237D002B01D00223F8
:10C400001A43201C1E21FFF7ABFF627B531E9A418B
:10C41000A37B5201002B01D010231A43E37B002B96
:10C4200001D008231A43201C1321FFF799FF10BDE8
:10C4300010B5C27E041C531E9A41837E5201002B0C
:10C4400001D010231A43637E002B01D008231A4326
:10C45000201C1F21FFF784FFA37D0022934202D0FE
:10C46000227E5201D2B2E37D082B05D0102B05D0DD
:10C47000042B05D1102302E0182300E008231A43FF
:10C48000237F59B2002904DB03210B4004210A4316
:10C490001A43201C2021FFF763FF637F0022934291
:10C4A00005D0A27F03231A40520180231A43201C87
:10C4B0002121FFF755FF10BD10B5131C021C0C1CE9
:10C4C00072321178221CFFF735FF10BD38B5C31C3E
:10C4D000DB7F041C5A1E9341821CD17F072211402E
:10C4E000021DD07F0322024089005201DB010A4372
:10C4F0001A43201C2021FFF7DFFF631CDB7F002293
:10C50000083BDBB2082B01D8104AD25C201C212149
:10C51000FFF7D2FFA31DDB7F03255A1E9341E21DC7
:10C52000D27F5B012A401A43201C2221FFF7C4FF5F
:10C53000631DDA7F201C1540AA002321FFF7BCFFF2
:10C54000201C24210022FFF7B7FF38BD3848020025
:10C5500070B50C4C161C201C0D1C00F07AF9311C17
:10C56000201C00F018F9201C002100F081F9291C82
:10C570000122201C00F0D6F9201C00F0EDF8C0B21A
:10C5800070BDC046C828002008B5031C73330A1CC0
:10C590001978FFF7DDFF08BD08B5031C72330A1CCC
:10C5A0001978FFF7D5FF08BD70B5031C42787333C7
:10C5B0001A708278013B1A70041CFFF795FE201C4C
:10C5C000FFF73CFE201CFFF76DFE201CFFF74EFE20
:10C5D0000E4800F02BF90F21201CFFF7DDFF0F2183
:10C5E000061C201CFFF7D0FF05022E43084B35B276
:10C5F00000209D4209D1201CFFF7BCFE201CFFF744
:10C6000017FF201CFFF762FF281C70BDC828002000
:10C610003D680000F7B5164C1D1C201C08AB0F1C14
:10C6200001921E7800F015F92368019A80211143C8
:10C630001B68201C9847201C002100F019F90028D5
:10C6400001D0002012E0391C201C321C00F06AF9D5
:10C65000071EB742F5D12E1C731BBB4205DA201C06
:10C6600000F07AF830700136F6E7381CFEBDC0469F
:10C67000C828002037B5141C021C0D1C7332117819
:10C6800000932A1C231CFFF7C5FF3EBD37B50623C8
:10C6900028216A46041CFFF7EDFF062823D16846CF
:10C6A0004178037809021943E185C2788378120240
:10C6B0001A432286437900791B020343201C6386B8
:10C6C0008030007800280ED0201C66300088091ABF
:10C6D000E185211C68310988521A2286221C6A329F
:10C6E00012889B1A638637BD37B5062318216A4620
:10C6F000041CFFF7BFFF062823D168464178037862
:10C70000090219432185C278837812021A4362858F
:10C71000437900791B020343201CA38580300078F5
:10C7200000280ED0201C60300088091A2185211CA9
:10C7300062310988521A6285221C643212889B1A5F
:10C74000A38537BD031C3133303002781B780020BD
:10C75000934200D8D01A7047021C011C313230318C
:10C7600013780978994204D9591C1170C318187CA0
:10C7700001E0012040427047031C021C313330327B
:10C780001B7812789A4202D9C018007C01E001207F
:10C7900040427047704710B5021C68321278031C83
:10C7A0000120022A0AD11C1C523422781F2A05D8E3
:10C7B0009B181018303320709970002010BD70B590
:10C7C000031C68331C780023022C0ED193420CD03A
:10C7D000051C52352C781F2C07D8661C2E70CD5C9A
:10C7E00004193034A5700133F0E7181C70BD000047
:10C7F00038B5FA239B0083600B4B00250833036098
:10C80000031C303345601D705D702233041C1D70A5
:10C810005D709D70291C1022583006F0A9FE231C63
:10C8200068331D70201C38BD4848020038B5041C10
:10C83000032002F0DBF8051C022002F0D7F8011CEF
:10C84000201C2A1C583000F07DFE68340023237021
:10C8500038BD031C49005433021C197053320023A5
:10C860001370013A137068300223037070470000A0
:10C87000F7B5031C051C071C0E1C5433021C523751
:10C880005835041C197832323B78281C009600F089
:10C890002DFF231C00206833012238701A70A36D0D
:10C8A000041C191CFC318A6A012A0DD10A481F5840
:10C8B000BF0703D58C625A61FF2405E0185847076B
:10C8C00002D58C625A61FE24002E02D0281C00F092
:10C8D0009DFE60B2FEBDC046C404000008B5012143
:10C8E000FFF7C6FF08BD73B5151C4900021CC9B28D
:10C8F0005432041C1170202D02D8002D0AD000E003
:10C900002025201C221C0093583010322B1C00F0D4
:10C91000A9FEC6B2231C313300223034301C1A70F9
:10C92000267076BD08B50123FFF7DDFF08BD0000C6
:10C9300008B50248FFF75CFF08BDC046C8280020C4
:10C9400008B50368002B01D0081C984708BD08B53E
:10C950000368002B01D0081C984708BD08B5036880
:10C96000002B01D0081C984708BD08B50368002BB0
:10C9700001D0081C984708BD08B50368002B01D0FA
:10C98000081C984708BD000010B5054B041C036047
:10C9900001F098FF201C01F0E7FF201C10BDC046ED
:10C9A000704B020010B5041CFFF7EEFF201C06F0D0
:10C9B0000FFD201C10BD0000F0B5134A4388D68B34
:10C9C00087B09E421ED1114801F000F86D46036801
:10C9D000023501AC5F68311C2B1C221CB8470C4B84
:10C9E0002D88196800201A1C83B2AB4209D2235C3F
:10C9F000012B03D0022B01D0032B00D1191C0130D5
:10CA0000F2E7116007B0F0BD302A0020342B00207F
:10CA10000428002070B51D1CC37F041C5E19012072
:10CA20001D2E13DC2818E054E37F0133DBB2E377DB
:10CA3000E154E07F111C0130C0B2E0772A1C2018BD
:10CA400006F074FDE37F0020ED18E57770BD00006F
:10CA5000F7B58E1EF6B2051C089C132E22D80120B5
:10CA6000071CB7403E1C284F3E421BD0E97FCE1822
:10CA700069181F2E46DC601C814203D90878C8540F
:10CA80000139F8E70021C8B2984204D2565C601818
:10CA900086700131F7E722789A182270EA7F9B1896
:10CAA000EB770FE02078061C013EF6B20090B3420F
:10CAB0000AD10021C8B2984204D2555C6018857032
:10CAC0000131F7E700201DE0E87F801BC018844695
:10CAD000674601201F2F15DCE87F8446B01C201814
:10CAE00001906746E819019F874204D2A019807817
:10CAF00020700134F0E70098C7436744EF77281CA3
:10CB0000FFF788FFFEBDC0463F000800F7B5C67FAF
:10CB10000024B4420CD205196F788F4203D10095DE
:10CB2000FFF796FF06E0055D01356419E4B2F0E712
:10CB3000FFF770FFFEBD70B5061C8AB00A360C1CEC
:10CB40002222311C051C01A806F0F0FC6A460121D6
:10CB5000033201A80B1C1470FFF7D8FF041E0DD17F
:10CB60002B682A1C34329B6F281C01A99847041E8D
:10CB700004D1301C01A9222206F0D8FC201C0AB0E6
:10CB800070BD70B50123041C0370261CC018031C63
:10CB9000113600251D700133B342FAD1012365829D
:10CBA0002370AA4208D10B1C10338B4207D0013BE3
:10CBB0001A7802700130F8E7102206F0C0FCA37B5F
:10CBC000627B1B021343201C638270BD10B500F012
:10CBD000EDFE011C08C9041CDB6F9847002804D136
:10CBE0005834237801221343237010BD08B502483E
:10CBF000FFF7ECFF08BDC046342B002008B500F05D
:10CC0000C5FE806D08BDF7B51C1C08AB0E1C151CBD
:10CC10001F7800F0DBFE03680097DF68311C2A1CD8
:10CC2000231CB847FEBD0000F0B5A34885B0FFF750
:10CC3000E5FF810700D43CE101F056FF9F4BA04C7B
:10CC40001B68C01A9F4B20801B68022B00D198E004
:10CC5000032B00D1CDE0012B00D02AE10A20FF24D4
:10CC600001F0CEFE00210B1C974A009400F02BFE31
:10CC7000964F204038600C2001F0C2FE00210B1CB2
:10CC8000914A009400F01FFE914D204028600B2037
:10CC900001F0B6FE00210B1C8B4A009400F013FE3D
:10CCA0008C4E20403060082001F0AAFE00210B1CB1
:10CCB000854A009400F007FE874D204028600E2032
:10CCC00001F09EFE00210B1C00947F4A00F0FBFD4A
:10CCD000824B0440824A1C6039787D4C7F78126810
:10CCE00003970A202778012A15DC50437D4A115406
:10CCF00003991018417087706278C270327802719F
:10CD0000727842712A7882716A78C2711A780272D6
:10CD10005B78437228E0941E6043734C21542018C2
:10CD2000039987706A4F41707978C17031780171C9
:10CD300071784171297881716978C17119780172AE
:10CD40005B784372032A0FD1684E0025F18B654A48
:10CD5000142300955848FFF756FFF18B564800956D
:10CD6000221C1423FFF74FFF5D4A614B116801310C
:10CD70000B4004D50421013B49420B4301331360AE
:10CD800097E05C4C201CFFF781FCE38D5A4F5B4E13
:10CD90003B80238E5A4D3380638E201C2B80FFF7FF
:10CDA000A3FC208D574B584A1880618D574B198032
:10CDB000A38DE4241380564AA4001480494A3C7889
:10CDC00014707C785470347894707478D4702C78A3
:10CDD00014716C7893721B0AD37290239071117244
:10CDE000000A090A137303235471D07151725373EB
:10CDF00057E00C2001F004FE344D28600E2001F0B5
:10CE0000FFFD354E30600A2001F0FAFD314B18600D
:10CE10000B2001F0F5FD374C2D4F3860201CFFF73B
:10CE200035FCE38D3449354A0B80238E3449138019
:10CE3000638E201C0B80FFF757FC208D314B324A4C
:10CE40001880618D314B1980A38D1D4C138024787F
:10CE5000244A14701A4C647854702C7894706C784E
:10CE6000254DD4703C7814717C78244F54713478FB
:10CE700094717478D4712C7814726C7854723C78F4
:10CE800094727C781E4DD4722C7814736C789073E5
:10CE90001174000A090A93741B0A5473D0735174F5
:10CEA000D374124B0448D98B002300931423FFF74B
:10CEB000AAFE05B0F0BDC046342B0020842A002015
:10CEC0004029002004280020FF030000282B002018
:10CED00058290020D02A002038290020302B00209B
:10CEE000CC2A00207C29002090290020D42A002070
:10CEF00003000080A4290020342900203C290020C0
:10CF00003E290020282A00202C2A00202A2A00203E
:10CF10002C2B0020F0B591B002AD07AC0021281CED
:10CF20000C2206F025FB2A1C231C43CA43C3544B86
:10CF30000027211C5348E360276100F0CFFC391C17
:10CF40000C22281C06F014FB4E4800F02FFD4E4E1C
:10CF500001900296231C07CD07C3142006F050FA57
:10CF60000796031C221C62CA62C3484B0761C36058
:10CF7000019B444EA4331A68BA4200D00261186083
:10CF8000301C00F023FD00210C220190201C06F033
:10CF9000EFFA142006F034FA3D4A211C0792021CD5
:10CFA000A8C9A8C23B4A019DC26000220261AA69C9
:10CFB000002A01D1A86102E0019F0261B861301C22
:10CFC00000F0F4FC0621FFF7B6FD301C00F0EEFC8B
:10CFD000071C0A37391C2222051C201C06F0A6FA61
:10CFE000201C08212C4A0A23FFF790FD00280DD1B0
:10CFF0002B682A1C34329B6F281C211C9847002860
:10D0000004D1381C211C222206F090FA301C00F0BA
:10D01000CDFC00240471301C00F0D8FC03681F49CB
:10D020001B689847301C00F0C1FC03681A495B6B11
:10D030009847301C00F0BAFC0368211C5B6C9847D1
:10D04000301C00F0B3FC0368041C9B689847A023C5
:10D05000984204D92368201C9B689847031CFA2037
:10D0600080000F49584306F0E7FEE080301C00F0D6
:10D070009DFC00230381301CFFF7A8FD11B0F0BD1B
:10D080005DC90100342B0020EDCB010079C90100FE
:10D09000B9C901006BC90100884802005C29002061
:10D0A0007102000070B51E4C1E4E0025201C1E494A
:10D0B000A661E56201F00EFC0D20012101F01CFDCE
:10D0C000FFF728FF1948FFF76FFAA84210D1012196
:10D0D0000D2001F039FDFA20400001F0FEFC0D208A
:10D0E000002101F031FDFA20400001F0F6FCEEE7EE
:10D0F00001210D2001F028FD0D4B1D6001F0F4FC15
:10D100000C4B0D4A186001231370FA210B4AA661DB
:10D11000E562201C4901137001F0DCFB70BDC046C4
:10D12000882A002029CC010010270000A429002013
:10D13000CC2A0020842A00207C290020902900206D
:10D1400010B5054C201CFFF759FD830702D4201CA5
:10D1500000F04CFC10BDC046342B0020F0B500217F
:10D1600087B04E4800F0D2FB4D48FFF75EF84D4DBA
:10D170000024281C01F0D2FB4B4B01AEAC61EC62E9
:10D18000281C4A494A4A2B6006F01BF9221C301C15
:10D190004849FFF7F6FC484D337869462B70738A8F
:10D1A00005316B821022454806F0C0F9444B142229
:10D1B0006B61424B2A830C220127DA77AB1CDF77A5
:10D1C0002B1C28331C702B1C29331C70281C2B1C77
:10D1D0006F832F77EC832A33211C0C222C306C6256
:10D1E0001C7006F0C5F9374B281CAB63EC63211C9F
:10D1F0000C22403006F0BCF9334A2C65EA64301C3E
:10D20000221C3249FFF7BDFC314D337869462B7043
:10D21000738A05316B8210222E4806F087F92E4B57
:10D220002C4A6B6114232B831023D377AB1CDF773D
:10D230002B1C28331C702B1C29331C70281C2B1C06
:10D240002A336F832F77EC83211C0C222C301C7027
:10D250006C6206F08DF91B4A281CEC63AA63211C42
:10D260000C22403006F084F9174B2C65EB64221C2D
:10D27000301C1A49FFF785FC194D337869462B702D
:10D28000738AE8196B820531102206F04FF90223E8
:10D290002B75144BAC83AB6107B0F0BD342B002071
:10D2A000A4290020882A0020704B020089C90100AF
:10D2B0000028002078480200302A0020312A00206F
:10D2C000422900204FC9010041C9010093480200D2
:10D2D000D42A0020D52A0020B82A0020684802005D
:10D2E0005C290020082800200848026803210A431E
:10D2F00002600749074A084B9B1A03DD043BC858E4
:10D30000D050FBDC05488047054800472405004015
:10D310002C51020000280020AC28002031D301004D
:10D3200021C10100FEE7FEE7FEE7FEE7FEE7FEE7BC
:10D33000334B10B51A78181C012A12D1314B1B68D7
:10D3400019070ED1304BF0221B68E024191C114044
:10D35000234204D12D4B1B68134202D140E03029F7
:10D36000F8D00378012B0DD1264A1268110709D194
:10D37000254A1168F0221140402903D12349096848
:10D38000114235D08023A321DB050122C9005A5068
:10D390001F49002088609A601E4B8A68002A2DD1A0
:10D3A000C822C046C046C046C046C046C046C04669
:10D3B000C046C046C046C046C046C046C046013A08
:10D3C000002AEED1013B002BE7D18022A320D20519
:10D3D000C0001350012393608B68002BFCD00DE03C
:10D3E0000D490E4A116080210D4A09021160B8E70B
:10D3F000C1228021D200C9058B50C3E710BDC046B1
:10D40000E00F00F0E40F00F0E80F00F0EC0F00F088
:10D41000FC00004088130000DFFF07C00405004047
:10D42000186C0040036800211A1CFC329160012135
:10D430005961064B9168002904D1013B002BF9D1B9
:10D44000012002E000230373181C7047A18601002D
:10D45000084B0068C150084B021CFC32116A0029BD
:10D4600004D1013B002BF7D1012001E00020106224
:10D470007047C0461C050000A186010010B5036876
:10D48000002A03D0022080228240985001221A6292
:10D49000084A1C1CFC34E068002804D1013A002A28
:10D4A000F7D1012005E00020A322E060D2009B58C4
:10D4B0000B7010BDA186010010B50B4C02680B4B20
:10D4C000A14204DC0A498160CC2149040AE0094CEC
:10D4D000A14203DC08498160802102E007498160A4
:10D4E000CD21C904D15010BD8FD003002405000008
:10D4F000A08601007F1A060090D00300801A060063
:10D50000F8B5E0256D00041C5619A020C025E027C1
:10D51000C005ED007F00B6003550CE19B60035507D
:10D520002068A125ED004251054A8150191C201C9C
:10D53000FFF7C2FF2268A0230521DB00D150F8BD10
:10D540000C050000F8B52A4B0F1C1978161CC9B23F
:10D55000051C1A1C012909D15C78F8B2844205D156
:10D560009878F3B2984201D1697316E0214908789E
:10D570000B1C012807D14C78F8B2844203D188787B
:10D58000F1B2884214D01178002908D10123F9B2F0
:10D5900013705170F1B291706B73174C10E01A78E0
:10D5A000002A09D101221A70FAB25A70F2B29A70A6
:10D5B00002236B73114C03E0114801F0FEFB0024C1
:10D5C000201C00F035F9221C0023FC326E712F71F3
:10D5D0002C609362A022D200A3500A4A281CA350B8
:10D5E0000123A350391C321C074BFFF789FFF8BDFC
:10D5F0003C2B0020402B0020003000400040004029
:10D60000A3480200FC0F0000A086010008B50368D3
:10D610000022191CFC318A62A021C9005A50064917
:10D620005A5001225A5004210522415682568368DD
:10D63000FFF766FF08BDC046FC0F0000036830B569
:10D64000191CFC318A6A0020012A08D1044C1C599B
:10D6500088625A610220A50700D40120404230BDF3
:10D66000C4040000F7B51F1C01920368B1224910E1
:10D67000D20099508021012289005A50191CFC3196
:10D680000026CE60051C1A607C1E019BA64213DAA0
:10D690009919281C0022FFF7F1FE00280AD0281C47
:10D6A000FFF7CCFF071C281CFFF7B0FF341C002F2E
:10D6B0001ADA18E00136E7E71919281C0122FFF7EA
:10D6C000DDFE002803D0281CFFF7A0FF0CE0089B1C
:10D6D0003C1C002B08D029680B1CFC339A68002ADC
:10D6E000FAD000229A603C1C201CFEBDF8B5171C25
:10D6F0001E1CB1220368D20049109950802292006A
:10D7000000259D500122041C9A60B54211DA795D12
:10D71000201CFFF79DFE002809D0201CFFF776FF94
:10D72000201CFFF78BFF00280EDA051C0CE00135EA
:10D73000EBE7069B351C002B06D0201CFFF772FE82
:10D74000002801D001256D42281CF8BD82B001904F
:10D75000C046C046C046C046C046C046C046C04699
:10D76000C046C046C046C046C046C046019B013BBD
:10D770000193002BECD102B070470000F0B5A0235C
:10D78000DB000022C158A024C250EE22E405D200E2
:10D79000A35885B00293234B234E0191A350A15966
:10D7A00080220391A351A123DB009205E250802245
:10D7B0005205E250051C0420FFF7C8FFA223DB003E
:10D7C000E258910004D5E2580123120F1A4217D1F2
:10D7D0001324013C002C15D0144BA0268027F605FD
:10D7E0007F05F7500420FFF7B1FFA123DB00F750BE
:10D7F0000420FFF7ABFFA223DB00F3589A00E8D523
:10D80000012000E0201C0299A023EE22DB05D200BB
:10D8100099500399044A9950019AA023DB00EA50D9
:10D8200005B0F0BD0D060000740700000C050000F7
:10D83000164AA023EE21DB05C90010B55A50144941
:10D840005A50031CFC330022DA601A62A122D20073
:10D850001C2383500F4B1D21C1500F4BCC21490479
:10D86000C1509C235B00C418A2210C4BC9005C5022
:10D870000B491D3CFF3C5C5001219950A02305221F
:10D88000DB00C250FFF77AFF10BDC0460C06000057
:10D89000740700000C0500002405000000F00140A2
:10D8A00014050000F8B5061C0C1C8F180025BC429E
:10D8B00007D0336821781B68301C984701342D1835
:10D8C000F5E7281CF8BD38B5049D1C1C401AEB1A5E
:10D8D0005843511A06F0FEFA001938BDF0B5021C83
:10D8E000406812680B1C016889B00C68019203AA99
:10D8F000151C1E1CA44692CE92C5DB680199D3600C
:10D9000000231361E04709B0F0BD000038B50023E3
:10D91000041C0160436099420AD1064D2B68002B1C
:10D9200002D100F051FD286022689300ED58656037
:10D93000201C38BD502B0020F8B500280DD1104C0C
:10D940002668002E07D1082005F05AFD311C051C61
:10D95000FFF7DCFF2560206810E00A4D01272E68E4
:10D96000094C3E4009D1281C05F038FD002804D0A0
:10D97000281C2760666005F040FD201CF8BDC046ED
:10D98000442B0020542B0020482B0020436810B566
:10D99000041C002B02D1044801F00FFA60680368F0
:10D9A0001B69984710BDC046B4480200436810B5D3
:10D9B000041C002B02D1044801F0FFF960680368E1
:10D9C0001B69984710BDC046B4480200436810B5B3
:10D9D000041C002B02D1044801F0EFF960680368D1
:10D9E0009B69984710BDC046B4480200436810B513
:10D9F000041C002B02D1044801F0DFF960680368C1
:10DA0000DB6A984710BDC046B44802007047022048
:10DA100070470220704700207047002070470000C8
:10DA200000487047FFFF0000022070470220704747
:10DA30000220704702207047022070470220704782
:10DA40000220704702207047022070470220704772
:10DA500002207047022070470220704700231360A5
:10DA60007047002070470220704702207047022054
:10DA70007047022070470220704700207047002046
:10DA800070470020704702207047022070474160B5
:10DA9000704781607047C1607047016170474161A4
:10DAA0007047022070470220704702207047022012
:10DAB0007047022070470220704702207047002004
:10DAC00070470220704700207047704790DF704712
:10DAD00066DF704748DF70475F300078431E98412B
:10DAE000C0B27047007970470C3070470C307047F7
:10DAF00008B5FFF7EFFF08BD08B50368002B01D09C
:10DB0000081C984708BD08B50368002B01D0081C05
:10DB1000984708BD08B50368002B01D0081C98473A
:10DB200008BD08B50368002B01D0081C984708BD44
:10DB300008B50368002B01D0081C984708BD0000F9
:10DB400010B5034B041C0360FEF71EFF201C10BD24
:10DB5000884B020010B5041CFFF7F2FF201C05F0F3
:10DB600037FC201C10BD08B5081C111C1A1C029B98
:10DB700001F088FF08BD08B5081C111C01F0FCFF6E
:10DB800008BD08B5081C111C02F01CF808BD08B53A
:10DB900001F0DEFF08BDF0B595B008230C1C694606
:10DBA0000B7104AA0B7368460CAB0293009202F04F
:10DBB0002FF80023061C051E2CD169460B79AB42B9
:10DBC00011D96379AB4201D8257124E00722101CDA
:10DBD00068432368009F1818AB00D959013505F038
:10DBE000A5FCEDB2E9E7257100256B461A7B237988
:10DBF000EB18AA420ED9627993420BDA0721029FF1
:10DC00004B43AA00D05922680135D11802F01CF804
:10DC1000EDB2EAE72371301C15B0F0BD7FB5037992
:10DC2000002B0FD0164E174C3378201C002B25D11B
:10DC300002AD281CFFF74CFF002819D16B88592B27
:10DC400016D101E0104819E02B78AA88D91F0129C4
:10DC500004D80092201C20210C4A03E000920C4AB8
:10DC6000201C202105F086FD01233370201C05E0D7
:10DC7000201C0849202205F0B6FDF7E704B070BD6E
:10DC8000582B00209C2C0020C04A0200DA4A0200D7
:10DC9000F74A02001C4B020038B50379041C092026
:10DCA000002B28D000F0FAFF031C0520002B22D106
:10DCB000251CFC35A86B002803D1286C002806D150
:10DCC0000AE003681B6A98470028F6D013E003684F
:10DCD0009B6A984700280ED1E86B002804D003689F
:10DCE000DB6A9847002806D1201C0C3002F0B4FBF8
:10DCF000002800D1207138BDF7B500930368019169
:10DD00005B68041C171C9847051C0620002D3BD19E
:10DD10001C203A1C00194ACA4AC0FF68009A231CFA
:10DD2000A762E562443383CA83C3009B0899DB681A
:10DD3000142223656565A01D05F0F8FB201C0999D8
:10DD40001422303005F0F2FB019E231C5D33A680C7
:10DD5000013B5D700121301C1D70D9702A1CFFF73A
:10DD6000B5FE061C281C002E0ED02368201C9B68C4
:10DD70009847112E07D0054B9E4202D00620072E51
:10DD800002D1042000E00520FEBDC04602300000A4
:10DD900038B5041CE3692362206A002807D0C368F1
:10DDA000211C9847236A002BF4D01B69F3E7E06934
:10DDB000002804D0056905F00BFB281CF8E7E0619A
:10DDC0006060A060E0602061606138BD08B5FFF769
:10DDD000DFFF002800D0062008BD38B5041C00680D
:10DDE000002804D0056905F0F3FA281CF8E7206044
:10DDF00038BD000010B5034A041C04C0FFF7EDFF56
:10DE0000201C10BDD049020010B5041CFFF7F2FF22
:10DE1000201C05F0DDFA201C10BD38B5041C00687C
:10DE2000002804D0056905F0D3FA281CF8E7206023
:10DE300038BD000010B5034A041C04C0FFF7EDFF15
:10DE4000201C10BDE049020010B5041CFFF7F2FFD2
:10DE5000201C05F0BDFA201C10BD000038B5074B92
:10DE6000041C03604068002804D0056905F0B0FA7E
:10DE7000281CF8E76060201C38BDC046F04902004D
:10DE800010B5041CFFF7EAFF201C05F0A1FA201CC6
:10DE900010BD000038B5074B041C03604068002823
:10DEA00004D0056905F094FA281CF8E76060201C8E
:10DEB00038BDC046C049020010B5041CFFF7EAFF98
:10DEC000201C05F085FA201C10BD000038B5074B5A
:10DED000041C03604068002804D0056905F078FA46
:10DEE000281CF8E76060201C38BDC046604A02006C
:10DEF00010B5041CFFF7EAFF201C05F069FA201C8E
:10DF000010BD000038B5074B041C036040680028B2
:10DF100004D0056905F05CFA281CF8E76060201C55
:10DF200038BDC046504A020010B5041CFFF7EAFF96
:10DF3000201C05F04DFA201C10BD000038B5074B21
:10DF4000041C03604068002804D0056905F040FA0D
:10DF5000281CF8E76060201C38BDC046104902004C
:10DF600010B5041CFFF7EAFF201C05F031FA201C55
:10DF700010BD000038B5074B041C03604068002842
:10DF800004D0056905F024FA281CF8E76060201C1D
:10DF900038BDC046E048020010B5041CFFF7EAFF98
:10DFA000201C05F015FA201C10BD000038B5074BE9
:10DFB000041C03604068002804D0056905F008FAD5
:10DFC000281CF8E76060201C38BDC046F0480200FD
:10DFD00010B5041CFFF7EAFF201C05F0F9F9201C1E
:10DFE00010BD000038B5074B041C036040680028D2
:10DFF00004D0056905F0ECF9281CF8E76060201CE6
:10E0000038BDC0460049020010B5041CFFF7EAFF06
:10E01000201C05F0DDF9201C10BD000038B5074BB1
:10E02000041C03604068002804D0056905F0D0F99D
:10E03000281CF8E76060201C38BDC046B0490200CB
:10E0400010B5041CFFF7EAFF201C05F0C1F9201CE5
:10E0500010BD00000F4B10B5083303600E4B041CBD
:10E06000C3600130FF30FFF76BFD0C4B201CE360F9
:10E07000B830FFF763FF201CAC30FFF7B3FF201C64
:10E08000A030FFF793FF201C6C30FFF773FF201CBC
:10E0900010BDC046284B0200084F02002049020074
:10E0A00010B5041CFFF7D6FF201C05F091F9201CC9
:10E0B00010BD000038B5051CFC352C6C002C0DD1B2
:10E0C000242005F09DF9064B44608361054B846074
:10E0D000C46004614461C46103602864286C38BD75
:10E0E000B0490200904A020038B5051CFC352C6C82
:10E0F000002C0DD1242005F083F9064B4460836188
:10E10000054B8460C46004614461C4610360286499
:10E11000286C38BDB0490200904A0200F7B5037977
:10E12000071C0E1C151C002B06D000230193009326
:10E130000A246B461C7109E001F040FA041C0C2013
:10E14000002C0CD101233B7100940194301CFFF78B
:10E15000F3FBEB6800906946281C9847201CFEBD25
:10E1600010B500211F22041C05F002FA0023E377FA
:10E1700010BD0000F0B5051CAC35041C686887B004
:10E18000A860A86800280BD0C368211C9847AB681A
:10E19000002B02D16968A960F3E71B69AB60F0E767
:10E1A000251CB0352868002804D0066905F010F950
:10E1B000301CF8E7231C58331978FC220A402860E9
:10E1C000023B9A7098711870201C0A30FFF7C8FF44
:10E1D000201C3430FFF7C4FF606E002804D00569AE
:10E1E00005F0F6F8281CF8E7251C606698352868C5
:10E1F000002804D0066905F0EBF8301CF8E7261C6F
:10E200002860A4363568002D05D02F69281C05F03C
:10E21000DFF83D1CF7E7356001AE291C301C0C22ED
:10E2200005F0A6F9231C321C6C3383CA83C3094B47
:10E23000E567A3670C22301C291C05F099F9231C03
:10E24000803385CE85C3044A9034281C1A6025602B
:10E2500007B0F0BD07DB0100F9DA010010B50023BB
:10E26000021C03701132431C00241C7001339342C2
:10E27000FAD1418210BD0000F0B589B0002603AC90
:10E28000051C8680311C201CFFF7E8FF211CA81DFF
:10E29000142205F04BF92F1C311C0C22201C05F018
:10E2A00067F91C37201C0EC80EC70F4B311C01909C
:10E2B000AB62EE62201CFFF7D1FF2B1C221C303317
:10E2C00083CA83C3019A311C81CA81C30C22201CDA
:10E2D00005F04EF92B1C443386CC86C3034B301C0F
:10E2E0002B656E6509B0F0BD23DB010031DB010059
:10E2F000F0B597B00593036807AC1B6804910393CE
:10E30000111C231C061CA1C9A1C3D26800250A92B6
:10E31000291C0C220CA811AF0B9505F029F9094B0B
:10E32000291C381C10950F93FFF798FF059D019746
:10E330000095301C0499221C0CAB039FB84717B002
:10E34000F0BDC04631DB010038B50025041C291C96
:10E3500020C0FFF783FF25766583A583E5832584A9
:10E36000201C38BD10B58AB0041C0021242201A84D
:10E3700005F0FEF801A8FFF7E7FFCA235B002222A1
:10E38000E01801A905F0D2F82368201C5B689847C3
:10E39000231C5F3300221A7090420DD0C0235B0013
:10E3A000E358934208D0054B934205D0C0235B004D
:10E3B000E018A188C36898470AB010BD0DDA0100C3
:10E3C00008B5FFF7CFFF08BD004870475C2B002061
:10E3D000004870475C2B0020F0B5434B434A08339C
:10E3E000061C0360C2600023A0221636011C428274
:10E3F00085B0041C0371836003748382321C353141
:10E400000023137001328A42FAD180258021C9018C
:10E41000AD00201CF3770A1C35843830009300F0DF
:10E4200097FF221C4032211C0392131C5F312A1CCF
:10E4300000251D7001338B42FAD1039B201CDD7730
:10E44000231C603319791A80FC220A409D701A71CE
:10E450001D72274B291CE36625670C22783005F0D6
:10E4600087F8231C88331D60271C224B0837FB6765
:10E470008437291C381C0C2205F07AF81E4B1F4AE1
:10E48000FB60231CA0333D611A601D4A5D60DA60A9
:10E490001C4A1D619A61DD61301CFFF761FE039823
:10E4A000FFF75EFE184B601CE360231CC4331D7035
:10E4B0005D709D70FF3000F031FA8C235B00E550F9
:10E4C0008C235B00E3185D61104A80235B00E250FF
:10E4D000231C0122FE3352425A86201C023B9D63BC
:10E4E000DD631D6405B0F0BD284B02002049020029
:10E4F000E048020007DB0100F9DA0100F048020001
:10E500000049020010490200084F0200884B020037
:10E5100038B50C220D1C0021041C05F029F800233D
:10E520002361024B2560201CE36038BD15DB010030
:10E53000314B70B50025041C0E1C036085710583EA
:10E54000291C0C221C3005F013F82C4BE562A36249
:10E55000231C30331D70201C231DDD87291C4430F3
:10E560000C2205F005F8264B65652365254BA6654D
:10E570002360231C5C331D705D709D70DD70261C54
:10E58000251C6035C036281C0021FFF767FE0023DC
:10E59000AB82EB821835B542F5D1A8225200A618FD
:10E5A000281C0021242204F0E3FF281C2435FFF757
:10E5B000CBFEB542F4D1A82300215B00E150B42288
:10E5C000231CFC3352009965D965196659666C6144
:10E5D000A150196759679967D967A3185C61C0236F
:10E5E0005B00E018FFF794FFCA225200A018FFF763
:10E5F000ABFE201C70BDC046304A020023DB010088
:10E6000031DB0100704A020070B5061CFC36F56B68
:10E61000002D1CD1B420800004F0F2FE0D4B041C30
:10E6200043600D4B856003610C4B4561C3610C4B2E
:10E63000056283620B4BC5620360211C3430FFF717
:10E6400077FFF6235B00E01801F0B6FBF463F06B94
:10E6500070BDC046E0490200D0490200504A0200A5
:10E66000604A0200984F0200264B70B50360264BAB
:10E6700000258360254B041C4361254B0571036213
:10E68000244B4571C362C560856145620563291CE1
:10E690003830FFF73DFF201C291C4C30FFF738FFB6
:10E6A000201C291C6030FFF733FF1B4B251C236007
:10E6B000231C7435C433002204C59D42FBD1B22112
:10E6C00049006618281C00210822083504F050FF74
:10E6D000B542F7D1C2235B00E218002308C595427A
:10E6E000FBD1C222C32152004900A3546318CB219D
:10E6F000490062180021198002339342FAD1201C8C
:10E7000070BDC046004A0200C0490200D049020064
:10E71000E0490200F0490200D84F020038B5041C5D
:10E72000FC34A36B002B07D1CC20400004F068FE22
:10E73000051CFFF799FFA563A06B38BD38B5041C15
:10E74000FC34A36B002B07D1CC20400004F058FE12
:10E75000051CFFF789FFA563A06B38BD70B5031CCE
:10E760000A1C70CA70C3C9680023C160036170BD10
:10E7700008B58130FF30FFF7F1FF08BD30B587B035
:10E78000051CFFF779FD041E24D12B1C5C33187087
:10E7900058709870D870A8235B00E850EA180123DD
:10E7A0005B4253609360D3601361B4225200A8505F
:10E7B000B4225200AA18211C53609360D3601361E5
:10E7C00001A8FFF7A5FEC0214900681801A9FFF7BD
:10E7D000C5FF00E00624201C07B030BD70B5041C46
:10E7E00086B0236B6363606B002807D0C368211C6D
:10E7F0009847636B002BF4D01B69F3E7206B00286C
:10E8000004D0056904F0E4FD281CF8E7E5682063FE
:10E8100020716071002D05D02E69281C04F0D8FDF0
:10E82000351CF7E7201CE5601830FFF7D6FA201CEE
:10E830002430FFF7F2FA291C01A8FFF769FE201C1B
:10E8400001A93830FFF78AFF291C01A8FFF760FEF5
:10E85000201C01A94C30FFF781FF291C01A8FFF7FC
:10E8600057FE201C01A96030FFF778FF281C06B076
:10E8700070BD000010B5054C201CFFF7ADFD201C3D
:10E880000349044A04F09DFD10BDC0465C2B0020E6
:10E8900055E00100002800204368426910B5D118F6
:10E8A000041C00F051F8E36A002B04D1A369002B8B
:10E8B00007D0984705E0A069002802D0211C1C3130
:10E8C000984710BD10B5041C00F046F80023A36162
:10E8D000E36210BD38B50D1C041C00F03DF8656105
:10E8E000206900F006FB4119201C00F02DF838BD0E
:10E8F00008B5C36A011C002B04D18369002B06D024
:10E90000984704E08069002801D01C31984708BD71
:10E9100008B503689B68984708BD0000084B10B510
:10E9200008330360002343608360C360041C00F06D
:10E93000E5FA0449206100F077FA201C10BDC046BA
:10E94000984B020011E9010008B50A1C031C011DC7
:10E95000006900F095FA08BD08B5011C0431006992
:10E9600000F0AAFA08BD000010B5044B041C0833DF
:10E970000360FFF7F1FF201C10BDC046984B02005A
:10E9800010B5041CFFF7F0FF201C04F021FD201C33
:10E9900010BD08B5012004F05FFD7047704708B551
:10E9A000FFF7FCFFFFF7F9FF02F0E8FE08BD0000EB
:10E9B000084B1B681818EFF30882904205D3064BEA
:10E9C0000C2201201A60404202E0024A1060181C2A
:10E9D0007047C04610280020E02E002008B500280F
:10E9E00000D1FEE700F0B0F9FBE70000FF230E289E
:10E9F00001D8024B1B5C58B27047C046B04B0200B6
:10EA000010B5FFF7F3FF041C601C04D1244825490E
:10EA10005F2200F075F9631EDBB2062B3DD8224B56
:10EA200001221968214B89001B68101C5B011943E6
:10EA3000022319431E4B1B681B041943631C984097
:10EA400003020C1C1C431B491B4B50425C50C2214F
:10EA500089005850A021C9005A501A60C046C046CB
:10EA600014498022D2009A58D007FAD4A122124821
:10EA7000D2008058114A12780A2A07D0092A03D8EE
:10EA80000A24A21AD04001E00A3A9040A022D20003
:10EA900000249C505A585A5000E0094810BDC04606
:10EAA000BF4B0200D64B02001C2800201428002077
:10EAB000BC2C002004050000007000401828002035
:10EAC000FFFF000038B5041C00F0A2FB051C00F09D
:10EAD0009FFB401BA042FAD338BD08B5FA239B0028
:10EAE0005843FFF7EFFF08BD08B500F091FBFA218E
:10EAF000890005F0A1F908BD30B587B00C1CFFF7FF
:10EB000075FF051C431C04D10D480E490F2200F06F
:10EB1000F7F86B461D70012C06D0002C04D0022C97
:10EB20000BD10021032501E0211C0025684600F0DF
:10EB300021FA6846291C00F017FA07B030BDC0461C
:10EB4000BF4B0200444C020038B50D1CFFF74EFFCE
:10EB5000041C431C04D109480949232200F0D0F8C1
:10EB60000122A023A240DB05141C002D02D0A1210C
:10EB7000C90000E003495C5038BDC046BF4B0200ED
:10EB8000444C02000C0500002EDF704751DF704737
:10EB900010DF704711DF704761DF704708B5081C50
:10EBA000111C00F05BFD08BDF0B5254B85B01B784E
:10EBB000002B42D0234E244F3268544254413A68CD
:10EBC000E4B255425541EDB2002C34D103A8FFF711
:10EBD000DDFF05280AD0002804D0211C221C00F0EB
:10EBE0003FFD04E003983368984700E00124002DBE
:10EBF0001ED1164B03A91B880B80154B1B68181CD4
:10EC00000193FFF7C9FF051E052D0BD0002805D085
:10EC100000210A1C00F024FD002504E001983A6858
:10EC2000904700E00125002CCED0002DCCD004E090
:10EC3000002C02D1C8E7002DDBD005B0F0BDC046E6
:10EC4000C02C0020C82C0020CC2C0020C22C00207E
:10EC5000C42C002038B5041C0720002913D08D07D0
:10EC600011D1094801600949201C0A80084A094954
:10EC70001360FFF78DFF002805D1074B01221620F6
:10EC80001A70FFF781FF38BDC42C0020C22C002071
:10EC9000D02C00209DEB0100C02C002008B5FFF710
:10ECA00079FF021C531E9A41014BD2B21A7008BD63
:10ECB000C02C0020002803D0024B1860002000E088
:10ECC0000E207047CC2C0020002803D0024B186087
:10ECD000002000E00E207047C82C002008B5074B2C
:10ECE0001B68002B07D09847002806D000210A1C7B
:10ECF00000F0B6FC01E0FFF757FF08BDD02C002064
:10ED000038B5051C0C1C131C291C0248221C00F0E1
:10ED100054F838BDB34C020038B50023C356041C68
:10ED20000D1C013304D1064806492422FFF7E8FFF1
:10ED30006368002D01D0E26800E02269136038BDED
:10ED4000E44C0200FC4C020000B599B068460F216B
:10ED500000F065F806A80F2100F061F80CA80F215B
:10ED600000F05DF812A80F2100F059F86846012163
:10ED7000FFF7D2FF06A80021FFF7CEFF0CA8002165
:10ED8000FFF7CAFF12A80121FFF7C6FF962000F087
:10ED9000CCF868460021FFF7BFFF06A80121FFF766
:10EDA000BBFF0CA80121FFF7B7FF12A80021FFF756
:10EDB000B3FF962000F0B9F8D8E70FB4012008B5EA
:10EDC00004F04AFB38B50023C356041C0D1C013364
:10EDD00004D1064806492422FFF792FF6368002DFC
:10EDE00001D0E26800E02269136038BDE44C020003
:10EDF000FC4C020070B50D1C041C161C00F09CF8A5
:10EE000001350BD0201C311CFFF7DCFF201C012139
:10EE100000F0B0F8201C002100F0A6F870BD08B585
:10EE20000022FFF7E7FF08BD38B50368041C1B6824
:10EE30000D1C984763681D6038BD38B50368041C15
:10EE4000DB68984763685A682368002A02D19B6888
:10EE5000984714E05B681568984763682D1A002D81
:10EE600008DC5A68916859601B68002BEAD050682A
:10EE70009847E7E75B68226818681369984738BDC8
:10EE8000F8B50D1C72B64B600A60416800234C68EF
:10EE9000002C05D02768D61B02D4231CA468F7E7F2
:10EEA000002B05D103684D601B69101C984700E0DA
:10EEB0009D60AC6062B6F8BD08B572B64268536832
:10EEC0008B420FD19B6853600268002B02D193687C
:10EED00098470CE018681369984708E09A688A42D6
:10EEE00003D0131C002BF9D101E08968996062B648
:10EEF00008BD08B503685B68984708BD00487047BF
:10EF0000B04D020008B50248FFF797FF08BDC046A4
:10EF1000B04D020038B5041C00F07AF9051C00F071
:10EF200077F9401BA042FAD338BD08B5FA239B00FD
:10EF30005843FFF7EFFF08BD01704B1C0AD00123B7
:10EF40008B404360044BC360044B0361044B43613B
:10EF5000044B83607047C046080500500C05005004
:10EF6000100500501405005008B5007840B200F0BC
:10EF70001FF808BD38B50023C356051C0C1C01330F
:10EF800004D1094809492A22FFF7BAFE002C01D012
:10EF9000012C07D10022AA56A023C132FF329200D1
:10EFA000DB05D45038BDC046E44C0200B84D020029
:10EFB00038B5041C0D1C431C04D10A480A491A2206
:10EFC000FFF79EFEA023A000DB05C018E023DB00B6
:10EFD000C2580C218A43C250C258AD001543C550D7
:10EFE00038BDC046E94C0200524E0200114A0021D1
:10EFF0001165114A114B1188114A9950114A117823
:10F00000002904D010490888A821C9005850517817
:10F01000002903D00C4948880C4958509278002A9E
:10F0200004D0094A9188A922D200995001221A607D
:10F030007047C046FCA000402028002000A00040EF
:10F040004C050000DC2C0020222800204405000094
:10F05000124AC1239B00D15810B5080603D51049A8
:10F06000096A002911D1D3585A0716D50C4BDA6812
:10F07000002A12D00024DC60084AA323DB00D05809
:10F08000C0B202F0CBFB211C00E00121054B186847
:10F09000002802D0044B1B68984710BD0020004098
:10F0A000FC200040E42C0020E02C002003681A1C07
:10F0B000FC32106A0128FAD100201062014AC9B25C
:10F0C000995070471C0500000368FC33186A01382A
:10F0D00043425841704700000A490B4A88680B4B6D
:10F0E000002808D0186801301860002088600220CD
:10F0F000D2218140505006491B6852581806190AFF
:10F1000010437047FC10014000100140EC2C00201F
:10F11000040500002F23C046C046C046C046C04676
:10F12000C046C046C046C046C046C046C046C046AF
:10F13000C046013B002BEED170470000F8B5184BDC
:10F140009A68002A0AD0174A02201168013111601A
:10F1500000229A601449D222824088505B6C124C83
:10F16000002B1CD00E4B8025D222920000266D026F
:10F170005E64A5500D4A1378B34210D00C4B1F6843
:10F18000FFF7AAFF3F1AB74209DC084BD2221E70D4
:10F19000C2239B009200E550A550FFF7B3FEF8BDD7
:10F1A000FC100140EC2C002000100140F12C00204C
:10F1B000E82C002038B5124C2278002A1FD1114BC0
:10F1C000A121C9005A500222D22191405A50C12196
:10F1D00091405A500C4AC421890055580B48284088
:10F1E000C0252D02284350508021C02089024000B4
:10F1F0000125115011601D60FFF78CFF257038BD8F
:10F20000F02C00200010014000E100E0FF00FFFFB3
:10F2100008B50B4B1B78002B01D1FFF7CBFFFFF795
:10F220005BFF064B044A04F0D7FE4904C00B0843B9
:10F2300008BDC046C046C04640420F000000000066
:10F24000F02C0020C046C0462F4B70B51B78061C22
:10F25000002B01D1FFF7AEFFFFF73EFF254B244AFD
:10F2600004F0BAFE4B04C00B002400251843CD0B5C
:10F270000023321CA4185D4180231B06984205D947
:10F28000002E03DB1C4A1D4BA4185D41610CEB03EF
:10F290000B43E2031A481B4980185941154B144A85
:10F2A00004F07AFE194D041C2B78194E002B02D065
:10F2B000336898421BD0FFF70FFF201A022802DCA8
:10F2C000FFF70AFF841C2102124BA822D200090A70
:10F2D00099502A783460002A09D101222A70D2215B
:10F2E0008022520289005A50C12189005A5070BDB3
:10F2F00040420F000000000000000000010000007C
:10F300003F420F0000000000F02C0020F12C0020F4
:10F31000E82C002000100140074B1A78002A0AD080
:10F32000064A8021C220490280001150D22080006C
:10F33000115000221A707047F12C0020001001407B
:10F34000024B00229A605A647047C046FC1001408C
:10F35000F7B5FA260093B60008AB041C1B78301CE6
:10F3600048431449171C019304F066FD85B2301C14
:10F37000258078430F4904F05FFD009B80B2A38095
:10F38000019B6080A371032D01D804232380228870
:10F390008023DB019A4200D92380032801D804226C
:10F3A000628062889A4202D98023DB016380201C3C
:10F3B000FEBDC0467102000070DF704771DF70470C
:10F3C00060DF704708B503F01DFC08BD08B5FFF706
:10F3D000EBFB002008BD0000F0B5041C8BB002F070
:10F3E0002BFE201C00F002FA0020FEF7F1FF03685C
:10F3F000061C1B6998473368051C9B69301C98479D
:10F40000336801905B6A301C9847031C20881038D1
:10F410000B2800D9C8E004F005FD0643C7C7C78222
:10F42000C7C7C789C7A7A688281C311C277D01F03C
:10F4300026F8607B2B1C58330090187801229043EB
:10F4400002221043A179023B9870187806220130FD
:10F45000187000986B46D97498761E829F74231C8E
:10F460001633E11D05A8099304F060F86846211CD5
:10F470000E3194351B30062204F058F86968A960F3
:10F48000A868002800D18FE0C36804A99847AB683A
:10F49000002B02D16A68AA60F2E71B69AB60EFE754
:10F4A0004449281CA78800F0EAFFA379301C009388
:10F4B00033681B6A9847F6214900061C062240184B
:10F4C000391C00F075FD338FBB4204D1736B301CC7
:10F4D00034309B6898472A1C56321378013BDBB2C4
:10F4E0001370002B05D12B1C58331A7802218A4344
:10F4F0001A70A035009B68686A4617829374A860EA
:10F50000A868002850D0C36804A99847AB68002BAE
:10F5100002D16968A960F3E71B69AB60F0E75B693A
:10F52000A088A11D002B3FD098473DE0A679002E72
:10F5300005D12B1C58331A7801218A431A706B6E3F
:10F54000002B31D01C4A002A2ED0AB66A86E0028B2
:10F550002AD0C368311C9847AB6E002B02D16A6E6B
:10F56000AA66F3E71B69F0E7A37B68465A07910F89
:10F57000DA08677B01700272E11D04A80622DE072B
:10F5800003F0D4FF6B461878197AF60F187659767F
:10F590009F75DE75231C0F3307932B1C8C33281C9F
:10F5A00080301B6804A998470198211C01F076FC63
:10F5B0000BB0F0BDFFFF00000DDA01001FB5A32363
:10F5C0008022DB00D205D3580D20DA0700D50820B1
:10F5D0001C4948221C4BFFF73DFB00280BD080B292
:10F5E000002808D1BFF34F8F184A194BDA60BFF3D8
:10F5F0004F8FC046FDE7002302A80293436001231A
:10F600000370FFF7DDFE002801D0072017E06846F1
:10F61000FFF7D4FE0028F8D16946FFF7CDFE002899
:10F62000F3D10C48FFF746FB80B2002807D10A4807
:10F63000FFF74AFB80B2002801D100F099F905B02C
:10F6400000BDC046F42C0020CDF301000400FA05F3
:10F6500000ED00E0D9F30100C5F3010070470000A0
:10F6600080B2002808D1BFF34F8F044A044BDA6000
:10F67000BFF34F8FC046FDE77047C0460400FA0550
:10F6800000ED00E010B50278002A09D10C78131CB7
:10F69000002C13D1428A4B8AD31A5A4253410CE0B0
:10F6A0000023012A0AD10A78012A07D10130013149
:10F6B000102203F02CFF43424341DBB2181C10BD63
:10F6C000F0B50E1C011C5F3191B001910B78071C45
:10F6D000051C5C37022B7BD107AC24220021201CA7
:10F6E00003F046FF08A80021FEF7B8FD00232376AB
:10F6F0006383A383E3832384CA235B00EB58079AC5
:10F70000934217D1CC235B00E81808A9FFF7BAFF92
:10F7100000280FD0CA2149006B181A7E510609D162
:10F720005A8B002A06D1DA69E1698A4202D11B8C20
:10F73000002B4AD0002E32D13B781822534360333D
:10F74000EB18DA8AD9235B00EA522A1C3032311CCA
:10F7500002A80092FEF782FD009802A9FFF792FF2F
:10F76000002814D1CC235B000098E918FFF78AFF2A
:10F77000002814D0311C201CFEF770FDA81D211C90
:10F78000FFF780FF01235840C0B2002807D0696C02
:10F79000281C4430002902D0134B002B1DD12422F9
:10F7A0000021201C03F0E4FE002108A8FEF756FD0E
:10F7B000CA2252000023A818211C22222376638328
:10F7C000A383E383238403F0B1FE019901230B702B
:10F7D0003B7801333B7011B0F0BDCA225200A9182A
:10F7E0002B6D9847DBE7C0460DDA01007FB5051C9D
:10F7F0000020FEF7EDFD0368041C1B699847236891
:10F80000201C1B6A9847061C041C28883436303894
:10F81000082800D99AE004F005FB05991384212DEE
:10F8200099486500EB88002B05D1291C0C31301C50
:10F8300001F0C8FC8AE0636B301C9B68984785E048
:10F84000EB88002B05D1291C0C31301C01F03CFD4C
:10F850007CE0301C0021FFF733FF77E0636B301C46
:10F860005B689847002871D0291C0C31301C01F0CE
:10F8700089FD6BE0AB886A461380AB895380EB89C6
:10F8800093802B8A12350295D380A368E360E068E9
:10F8900000285BD0C36869469847E368002B02D113
:10F8A000A268E260F3E71B69F0E7AB886A46138061
:10F8B000AB895380AB7B13712B8AD3806B8A143551
:10F8C000039513816369A361A06900283ED0C368D2
:10F8D00069469847A369002B02D16269A261F3E7E8
:10F8E0001B69F0E7AB886A461380AB895380AB7B1A
:10F8F00013712B8A12350295D380236A002B25D0F1
:10F90000164A002A22D06362606A00281ED0C368AB
:10F9100069469847636A002B01D1236AF3E71B69A4
:10F92000F1E7F622EB885200A018A988002B05D039
:10F9300085225200934206D1002205E02A1C0C3297
:10F9400000F049FB02E00B2200F032FB301C01F01A
:10F9500031FE301C01F0ACFD7FBDC0460DDA010068
:10F9600077DF704778DF70477ADF70477CDF70475A
:10F970001FB5002302AC039328232380C8235B0018
:10F980006380E38001A811230C4905220370FFF76F
:10F99000EDFF80B200280FD180208000FFF7E2FF4A
:10F9A00080B2002808D1201CFFF7DEFF80B20028BB
:10F9B00002D1FFF7D5FF80B204B010BDEA4E0200BD
:10F9C0007EDF704768DF704738B500200C1CFEF7FB
:10F9D000FFFC03685B6A98472378051C142B17D03B
:10F9E00002D8132B05D042E0152B16D0222B38D08D
:10F9F0003DE063686C6818889B78D9079A07C90F3F
:10FA0000DB06C9B2D20F5B0F002C30D0A0472EE02E
:10FA1000636818889978AB681FE0626891780B0971
:10FA20000907090F012902D0022908D010E0013B83
:10FA3000DBB20021022B0ED80E49C95C0BE0012B72
:10FA400008D0023B5842434105215B42194002E085
:10FA5000002100E004211088EB68002B07D09847B4
:10FA600005E0636818882B69002B00D098470020B8
:10FA700038BDC046F04E0200014B18787047C046B2
:10FA80003D2D0020F0B51C1C2D4B87B001921A783B
:10FA9000071C00200D1C824250D103F0E5F800281D
:10FAA00046D1002C0FD0222003A90394FFF78AFF30
:10FAB000002808D0082804D01138434258410430A7
:10FAC0003CE006203AE000236846037202A802F0F8
:10FAD00029F9011E2CD11B4E012433782540A34364
:10FAE0006A0027401D1C3D43019B02270720BD43A0
:10FAF000034015431C22BB4095431D43357003ADA5
:10FB00000C22281C03F034FD0F4B6846311C0522E3
:10FB1000113003932F7103F009FD0C48291C02F0EA
:10FB200073F9031E06D0042807D00620082B05D041
:10FB30000B2003E0024A147000E0072007B0F0BD7C
:10FB40003D2D002028280020C9F901003C2D00206F
:10FB500008B5084802F020FA0023984207D004288C
:10FB600004D00623082802D00B2300E00723181C2A
:10FB700008BDC0463C2D002073B500230193104BF7
:10FB800001AD1B780E1C291C2B7002F019FC041E01
:10FB900004D00B23052810D104230EE0281C311CAF
:10FBA00002F06CF9231C002807D0042804D0062397
:10FBB000082802D00B2300E00723181C76BDC0469E
:10FBC0003C2D002073B5114C0D1C061C211C6846F1
:10FBD000052203F0ABFC012D06D0022D13D12378B2
:10FBE00001221343AB4303E023780222AB43934348
:10FBF000301C69462370FFF7E3FE421E90410B2341
:10FC00004042034000E00223181C76BD2828002053
:10FC100008B5094B011C1A780923002A09D00748A6
:10FC200002F064F90023984203D006230E2800D185
:10FC30000323181C08BDC0463D2D00203C2D00208C
:10FC400008B502F00CFC08BD08B502230B708E232A
:10FC50000B714F234B710A1C7C238B7101320431D1
:10FC600002F0D4FB08BD93DF704708B50368002B92
:10FC700001D0081C984708BD08B50368002B01D0C7
:10FC8000081C984708BD10B50B78041C03704B8AFC
:10FC9000102243820131013003F048FC201C10BDCA
:10FCA00038B502680B68051C0C1C9A4201D0002074
:10FCB0002CE00379002B07D10B79002BF7D1C28AF6
:10FCC000CB8A9A42F3D10BE0012BF0D10B79012BB7
:10FCD000EDD105300531102203F019FC0028E6D1E2
:10FCE0002A7E217E7F231A400B409A42DFD16A8B05
:10FCF000638B9A42DBD1EA69E36900209A4205D11D
:10FD0000238C288CC01A43425841C0B238BD70B50C
:10FD1000051C0E1C00242819311CFFF7C1FF002808
:10FD200003D14C34E42CF6D100E0012070BD00007A
:10FD300007B501AB1980191C5A80FFF794FF1028F2
:10FD40000CD003D8002398420BD009E005231128DA
:10FD500007D0054A0423904203D001E0032300E0CA
:10FD60000B23181C0EBDC0460230000070B50025E4
:10FD7000041C291C20C0FEF771FA0C26201C291C2B
:10FD8000321C25766583A583E5832584243003F022
:10FD9000EFFB074B201C65632363291C321C3830A2
:10FDA00003F0E6FB034BA564201C636470BDC046F2
:10FDB0006BFC010079FC010010B5041CFFF7D6FFB5
:10FDC000201C4C30FFF7D2FF201C9830FFF7CEFFED
:10FDD000201C10BDF8B50D1C1E1C08C9041C08C051
:10FDE000171CFFF750FF2B7E3A1C23766B8B638327
:10FDF000AB8BA383EB8BE3832B8C2384231C2433D7
:10FE000023CA23C3FF68002227636263311C0833BF
:10FE1000A1C9A1C3F668201C6664A264F8BD70B5D0
:10FE20000E1C8AB00168041C038C0190684603AD67
:10FE300003911230111CAB80FFF725FF201C6E834D
:10FE400002952430236B01A998470AB070BD07B50D
:10FE5000031C6A460090117138305B6C6946984704
:10FE600007BDF0B5A7B00B790C1C086869460B718B
:10FE7000E38A00906846161CCB821022611D053073
:10FE800003F054FB237E6D462B76638B221C6B8321
:10FE9000A38B2432AB83E38BEB83238C2B8409ABC2
:10FEA000A1CAA1C3216B00250C910D950EAB0832A0
:10FEB00083CA83C3626C13A811921295FFF756FF91
:10FEC00013A9201C222203F031FB231C1CAA24337B
:10FED00083CA83C31F9A65632263083321AA83CA36
:10FEE00083C3249AA56462646846311CFFF7AFFFA0
:10FEF00027B0F0BD30B595B0041C01A8FFF736FF60
:10FF0000201C01A9FFF7CCFE0025A84218D00D9AAD
:10FF1000236B9A4214D1211C0AA824310C2203F02D
:10FF2000F6FAA8420CD1129B626C934208D1211CB4
:10FF300038310FA80C2203F0EAFA45424541EDB2F0
:10FF4000281C15B030BDF8B5061C0F1C002574190F
:10FF5000201C391CFFF7A4FE002804D0201CFFF74A
:10FF6000C9FF002803D04C35E42DF0D10024201C1B
:10FF7000F8BD10B5041CFFF7E6FF011E03D0201CDE
:10FF80000022FFF76EFF10BDF8B50F1C041C0325FF
:10FF9000238C261CBB4204D1201CFFF7ABFF00289A
:10FFA00004D0013D4C34002DF2D12E1C301CF8BD84
:10FFB00038B5041C151CFFF7E7FF011E03D0201CF9
:10FFC0002A1CFFF74EFF38BD08B5FFF7DDFF431EC3
:10FFD0009841C0B208BDF0B589B0061C0091171C4D
:10FFE000FFF7D2FF041E2AD000253A880623954247
:10FFF0000FD26B43FB185A88998803A801920135E8
:020000022000DC
:10000000FEF72CF9201C019903AAFFF708FFADB2F7
:10001000EBE7013A5343FF187988E28B013189B24B
:10002000914203D9301C211C002206E00098FFF702
:100030007FFE021E03D0301C211CFFF712FF09B007
:10004000F0BD70B5061C00243519281CFFF752FFBF
:10005000002803D14C34E42CF6D1051C281C70BDBB
:10006000F0B51E1C4B8B041C0233C88B99B09BB29D
:100070000D1C03920F8C01930290984207D2002727
:1000800005910697F368301C05A998472DE0201CC0
:10009000391CFFF799FF002801D0052725E0201C17
:1000A000FFF7CFFF041EF8D0381C0199029AFFF722
:1000B0003FFE071E19D1291C331C039A05A8FFF720
:1000C00089FE05A92222201C03F030FA231C2433C8
:1000D0000EAA23CA23C3119908332163676313AAA5
:1000E00023CA23C3169AA7646264381C19B0F0BDF2
:1000F00070DF704771DF704772DF704773DF7047E2
:1001000074DF704775DF704776DF704777DF7047C1
:1001100078DF704779DF70477ADF70477BDF7047A1
:100120007CDF70477DDF704786DF704787DF704771
:1001300088DF70471420704764207047A02080013A
:10014000704708B5FFF7F2FF421E90414042052379
:100150000340181C08BD10B5041CFFF7D1FF021C9A
:100160000320002A06D1201C5830037801218B433C
:100170000370101C10BD08B53B239A4200D0132316
:10018000081C191CFFF7C0FF002800D0032008BD81
:1001900008B50A1C0368011CFE31C98C1B6A98470C
:1001A00008BD08B5081CFFF7B9FF002800D00320E0
:1001B00008BD08B5081CFFF7AFFF002800D00320DA
:1001C00008BD08B5081C111CFFF79CFF421E90419A
:1001D000404203230340181C08BD13B50C1E012C1C
:1001E00007D86846111C0130062203F09FF9002051
:1001F00005E08B1E012B01D9032007E001206B468F
:1002000069461C70FFF774FF0028F5D116BD37B59D
:1002100068460D1C141CFFF76DFF032300280FD147
:10022000002D02D06A4613782B70002C07D0694647
:10023000201C0131062203F079F9002300E0231C81
:10024000181C3EBD08B5081C111CFFF76BFF421EB1
:100250009041404203230340181C08BD08B5081C08
:10026000FFF756FF421E9041404203230340181CF3
:1002700008BD08B5081CFFF74DFF421E90414042E3
:1002800003230340181C08BD08B5081CFFF73EFFF8
:100290000023984203D00523112800D00323181C03
:1002A00008BD0000024B0B60092313607047C04675
:1002B000F34E020008207047B830017000207047EC
:1002C000B93001700020704702207047B8300078C4
:1002D0007047B930007870470020704708B5031C9C
:1002E0001A1CF3326C3011789B6F984708BD10B51B
:1002F00018C96210E10701D58158CB58801898477A
:1003000010BD0000012008B5054A011C01F0C8FA23
:10031000421E904140420B230340181C08BDC046BA
:100320005D03020070B5061C0D1C0024331CBA339B
:100330001B78A3420ED96B79A3420BD90722111C5B
:1003400061432B68013458187118BB3103F0EEF883
:10035000E4B2EBE72C71002070BD000010B5041C66
:100360000020FEF735F803681B699847031CF33338
:100370001C7086235B00C050074A031CFC335A6183
:1003800086220021520099618318044AF4305A6190
:10039000FEF7A0FA10BDC046DD020200EF02020027
:1003A00037B5112301AD081C2B700C1C03F014FA97
:1003B000211C82B2281CFFF7B3FE421E904140422E
:1003C00003230340181C3EBDF8B50368061CDB6C14
:1003D0000C1C0D7998470323854226D822790023E7
:1003E000D9B2914208D20721594320680133095CF0
:1003F0000329F5D1042318E0371CBA3700253D70D6
:100400002379AB4210D9387807225043111C694335
:10041000236830185918BB3003F088F83B78013551
:1004200001333B70EDB2EBE70023181CF8BD10B5AB
:100430000C1CC97F01201F290DD800290AD0D37FA9
:10044000201CFFF759FE002804D1208CFFF760FE26
:10045000002800D0032010BD10B5041CFDF78AFE53
:1004600000280AD1231C0122FE335242DA84BA3416
:10047000463B18705870207000E0062010BDFE301A
:10048000C1847047FE30C08C70470000F0B593B057
:10049000039000200C1CFDF79BFF03685B6A9847E4
:1004A000FFF7EAFA06AB00280DD000221A7105AA60
:1004B000069208221A73181C0AAA9A60FFF7A8FB72
:1004C000002802D04FE018711873002323732371A2
:1004D0001F1C039BBA331B78BB4243D907237B43C2
:1004E00003990025CA18B832D278022A2DD106AE57
:1004F000337BAB4233D907207843039BAA001818FB
:10050000B368BB3099580292FFF79AFB002819D0C4
:10051000B168029BCA58237BA1689B005A50237B79
:10052000327B01332373531E9D4206D00F49B368BB
:1005300052189200D25802995A5006AB1A7B013ACF
:100540001A730CE00135EDB2D1E703992279CB188B
:100550002168BB33920053502379013323717B1CF4
:10056000DFB2B6E7002013B0F0BDC046FFFFFF3F8B
:1005700070B50B78021C9AB00D1C0220012B3BD0E9
:100580004988032B04D1A039181C89B21B4B03E006
:1005900020391B4B89B2032099422DD8A988194BC9
:1005A0000320994228D80AAB009312AB0293694604
:1005B0000023161C0B710B73B8363378002B05D053
:1005C000101C6946FFF762FF002815D104AC00211A
:1005D000201C182202F0CCFF2B7800A9237033785E
:1005E000201C23726B88E1602382AB886382FFF753
:1005F00085FD002800D003201AB070BD603F0000C8
:10060000E03F0000FF3F000070B598B008AB0093DA
:1006100010AB02936A460023051C13711373B9359E
:100620002B780C1C002B1FD104A82A780678A179FE
:10063000012319409E4313405A00331C0B430221EF
:100640008B431343037000AB4360238803816388AB
:100650004381A3888381FFF767FD031C5A1E9341E2
:1006600003205B42184004E06946FFF70FFF0028B3
:10067000DAD018B070BD0000F0B59DB0051C1F1C8D
:1006800068466B461A7001300622229E02AC02F0C8
:100690004DFF002F07D03B8823807B886380BB8879
:1006A000A380FB8806E032232380642363809623A3
:1006B000A7809B00E3800CAB04A9049314AB8B6070
:1006C0002F1C00230B710B73B9373B78002B17D10C
:1006D000387808A901230A7802271840BA439840BD
:1006E00004AF4F600243002E10D0B0799A431840F7
:1006F000338802430B8173880A704B81B38811E001
:10070000281CFFF7C3FE0028E2D02AE0281C323064
:1007100000789A431840AB8D02430B81EB8D0A7031
:100720004B812B8E6846221C8B81FFF701FD031C39
:100730000020834215D0082B12D005D80720042BA7
:100740000FD083420AD107E00520112B09D0064AB9
:10075000934201D0102B01D1042002E00B2000E0D5
:1007600006201DB0F0BDC0460232000090DF704789
:1007700095DF704797DF704793300078431E9841AC
:10078000C0B2704708B5081C111C1A1CFFF7F0FF17
:10079000031C0020834204D0113B584243410620F1
:1007A000C01A08BD30B585B001AC6380089B002538
:1007B000E380099B2170101C211C6570A5800393A8
:1007C000FFF7D8FFA84208D0112805D0044BC51860
:1007D00068424541063500E00525281C05B030BDBE
:1007E000FCCFFFFF08B5ED30FF30FFF739FC08BD47
:1007F00008B5ED30FF30FFF78AFA08BD08B5ED30D7
:10080000FF30FFF7B6FB08BDF0B587B001AB1A1C8F
:100810000C1CE0CCE0C2DA2464000219C968E0CB09
:10082000E0C200190023C160036107B0F0BD000001
:10083000F0B5051C91B006AE3435019500910396D4
:10084000041C311C101CE0C8E0C10BAD0295D76838
:10085000191C2A1C61C961C2DB6801980593636B8E
:100860005B689847051C0620002D3AD1039A231C8B
:10087000503343CA43C3029AE76525661C33C1CA95
:10088000C1C3059E201C1E6004331D6016991422EE
:100890003A3002F04BFE201C17991422643002F00B
:1008A00045FE009F231C91332787013B5D7001218A
:1008B000381C1D70D9702A1CFFF758FF071C281C14
:1008C000002F0ED0636B01989B689847112F07D0BB
:1008D000054B9F4202D00620072F02D1042000E0E2
:1008E000052011B0F0BDC0460230000070B5041CF8
:1008F000C06A86B02063206B00280BD0C368211C1F
:100900009847236B002B02D1E16A2163F3E71B694F
:100910002363F0E7E06A002804D0056902F058FD7F
:10092000281CF8E7E062A068002804D0056902F0FE
:100930004FFD281CF8E7A0606069002804D0056915
:1009400002F046FD281CF8E7256A6061002D05D0FD
:100950002E69281C02F03CFD351CF7E7201C25629F
:100960003430FDF789FC002829D1231C90331D70F9
:100970005D709D70DD70C2235B00E550E2180123BD
:100980005B4253609360D3601361CE225200A55046
:10099000CE225200A21801AE53609360D36013615F
:1009A000301C291C0C2202F0E3FDDA225200A318AD
:1009B00007CE07C3B534034BFF34E3602561002045
:1009C00006B070BD15DB010008B53430FDF7CAFC78
:1009D00008BDA0DF7047A4DF7047A5DF7047A6DF22
:1009E0007047A8DF7047A9DF7047000073B5151C7A
:1009F00002680E1C009394682B1C321C0149A0470E
:100A000076BDC046FFFF000037B5069C0020009071
:100A100020886D462880081C111C6A460193FFF748
:100A2000DCFF0323002802D12B882380031C181C21
:100A30003EBD000073B5151C06AA0E1C1178026895
:100A40000093019114692B1C321C0149A04776BD0B
:100A5000FFFF0000F8B5041C00200E1C151CFDF75C
:100A6000B7FC03681B69984723689F69FFF70AFD75
:100A7000321C011C2B1C201CB847F8BDF0B5D48BD0
:100A800042791E1C85B00023934218D2DD0045191F
:100A9000C4352D88A54210D11833DB00C3186C462D
:100AA0001A890E3402232380036803AD00949F68E3
:100AB0002B1CB847021E04D00DE00133E4E70420EC
:100AC00009E023880620022B05D12B88101C9A07E9
:100AD00001D00123337005B0F0BD000070B50D1CCE
:100AE00086B000210091161C0AA90BAA0988127869
:100AF0006C4621800193002A01D141790EE0281C27
:100B0000311C6A46FFF767FF00283ED16CE0D40035
:100B10000419C4342488B44203D001328A42F6D383
:100B200035E01C3292008018426830210132D27FB9
:100B30000A422CD002AC10210A40E3600AAB5142B9
:100B40004A41A360294B013200202680A270A08078
:100B50009D4207D1FDF73CFC03681B699847FFF7EE
:100B600091FC051C281C211CFFF739FF83B2181EBD
:100B70003AD0112B37D02EDC082B32D0281C311C58
:100B80006A46FFF728FF00282DD003202CE0281C00
:100B9000311C6A46FFF71FFF031E0C2BF5D00C28F3
:100BA0000AD80528F1D0072801D104201CE0002034
:100BB000834219D00B2017E01028F6D003D8082064
:100BC0000F2B11D0F6E70A4A9042DED0D0229201D4
:100BD0009042DAD0EEE7074B984204D0064B984299
:100BE000CCD1062000E0052006B070BDFFFF00005C
:100BF000023000000330000001340000F0B5061C94
:100C000099B0081C0F9102F027FA6C4646341290F6
:100C100012A90120221CFFF7DCFE002801D00320CE
:100C2000BEE023880F990E908B830F990E9A0B7D4F
:100C300093426AD97379132B01D90720B0E00F9A38
:100C40000E9992698B009C586269002A62D1638B6D
:100C5000002B5FD1631CDB7F022B5BD150E0616A0C
:100C6000AB005F5813A84F49FDF7F8FA381C13A9D9
:100C7000FEF708FD002803D07A697F8B0C920D9750
:100C80000135EDB2231C28331B78AB42E7D86169EC
:100C9000631CDA7FA31CDB7F0091618B0020019134
:100CA000218B0291217F03910C9904910D9905915B
:100CB000211C293109780691211C2A3109780791D4
:100CC00071791831C90071180431089112A902F024
:100CD00015FA0028A3D173791A1C1C32920018331C
:100CE000B218DB005460F3189B880C90E38373798F
:100CF00001337371231C28331B780C9A934211D84B
:100D00000E9B0133DBB20E938FE733790020013362
:100D1000337145E0201C02F09FF9002512900D95DB
:100D20000C95AFE7C2277F00F35D072B85D80C9A9F
:100D3000616A93005D5813A81A49FDF78FFA281CC1
:100D400013A9FEF79FFC0D90002824D1281C02F067
:100D500083F9298B6A696B8B0091297F129001912D
:100D6000F15D0D98C031490071180631029112A948
:100D700002F071FA002800D051E7F35D1A1C5832D6
:100D80009200C033B2185B005560F318DB88EB8328
:100D9000F35D0133F3550C9B0133DBB20C93A9E7F0
:100DA00019B0F0BD0129000038B5051CFDF716FD8E
:100DB000041E1DD1281C211C5022743002F0D8FBC7
:100DC000B2235B00E818211C202202F0D1FB281C72
:100DD000211C0822C43002F0CBFBC3235B00E818BF
:100DE000211C102202F0C4FBC2235B00EC5400E083
:100DF0000624201C38BD00000B68002B01D10360C5
:100E000002E0024B03600023436070470DDA0100EB
:100E100038B5041C0D1C6368A360A068002807D0C7
:100E2000C368291C9847A368002BF4D01B69F3E71B
:100E300038BD08B5C368984708BD30B5141C87B0E5
:100E400004290ED0052917D0032925D1051C3835D2
:100E500004A8291CFFF7D0FF049A002A18D1059B8B
:100E600014E0051C4C356846291CFFF7C5FF009BA4
:100E7000002B0DD1019B09E0051C603502A8291C3F
:100E8000FFF7BAFF029B002B02D1039BDA0703D5C1
:100E9000281C211CFFF7CDFF07B030BDF0B50B8833
:100EA0008FB0051C0C1C512B41D008D8012B24D02D
:100EB000502B00D002E1CE88427900230EE0522B65
:100EC0002ED0532B00D0F9E0CE8805213AE0D9008E
:100ED0006918C8310988B14203D001339342F6D36F
:100EE00009E01C339B00EB185A683021531CDB7F50
:100EF0000B4200D0CCE0022124E0C0680C7A2861CB
:100F00002869002800D1D9E0C368211C98472B69C3
:100F1000002B02D1E9682961F2E71B692B61EFE739
:100F2000888800210A1C0B1CFFF75DFDC6E08B7949
:100F3000012B05D0022B00D0C0E00E89072101E073
:100F40000E8906216B79002200920098984200D306
:100F5000B4E00098C200AA18C4321288B24212D17A
:100F6000062957D0072911D0022900D08BE0A38889
:100F70000AA90B804E80237A0B71A38BCB80E38B65
:100F800020340B8140E0009A0132DDE7002110227D
:100F900002A802F0EDFAA38869460B814E81E38B2B
:100FA000221C8B81238C223206AFCB8101920492CA
:100FB00000211022381C02F0DBFA02233B70009B58
:100FC0001C339B00EB185B681A1C2A321178002234
:100FD000914206D0181C4030DB6C02A998476B4642
:100FE0009A8AA088391CBA80FFF7FBFCBB88002BCB
:100FF00064D1A3880AA90B804E80A37A0B71E38B7E
:10100000CB80238C019C0B81281CCC601430FFF713
:10101000FFFE53E006AF00211022381C02F0A8FAB0
:10102000A3887E803B80A38B0AAE00211022301C57
:10103000BB8002F09DFA01233370009B1C339B00A0
:10104000ED186B681A1C293211780022914205D0E4
:10105000181C2C309B6B391C9847BA89B280BB890D
:10106000002B0BD1BB68002B08D0B27901210A43B9
:10107000B271BA883281FA88F3607281A088311C1B
:10108000FFF7AFFC1AE0281C321CFFF7D6FE15E074
:10109000A11CC87F0134E17F00020843990602D5F4
:1010A0000321840707D40421DC0604D5012108406C
:1010B000414241410331D28B281CE6E70FB0F0BD1D
:1010C00090DF704792DF704794DF704738B5026851
:1010D0000B68051C0C1C9A4201D000231AE0043056
:1010E0000431FEF7CFFA0028F7D02A7E217E7F2335
:1010F0001A400B409A42F0D16A8B638B9A42ECD132
:10110000EA69E3699A42E8D12A8C238CD31A5A42BD
:101110005341DBB20120584038BD036810B5021CB2
:10112000002B0BD0591E4068116099000023043336
:101130008B4205D0D4186468D450F8E701204042AF
:1011400010BD036810B5021C002B0BD0591E40685F
:1011500011609900002304338B4205D0D4186468D1
:10116000D450F8E70120404210BD000073B5051CC3
:101170002B686C69002B1CD0231C5F3303221A7070
:101180006E680F490422684602F0D0F918237343B1
:101190006033E318998ADB8A01AA11805380A08802
:1011A0006946FFF791FF002809D0281CFFF7B5FF1B
:1011B000DEE75F342378032B01D10123237073BD55
:1011C00000500200F0B5031C5C3300221A700A784C
:1011D00089B0041C0133042A00D904221A70A82300
:1011E00000205B00E050A82301225B005242E3187C
:1011F000271C5A609A60DA601A610D1C7437061C4D
:10120000231C5D331B789E4226D22B79002B0DD1F7
:10121000A8225200A358591C9B00E3185133FF33F6
:10122000A1505E60EA882B893A8010E0698803A8A3
:10123000FDF714F8EB88381C00932B89143803A9A8
:101240001422019302F072F9009B3B80019B7B808A
:10125000013608351837D3E7231CFC335B6D002BB0
:1012600004D0A8256D006019FFF780FF09B0F0BD1C
:1012700073B5051C2B686C69002B1CD01149231C0D
:1012800004225F331A7089186E68684602F04EF9BE
:1012900024235E43C036A619738B01AA1380013341
:1012A0005380A0886946FFF70FFF002809D0281C4B
:1012B000FFF747FFDEE75F342378042B01D10223D9
:1012C000237073BD00500200F0B50A78031C89B08A
:1012D000041C0F1C5E33042A00D904221A70B423A4
:1012E0005B000026E650B42301225B005242E31863
:1012F000201C5A609A60DA601A613D1CC030231CC1
:1013000007905E331B789E4230D22B79A16D002B63
:1013100016D1B4225200A358581C9B00E31869331D
:10132000FF33A0505E600A2373432889FB189B7922
:1013300000906889A2880190079801F0B8FF10E03A
:101340000A2070436B88A2880593C3199B7968466D
:1013500003702889059B019068890290079801F025
:10136000DCFF079801360A352430C8E7231CFC331C
:10137000DB6E002B04D0B42149006018FFF778FF22
:1013800009B0F0BD7FB5031C5F331B78051C032B30
:1013900026D1A82252008618264B0A689A421BD1F1
:1013A00089681022684602F0C1F8301CFFF7B5FECC
:1013B0001824444360342D1901232B70E818694622
:1013C000102202F0B3F8AB7B6A7B1B0213436B82E3
:1013D000301CFFF7CBFE2CE0301CFFF79EFE28E010
:1013E000042B26D1B4235B00C6180A68124B9A421C
:1013F0001CD1896810220331684602F097F8301C2E
:10140000FFF79FFE24244443C0342C190123237189
:10141000601D6946102202F089F8A37C627C1B02E1
:101420001343E382301CFFF723FF02E0301CFFF779
:1014300088FE7FBD01001000010013000B68002B27
:1014400001D1036002E0024B036000234360704758
:101450000DDA010008B5C368984708BD73B58180EF
:101460000226051C5E304670002401AE0470081C84
:10147000311C32807380FFF725FE10280ED005D86E
:10148000A04210D00624082809D005E00524112820
:1014900005D0064A904201D00B2400E00424281C09
:1014A000211CFEF70DF9201C76BDC046023000005D
:1014B000F0B5041C8BB0221C5F3201921378012B13
:1014C00072D1251C201C5C355D302B78027893424C
:1014D00051D20021A71D05A8FCF7C0FE381C05A9A4
:1014E000FEF7D0F8002809D12E7818217143603119
:1014F0006118381CFEF7C6F8002829D0E369002BD4
:1015000016D02A4B002B13D0002105A8FCF7A6FE0D
:10151000201C303005A9FEF7B5F8002808D02B783C
:1015200018215943201C603161181C30A26A904771
:10153000019B1E78012E1AD1211C03A84431FFF70C
:101540007DFF039A002A06D1049B334203D10EE0AB
:1015500001362E70AFE72B78182253436033E3181F
:101560009A8AA188DB8A201CFFF778FFA3E72B78F3
:1015700001332B709FE7002A16D0002B14D01822BD
:10158000013B53436033E318D98A094B00220270B0
:101590002A70994203D1201CFCF7E4FE04E0A088E5
:1015A000FFF78EFD0028F6D10BB0F0BD0DDA01007B
:1015B000FFFF0000F0B5041C97B05F300390037884
:1015C000022B00D0D6E0CA2252000021A7180DA895
:1015D000242201F0CDFF0DA8FCF7B6FE381C0DA9A2
:1015E000FFF774FD00283AD0231C5E331B78002BD4
:1015F00035D0231CDA331A88D923013A5B00261C24
:10160000E2520021303608A8FCF728FE301C08A959
:10161000FEF738F8051E14D1CC235B00301CE1180E
:10162000FEF730F800281AD0291C0DA8FCF716FE8A
:10163000A01D0DA9FEF726F801235840C0B20028CE
:101640000DD0251C443504A8291CFFF7F7FE04988B
:10165000002800D084E0059BDA0700D580E0002553
:10166000231C5E3301931E78B5424DD20398037854
:10167000022B00D07EE0721E2423954208D1191C53
:101680006943C0316118381C222201F04FFF3BE052
:101690006A1C1E1C53436E43C033E3185B8BC03679
:1016A000013BA619221C3032F383002108A80192C5
:1016B000FCF7D4FD019808A9FDF7E4FF029000288B
:1016C00012D1311D0198FDF7DDFF002819D00299D4
:1016D0000DA8FCF7C3FDA01D0DA9FDF7D3FF012345
:1016E0005840C0B200280CD0231C443306A8191C53
:1016F0000193FFF7A3FE0698002836D1079BDA076F
:1017000033D40135EDB2ABE703980378022B31D126
:10171000002E08D02423013E5E43C036A619B38BA9
:1017200001339BB200E0144B221C5C32127818216A
:101730004A436032A218D28A019800210170934274
:101740000AD20DA90B804A80A088FFF7BBFC0028B5
:1017500010D0201C0B2100E0201CFDF7B1FF09E098
:10176000281C391CFFF776FE79E70198311CFFF73A
:1017700071FEC6E717B0F0BDFFFF000008B5FBF72C
:1017800091FCFBF7DDFCFCE701207047054B1A1CC0
:101790004032107841331B784030C01A3F23184044
:1017A0007047C0463E2D0020084A111C101C4131D4
:1017B00040300B780078984205D0D05C01333F224E
:1017C00013400B7001E00120404270473E2D002085
:1017D000064B1A1C191C413240311278097891428B
:1017E00001D0985C01E00120404270473E2D00206E
:1017F00007B5034B68460093FDF758FC0EBDC04685
:101800000020004007B5044B00936846FDF75CFCE0
:101810000028FAD007BDC0460020004030B5074B75
:101820003F211A1C40321478651C29401D1C41358B
:101830002D788D4201D01855117030BD3E2D0020FD
:1018400000234360FA239B008360024B083303604C
:101850007047C0460850020008B5034801F0A4FDD7
:101860000248FFF7EDFF08BD3E2D0020802D00202F
:101870002EDF704732DF704733DF70474CDF704731
:1018800008B5054B01201A7850401870034B1B68AF
:10189000002B00D0984708BD942D0020902D0020EB
:1018A00038B50C4B051C15200C1C1A60FFF7E2FF25
:1018B00000280ED11520291CFFF7DEFF002808D1D3
:1018C0001520FFF7D5FF002803D10320211CFFF7C7
:1018D000D5FF38BD902D00207FDF704782DF704735
:1018E000A7DF7047A9DF7047AADF70470020704765
:1018F000002070470020704700207047002070478C
:101900000020704700207047F0B58BB06C460E2366
:10191000E382039001914B780C225343244A1634FE
:10192000D318188906A9221C0323FFF7DDFF00281E
:101930003BD1019B18275B781E4D5F4300933B1CF6
:1019400026880833EB18181C06A9321C029301F0F4
:10195000DEFD2C1C00280DD1009A0C235343144AA1
:10196000D318997A022319401FD1E819182201F0DF
:10197000FFFD1AE0ED196B68002B01D00E4F00E05F
:101980000E4F009B18256B430322E250E3185E6064
:1019900006A9321C029801F0C9FD019B03985978F1
:1019A0002A1C694338236118B84700200BB0F0BDEA
:1019B000982D0020F82D00207D2E0200FD2D020024
:1019C00008B5FFF7A1FF08BDF7B5041C0F1C6A4658
:1019D0008178224801F0EAF900283DD162780C2193
:1019E0004A431F4B9A18927A530605D4022F03D00C
:1019F000012F03D11B4D02E01B4D00E01B4DA178D0
:101A00001C2671431A4B68465918321C0023A847FC
:101A1000002813D1022F1FD063780C225343104AA1
:101A20004021D3189A7A68468A439A726178114B9A
:101A30007143321C5918331CA84701E0022F0BD008
:101A400023780C2253430C4A6846D3189A7A0B4BDE
:101A50009200D358211C9847F7BDC046202E002085
:101A6000982D0020FD2D02007D2E0200ED180200B1
:101A7000A42D0020DC2D0020102E0020405002005C
:101A8000F7B50190437818215943264A264F50183C
:101A90004468002C0FD00C2058433818807A45B287
:101AA000002D07DA450605D40E1C0836A5B2961996
:101AB0008C5802E00024251C261C0C225343FB18E2
:101AC0001889311C2A1C231CFFF70CFF0B280BD193
