:020000021000EC
:10C000000080002011E001004DE001004FE0010040
:10C010000000000000000000000000000000000020
:10C0200000000000000000000000000051E00100DE
:10C03000000000000000000053E0010055E0010096
:10C0400057E0010057E0010011DD010057E0010059
:10C0500057E001000000000057E0010057E0010038
:10C0600057E0010057E001009921020057E001006C
:10C0700057E0010057E0010057E0010057E00100E0
:10C0800057E00100FDDD010057E0010057E001002D
:10C0900057E0010005070200A5DA010057E00100A2
:10C0A00057E0010057E00100000000000000000020
:10C0B0000000000000000000000000000000000080
:10C0C00010B5064C2378002B07D1054B002B02D06E
:10C0D000044800E000BF0123237010BDA428002005
:10C0E00000000000F042020008B5084B002B03D00E
:10C0F0000748084900E000BF07480368002B03D049
:10C10000064B002B00D0984708BDC0460000000039
:10C11000F0420200A8280020A4280020000000000F
:10C12000164B002B00D1144B9D46402292029A1AC6
:10C13000924600218B460F461348144A121A06F005
:10C140000FFB0F4B002B00D098470E4B002B00D05D
:10C1500098470020002104000D000D48002802D05F
:10C160000C4800E000BF06F085FA2000290001F02D
:10C1700033FD06F069FAC046000008000080002088
:10C180000000000000000000A4280020D42D0020A2
:10C19000000000000000000008B50368002B01D07B
:10C1A000081C984708BD08B50368002B01D0081C7F
:10C1B000984708BD08B50368002B01D0081C9847B4
:10C1C00008BD08B50368002B01D0081C984708BDBE
:10C1D00008B50368002B01D0081C984708BD000073
:10C1E00010B5054B041C036001F084FC201C01F019
:10C1F000D3FC201C10BDC046203D020010B5041C1D
:10C20000FFF7EEFF201C06F0E9F9201C10BD00002E
:10C21000F0B5124A4388D48B87B09C421CD1104899
:10C2200000F030FC6D46036801AE02355F68211CEA
:10C23000321C2B1CB84700242B88A3420CD9315D3B
:10C240000D20012903D0022903D10D20002101F086
:10C2500095FF0134A4B2EFE707B0F0BD2829002014
:10C26000F028002070B51D1CC37F041C5E1901203E
:10C270001D2E13DC2818E054E37F0133DBB2E37793
:10C28000E154E07F111C0130C0B2E0772A1C201875
:10C2900006F044FAE37F0020ED18E57770BD00005A
:10C2A000F7B58E1EF6B2051C089C132E22D801206D
:10C2B000071CB7403E1C284F3E421BD0E97FCE18DA
:10C2C00069181F2E46DC601C814203D90878C854C7
:10C2D0000139F8E70021C8B2984204D2565C6018D0
:10C2E00086700131F7E722789A182270EA7F9B184E
:10C2F000EB770FE02078061C013EF6B20090B342C7
:10C300000AD10021C8B2984204D2555C60188570E9
:10C310000131F7E700201DE0E87F801BC01884464C
:10C32000674601201F2F15DCE87F8446B01C2018CB
:10C3300001906746E819019F874204D2A0198078CE
:10C3400020700134F0E70098C7436744EF77281C5A
:10C35000FFF788FFFEBDC0463F000800F7B5C67F67
:10C360000024B4420CD205196F788F4203D1009596
:10C37000FFF796FF06E0055D01356419E4B2F0E7CA
:10C38000FFF770FFFEBD70B5061C8AB00A360C1CA4
:10C390002222311C051C01A806F0C0F96A460121C1
:10C3A000033201A80B1C1470FFF7D8FF041E0DD137
:10C3B0002B682A1C34329B6F281C01A99847041E45
:10C3C00004D1301C01A9222206F0A8F9201C0AB0D1
:10C3D00070BD70B50123041C0370261CC018031C1B
:10C3E000113600251D700133B342FAD10123658255
:10C3F0002370AA4208D10B1C10338B4207D0013B9B
:10C400001A7802700130F8E7102206F090F9A37B49
:10C41000627B1B021343201C638270BD10B500F0C9
:10C4200021FB011C08C9041CDB6F9847002804D1BC
:10C430005834237801221343237010BD08B50248F5
:10C44000FFF7ECFF08BDC046F028002008B500F05B
:10C45000F9FA806D08BDF7B51C1C08AB0E1C151C45
:10C460001F7800F00FFB03680097DF68311C2A1C5F
:10C47000231CB847FEBD0000F7B55148FFF7E6FFA3
:10C48000810700D49AE001F049FE4E4B80B21A6851
:10C49000FF24801A18604C4B18700A2001F0DCFD54
:10C4A00000210B1C494A009400F06AFA484F2040D2
:10C4B00038600C2001F0D0FD00210B1C434A009491
:10C4C00000F05EFA434B204018600B2001F0C4FDE1
:10C4D00000210B1C3D4A009400F052FA3E4E2040D1
:10C4E0003060082001F0B8FD00210B1C374A009491
:10C4F00000F046FA394D204028600E2001F0ACFDD6
:10C5000000210B1C0094314A00F03AFA344B0440ED
:10C510001C60344A2F4C1268247839780A207F78BE
:10C52000A446012A15DC42432F48815482185770D3
:10C53000284F94707978D170317811717178517178
:10C54000297891716978D171197811725B78537279
:10C5500028E0941E6043254C215420184770614602
:10C560001C4F81707978C170317801717178417197
:10C57000297881716978C171197801725B78437289
:10C58000032A0FD11A4E0025F18B174A1423009568
:10C590000B48FFF760FFF18B09480095221C14231C
:10C5A000FFF759FF0F4A134B116801310B4004D5B7
:10C5B0000421013B49420B4301331360F7BDC046E0
:10C5C000F0280020E828002024290020FF03000094
:10C5D000EC280020FC2900207C290020E4280020F1
:10C5E000E0280020F8280020FC2800201029002046
:10C5F0008029002003000080F0B591B002AD07ACA7
:10C600000021281C0C2206F0ABF82A1C231C43CA6C
:10C6100043C3544B0027211C5348E360276100F0BB
:10C62000BAF9391C0C22281C06F09AF84E4800F082
:10C6300019FA4E4E01900296231C07CD07C3142011
:10C6400005F0B8FF0796031C221C62CA62C3484B60
:10C650000761C360019B444EA4331A68BA4200D0FC
:10C6600002611860301C00F00DFA00210C220190CC
:10C67000201C06F075F8142005F09CFF3D4A211C93
:10C680000792021CA8C9A8C23B4A019DC2600022B1
:10C690000261AA69002A01D1A86102E0019F02613A
:10C6A000B861301C00F0DEF90621FFF76CFE301C8B
:10C6B00000F0D8F9071C0A37391C2222051C201C5F
:10C6C00006F02CF80821201C2C4A0B1CFFF746FE14
:10C6D00000280DD12B682A1C34329B6F281C211C8A
:10C6E0009847002804D1381C211C222206F016F895
:10C6F000301C00F0B7F900230371301C00F0C2F9C0
:10C7000003681F491B689847301C00F0ABF90368A9
:10C710001A495B6B9847301C00F0A4F903680421A8
:10C720005B6C9847301C00F09DF90368041C9B6803
:10C730009847A023984204D92368201C9B689847F7
:10C74000031CFA2080000F49584306F06DFCE0807E
:10C75000301C00F087F900230381301CFFF75EFED8
:10C7600011B0F0BDB5C10100F02800203DC40100AA
:10C77000D1C1010011C20100C3C10100483A020049
:10C78000C02800207102000010B5FFF735FF0D4BE7
:10C79000002401210D201C6001F0C8FC01F0BEFC4A
:10C7A000094B0A4A80B2186001231370084A0948ED
:10C7B0001370094BFA218361C462490101F0A2F9A7
:10C7C00010BDC046F8280020E8280020FC280020E2
:10C7D00010290020002A002079C4010010B5054C62
:10C7E000201CFFF733FE830702D4201C00F05AF907
:10C7F00010BDC046F0280020F0B5002187B04F489A
:10C8000000F0E0F84E4D0024281C01F09FF94D4B3C
:10C8100001AEAC61EC62281C4B494C4A2B6005F020
:10C82000F5FE221C301C4A49FFF7D3FD494D3378F1
:10C830006F1C2B70738A69466B82381C053110227D
:10C8400005F06CFF444B14226B6101236B830823BA
:10C850002A83FB770122AB1CDA772B1C28331C7050
:10C860002B1C29330C271C70281C2B1C2A77EC83CB
:10C870002A33211C3A1C2C306C621C7005F070FFAE
:10C88000364B281CAB63EC63211C3A1C403005F08E
:10C8900067FF334A2C65EA64301C221C3149FFF7DC
:10C8A00098FD314D337869462B70738A05316B8260
:10C8B00010222E4805F032FF2D4B01226B6114230C
:10C8C0002B836A830123294A2B771023D377AB1C50
:10C8D0000122DA772B1C28331C702B1C29331C7087
:10C8E000281C2B1CEC832A33211C3A1C2C306C6234
:10C8F0001C7005F035FF194B281CAB63EC63211C41
:10C900003A1C403005F02CFF154A2C65EA64301CB7
:10C91000221C1849FFF75DFD174D337869462B70CF
:10C92000738A681C6B820531102205F0F7FE022322
:10C930002B75124BAC83AB6107B0F0BDF028002023
:10C94000002A0020203D0200E1C101000028002053
:10C95000513A020028290020D4290020A7C1010053
:10C9600099C10100383A0200802900208129002065
:10C97000E8290020283A0200C028002004280020CE
:10C9800038B5049D1C1C401AEB1A5843511A06F086
:10C9900099FB001938BDF0B5021C406812680B1CE9
:10C9A000016889B00C68019203AA151C1E1CA446DC
:10C9B00092CE92C5DB680199D36000231361E047F2
:10C9C00009B0F0BD38B50023041C016043609942F2
:10C9D0000AD1064D2B68002B02D100F051FD2860D2
:10C9E00022689300ED586560201C38BD3C2A002069
:10C9F000F8B500280DD1104C2668002E07D108206C
:10CA000005F0D8FD311C051CFFF7DCFF2560206810
:10CA100010E00A4D01272E68094C3E4009D1281C20
:10CA200005F0E2FD002804D0281C2760666005F0B0
:10CA3000EAFD201CF8BDC046302A0020402A002014
:10CA4000342A0020436810B5041C002B02D104488E
:10CA500001F0B7F8606803681B69984710BDC046CD
:10CA6000613A0200436810B5041C002B02D104484F
:10CA700001F0A7F8606803681B69984710BDC046BD
:10CA8000613A0200436810B5041C002B02D104482F
:10CA900001F097F8606803689B69984710BDC0462D
:10CAA000613A0200436810B5041C002B02D104480F
:10CAB00001F087F860680368DB6A984710BDC046DC
:10CAC000613A020070470220704702207047002040
:10CAD000704700207047000000487047FFFF0000CB
:10CAE00002207047022070470220704702207047E2
:10CAF00002207047022070470220704702207047D2
:10CB000002207047022070470220704702207047C1
:10CB100002207047002313607047002070470220F6
:10CB200070470220704702207047022070470220A1
:10CB30007047002070470020704700207047022097
:10CB40007047022070474160704781607047C16044
:10CB500070470161704741617047022070470220B1
:10CB60007047022070470220704702207047022061
:10CB70007047022070470020704702207047002055
:10CB80007047704790DF704766DF704748DF704737
:10CB90005F300078431E9841C0B2704700797047FB
:10CBA0000C3070470C30704708B5FFF7EFFF08BD39
:10CBB00008B50368002B01D0081C984708BD08B5CC
:10CBC0000368002B01D0081C984708BD08B503680E
:10CBD000002B01D0081C984708BD08B50368002B3E
:10CBE00001D0081C984708BD08B50368002B01D088
:10CBF000081C984708BD000010B5034B041C0360D7
:10CC0000FFF7EEFA201C10BD383D020010B5041CE1
:10CC1000FFF7F2FF201C05F0E1FC201C10BD08B559
:10CC2000081C111C1A1C029B01F0E8FE08BD08B587
:10CC3000081C111C01F05CFF08BD08B5081C111C84
:10CC400001F07CFF08BD08B501F03EFF08BDF0B55E
:10CC500095B008230C1C69460B7104AA0B73684637
:10CC60000CAB0293009201F08FFF0023061C051EFF
:10CC70002CD169460B79AB4211D96379AB4201D80B
:10CC8000257124E00722101C68432368009F1818B0
:10CC9000AB00D959013505F041FDEDB2E9E7257149
:10CCA00000256B461A7B2379EB18AA420ED96279CC
:10CCB00093420BDA0721029F4B43AA00D059226806
:10CCC0000135D11801F07CFFEDB2EAE72371301C89
:10CCD00015B0F0BD7FB50379002B0FD0164E174C61
:10CCE0003378201C002B25D102AD281CFFF74CFF08
:10CCF000002819D16B88592B16D101E0104819E092
:10CD00002B78AA88D91F012904D80092201C202141
:10CD10000C4A03E000920C4A201C202105F022FE60
:10CD200001233370201C05E0201C0849202205F057
:10CD300052FEF7E704B070BD442A0020882B002083
:10CD4000703C02008A3C0200A73C0200CC3C02007E
:10CD500038B50379041C0920002B28D000F082FE8E
:10CD6000031C0520002B22D1251CFC35A86B0028B4
:10CD700003D1286C002806D10AE003681B6A984793
:10CD80000028F6D013E003689B6A984700280ED16C
:10CD9000E86B002804D00368DB6A9847002806D1B6
:10CDA000201C0C3002F014FB002800D1207138BD8B
:10CDB000F7B50093036801915B68041C171C984742
:10CDC000051C0620002D3BD11C203A1C00194ACA24
:10CDD0004AC0FF68009A231CA762E562443383CAF5
:10CDE00083C3009B0899DB68142223656565A01D39
:10CDF00005F094FC201C09991422303005F08EFCBB
:10CE0000019E231C5D33A680013B5D700121301C17
:10CE10001D70D9702A1CFFF7B5FE061C281C002EB9
:10CE20000ED02368201C9B689847112E07D0054B15
:10CE30009E4202D00620072E02D1042000E00520E9
:10CE4000FEBDC0460230000038B5041CE369236211
:10CE5000206A002807D0C368211C9847236A002B4A
:10CE6000F4D01B69F3E7E069002804D0056905F0F8
:10CE7000B5FB281CF8E7E0616060A060E06020611D
:10CE8000606138BD08B5FFF7DFFF002800D006203D
:10CE900008BD38B5041C0068002804D0056905F0F9
:10CEA0009DFB281CF8E7206038BD000010B5034A40
:10CEB000041C04C0FFF7EDFF201C10BD803B0200E6
:10CEC00010B5041CFFF7F2FF201C05F087FB201CA7
:10CED00010BD38B5041C0068002804D0056905F0B1
:10CEE0007DFB281CF8E7206038BD000010B5034A20
:10CEF000041C04C0FFF7EDFF201C10BD903B020096
:10CF000010B5041CFFF7F2FF201C05F067FB201C86
:10CF100010BD000038B5074B041C036040680028B2
:10CF200004D0056905F05AFB281CF8E76060201C56
:10CF300038BDC046A03B020010B5041CFFF7EAFF55
:10CF4000201C05F04BFB201C10BD000038B5074B22
:10CF5000041C03604068002804D0056905F03EFB0E
:10CF6000281CF8E76060201C38BDC046703B0200FA
:10CF700010B5041CFFF7EAFF201C05F02FFB201C56
:10CF800010BD000038B5074B041C03604068002842
:10CF900004D0056905F022FB281CF8E76060201C1E
:10CFA00038BDC046103C020010B5041CFFF7EAFF74
:10CFB000201C05F013FB201C10BD000038B5074BEA
:10CFC000041C03604068002804D0056905F006FBD6
:10CFD000281CF8E76060201C38BDC046003C0200F9
:10CFE00010B5041CFFF7EAFF201C05F0F7FA201C1F
:10CFF00010BD000038B5074B041C036040680028D2
:10D0000004D0056905F0EAFA281CF8E76060201CE6
:10D0100038BDC046C03A020010B5041CFFF7EAFF55
:10D02000201C05F0DBFA201C10BD000038B5074BB2
:10D03000041C03604068002804D0056905F0CEFA9E
:10D04000281CF8E76060201C38BDC046903A0200FA
:10D0500010B5041CFFF7EAFF201C05F0BFFA201CE6
:10D0600010BD000038B5074B041C03604068002861
:10D0700004D0056905F0B2FA281CF8E76060201CAE
:10D0800038BDC046A03A020010B5041CFFF7EAFF05
:10D09000201C05F0A3FA201C10BD000038B5074B7A
:10D0A000041C03604068002804D0056905F096FA66
:10D0B000281CF8E76060201C38BDC046B03A02006A
:10D0C00010B5041CFFF7EAFF201C05F087FA201CAE
:10D0D00010BD000038B5074B041C036040680028F1
:10D0E00004D0056905F07AFA281CF8E76060201C76
:10D0F00038BDC046603B020010B5041CFFF7EAFFD4
:10D10000201C05F06BFA201C10BD00000F4B10B561
:10D11000083303600E4B041CC3600130FF30FFF77F
:10D120006BFD0C4B201CE360B830FFF763FF201C45
:10D13000AC30FFF7B3FF201CA030FFF793FF201C9B
:10D140006C30FFF773FF201C10BDC046D83C0200B6
:10D15000C83E0200D03A020010B5041CFFF7D6FF0B
:10D16000201C05F03BFA201C10BD000038B5051C42
:10D17000FC352C6C002C0DD1242005F01BFA064B3D
:10D1800044608361054B8460C46004614461C46190
:10D1900003602864286C38BD603B0200403C0200FC
:10D1A00038B5051CFC352C6C002C0DD1242005F065
:10D1B00001FA064B44608361054B8460C4600461DE
:10D1C0004461C46103602864286C38BD603B020080
:10D1D000403C0200F7B50379071C0E1C151C002B00
:10D1E00006D00023019300930A246B461C7109E0CA
:10D1F00001F0A0F9041C0C20002C0CD101233B7180
:10D2000000940194301CFFF7F3FBEB680090694633
:10D21000281C9847201CFEBD10B500211F22041CAD
:10D2200005F09EFA0023E37710BD0000F0B5051C61
:10D23000AC35041C686887B0A860A86800280BD0CB
:10D24000C368211C9847AB68002B02D16968A960AC
:10D25000F3E71B69AB60F0E7251CB03528680028B0
:10D2600004D0066905F0BAF9301CF8E7231C5833DE
:10D270001978FC220A402860023B9A709871187055
:10D28000201C0A30FFF7C8FF201C3430FFF7C4FF12
:10D29000606E002804D0056905F0A0F9281CF8E7A5
:10D2A000251C606698352868002804D0066905F0BA
:10D2B00095F9301CF8E7261C2860A4363568002D47
:10D2C00005D02F69281C05F089F93D1CF7E735606A
:10D2D00001AE291C301C0C2205F042FA231C321C22
:10D2E0006C3383CA83C3094BE567A3670C22301CE8
:10D2F000291C05F035FA231C803385CE85C3044AEA
:10D300009034281C1A60256007B0F0BDBFCB010027
:10D31000B1CB010010B50023021C03701132431C75
:10D3200000241C7001339342FAD1418210BD0000E9
:10D33000F0B589B0002603AC051C8680311C201C8A
:10D34000FFF7E8FF211CA81D142205F0E7F92F1CA8
:10D35000311C0C22201C05F003FA1C37201C0EC8BF
:10D360000EC70F4B311C0190AB62EE62201CFFF721
:10D37000D1FF2B1C221C303383CA83C3019A311C7A
:10D3800081CA81C30C22201C05F0EAF92B1C44330E
:10D3900086CC86C3034B301C2B656E6509B0F0BD8F
:10D3A000DBCB0100E9CB0100F0B597B00593036832
:10D3B00007AC1B6804910393111C231C061CA1C914
:10D3C000A1C3D26800250A92291C0C220CA811AF17
:10D3D0000B9505F0C5F9094B291C381C10950F93C6
:10D3E000FFF798FF059D01970095301C0499221CBA
:10D3F0000CAB039FB84717B0F0BDC046E9CB0100A6
:10D4000038B50025041C291C20C0FFF783FF2576B2
:10D410006583A583E5832584201C38BD10B58AB0BB
:10D42000041C0021242201A805F09AF901A8FFF7A5
:10D43000E7FFCA235B002222E01801A905F06EF97C
:10D440002368201C5B689847231C5F3300221A70F6
:10D4500090420DD0C0235B00E358934208D0054BA7
:10D46000934205D0C0235B00E018A188C3689847A9
:10D470000AB010BDC5CA010008B5FFF7CFFF08BD4F
:10D4800000487047482A002000487047482A00207A
:10D49000F0B5434B434A0833061C0360C2600023C7
:10D4A000A0221636011C428285B0041C03718360E1
:10D4B00003748382321C35310023137001328A4297
:10D4C000FAD180258021C901AD00201CF3770A1C08
:10D4D00035843830009300F0F7FE221C4032211CC6
:10D4E0000392131C5F312A1C00251D7001338B42EF
:10D4F000FAD1039B201CDD77231C603319791A8035
:10D50000FC220A409D701A711D72274B291CE3668C
:10D5100025670C22783005F023F9231C88331D6021
:10D52000271C224B0837FB678437291C381C0C2228
:10D5300005F016F91E4B1F4AFB60231CA0333D610A
:10D540001A601D4A5D60DA601C4A1D619A61DD61E6
:10D55000301CFFF761FE0398FFF75EFE184B601C5E
:10D56000E360231CC4331D705D709D70FF3000F0BC
:10D57000EDFA8C235B00E5508C235B00E3185D61C2
:10D58000104A80235B00E250231C0122FE335242EA
:10D590005A86201C023B9D63DD631D6405B0F0BD0F
:10D5A000D83C0200D03A0200903A0200BFCB010002
:10D5B000B1CB0100A03A0200B03A0200C03A02002A
:10D5C000C83E0200383D020038B50C220D1C002177
:10D5D000041C05F0C5F800232361024B2560201CC4
:10D5E000E36038BDCDCB0100314B70B50025041C84
:10D5F0000E1C036085710583291C0C221C3005F06C
:10D60000AFF82C4BE562A362231C30331D70201C45
:10D61000231DDD87291C44300C2205F0A1F8264B80
:10D6200065652365254BA6652360231C5C331D704F
:10D630005D709D70DD70261C251C6035C036281C71
:10D640000021FFF767FE0023AB82EB821835B5425D
:10D65000F5D1A8225200A618281C0021242205F08A
:10D660007FF8281C2435FFF7CBFEB542F4D1A82360
:10D6700000215B00E150B422231CFC335200996569
:10D68000D965196659666C61A15019675967996720
:10D69000D967A3185C61C0235B00E018FFF794FF13
:10D6A000CA225200A018FFF7ABFE201C70BDC04676
:10D6B000E03B0200DBCB0100E9CB0100203C020093
:10D6C00070B5061CFC36F56B002D1CD1B420800013
:10D6D00004F070FF0D4B041C43600D4B856003612B
:10D6E0000C4B4561C3610C4B056283620B4BC562F9
:10D6F0000360211C3430FFF777FFF6235B00E0184E
:10D7000001F016FBF463F06B70BDC046903B020065
:10D71000803B0200003C0200103C0200583F020027
:10D72000264B70B50360264B00258360254B041CF7
:10D730004361254B05710362244B4571C362C5608B
:10D74000856145620563291C3830FFF73DFF201CC9
:10D75000291C4C30FFF738FF201C291C6030FFF7D4
:10D7600033FF1B4B251C2360231C7435C43300225C
:10D7700004C59D42FBD1B22149006618281C002136
:10D780000822083504F0ECFFB542F7D1C2235B0054
:10D79000E218002308C59542FBD1C222C3215200E2
:10D7A0004900A3546318CB21490062180021198055
:10D7B00002339342FAD1201C70BDC046B03B020038
:10D7C000703B0200803B0200903B0200A03B020045
:10D7D000983F020038B5041CFC34A36B002B07D122
:10D7E000CC20400004F0E6FE051CFFF799FFA5637E
:10D7F000A06B38BD38B5041CFC34A36B002B07D1DB
:10D80000CC20400004F0D6FE051CFFF789FFA5637D
:10D81000A06B38BD70B5031C0A1C70CA70C3C96800
:10D820000023C160036170BD08B58130FF30FFF790
:10D83000F1FF08BD30B587B0051CFFF779FD041E68
:10D8400024D12B1C5C33187058709870D870A823A2
:10D850005B00E850EA1801235B4253609360D36099
:10D860001361B4225200A850B4225200AA18211CFD
:10D8700053609360D360136101A8FFF7A5FEC02138
:10D880004900681801A9FFF7C5FF00E00624201C25
:10D8900007B030BD70B5041C86B0236B6363606B4A
:10D8A000002807D0C368211C9847636B002BF4D075
:10D8B0001B69F3E7206B002804D0056904F08EFE95
:10D8C000281CF8E7E568206320716071002D05D001
:10D8D0002E69281C04F082FE351CF7E7201CE56049
:10D8E0001830FFF7D6FA201C2430FFF7F2FA291C73
:10D8F00001A8FFF769FE201C01A93830FFF78AFF55
:10D90000291C01A8FFF760FE201C01A94C30FFF77D
:10D9100081FF291C01A8FFF757FE201C01A96030D8
:10D92000FFF778FF281C06B070BD000010B5054C4D
:10D93000201CFFF7ADFD201C0349044A04F066FEDD
:10D9400010BDC046482A00200DD10100002800204B
:10D950002EDF704751DF704710DF704711DF7047CF
:10D9600061DF704708B5081C111C00F033FE08BDCC
:10D97000F0B5254B85B01B78002B42D0234E244FA9
:10D980003268544254413A68E4B255425541EDB2CE
:10D99000002C34D103A8FFF7DDFF05280AD00028AA
:10D9A00004D0211C221C00F017FE04E00398336809
:10D9B000984700E00124002D1ED1164B03A91B88B7
:10D9C0000B80154B1B68181C0193FFF7C9FF051E40
:10D9D000052D0BD0002805D000210A1C00F0FCFD0D
:10D9E000002504E001983A68904700E00125002CEA
:10D9F000CED0002DCCD004E0002C02D1C8E7002D01
:10DA0000DBD005B0F0BDC046A82B0020B02B002015
:10DA1000B42B0020AA2B0020AC2B002038B5041C0E
:10DA20000720002913D08D0711D109480160094949
:10DA3000201C0A80084A09491360FFF78DFF00285F
:10DA400005D1074B012216201A70FFF781FF38BD60
:10DA5000AC2B0020AA2B0020B82B002065D9010098
:10DA6000A82B002008B5FFF779FF021C531E9A412E
:10DA7000014BD2B21A7008BDA82B0020002803D099
:10DA8000024B1860002000E00E207047B42B0020ED
:10DA9000002803D0024B1860002000E00E207047E1
:10DAA000B02B002008B5074B1B68002B07D0984708
:10DAB000002806D000210A1C00F08EFD01E0FFF7CF
:10DAC00057FF08BDB82B00204368426910B5D11834
:10DAD000041C00F051F8E36A002B04D1A369002B69
:10DAE00007D0984705E0A069002802D0211C1C310E
:10DAF000984710BD10B5041C00F046F80023A36140
:10DB0000E36210BD38B50D1C041C00F03DF86561E2
:10DB1000206900F0EBF84119201C00F02DF838BD09
:10DB200008B5C36A011C002B04D18369002B06D001
:10DB3000984704E08069002801D01C31984708BD4F
:10DB400008B503689B68984708BD0000084B10B5EE
:10DB500008330360002343608360C360041C00F04B
:10DB6000CBF80449206100F05CF8201C10BDC046D1
:10DB7000483D020041DB010008B50A1C031C011DE1
:10DB8000006900F07AF808BD08B5011C043100698D
:10DB900000F08FF808BD000010B5044B041C0833DA
:10DBA0000360FFF7F1FF201C10BDC046483D020096
:10DBB00010B5041CFFF7F0FF201C04F00FFD201C23
:10DBC00010BD0FB4012008B504F03EFD08B50120DA
:10DBD00004F03AFD7047704708B5FFF7FCFFFFF708
:10DBE000F9FF04F05DF908BD084B1B681818EFF346
:10DBF0000882904205D3064B0C2201201A60404255
:10DC000002E0024A1060181C7047C0460C28002031
:10DC1000D02D002008B5002800D1FEE704F06AF9F5
:10DC2000FBE738B50368041C1B680D1C9847636844
:10DC30001D6038BD38B50368041CDB68984763680D
:10DC40005A682368002A02D19B68984714E05B68F1
:10DC50001568984763682D1A002D08DC5A6891688A
:10DC600059601B68002BEAD050689847E7E75B686B
:10DC7000226818681369984738BDF8B50D1C72B64C
:10DC80004B600A60416800234C68002C05D027686F
:10DC9000D61B02D4231CA468F7E7002B05D1036828
:10DCA0004D601B69101C984700E09D60AC6062B637
:10DCB000F8BD08B572B6426853688B420FD19B68B5
:10DCC00053600268002B02D1936898470CE01868F3
:10DCD0001369984708E09A688A4203D0131C002B06
:10DCE000F9D101E08968996062B608BD08B503689A
:10DCF0005B68984708BD000000487047743D02000B
:10DD000008B50248FFF796FF08BDC046743D020003
:10DD1000124AC1239B00D15810B5080603D51049FB
:10DD2000096A002911D1D3585A0716D50C4BDA6865
:10DD3000002A12D00024DC60084AA323DB00D0585C
:10DD4000C0B200F085FA211C00E00121054B1868E3
:10DD5000002802D0044B1B68984710BD00200040EB
:10DD6000FC200040C82B0020C42B002003681A1C94
:10DD7000FC32106A0128FAD100201062014AC9B2AF
:10DD8000995070471C0500000368FC33186A01387D
:10DD900043425841704700000A490B4A88680B4BC0
:10DDA000002808D018680130186000208860022020
:10DDB000D2218140505006491B6852581806190A52
:10DDC00010437047FC10014000100140D02B002090
:10DDD000040500002F23C046C046C046C046C046CA
:10DDE000C046C046C046C046C046C046C046C04603
:10DDF000C046013B002BEED170470000F8B5184B30
:10DE00009A68002A0AD0174A02201168013111606D
:10DE100000229A601449D222824088505B6C124CD6
:10DE2000002B1CD00E4B8025D222920000266D02C2
:10DE30005E64A5500D4A1378B34210D00C4B1F6896
:10DE4000FFF7AAFF3F1AB74209DC084BD2221E7027
:10DE5000C2239B009200E550A550FFF751FFF8BD8B
:10DE6000FC100140D02B002000100140D52B0020D9
:10DE7000CC2B002038B5124C2278002A1FD1114B30
:10DE8000A121C9005A500222D22191405A50C121E9
:10DE900091405A500C4AC421890055580B482840DB
:10DEA000C0252D02284350508021C0208902400007
:10DEB0000125115011601D60FFF78CFF257038BDE2
:10DEC000D42B00200010014000E100E0FF00FFFF24
:10DED00008B50B4B1B78002B01D1FFF7CBFFFFF7E9
:10DEE0005BFF064B044A05F06FF94904C00B084379
:10DEF00008BDC046C046C04640420F0000000000BA
:10DF0000D42B0020C046C0462F4B70B51B78061C92
:10DF1000002B01D1FFF7AEFFFFF73EFF254B244A50
:10DF200005F052F94B04C00B002400251843CD0B1B
:10DF30000023321CA4185D4180231B06984205D99A
:10DF4000002E03DB1C4A1D4BA4185D41610CEB0342
:10DF50000B43E2031A481B4980185941154B144AD8
:10DF600005F012F9194D041C2B78194E002B02D024
:10DF7000336898421BD0FFF70FFF201A022802DCFB
:10DF8000FFF70AFF841C2102124BA822D200090AC3
:10DF900099502A783460002A09D101222A70D221AE
:10DFA0008022520289005A50C12189005A5070BD06
:10DFB00040420F00000000000000000001000000CF
:10DFC0003F420F0000000000D42B0020D52B002082
:10DFD000CC2B002000100140074B1A78002A0AD0F1
:10DFE000064A8021C220490280001150D2208000C0
:10DFF000115000221A707047D52B002000100140EC
:10E00000024B00229A605A647047C046FC100140DF
:10E010000848026803210A4302600749074A084B7F
:10E020009B1A03DD043BC858D050FBDC05488047F1
:10E030000548004724050040FC420200002800205B
:10E04000A4280020F11F020021C10100FEE7FEE725
:10E05000FEE7FEE7FEE7FEE710B504F0CFF8041C8C
:10E06000601C04D1244825495F2203F01FFF631E72
:10E07000DBB2062B3DD8224B01221968214B8900C7
:10E080001B68101C5B011943022319431E4B1B68BC
:10E090001B041943631C984003020C1C1C431B49BE
:10E0A0001B4B50425C50C22189005850A021C9002E
:10E0B0005A501A60C046C04614498022D2009A586D
:10E0C000D007FAD4A1221248D2008058114A1278FF
:10E0D0000A2A07D0092A03D80A24A21AD04001E04C
:10E0E0000A3A9040A022D20000249C505A585A501C
:10E0F00000E0094810BDC0467C3D0200933D02008F
:10E100001828002010280020D82B0020040500002B
:10E110000070004014280020FFFF000008B5FFF742
:10E12000D7FEFA21890004F07FFF08BD30B587B023
:10E130000C1C04F063F8051C431C04D10D480E4967
:10E140000F2203F0B3FE6B461D70012C06D0002C8D
:10E1500004D0022C0BD10021032501E0211C002555
:10E16000684603F0DDFF6846291C03F0D3FF07B0C3
:10E1700030BDC0467C3D0200063E020038B50D1C95
:10E1800004F03CF8041C431C04D10948094923222B
:10E1900003F08CFE0122A023A240DB05141C002DFD
:10E1A00002D0A121C90000E003495C5038BDC0463F
:10E1B0007C3D0200063E02000C0500000120704775
:10E1C000054B1A1C4032107841331B784030C01A7E
:10E1D0003F2318407047C046DC2B0020084A111C22
:10E1E000101C413140300B780078984205D0D05C4B
:10E1F00001333F2213400B7001E001204042704781
:10E20000DC2B0020064B1A1C191C413240311278BD
:10E210000978914201D0985C01E0012040427047AA
:10E22000DC2B002007B5034B68460093FFF79EFDEB
:10E230000EBDC0460020004007B5044B0093684661
:10E24000FFF7A2FD0028FAD007BDC046002000401D
:10E2500030B5074B3F211A1C40321478651C294009
:10E260001D1C41352D788D4201D01855117030BDDF
:10E27000DC2B002000234360FA239B008360024BC9
:10E28000083303607047C046803E020008B503486B
:10E2900003F0BEFF0248FFF7EDFF08BDDC2B0020B6
:10E2A000202C0020F8B5061C0C1C8F180025BC4241
:10E2B00007D0336821781B68301C984701342D182B
:10E2C000F5E7281CF8BD0000F7B5FA260093B60064
:10E2D00008AB041C1B78301C48431449171C0193DD
:10E2E00004F0A2FE85B2301C258078430F4904F06B
:10E2F0009BFE009B80B2A380019B6080A371032DD5
:10E3000001D80423238022888023DB019A4200D98C
:10E310002380032801D80422628062889A4202D9AD
:10E320008023DB016380201CFEBDC046710200001B
:10E3300070DF704771DF704760DF704708B503F02A
:10E34000A3FB08BD08B5FFF713FB002008BD0000C4
:10E35000F0B5041C8BB002F0B1FD201C00F002FAF5
:10E360000020FFF791F80368061C1B699847336883
:10E37000051C9B69301C9847336801905B6A301C10
:10E380009847031C208810380B2800D9C8E004F0F7
:10E3900041FE0643C7C7C782C7C7C789C7A7A688A4
:10E3A000281C311C277D01F026F8607B2B1C58337C
:10E3B000009018780122904302221043A179023B79
:10E3C0009870187806220130187000986B46D9743E
:10E3D00098761E829F74231C1633E11D05A80993AD
:10E3E00004F09CF96846211C0E3194351B3006223E
:10E3F00004F094F96968A960A868002800D18FE04A
:10E40000C36804A99847AB68002B02D16A68AA6068
:10E41000F2E71B69AB60EFE74449281CA78800F0CE
:10E42000EAFFA379301C009333681B6A9847F621F2
:10E430004900061C06224018391C00F075FD338F78
:10E44000BB4204D1736B301C34309B6898472A1C44
:10E4500056321378013BDBB21370002B05D12B1C15
:10E4600058331A7802218A431A70A035009B6868D5
:10E470006A4617829374A860A868002850D0C368C1
:10E4800004A99847AB68002B02D16968A960F3E73B
:10E490001B69AB60F0E75B69A088A11D002B3FD032
:10E4A00098473DE0A679002E05D12B1C58331A78E9
:10E4B00001218A431A706B6E002B31D01C4A002A4E
:10E4C0002ED0AB66A86E00282AD0C368311C9847AE
:10E4D000AB6E002B02D16A6EAA66F3E71B69F0E708
:10E4E000A37B68465A07910FDA08677B01700272B6
:10E4F000E11D04A80622DE0704F010F96B46187827
:10E50000197AF60F187659769F75DE75231C0F332E
:10E5100007932B1C8C33281C80301B6804A9984758
:10E520000198211C01F076FC0BB0F0BDFFFF00004C
:10E53000C5CA01001FB5A3238022DB00D205D35832
:10E540000D20DA0700D508201C4948221C4BFFF794
:10E5500065FA00280BD080B2002808D1BFF34F8F96
:10E56000184A194BDA60BFF34F8FC046FDE700230E
:10E5700002A80293436001230370FFF7DDFE002829
:10E5800001D0072017E06846FFF7D4FE0028F8D135
:10E590006946FFF7CDFE0028F3D10C48FFF76EFA6D
:10E5A00080B2002807D10A48FFF772FA80B200282B
:10E5B00001D100F099F905B000BDC046302C002013
:10E5C00045E301000400FA0500ED00E051E301001D
:10E5D0003DE301007047000080B2002808D1BFF37E
:10E5E0004F8F044A044BDA60BFF34F8FC046FDE7FC
:10E5F0007047C0460400FA0500ED00E010B502784F
:10E60000002A09D10C78131C002C13D1428A4B8AA2
:10E61000D31A5A4253410CE00023012A0AD10A7846
:10E62000012A07D101300131102204F068F8434279
:10E630004341DBB2181C10BDF0B50E1C011C5F314C
:10E6400091B001910B78071C051C5C37022B7BD124
:10E6500007AC24220021201C04F082F808A8002125
:10E66000FEF758FE002323766383A383E38323848A
:10E67000CA235B00EB58079A934217D1CC235B0067
:10E68000E81808A9FFF7BAFF00280FD0CA214900EF
:10E690006B181A7E510609D15A8B002A06D1DA6905
:10E6A000E1698A4202D11B8C002B4AD0002E32D164
:10E6B0003B78182253436033EB18DA8AD9235B0086
:10E6C000EA522A1C3032311C02A80092FEF722FEC8
:10E6D000009802A9FFF792FF002814D1CC235B0019
:10E6E0000098E918FFF78AFF002814D0311C201C7D
:10E6F000FEF710FEA81D211CFFF780FF01235840E4
:10E70000C0B2002807D0696C281C4430002902D010
:10E71000134B002B1DD124220021201C04F020F8D3
:10E72000002108A8FEF7F6FDCA2252000023A8180F
:10E73000211C222223766383A383E383238403F0B3
:10E74000EDFF019901230B703B7801333B7011B051
:10E75000F0BDCA225200A9182B6D9847DBE7C046CE
:10E76000C5CA01007FB5051C0020FEF78DFE0368B9
:10E77000041C1B6998472368201C1B6A9847061CC9
:10E78000041C288834363038082800D99AE004F070
:10E7900041FC05991384212D99486500EB88002BD5
:10E7A00005D1291C0C31301C01F0C8FC8AE0636BD8
:10E7B000301C9B68984785E0EB88002B05D1291C0D
:10E7C0000C31301C01F03CFD7CE0301C0021FFF7D7
:10E7D00033FF77E0636B301C5B689847002871D08B
:10E7E000291C0C31301C01F089FD6BE0AB886A46B6
:10E7F0001380AB895380EB8993802B8A1235029565
:10E80000D380A368E360E06800285BD0C3686946F2
:10E810009847E368002B02D1A268E260F3E71B6926
:10E82000F0E7AB886A461380AB895380AB7B1371EA
:10E830002B8AD3806B8A1435039513816369A36196
:10E84000A06900283ED0C36869469847A369002B99
:10E8500002D16269A261F3E71B69F0E7AB886A46FF
:10E860001380AB895380AB7B13712B8A12350295D1
:10E87000D380236A002B25D0164A002A22D0636257
:10E88000606A00281ED0C36869469847636A002BF7
:10E8900001D1236AF3E71B69F1E7F622EB88520006
:10E8A000A018A988002B05D085225200934206D1DA
:10E8B000002205E02A1C0C3200F049FB02E00B228A
:10E8C00000F032FB301C01F031FE301C01F0ACFDD9
:10E8D0007FBDC046C5CA010077DF704778DF70474B
:10E8E0007ADF70477CDF70471FB5002302AC0393CB
:10E8F00028232380C8235B006380E38001A81123C1
:10E900000C4905220370FFF7EDFF80B200280FD1FC
:10E9100080208000FFF7E2FF80B2002808D1201C91
:10E92000FFF7DEFF80B2002802D1FFF7D5FF80B2EB
:10E9300004B010BDA83E02007EDF704768DF70475C
:10E9400038B500200C1CFEF79FFD03685B6A9847F2
:10E950002378051C142B17D002D8132B05D042E0C6
:10E96000152B16D0222B38D03DE063686C681888D0
:10E970009B78D9079A07C90FDB06C9B2D20F5B0F84
:10E98000002C30D0A0472EE0636818889978AB68D7
:10E990001FE0626891780B090907090F012902D06D
:10E9A000022908D010E0013BDBB20021022B0ED877
:10E9B0000E49C95C0BE0012B08D0023B5842434191
:10E9C00005215B42194002E0002100E0042110888B
:10E9D000EB68002B07D0984705E0636818882B691F
:10E9E000002B00D09847002038BDC046AE3E020044
:10E9F000014B18787047C046792C0020F0B51C1CDC
:10EA00002D4B87B001921A78071C00200D1C824202
:10EA100050D103F06BF8002846D1002C0FD02220F3
:10EA200003A90394FFF78AFF002808D0082804D020
:10EA300011384342584104303CE006203AE00023BC
:10EA40006846037202A802F0AFF8011E2CD11B4EDB
:10EA5000012433782540A3436A0027401D1C3D4311
:10EA6000019B02270720BD43034015431C22BB40E6
:10EA700095431D43357003AD0C22281C03F070FE36
:10EA80000F4B6846311C0522113003932F7103F0A0
:10EA900045FE0C48291C02F0F9F8031E06D0042894
:10EAA00007D00620082B05D00B2003E0024A147083
:10EAB00000E0072007B0F0BD792C00201C280020C2
:10EAC00041E90100782C002008B5084802F0A6F9B9
:10EAD0000023984207D0042804D00623082802D037
:10EAE0000B2300E00723181C08BDC046782C00202B
:10EAF00073B500230193104B01AD1B780E1C291C2C
:10EB00002B7002F09FFB041E04D00B23052810D1AC
:10EB100004230EE0281C311C02F0F2F8231C00280C
:10EB200007D0042804D00623082802D00B2300E0D5
:10EB30000723181C76BDC046782C002073B5114CF5
:10EB40000D1C061C211C6846052203F0E7FD012D63
:10EB500006D0022D13D1237801221343AB4303E0E7
:10EB600023780222AB439343301C69462370FFF79E
:10EB7000E3FE421E90410B234042034000E002238B
:10EB8000181C76BD1C28002008B5094B011C1A78FA
:10EB90000923002A09D0074802F0EAF80023984226
:10EBA00003D006230E2800D10323181C08BDC0463D
:10EBB000792C0020782C002008B502F092FB08BDCB
:10EBC00008B502230B708E230B714F234B710A1C67
:10EBD0007C238B710132043102F05AFB08BD93DFB4
:10EBE000704708B50368002B01D0081C984708BD82
:10EBF00008B50368002B01D0081C984708BD10B564
:10EC00000B78041C03704B8A1022438201310130BF
:10EC100003F084FD201C10BD38B502680B68051C8C
:10EC20000C1C9A4201D000202CE00379002B07D164
:10EC30000B79002BF7D1C28ACB8A9A42F3D10BE031
:10EC4000012BF0D10B79012BEDD1053005311022CC
:10EC500003F055FD0028E6D12A7E217E7F231A404D
:10EC60000B409A42DFD16A8B638B9A42DBD1EA690F
:10EC7000E36900209A4205D1238C288CC01A4342B4
:10EC80005841C0B238BD70B5051C0E1C00242819AF
:10EC9000311CFFF7C1FF002803D14C34E42CF6D11E
:10ECA00000E0012070BD000007B501AB1980191C00
:10ECB0005A80FFF794FF10280CD003D80023984205
:10ECC0000BD009E00523112807D0054A0423904200
:10ECD00003D001E0032300E00B23181C0EBDC04647
:10ECE0000230000070B50025041C291C20C0FEF76E
:10ECF00011FB0C26201C291C321C25766583A5835C
:10ED0000E5832584243003F02BFD074B201C65632D
:10ED10002363291C321C383003F022FD034BA56409
:10ED2000201C636470BDC046E3EB0100F1EB010001
:10ED300010B5041CFFF7D6FF201C4C30FFF7D2FFA4
:10ED4000201C9830FFF7CEFF201C10BDF8B50D1C1D
:10ED50001E1C08C9041C08C0171CFFF750FF2B7E9F
:10ED60003A1C23766B8B6383AB8BA383EB8BE383A0
:10ED70002B8C2384231C243323CA23C3FF68002243
:10ED800027636263311C0833A1C9A1C3F668201C44
:10ED90006664A264F8BD70B50E1C8AB00168041CDC
:10EDA000038C0190684603AD03911230111CAB80B7
:10EDB000FFF725FF201C6E8302952430236B01A9E9
:10EDC00098470AB070BD07B5031C6A4600901171E0
:10EDD00038305B6C6946984707BDF0B5A7B00B7932
:10EDE0000C1C086869460B71E38A00906846161C83
:10EDF000CB821022611D053003F090FC237E6D460E
:10EE00002B76638B221C6B83A38B2432AB83E38B27
:10EE1000EB83238C2B8409ABA1CAA1C3216B0025F2
:10EE20000C910D950EAB083283CA83C3626C13A894
:10EE300011921295FFF756FF13A9201C222203F00E
:10EE40006DFC231C1CAA243383CA83C31F9A6563E9
:10EE50002263083321AA83CA83C3249AA564626407
:10EE60006846311CFFF7AFFF27B0F0BD30B595B055
:10EE7000041C01A8FFF736FF201C01A9FFF7CCFEF8
:10EE80000025A84218D00D9A236B9A4214D1211C58
:10EE90000AA824310C2203F032FCA8420CD1129BA8
:10EEA000626C934208D1211C38310FA80C2203F068
:10EEB00026FC45424541EDB2281C15B030BDF8B5E1
:10EEC000061C0F1C00257419201C391CFFF7A4FE1A
:10EED000002804D0201CFFF7C9FF002803D04C35C0
:10EEE000E42DF0D10024201CF8BD10B5041CFFF760
:10EEF000E6FF011E03D0201C0022FFF76EFF10BDAD
:10EF0000F8B50F1C041C0325238C261CBB4204D11E
:10EF1000201CFFF7ABFF002804D0013D4C34002D2E
:10EF2000F2D12E1C301CF8BD38B5041C151CFFF79F
:10EF3000E7FF011E03D0201C2A1CFFF74EFF38BD3F
:10EF400008B5FFF7DDFF431E9841C0B208BDF0B51C
:10EF500089B0061C0091171CFFF7D2FF041E2AD0AF
:10EF600000253A88062395420FD26B43FB185A8836
:10EF7000998803A801920135FEF7CCF9201C01996C
:10EF800003AAFFF708FFADB2EBE7013A5343FF18BE
:10EF90007988E28B013189B2914203D9301C211C5E
:10EFA000002206E00098FFF77FFE021E03D0301C0F
:10EFB000211CFFF712FF09B0F0BD70B5061C00243C
:10EFC0003519281CFFF752FF002803D14C34E42CDC
:10EFD000F6D1051C281C70BDF0B51E1C4B8B041C03
:10EFE0000233C88B99B09BB20D1C03920F8C019316
:10EFF0000290984207D2002705910697F368301CCB
:10F0000005A998472DE0201C391CFFF799FF00281F
:10F0100001D0052725E0201CFFF7CFFF041EF8D004
:10F02000381C0199029AFFF73FFE071E19D1291CCF
:10F03000331C039A05A8FFF789FE05A92222201C8C
:10F0400003F06CFB231C24330EAA23CA23C311999B
:10F0500008332163676313AA23CA23C3169AA764DC
:10F060006264381C19B0F0BD70DF704771DF704703
:10F0700072DF704773DF704774DF704775DF70476A
:10F0800076DF704777DF704778DF704779DF70474A
:10F090007ADF70477BDF70477CDF70477DDF70472A
:10F0A00086DF704787DF704788DF7047142070471E
:10F0B00064207047A0208001704708B5FFF7F2FF79
:10F0C000421E9041404205230340181C08BD10B564
:10F0D000041CFFF7D1FF021C0320002A06D1201CCC
:10F0E0005830037801218B430370101C10BD08B504
:10F0F0003B239A4200D01323081C191CFFF7C0FFC2
:10F10000002800D0032008BD08B50A1C0368011CB4
:10F11000FE31C98C1B6A984708BD08B5081CFFF76B
:10F12000B9FF002800D0032008BD08B5081CFFF770
:10F13000AFFF002800D0032008BD08B5081C111C33
:10F14000FFF79CFF421E9041404203230340181CDE
:10F1500008BD13B50C1E012C07D86846111C0130E0
:10F16000062203F0DBFA002005E08B1E012B01D9FB
:10F17000032007E001206B4669461C70FFF774FF0F
:10F180000028F5D116BD37B568460D1C141CFFF7D5
:10F190006DFF032300280FD1002D02D06A4613789B
:10F1A0002B70002C07D06946201C0131062203F089
:10F1B000B5FA002300E0231C181C3EBD08B5081C4E
:10F1C000111CFFF76BFF421E904140420323034096
:10F1D000181C08BD08B5081CFFF756FF421E9041D9
:10F1E000404203230340181C08BD08B5081CFFF764
:10F1F0004DFF421E9041404203230340181C08BDAE
:10F2000008B5081CFFF73EFF0023984203D00523F2
:10F21000112800D00323181C08BD0000024B0B600E
:10F22000092313607047C046B13E020008207047B2
:10F23000B830017000207047B9300170002070476D
:10F2400002207047B83000787047B93000787047B6
:10F250000020704708B5031C1A1CF3326C3011787B
:10F260009B6F984708BD10B518C96210E10701D51A
:10F270008158CB588018984710BD0000012008B570
:10F28000054A011C01F04EFA421E904140420B23F8
:10F290000340181C08BDC046D5F2010070B5061C1D
:10F2A0000D1C0024331CBA331B78A3420ED96B7992
:10F2B000A3420BD90722111C61432B680134581853
:10F2C0007118BB3103F02AFAE4B2EBE72C7100208D
:10F2D00070BD000010B5041C0020FEF7D5F80368CF
:10F2E0001B699847031CF3331C7086235B00C050D6
:10F2F000074A031CFC335A6186220021520099619F
:10F300008318044AF4305A61FEF7FCFB10BDC04676
:10F3100055F2010067F2010037B5112301AD081C59
:10F320002B700C1C03F050FB211C82B2281CFFF731
:10F33000B3FE421E9041404203230340181C3EBDD1
:10F34000F8B50368061CDB6C0C1C0D799847032389
:10F35000854226D822790023D9B2914208D20721CA
:10F36000594320680133095C0329F5D1042318E0CF
:10F37000371CBA3700253D702379AB4210D9387855
:10F3800007225043111C6943236830185918BB30B9
:10F3900003F0C4F93B78013501333B70EDB2EBE784
:10F3A0000023181CF8BD10B50C1CC97F01201F29B3
:10F3B0000DD800290AD0D37F201CFFF759FE002862
:10F3C00004D1208CFFF760FE002800D0032010BD80
:10F3D00010B5041CFDF72AFF00280AD1231C0122C6
:10F3E000FE335242DA84BA34463B187058702070AB
:10F3F00000E0062010BDFE30C1847047FE30C08C96
:10F4000070470000F0B593B0039000200C1CFEF78D
:10F410003BF803685B6A9847FFF7EAFA06AB0028F7
:10F420000DD000221A7105AA069208221A73181C20
:10F430000AAA9A60FFF7A8FB002802D04FE01871D3
:10F4400018730023237323711F1C039BBA331B788B
:10F45000BB4243D907237B4303990025CA18B8321E
:10F46000D278022A2DD106AE337BAB4233D90720A6
:10F470007843039BAA001818B368BB3099580292CE
:10F48000FFF79AFB002819D0B168029BCA58237B6A
:10F49000A1689B005A50237B327B01332373531E98
:10F4A0009D4206D00F49B36852189200D258029973
:10F4B0005A5006AB1A7B013A1A730CE00135EDB2D3
:10F4C000D1E703992279CB182168BB3392005350BE
:10F4D0002379013323717B1CDFB2B6E7002013B020
:10F4E000F0BDC046FFFFFF3F70B50B78021C9AB01D
:10F4F0000D1C0220012B3BD04988032B04D1A039DD
:10F50000181C89B21B4B03E020391B4B89B2032026
:10F5100099422DD8A988194B0320994228D80AABC3
:10F52000009312AB029369460023161C0B710B73F8
:10F53000B8363378002B05D0101C6946FFF762FF00
:10F54000002815D104AC0021201C182203F008F972
:10F550002B7800A923703378201C23726B88E1601C
:10F560002382AB886382FFF785FD002800D003204B
:10F570001AB070BD603F0000E03F0000FF3F000098
:10F5800070B598B008AB009310AB02936A460023A5
:10F59000051C13711373B9352B780C1C002B1FD16C
:10F5A00004A82A780678A179012319409E431340C4
:10F5B0005A00331C0B4302218B431343037000ABEF
:10F5C00043602388038163884381A3888381FFF795
:10F5D00067FD031C5A1E934103205B42184004E060
:10F5E0006946FFF70FFF0028DAD018B070BD0000A1
:10F5F000F0B59DB0051C1F1C68466B461A700130A3
:10F600000622229E02AC03F089F8002F07D03B8827
:10F6100023807B886380BB88A380FB8806E032233D
:10F620002380642363809623A7809B00E3800CAB38
:10F6300004A9049314AB8B602F1C00230B710B7374
:10F64000B9373B78002B17D1387808A901230A78FD
:10F6500002271840BA43984004AF4F600243002E7F
:10F6600010D0B0799A431840338802430B817388D5
:10F670000A704B81B38811E0281CFFF7C3FE0028F5
:10F68000E2D02AE0281C323000789A431840AB8D33
:10F6900002430B81EB8D0A704B812B8E6846221C36
:10F6A0008B81FFF701FD031C0020834215D0082B3E
:10F6B00012D005D80720042B0FD083420AD107E0CF
:10F6C0000520112B09D0064A934201D0102B01D1FD
:10F6D000042002E00B2000E006201DB0F0BDC04673
:10F6E0000232000090DF704795DF704797DF704768
:10F6F00093300078431E9841C0B2704708B5081C8B
:10F70000111C1A1CFFF7F0FF031C0020834204D0D9
:10F71000113B584243410620C01A08BD30B585B0A0
:10F7200001AC6380089B0025E380099B2170101CBD
:10F73000211C6570A5800393FFF7D8FFA84208D06D
:10F74000112805D0044BC51868424541063500E034
:10F750000525281C05B030BDFCCFFFFF08B5ED30F6
:10F76000FF30FFF739FC08BD08B5ED30FF30FFF77B
:10F770008AFA08BD08B5ED30FF30FFF7B6FB08BDCB
:10F78000F0B587B001AB1A1C0C1CE0CCE0C2DA2447
:10F7900064000219C968E0CBE0C200190023C1600F
:10F7A000036107B0F0BD0000F0B5051C91B006AED6
:10F7B0003435019500910396041C311C101CE0C8DF
:10F7C000E0C10BAD0295D768191C2A1C61C961C242
:10F7D000DB6801980593636B5B689847051C0620FE
:10F7E000002D3AD1039A231C503343CA43C3029AD3
:10F7F000E76525661C33C1CAC1C3059E201C1E6077
:10F8000004331D60169914223A3002F087FF201C41
:10F8100017991422643002F081FF009F231C91335A
:10F820002787013B5D700121381C1D70D9702A1C8F
:10F83000FFF758FF071C281C002F0ED0636B0198A0
:10F840009B689847112F07D0054B9F4202D0062096
:10F85000072F02D1042000E0052011B0F0BDC04602
:10F860000230000070B5041CC06A86B02063206BB3
:10F8700000280BD0C368211C9847236B002B02D1B2
:10F88000E16A2163F3E71B692363F0E7E06A00287C
:10F8900004D0056902F0A2FE281CF8E7E062A06827
:10F8A000002804D0056902F099FE281CF8E7A06042
:10F8B0006069002804D0056902F090FE281CF8E772
:10F8C000256A6061002D05D02E69281C02F086FE95
:10F8D000351CF7E7201C25623430FDF729FD002890
:10F8E00029D1231C90331D705D709D70DD70C22383
:10F8F0005B00E550E21801235B4253609360D360E4
:10F900001361CE225200A550CE225200A21801AEA1
:10F9100053609360D3601361301C291C0C2202F0E9
:10F920001FFFDA225200A31807CE07C3B534034BDA
:10F93000FF34E3602561002006B070BDCDCB01002F
:10F9400008B53430FDF76AFD08BDA0DF7047A4DFBD
:10F950007047A5DF7047A6DF7047A8DF7047A9DFB3
:10F960007047000073B5151C02680E1C0093946864
:10F970002B1C321C0149A04776BDC046FFFF00008A
:10F9800037B5069C0020009020886D462880081C12
:10F99000111C6A460193FFF7DCFF0323002802D104
:10F9A0002B882380031C181C3EBD000073B5151C5A
:10F9B00006AA0E1C117802680093019114692B1C91
:10F9C000321C0149A04776BDFFFF0000F8B5041CBA
:10F9D00000200E1C151CFDF757FD03681B69984796
:10F9E00023689F69FFF70AFD321C011C2B1C201C99
:10F9F000B847F8BDF0B5D48B42791E1C85B0002302
:10FA0000934218D2DD004519C4352D88A54210D186
:10FA10001833DB00C3186C461A890E340223238086
:10FA2000036803AD00949F682B1CB847021E04D0E6
:10FA30000DE00133E4E7042009E023880620022BCF
:10FA400005D12B88101C9A0701D00123337005B013
:10FA5000F0BD000070B50D1C86B000210091161C91
:10FA60000AA90BAA098812786C4621800193002A02
:10FA700001D141790EE0281C311C6A46FFF767FF6F
:10FA800000283ED16CE0D4000419C4342488B44268
:10FA900003D001328A42F6D335E01C32920080183E
:10FAA000426830210132D27F0A422CD002AC1021B0
:10FAB0000A40E3600AAB51424A41A360294B01323C
:10FAC00000202680A270A0809D4207D1FDF7DCFCBB
:10FAD00003681B699847FFF791FC051C281C211C33
:10FAE000FFF739FF83B2181E3AD0112B37D02EDC26
:10FAF000082B32D0281C311C6A46FFF728FF00284B
:10FB00002DD003202CE0281C311C6A46FFF71FFF74
:10FB1000031E0C2BF5D00C280AD80528F1D0072895
:10FB200001D104201CE00020834219D00B2017E0F3
:10FB30001028F6D003D808200F2B11D0F6E70A4A78
:10FB40009042DED0D02292019042DAD0EEE7074B0D
:10FB5000984204D0064B9842CCD1062000E0052004
:10FB600006B070BDFFFF000002300000033000004F
:10FB700001340000F0B5061C99B0081C0F9102F08A
:10FB800071FB6C464634129012A90120221CFFF72B
:10FB9000DCFE002801D00320BEE023880F990E90E0
:10FBA0008B830F990E9A0B7D93426AD97379132B2D
:10FBB00001D90720B0E00F9A0E9992698B009C58EA
:10FBC0006269002A62D1638B002B5FD1631CDB7FEB
:10FBD000022B5BD150E0616AAB005F5813A84F491C
:10FBE000FDF798FB381C13A9FEF708FD002803D089
:10FBF0007A697F8B0C920D970135EDB2231C283367
:10FC00001B78AB42E7D86169631CDA7FA31CDB7FFA
:10FC10000091618B00200191218B0291217F039142
:10FC20000C9904910D990591211C293109780691AF
:10FC3000211C2A310978079171791831C90071188E
:10FC40000431089112A902F05FFB0028A3D1737957
:10FC50001A1C1C3292001833B218DB005460F318DF
:10FC60009B880C90E383737901337371231C2833D1
:10FC70001B780C9A934211D80E9B0133DBB20E9382
:10FC80008FE7337900200133337145E0201C02F007
:10FC9000E9FA002512900D950C95AFE7C2277F0079
:10FCA000F35D072B85D80C9A616A93005D5813A801
:10FCB0001A49FDF72FFB281C13A9FEF79FFC0D9096
:10FCC000002824D1281C02F0CDFA298B6A696B8B9D
:10FCD0000091297F12900191F15D0D98C03149008A
:10FCE00071180631029112A902F0BBFB002800D066
:10FCF00051E7F35D1A1C58329200C033B2185B0012
:10FD00005560F318DB88EB83F35D0133F3550C9BEF
:10FD10000133DBB20C93A9E719B0F0BD0129000053
:10FD200038B5051CFDF7B6FD041E1DD1281C211C8D
:10FD30005022743002F014FDB2235B00E818211C3D
:10FD4000202202F00DFD281C211C0822C43002F0E4
:10FD500007FDC3235B00E818211C102202F000FD00
:10FD6000C2235B00EC5400E00624201C38BD0000D8
:10FD70000B68002B01D1036002E0024B03600023FB
:10FD800043607047C5CA010038B5041C0D1C636888
:10FD9000A360A068002807D0C368291C9847A368FF
:10FDA000002BF4D01B69F3E738BD08B5C36898474A
:10FDB00008BD30B5141C87B004290ED0052917D012
:10FDC000032925D1051C383504A8291CFFF7D0FFCD
:10FDD000049A002A18D1059B14E0051C4C3568468E
:10FDE000291CFFF7C5FF009B002B0DD1019B09E0EB
:10FDF000051C603502A8291CFFF7BAFF029B002BE7
:10FE000002D1039BDA0703D5281C211CFFF7CDFF85
:10FE100007B030BDF0B50B888FB0051C0C1C512B02
:10FE200041D008D8012B24D0502B00D002E1CE883D
:10FE3000427900230EE0522B2ED0532B00D0F9E054
:10FE4000CE8805213AE0D9006918C8310988B14245
:10FE500003D001339342F6D309E01C339B00EB1827
:10FE60005A683021531CDB7F0B4200D0CCE00221CA
:10FE700024E0C0680C7A28612869002800D1D9E004
:10FE8000C368211C98472B69002B02D1E9682961BE
:10FE9000F2E71B692B61EFE7888800210A1C0B1C25
:10FEA000FFF75DFDC6E08B79012B05D0022B00D05A
:10FEB000C0E00E89072101E00E8906216B7900223E
:10FEC00000920098984200D3B4E00098C200AA18AB
:10FED000C4321288B24212D1062957D0072911D054
:10FEE000022900D08BE0A3880AA90B804E80237AD8
:10FEF0000B71A38BCB80E38B20340B8140E0009A05
:10FF00000132DDE70021102202A802F029FCA388BB
:10FF100069460B814E81E38B221C8B81238C22321C
:10FF200006AFCB810192049200211022381C02F00E
:10FF300017FC02233B70009B1C339B00EB185B6893
:10FF40001A1C2A3211780022914206D0181C403027
:10FF5000DB6C02A998476B469A8AA088391CBA8044
:10FF6000FFF7FBFCBB88002B64D1A3880AA90B8098
:10FF70004E80A37A0B71E38BCB80238C019C0B8189
:10FF8000281CCC601430FFF7FFFE53E006AF0021C1
:10FF90001022381C02F0E4FBA3887E803B80A38BF8
:10FFA0000AAE00211022301CBB8002F0D9FB0123D5
:10FFB0003370009B1C339B00ED186B681A1C2932B0
:10FFC00011780022914205D0181C2C309B6B391CF3
:10FFD0009847BA89B280BB89002B0BD1BB68002B34
:10FFE00008D0B27901210A43B271BA883281FA8805
:10FFF000F3607281A088311CFFF7AFFC1AE0281C67
:020000022000DC
:10000000321CFFF7D6FE15E0A11CC87F0134E17F4A
:1000100000020843990602D50321840707D404216E
:10002000DC0604D501210840414241410331D28B15
:10003000281CE6E70FB0F0BD90DF704792DF7047F5
:1000400094DF704738B502680B68051C0C1C9A4297
:1000500001D000231AE004300431FEF7CFFA002863
:10006000F7D02A7E217E7F231A400B409A42F0D19E
:100070006A8B638B9A42ECD1EA69E3699A42E8D1D0
:100080002A8C238CD31A5A425341DBB201205840A8
:1000900038BD036810B5021C002B0BD0591E4068F8
:1000A00011609900002304338B4205D0D418646892
:1000B000D450F8E70120404210BD036810B5021C7F
:1000C000002B0BD0591E40681160990000230433A7
:1000D0008B4205D0D4186468D450F8E70120404220
:1000E00010BD000073B5051C2B686C69002B1CD07B
:1000F000231C5F3303221A706E680F49042268467E
:1001000002F00CFB182373436033E318998ADB8AEF
:1001100001AA11805380A0886946FFF791FF00284B
:1001200009D0281CFFF7B5FFDEE75F342378032BE7
:1001300001D10123237073BDC03F0200F0B5031C41
:100140005C3300221A700A7889B0041C0133042A37
:1001500000D904221A70A82300205B00E050A823D5
:1001600001225B005242E318271C5A609A60DA6051
:100170001A610D1C7437061C231C5D331B789E42CC
:1001800026D22B79002B0DD1A8225200A358591C3E
:100190009B00E3185133FF33A1505E60EA882B893E
:1001A0003A8010E0698803A8FDF7B4F8EB88381CA2
:1001B00000932B89143803A91422019302F0AEFA9C
:1001C000009B3B80019B7B80013608351837D3E7C5
:1001D000231CFC335B6D002B04D0A8256D00601937
:1001E000FFF780FF09B0F0BD73B5051C2B686C6983
:1001F000002B1CD01149231C04225F331A7089186C
:100200006E68684602F08AFA24235E43C036A61957
:10021000738B01AA138001335380A0886946FFF7CE
:100220000FFF002809D0281CFFF747FFDEE75F34E7
:100230002378042B01D10223237073BDC03F020039
:10024000F0B50A78031C89B0041C0F1C5E33042A25
:1002500000D904221A70B4235B000026E650B423B0
:1002600001225B005242E318201C5A609A60DA6057
:100270001A613D1CC030231C07905E331B789E42E0
:1002800030D22B79A16D002B16D1B4225200A35885
:10029000581C9B00E3186933FF33A0505E600A23AB
:1002A00073432889FB189B7900906889A288019084
:1002B000079802F002F910E00A2070436B88A288C8
:1002C0000593C3199B79684603702889059B0190A3
:1002D00068890290079802F026F9079801360A35D6
:1002E0002430C8E7231CFC33DB6E002B04D0B42180
:1002F00049006018FFF778FF09B0F0BD7FB5031C17
:100300005F331B78051C032B26D1A82252008618C8
:10031000264B0A689A421BD189681022684602F06F
:10032000FDF9301CFFF7B5FE1824444360342D1945
:1003300001232B70E8186946102202F0EFF9AB7B1D
:100340006A7B1B0213436B82301CFFF7CBFE2CE051
:10035000301CFFF79EFE28E0042B26D1B4235B005F
:10036000C6180A68124B9A421CD1896810220331C0
:10037000684602F0D3F9301CFFF79FFE2424444363
:10038000C0342C1901232371601D6946102202F02C
:10039000C5F9A37C627C1B021343E382301CFFF788
:1003A00023FF02E0301CFFF788FE7FBD0100100034
:1003B000010013000B68002B01D1036002E0024B27
:1003C0000360002343607047C5CA010008B5C368D5
:1003D000984708BD73B581800226051C5E304670C3
:1003E000002401AE0470081C311C32807380FFF7BA
:1003F00025FE10280ED005D8A04210D006240828CB
:1004000009D005E00524112805D0064A904201D004
:100410000B2400E00424281C211CFEF70DF9201CED
:1004200076BDC04602300000F0B5041C8BB0221C23
:100430005F3201921378012B72D1251C201C5C3590
:100440005D302B780278934251D20021A71D05A878
:10045000FCF760FF381C05A9FEF7D0F8002809D189
:100460002E781821714360316118381CFEF7C6F8E8
:10047000002829D0E369002B16D02A4B002B13D07B
:10048000002105A8FCF746FF201C303005A9FEF727
:10049000B5F8002808D02B7818215943201C60316A
:1004A00061181C30A26A9047019B1E78012E1AD158
:1004B000211C03A84431FFF77DFF039A002A06D1CF
:1004C000049B334203D10EE001362E70AFE72B7848
:1004D000182253436033E3189A8AA188DB8A201CD0
:1004E000FFF778FFA3E72B7801332B709FE7002AF3
:1004F00016D0002B14D01822013B53436033E3186D
:10050000D98A094B002202702A70994203D1201C1B
:10051000FCF784FF04E0A088FFF78EFD0028F6D1E9
:100520000BB0F0BDC5CA0100FFFF0000F0B5041C10
:1005300097B05F3003900378022B00D0D6E0CA2238
:1005400052000021A7180DA8242202F009F90DA8D5
:10055000FCF756FF381C0DA9FFF774FD00283AD0B0
:10056000231C5E331B78002B35D0231CDA331A880A
:10057000D923013A5B00261CE2520021303608A83C
:10058000FCF7C8FE301C08A9FEF738F8051E14D188
:10059000CC235B00301CE118FEF730F800281AD09D
:1005A000291C0DA8FCF7B6FEA01D0DA9FEF726F824
:1005B00001235840C0B200280DD0251C443504A8A2
:1005C000291CFFF7F7FE0498002800D084E0059B63
:1005D000DA0700D580E00025231C5E3301931E78E6
:1005E000B5424DD203980378022B00D07EE0721EF4
:1005F0002423954208D1191C6943C0316118381C65
:10060000222202F08BF83BE06A1C1E1C53436E430F
:10061000C033E3185B8BC036013BA619221C303275
:10062000F383002108A80192FCF774FE019808A941
:10063000FDF7E4FF0290002812D1311D0198FDF76B
:10064000DDFF002819D002990DA8FCF763FEA01D5C
:100650000DA9FDF7D3FF01235840C0B200280CD0EC
:10066000231C443306A8191C0193FFF7A3FE069828
:10067000002836D1079BDA0733D40135EDB2ABE75A
:1006800003980378022B31D1002E08D02423013E99
:100690005E43C036A619B38B01339BB200E0144B06
:1006A000221C5C32127818214A436032A218D28A86
:1006B00001980021017093420AD20DA90B804A8053
:1006C000A088FFF7BBFC002810D0201C0B2100E005
:1006D000201CFDF7B1FF09E0281C391CFFF776FE4E
:1006E00079E70198311CFFF771FEC6E717B0F0BD3E
:1006F000FFFF00002EDF704732DF704733DF7047A7
:100700004CDF704708B5054B01201A78504018702F
:10071000034B1B68002B00D0984708BD802C00209D
:100720007C2C002038B50C4B051C15200C1C1A60C5
:10073000FFF7E2FF00280ED11520291CFFF7DEFF8E
:10074000002808D11520FFF7D5FF002803D103208A
:10075000211CFFF7D5FF38BD7C2C00207FDF7047C0
:1007600082DF7047A7DF7047A9DF7047AADF7047B5
:10077000002070470020704700207047002070471D
:10078000002070470020704700207047F0B58BB004
:100790006C460E23E382039001914B780C22534365
:1007A000244A1634D318188906A9221C0323FFF7FC
:1007B000DDFF00283BD1019B18275B781E4D5F436E
:1007C00000933B1C26880833EB18181C06A9321C22
:1007D000029301F094FF2C1C00280DD1009A0C23E9
:1007E0005343144AD318997A022319401FD1E819A8
:1007F000182201F0B5FF1AE0ED196B68002B01D04B
:100800000E4F00E00E4F009B18256B430322E25071
:10081000E3185E6006A9321C029801F07FFF019B7D
:10082000039859782A1C694338236118B847002077
:100830000BB0F0BD842C0020E42C0020011D020030
:10084000811C020008B5FFF7A1FF08BDF7B5041C25
:100850000F1C6A468178224801F0EAF900283DD150
:1008600062780C214A431F4B9A18927A530605D49A
:10087000022F03D0012F03D11B4D02E01B4D00E0DE
:100880001B4DA1781C2671431A4B68465918321C1F
:100890000023A847002813D1022F1FD063780C2211
:1008A0005343104A4021D3189A7A68468A439A7271
:1008B0006178114B7143321C5918331CA84701E071
:1008C000022F0BD023780C2253430C4A6846D318CE
:1008D0009A7A0B4B9200D358211C9847F7BDC0461B
:1008E0000C2D0020842C0020811C0200011D020020
:1008F00071070200902C0020C82C0020FC2C002046
:10090000D83F0200F7B50190437818215943264A91
:10091000264F50184468002C0FD00C20584338182C
:10092000807A45B2002D07DA450605D40E1C08363C
:10093000A5B296198C5802E00024251C261C0C2216
:100940005343FB181889311C2A1C231CFFF70CFF8A
:100950000B280BD1019A311C53780C225343FB18FE
:1009600018892A1C0123FFF7FFFE0124002800D06C
:100970000F48012C17D1019D0C216B780D4A4B4378
:10098000FB181889FFF7EEFE00280CD00A4B98429E
:1009900008D0082806D0094B984203D0112801D06E
:1009A000002000E00248FEBDE42C0020842C002042
:1009B00041800000FFFF0000023000000430000012
:1009C00008B5FFF79FFF08BD70B5031C48781824D1
:1009D0006043094D0E1C2818191C221C382301F0F5
:1009E000CFF9002806D173785C432D196B68013369
:1009F00000D1686070BDC046E42C002008B5FFF748
:100A0000E3FF08BDF0B51D1C434B161C1A6893B0DC
:100A100001900F1C002A7CD01898542879D803AB79
:100A2000FF22002469465A709A70DA701C700C76A6
:100A30000B950A90A1B2394804AA01F0F9F80028F0
:100A400009D1019804A9082201F059FE002802D119
:100A500003AB9C7002E00134022CEBD103ACA27812
:100A6000FF2A56D0032F0AD1189A06AB542A01D177
:100A7000202200E040221A701A7803213BE0284B24
:100A8000EB1A372B11D8274B002E04D101211868FF
:100A9000914008423DD0012191400A1C19689143C0
:100AA0001960202206AB1A7020E01F4BEB1A1B2B9B
:100AB00009D806AB20221A70002363700CAB0B938D
:100AC00018230A9312E019482D1A172D21D8302324
:100AD0006A461376002363700123E370144B997AFE
:100AE0000223194002D1182201F03AFE06AB022F70
:100AF0000CD11A7801210A4307481A7009AB0793F1
:100B000006A90368321C201C984702E01A780221CB
:100B1000F1E713B0F0BDC046FC2C00200C2D0020E6
:100B2000902C0020082D0020C82C0020E42C002050
:100B3000842C002070B51C2444430E4E051C301933
:100B4000002134190622113001F00AFE201C002178
:100B5000102201F005FEFF232374A37601235B42DC
:100B600023830122044BAA40151C1A68AA431A6069
:100B700070BDC046902C0020082D002037B581B2F2
:100B8000051C6A46074801F053F8041E08D1684660
:100B9000542101F03FF9041E02D1281CFFF7CAFFBF
:100BA000201C3EBD0C2D0020F0B5061C85B0002891
:100BB00057D02D4B2D48012500246F421C605C72DC
:100BC0009C72211C0781C7720722857201F0C8FD43
:100BD000211C1822264801F0C3FD201CFFF7AAFFA4
:100BE000244CFF23281C2370FFF7A4FF6A465423DC
:100BF00067709380204C0223D380204B6846211CD1
:100C0000009300F0B5FF271C00282BD11C4A337835
:100C10001570151C002B1BD11C1CA1B2381C02AA7C
:100C200001F006F8061E0CD11C22131C6343154864
:100C300002A9C018331C01F0A3F8002804D02E70BC
:100C400010E000232B700DE00134022C0AD0E4E701
:100C50006B46D9889B88201C594389B201F0DAF889
:100C600000E0094805B0F0BDFC2C0020842C0020D9
:100C7000E42C0020812C00200C2D0020050A02000D
:100C8000832C0020902C00200E800000F8B5174B1C
:100C9000071C1B780D1C002B22D0002822D0002915
:100CA00020D00B68002B1DD0114C2668002E1BD1C4
:100CB000201C08C00531052201F030FD207A2B7977
:100CC000012188430222A372104304239843207217
:100CD000E07901430A439A43E271301C3E7004E01C
:100CE000044802E0044800E00448F8BD832C0020DA
:100CF000FC2C0020088000000E8000000480000012
:100D0000154B1B78002B22D000281ED000291CD0A8
:100D10000378002B1BD1114B1B68002B17D0427896
:100D2000002A16D10E4B9B7A012B12D0242018409A
:100D300003D001230B70101C0CE05BB2002B02DA15
:100D400002230B7006E0087004E0064802E0064843
:100D500000E006487047C046832C0020FC2C002091
:100D6000842C00200E80000008800000108000000D
:100D7000234BF0B51B78002B25D0002821D000296B
:100D80001FD00B68002B1CD08D68002D19D0037864
:100D9000002B18D11B4A1268002A14D01A481A1CBA
:100DA00010301C1C194DEE7AB3420ED1AD7AAE074D
:100DB0000BD501331C30022BF4D10C710A730020C7
:100DC0001CE013481AE0134818E00D7BAA420AD22F
:100DD000857AEE0707D4061C8F689500103EEE5109
:100DE0000D4DAB5401320D79AC42E2D2857AAE079B
:100DF000DFD40F68A500E8510134DAE7F0BDC04642
:100E0000832C0020FC2C0020902C0020842C00201F
:100E10000E80000008800000812C0020104B10B5CF
:100E20001B78002B19D0002815D00078002814D189
:100E30000C4B1B68002B10D00B4B9A7E1C1CFF2AFE
:100E400001D0FFF79BFE36342378FF2B06D001201C
:100E5000FFF794FE02E0054800E0054810BDC046DB
:100E6000832C0020FC2C0020902C00200E80000001
:100E70000880000013B5041C81786A460B4800F016
:100E8000D7FE002810D160781C235843084A6946D1
:100E900010181A1C00F074FF064B68469A7A064B2D
:100EA0009200D358211C984713BDC0460C2D00203A
:100EB000C82C0020FC2C0020E83F0200F0B5C64AF8
:100EC0008FB01278FF23061C0393002A00D1B4E1EF
:100ED000C24A1168002900D1AFE104AD05AF6B70C3
:100EE000AB70EB70031D7B602A233B8103880022DB
:100EF0002A70BB4C102B22D0A17A828801918907DD
:100F000007D5B8498A4200D149E12189914200D1EF
:100F100045E1172B00D1ACE007D8132B53D0142B8D
:100F20002DD0112B00D088E10FE01C2B00D11CE14B
:100F3000522B00D111E1182B00D07EE1E5E0A37A1D
:100F400001210B4200D02FE177E101990223019AA0
:100F50009943A172120707D54BB2002B0BDA281C5C
:100F60000021FFF773FC06E0A878FF2803D0FFF705
:100F7000E1FDFF23AB701023A3721223F6E0E37AA6
:100F8000994FFF2B14D1F3893A8B9A4204D0BA8E31
:100F90009A420DD1012300E0002301990822039316
:100FA0000A43DBB2E372A272281CAB70FFF762FF48
:100FB000E37A0021FF2B00D08C49B0883A1C002333
:100FC000FFF7CEFB39E1019A3B7004231343A37270
:100FD000E37AFF2B25D184498B7EFF2B06D00B1C97
:100FE00036331B780127FF2B29D100E00027237817
:100FF0001C207843022B09D07B4AFD2310188376EE
:10100000211C0722103001F089FB03E0764B1818F1
:10101000FE23837603AB1F700399CBB2AB70E372F0
:101020000BE0734816230E22083000213B7001F0BC
:1010300097FB019A44231343A372002400E06D4CF4
:101040000021674B0B91DB7A1C225343664A0D91BA
:10105000D3180C93654B614A089309910A91B088A3
:10106000043208ABFFF77AFB002800D0E5E0221C31
:101070007EE05A4901224B7A9343019A4B72042332
:101080009A431423A2723B70B379002B04D0E07A08
:10109000FFF774FDB2796BE0F379590767D5AB7848
:1010A000FF2B64D008210A43F17AA2728907C90F85
:1010B000012906D11C225A434B488218907E88434E
:1010C0009076E27AFF2A52D02178474A1C260229DC
:1010D0000CD05E439619301C07221030211C01F001
:1010E0001DFBB37E02229343B37609E073433F496D
:1010F000D318498A1A1C19839B7E01218B4393764E
:10110000281C0121FFF7A2FB31E0B379112B15D187
:10111000019A120712D5364800210E22083001F03C
:101120001FFB162301993B7060230B432B4AA372CC
:10113000537A2A49022213434B7218E0019A802302
:101140005B421343A37215233B70244B281C9A7AED
:10115000294B9200D358984709E02049264B8A7AB8
:10116000281C9200D358984767E013233B70002255
:101170001A4905AC0B68281C211C98472378122BB0
:101180005BD11748837A012B57D0012383725B42CE
:101190000381C3720021072201F0E2FA4DE0E27AF6
:1011A000AA7000226A70B4E611233B706A708388CB
:1011B000871D23810223A372201C391C072201F002
:1011C000ADFA737DDA071BD50C4A5B08D35CFF2BA5
:1011D00029D0039327E0C046832C0020FC2C00205C
:1011E000842C0020FFFF0000902C0020C82C002041
:1011F000E42C002043800000C83F0200812C002026
:101200000F4E391C301C1030072201F078FA0028EC
:1012100008D0301C2C30391C072201F070FA00284D
:10122000A5D101200390039A281CD3B20A22E372AD
:10123000A272AB70FFF71EFE99E70FB0F0BDC0467B
:10124000902C002030B5002912D00A78002A11D144
:101250000A4B1B68002B0DD0FF23094C8B7025898E
:101260000523854207D14A70E37A8B70131C02E094
:10127000044B00E0044B181C30BDC046FC2C002081
:10128000842C00200E800000088000004DDF704795
:1012900030B500238DB00D1C141CC21AD27B6946D8
:1012A0005A540133102BF8D1002104A80D2201F06B
:1012B00057FA2B786A46D3776B7868469377AB7882
:1012C0005377FFF7E3FF6B462F331B7823706B4692
:1012D0002E331B7863706B462D331B78A3700DB0D3
:1012E00030BD30B50378041C85B00D1C0020022BE6
:1012F00016D1611C032201A801F010FA211D03225E
:1013000003A801F00BFA281C03A902AAFFF7C0FFEB
:1013100001A802A9032201F0F2F943425841C0B2E8
:1013200005B030BD08B5064B586980235B05421CEB
:1013300004D0196989B201F077FE00E0586908BD50
:101340000010001029DF704728DF704708B5034BF5
:101350001A78034B9200D358984708BD5C2D0020A3
:10136000F83F020037B50B1C074C89680C254D432C
:1013700024681978021C181C1B690094034C08305F
:101380002C59A04737BDC046642D0020482D0020B1
:1013900008B5104A142113784B43D31880221869DA
:1013A0005205116904335A8801389B888018C01887
:1013B00089B201F039FE084A031C126801209A42E2
:1013C00007D300209A4204D1044B18684342584185
:1013D000C0B208BD142D0020402D0020442D002057
:1013E00008B5044B0822196891431960FFF7AEFF56
:1013F00008BDC046582D0020094A08B513681907D2
:101400000AD4990702D501210B431360054B022230
:101410001A70FFF79BFF01E0FFF7E2FF08BDC0462F
:10142000582D00205C2D002008B5064B1B681A07BC
:1014300005D4054B01221A70FFF788FF01E0FFF782
:10144000CFFF08BD582D00205C2D002008B50028D6
:1014500014D0112805D10A4B082219680A431A60D2
:101460000CE0084B14211A7851435B18191DFFF743
:1014700079FF054B04221A7000F096F808BDC046AB
:10148000582D0020142D0020682D002008B5FFF7EE
:1014900059FFFFF7DBFF08BDF8B5134B14241A788A
:1014A000802554436D051C1904342F696288BFB22E
:1014B000A088E36821690D4EBA420DD92C69C01885
:1014C000A4B2121B2C6980188918A2B29208FFF7E7
:1014D000DDFF2B699BB204E0C0189208FFF7D6FF2E
:1014E00063883360F8BDC046142D0020742D0020A1
:1014F00038B50A4A80246405236915689BB2013D0A
:101500005D43FFF70FFF2169054B013889B2414365
:101510001A68281CFFF7BAFF38BDC046402D0020CE
:10152000702D002070B5104A1421137880254B438C
:10153000D3181A89DC880433DB686D05A41829697F
:10154000E418201C89B201F0B3FD0E1CFFF7EAFE7F
:101550002969013889B24143044B89191A68201C52
:10156000FFF794FF70BDC046142D0020442D0020CD
:1015700010B5FFF7D7FE80235B051C6919691A694E
:10158000431EA0B25843044B89B21B6892B2594320
:101590009208FFF77BFF10BD402D002008B5FFF734
:1015A000D3FEFFF753FF08BDF0B52B4B85B018787D
:1015B00003284FD801F02EFD020E114A274A0023BE
:1015C0001360274A1360274B5B78002B42D000F052
:1015D000DFF83FE0FFF760FF3CE0234C0123226887
:1015E000142601929A431F4B226002921A78802798
:1015F00056437F059E1933693969181C89B20393D4
:1016000001F012FD194B051C186003983969F38825
:101610000138C01889B201F007FD854203D1029A52
:101620000223134303E0019A03239A43131C23600C
:101630000F4B1A680F4B002A03D121680222114276
:1016400000D000221A70FFF781FE03E0074B1868F4
:10165000FFF7A4FF05B0F0BD682D00206C2D002021
:10166000742D0020142D0020582D0020402D002026
:10167000702D00205C2D0020F0B53F4A1421137816
:1016800085B04B43D318D8680C22424302903B48A4
:101690008025821854891089526860436D0582182C
:1016A00029690192DA881E6903921F89344CD31983
:1016B0009B1900930023236089B2301C01F0F8FCD1
:1016C00000290AD12B6903989BB2984208D000994F
:1016D000019A914201D1002F02D0029B022B08D126
:1016E0002969301C89B201F09FFC264B1860032346
:1016F0003CE02969B81989B201F0DAFC224B89086B
:101700001960009A019B8024640529699A422CD0B3
:1017100089B2101C01F0CCFC002926D0019A009857
:10172000216985B289B290B201F07EFC2769061C5E
:10173000B9B2281C01F078FCB6B280B2864208D15A
:10174000019B00989AB283B2D31A0D499B080B6093
:101750000BE023692169281C89B29CB201F0A8FC26
:1017600089B2641A064AA408146002230748037069
:10177000FFF71AFF05B0F0BD142D0020482D002002
:10178000442D0020402D0020702D0020682D0020C9
:1017900008B50B4A142113784B43D318D988094A4A
:1017A0001B791160032B08D0042B06D0012B06D126
:1017B000054A1370FFF7F8FE01E0FFF75DFF08BD73
:1017C000142D0020642D0020682D0020F7B508ACF2
:1017D0002488114D01946E780424022E19D02C789F
:1017E000A419012C00D9023C14277C432C196261F6
:1017F000221C20710C3281C981C2E380074B019801
:101800001B782081013600246E70A34201D1FFF7BE
:10181000BFFF201CFEBDC046142D0020682D0020F7
:1018200038B5124C14252178002069436118043121
:10183000FFF798FD21782A1C4A430023A2180125AE
:101840001371D380D5601361536113816278013ABB
:1018500062704A19D2B2022A01D0227000E02370CD
:10186000034A1370FFF7A0FE38BDC046142D0020B8
:10187000682D002008B5084B14211A784A439B189C
:101880001B79042B02D0FFF7CBFF04E0034B0122AE
:101890001A70FFF789FE08BD142D0020682D002066
:1018A000F8B51F4D08242E68344023D11D4A142159
:1018B00013781D4F4B433F68D31880211869DA888D
:1018C000490504339B880969002F16D00138801818
:1018D000C01889B201F0A8FB144B1B6883420CD1DD
:1018E000134B1C6001231E43124B2E601C70FFF72C
:1018F0002DFD13E0FFF774FD10E0FFF749FD002810
:1019000004D00B4B00221A60022202E0002F03D009
:101910000322084B1A70EAE7FFF7ACFFF8BDC04698
:10192000582D0020142D0020442D0020402D002093
:10193000702D00205C2D002008B5054B1B681A0790
:1019400002D4FFF797FF01E0FFF74AFD08BDC0464C
:10195000582D002038B5154D2C68220723D4144B80
:101960001A6801321A60134B04221B68002B04D141
:10197000FFF70EFD002802D002220F4B0CE00F4BA8
:101980001B68002B0CD00121221C0A400A4B02D1FB
:101990000C432C6000E003221A70FFF7D7FC04E030
:1019A000FFF768FF01E0FFF71BFD38BD582D002051
:1019B000402D0020702D00205C2D0020442D0020A3
:1019C00008B51E4B1B78022B30D0032B19D0012BEE
:1019D00032D11B4B08211A680A4222D1194B14211B
:1019E0001A784A439A18184BD1881B68CB1A9BB2B5
:1019F000D380002B02D1FFF713FF1DE0FFF74CFD52
:101A00001AE00F4B08211A680A420AD10F4B1A68D4
:101A100001321A60FFF7BCFC002804D1FFF72AFF4F
:101A20000AE08A431A60FFF7BFFD05E0084B1A7809
:101A3000084B9200D358984708BDC046682D002037
:101A4000582D0020142D0020742D0020402D002042
:101A50005C2D00200C40020008B5024B1868FFF70F
:101A60009DFD08BD402D002008B5FFF75BFC8023DD
:101A70005B051A691969431E90B2584389B201F097
:101A8000D3FAFFF78BFD08BD38B5144C0425237835
:101A90001A1CAA4321D002281DD003281DD1104AA8
:101AA0001268110717D40F490A6801320A60032A25
:101AB00004D0022B0CD1FFF749FC0EE00A4B142195
:101AC0001A780D2051435B18191DFFF74BFC257048
