:020000021000EC
:10C000000080002051D101008DD101008FD10100AD
:10C010000000000000000000000000000000000020
:10C0200000000000000000000000000091D10100AD
:10C03000000000000000000093D1010095D1010034
:10C0400097D1010097D101005110020097D1010052
:10C0500097D101000000000097D1010097D10100A5
:10C0600097D1010097D10100B90E020097D10100CC
:10C0700097D1010097D1010097D1010097D101001C
:10C0800097D101006512020097D1010097D10100FC
:10C0900097D10100C1320200A90B020097D1010023
:10C0A00097D1010097D101000000000000000000BE
:10C0B0000000000000000000000000000000000080
:10C0C00010B5064C2378002B07D1054B002B02D06E
:10C0D000044800E000BF0123237010BDA828002001
:10C0E00000000000B051020008B5084B002B03D03F
:10C0F0000748084900E000BF07480368002B03D049
:10C10000064B002B00D0984708BDC0460000000039
:10C11000B0510200AC280020A82800200000000038
:10C12000164B002B00D1144B9D46402292029A1AC6
:10C13000924600218B460F461348144A121A07F004
:10C140003FFA0F4B002B00D098470E4B002B00D02E
:10C1500098470020002104000D000D48002802D05F
:10C160000C4800E000BF07F0B5F92000290003F0FB
:10C17000A8F807F099F9C0460000080000800020E8
:10C180000000000000000000A8280020E42E00208D
:10C19000000000000000000008B50368002B01D07B
:10C1A000081C984708BD08B50368002B01D0081C7F
:10C1B000984708BD08B50368002B01D0081C9847B4
:10C1C00008BD08B50368002B01D0081C984708BDBE
:10C1D00008B50368002B01D0081C984708BD000073
:10C1E00010B5054B041C036002F0FFFF201C03F098
:10C1F0004DF8201C10BDC046984C020010B5041C20
:10C20000FFF7EEFF201C07F019F9201C10BD0000FD
:10C2100030B5094A4388D48B87B09C4209D107487E
:10C2200001F010FC0368211C5D686B4601AA023313
:10C23000A84707B030BDC046DC2900204C2A0020AA
:10C2400070B51D1CC37F041C5E1901201D2E13DC5C
:10C250002818E054E37F0133DBB2E377E154E07F59
:10C26000111C0130C0B2E0772A1C201807F086F9B3
:10C27000E37F0020ED18E57770BD0000F7B58E1E56
:10C28000F6B2051C089C132E22D80120071CB740CB
:10C290003E1C284F3E421BD0E97FCE1869181F2E46
:10C2A00046DC601C814203D90878C8540139F8E79C
:10C2B0000021C8B2984204D2565C601886700131E1
:10C2C000F7E722789A182270EA7F9B18EB770FE045
:10C2D0002078061C013EF6B20090B3420AD100213C
:10C2E000C8B2984204D2555C601885700131F7E7F6
:10C2F00000201DE0E87F801BC018844667460120AF
:10C300001F2F15DCE87F8446B01C2018019067467B
:10C31000E819019F874204D2A01980782070013467
:10C32000F0E70098C7436744EF77281CFFF788FFC2
:10C33000FEBDC0463F000800F7B5C67F0024B442EA
:10C340000CD205196F788F4203D10095FFF796FF45
:10C3500006E0055D01356419E4B2F0E7FFF770FF10
:10C36000FEBD70B5061C8AB00A360C1C2222311C98
:10C37000051C01A807F002F96A460121033201A851
:10C380000B1C1470FFF7D8FF041E0DD12B682A1C5C
:10C3900034329B6F281C01A99847041E04D1301C1D
:10C3A00001A9222207F0EAF8201C0AB070BD70B57E
:10C3B0000123041C0370261CC018031C1136002521
:10C3C0001D700133B342FAD1012365822370AA4262
:10C3D00008D10B1C10338B4207D0013B1A78027036
:10C3E0000130F8E7102207F0D2F8A37B627B1B0232
:10C3F0001343201C638270BD10B501F013FB011CB8
:10C4000008C9041CDB6F9847002804D158342378EE
:10C4100001221343237010BD08B50248FFF7ECFF5B
:10C4200008BDC0464C2A002008B501F0EBFA806D2B
:10C4300008BDF7B51C1C08AB0E1C151C1F7801F0BD
:10C4400001FB03680097DF68311C2A1C231CB847D6
:10C45000FEBD0000F7B5454D281CFFF7E5FF81073D
:10C4600000D482E001F0D0F9414C20600B2001F0B3
:10C4700069F9404F38600C2001F064F93E4B3F4EA3
:10C4800018603F4B010ADA8D32801A8E3D4E3280A1
:10C490005A8E3D4E32801A8D3C4E32805A8D3C4E23
:10C4A00032809A8D3B4E32809A8E3B4E3280DA8EAD
:10C4B0003A4E32801B8F3A4E3A4A33800123137032
:10C4C000E3785370A37893706378D3702378002453
:10C4D00013717B78D17153713B78334F9371107224
:10C4E00054729472D472147354739473D473147416
:10C4F00054749474F98B13230094281CFFF799FF4C
:10C500002A4A1E49022313704B78281C53700B785B
:10C510001C4993704B78D3700B781B4913714B787F
:10C5200053710B78194993714B78D3710B78184973
:10C5300013724B7853720B78164993724B78D372FF
:10C540000B78154913734B7853730B781349937316
:10C550004B78D3730B78F98B1374737853743378E7
:10C56000937400941323FFF764FFF7BD4C2A002057
:10C57000CC280020482A0020E8280020C4280020D9
:10C5800050290020C6280020C8280020D4290020D7
:10C59000D6290020D8290020442A0020462A00203D
:10C5A000E4280020302A0020682A00203C290020AE
:10C5B00008B50548012303701E2383706B23437065
:10C5C00000F0D4FB08BDC04650290020F0B591B062
:10C5D00002AD07AC0021281C0C2206F0F1FF2A1C3A
:10C5E000231C43CA43C3544B0027211C5348E36018
:10C5F000276101F0AFF9391C0C22281C06F0E0FF7E
:10C600004E4801F00FFA4E4E01900296231C07CDC2
:10C6100007C3142006F0FEFE0796031C221C62CA04
:10C6200062C3484B0761C360019B444EA4331A6840
:10C63000BA4200D002611860301C01F003FA0021F8
:10C640000C220190201C06F0BBFF142006F0E2FE35
:10C650003D4A211C0792021CA8C9A8C23B4A019D61
:10C66000C26000220261AA69002A01D1A86102E029
:10C67000019F0261B861301C01F0D4F90621FFF777
:10C6800070FE301C01F0CEF9071C0A37391C22223B
:10C69000051C201C06F072FF201C08212C4A0B23CD
:10C6A000FFF74AFE00280DD12B682A1C34329B6FFD
:10C6B000281C211C9847002804D1381C211C222248
:10C6C00006F05CFF301C01F0ADF900230371301C53
:10C6D00001F0B8F903681F491B689847301C01F046
:10C6E000A1F903681A495B6B9847301C01F09AF96D
:10C6F000036804215B6C9847301C01F093F90368D0
:10C70000041C9B689847A023984204D92368201CE6
:10C710009B689847031CFA2080000F49584307F094
:10C72000B3FBE080301C01F07DF900230381301C55
:10C73000FFF762FE11B0F0BDB5C101004C2A002028
:10C7400019C40100D1C1010011C20100C3C101001F
:10C75000B8480200EC28002071020000E12108B571
:10C760000848490201F0E4F8FFF730FFFFF720FF27
:10C770000548064BFA2183610023C362490102F098
:10C780003CFD08BD782B00200C29002055C4010079
:10C7900010B50A4C201CFFF747FE83070AD5084C4A
:10C7A000201C00F055FB201C00F080FB201C00F03A
:10C7B000B7FB02E0201C01F055F910BD4C2A002007
:10C7C00050290020F0B5002187B0514801F0DAF877
:10C7D000504800F00BF9504D0024281C02F030FDA9
:10C7E0004E4B01AEAC61EC62281C4D494D4A2B60AA
:10C7F00006F03CFE221C301C4B49FFF7D8FD4B4D88
:10C8000033786F1C2B70738A69466B82381C053134
:10C81000102206F0B3FE464B13226B6101236B839B
:10C8200008232A83FB770122AB1CDA772B1C2833E1
:10C830001C702B1C29330C271C70281C2B1C2A77DE
:10C84000EC832A33211C3A1C2C306C621C7006F0DD
:10C85000B7FE384B281CAB63EC63211C3A1C4030FC
:10C8600006F0AEFE344A2C65EA64301C221C3349C3
:10C87000FFF79DFD324D337869462B70738A053181
:10C880006B8210222F4806F079FE2F4B01226B613C
:10C8900013232B836A8301232A4A2B771023D37710
:10C8A000AB1C0122DA772B1C28331C702B1C29337C
:10C8B0001C70281C2B1CEC832A33211C3A1C2C30A6
:10C8C0006C621C7006F07CFE1A4B281CAB63EC6398
:10C8D000211C3A1C403006F073FE174A2C65EA64AE
:10C8E000301C221C1949FFF762FD194D3378694647
:10C8F0002B70738A681C6B820531102206F03EFE95
:10C9000002232B75134BAC83AB6107B0F0BDC0465F
:10C910004C2A0020502900200C290020984C0200AD
:10C92000E1C101000028002098480200DC29002015
:10C93000D0280020A7C1010099C10100A848020029
:10C94000682A0020692A0020542A00208848020012
:10C95000EC2800200428002070B5017006214270E8
:10C960008370012201720176F5230224FF21C38026
:10C97000C475002301770424811802714274827403
:10C98000C2740275827542768276C276C27743722D
:10C990008372C372037343738373C37303744377E4
:10C9A0008377CC77811C0724CC77C11CCB77041DFF
:10C9B0000321E177441DE177811DCB77C11DCB7742
:10C9C0008918CA77021CC4180021261CD1639164FF
:10C9D0005165603600216C3402333180F1800432BD
:10C9E0002180062BEFD18030017070BD10B5012180
:10C9F000041C6B221E23FFF7AFFF201C10BD00009C
:10CA0000C388FA225200934207D0FA22D2009342FE
:10CA100005D0F52B05D1034B02E0034B00E0034B9F
:10CA200043677047295C0F3C295C8F3C295C8F3D34
:10CA3000C37D042B0AD003D8022B0BD1064B08E090
:10CA4000082B05D0102B05D1044B02E0044B00E06D
:10CA5000044B83677047C04640DA7F38B0E33F3A03
:10CA600040DAFF3840DA7F3900B5421C031CD07F22
:10CA700004380C2810D807F0FDF9070F0F0F090F25
:10CA80000F0F0B0F0F0F0D00044A04E0044A02E0E1
:10CA9000044A00E0044ADA6700BDC046F7CC123908
:10CAA000240B98399F71E139240B183AC388F52B70
:10CAB00009D0FA225200934205D0FA22D2009342C2
:10CAC00001D0F523C380C37D022B07D0042B05D0F2
:10CAD000082B03D0102B01D00223C3750130C37F74
:10CAE0000822191C9143042905D0082B03D0102BD0
:10CAF00001D00423C377704770B5094C161C201C65
:10CB00001D1C00F0AEFA311C201C00F04CFA291C50
:10CB1000201C00F048FA201C00F0E8FA70BDC04666
:10CB2000BC2A002010B5131C021C0C1C7332117897
:10CB3000221CFFF7E1FF10BD10B502790023041C91
:10CB40009A4202D0037A5B01DBB2E288FA21490003
:10CB50008A4205D0FA21C9008A4203D1182200E096
:10CB600008221343617A03220A401A43201C102131
:10CB7000FFF7D8FF0022201C1121FFF7D3FFA27A74
:10CB8000531E9A41E37AD201002B05D0217B0F235B
:10CB90000B4040210B431A43201C1221FFF7C2FF18
:10CBA000E27C531E9A41A37C5201002B01D010233A
:10CBB0001A43637C002B01D008231A43237D002BEA
:10CBC00001D002231A43201C1E21FFF7ABFF627B1A
:10CBD000531E9A41A37B5201002B01D010231A430C
:10CBE000E37B002B01D008231A43201C1321FFF7FD
:10CBF00099FF10BD10B5C27E041C531E9A41837E5E
:10CC00005201002B01D010231A43637E002B01D068
:10CC100008231A43201C1F21FFF784FFA37D002255
:10CC2000934202D0227E5201D2B2E37D082B05D07E
:10CC3000102B05D0042B05D1102302E0182300E0AF
:10CC400008231A43237F59B2002904DB03210B4038
:10CC500004210A431A43201C2021FFF763FF637F4E
:10CC60000022934205D0A27F03231A405201802361
:10CC70001A43201C2121FFF755FF10BD10B5131CCE
:10CC8000021C0C1C72321178221CFFF735FF10BDFC
:10CC900038B5C31CDB7F041C5A1E9341821CD17F14
:10CCA00007221140021DD07F032202408900520159
:10CCB000DB010A431A43201C2021FFF7DFFF631C1E
:10CCC000DB7F0022083BDBB2082B01D8104AD25C84
:10CCD000201C2121FFF7D2FFA31DDB7F03255A1E55
:10CCE0009341E21DD27F5B012A401A43201C22217E
:10CCF000FFF7C4FF631DDA7F201C1540AA00232123
:10CD0000FFF7BCFF201C24210022FFF7B7FF38BD2E
:10CD1000C448020070B50C4C161C201C0D1C00F001
:10CD2000A0F9311C201C00F03EF9201C002100F06D
:10CD3000A7F9291C0122201C00F0FCF9201C00F09E
:10CD400013F9C0B270BDC046BC2A002008B5031C50
:10CD500073330A1C1978FFF7DDFF08BD08B5031C03
:10CD600072330A1C1978FFF7D5FF08BD70B5031C94
:10CD7000427873331A708278013B1A70041CFFF7F3
:10CD800095FE201CFFF73CFE201CFFF76DFE201CCB
:10CD9000FFF74EFE0E4800F051F90F21201CFFF75F
:10CDA000DDFF0F21061C201CFFF7D0FF05022E43DC
:10CDB000084B35B200209D4209D1201CFFF7BCFE74
:10CDC000201CFFF717FF201CFFF762FF281C70BD17
:10CDD000BC2A00203D680000F7B5164C1D1C201C25
:10CDE00008AB0F1C01921E7800F03BF92368019AF2
:10CDF000802111431B68201C9847201C002100F053
:10CE00003FF9002801D0002012E0391C201C321C00
:10CE100000F090F9071EB742F5D12E1C731BBB42E0
:10CE200005DA201C00F0A0F830700136F6E7381C57
:10CE3000FEBDC046BC2A002037B5141C021C0D1CC8
:10CE40007332117800932A1C231CFFF7C5FF3EBDE7
:10CE500037B5062328216A46041CFFF7EDFF062894
:10CE600023D168464178037809021943E185C278E5
:10CE7000837812021A432286437900791B02034306
:10CE8000201C63868030007800280ED0201C66307D
:10CE90000088091AE185211C68310988521A228606
:10CEA000221C6A3212889B1A638637BD37B5062367
:10CEB00018216A46041CFFF7BFFF062823D16846E5
:10CEC00041780378090219432185C27883781202D8
:10CED0001A436285437900791B020343201CA38512
:10CEE0008030007800280ED0201C60300088091A9D
:10CEF0002185211C62310988521A6285221C643204
:10CF000012889B1AA38537BD37B5141C021C0D1C53
:10CF10007232117800932A1C231CFFF75DFF3EBD7F
:10CF200013B5062328216A46041CFFF7EDFF0628E7
:10CF30000FD169464B780A781B021343A386CB783E
:10CF40008A781B021343E3864B790A791B02134349
:10CF5000238713BD031C3133303002781B78002047
:10CF6000934200D8D01A7047021C011C3132303174
:10CF700013780978994204D9591C1170C318187C88
:10CF800001E0012040427047031C021C3133303263
:10CF90001B7812789A4202D9C018007C01E0012067
:10CFA00040427047704710B5021C68321278031C6B
:10CFB0000120022A0AD11C1C523422781F2A05D8CB
:10CFC0009B181018303320709970002010BD70B578
:10CFD000031C68331C780023022C0ED193420CD022
:10CFE000051C52352C781F2C07D8661C2E70CD5C82
:10CFF00004193034A5700133F0E7181C70BD00002F
:10D0000038B5FA239B0083600B4B0025083303607F
:10D01000031C303345601D705D702233041C1D708D
:10D020005D709D70291C1022583006F0C9FA231C2F
:10D0300068331D70201C38BDD048020038B5041C70
:10D04000032000F075FB051C022000F071FB011CA1
:10D05000201C2A1C583000F0A9F9683400232370E2
:10D0600038BD031C49005433021C1970533200238D
:10D070001370013A13706830022303707047000088
:10D08000F7B5031C051C071C0E1C5433021C523739
:10D090005835041C197832323B78281C009600F071
:10D0A00059FA231C00206833012238701A70A36DCE
:10D0B000041C191CFC318A6A012A0DD10A481F5828
:10D0C000BF0703D58C625A61FF2405E01858470753
:10D0D00002D58C625A61FE24002E02D0281C00F07A
:10D0E000C9F960B2FEBDC046C404000008B5012104
:10D0F000FFF7C6FF08BD73B5151C4900021CC9B275
:10D100005432041C1170202D02D8002D0AD000E0EA
:10D110002025201C221C0093583010322B1C00F0BC
:10D12000D5F9C6B2231C313300223034301C1A70BA
:10D13000267076BD08B50123FFF7DDFF08BD0000AE
:10D1400008B50248FFF75CFF08BDC046BC2A0020B6
:10D150000848026803210A4302600749074A084B4E
:10D160009B1A03DD043BC858D050FBDC05488047C0
:10D170000548004724050040BC510200002800205B
:10D18000A828002099D1010021C10100FEE7FEE797
:10D19000FEE7FEE7FEE7FEE7334B10B51A78181CF2
:10D1A000012A12D1314B1B6819070ED1304BF022E6
:10D1B0001B68E024191C1140234204D12D4B1B682D
:10D1C000134202D140E03029F8D00378012B0DD171
:10D1D000264A1268110709D1254A1168F022114028
:10D1E000402903D123490968114235D08023A32166
:10D1F000DB050122C9005A501F49002088609A604F
:10D200001E4B8A68002A2DD1C822C046C046C0469F
:10D21000C046C046C046C046C046C046C046C046DE
:10D22000C046C046C046013A002AEED1013B002B61
:10D23000E7D18022A320D205C000135001239360C0
:10D240008B68002BFCD00DE00D490E4A1160802147
:10D250000D4A09021160B8E7C1228021D200C90538
:10D260008B50C3E710BDC046E00F00F0E40F00F0A4
:10D27000E80F00F0EC0F00F0FC0000408813000005
:10D28000DFFF07C004050040186C00400368002160
:10D290001A1CFC32916001215961064B91680029EA
:10D2A00004D1013B002BF9D1012002E000230373DC
:10D2B000181C7047A1860100084B0068C150084B3C
:10D2C000021CFC32116A002904D1013B002BF7D16A
:10D2D000012001E0002010627047C0461C050000DC
:10D2E000A186010010B50368002A03D00220802225
:10D2F0008240985001221A62084A1C1CFC34E068E3
:10D30000002804D1013A002AF7D1012005E00020CD
:10D31000A322E060D2009B580B7010BDA1860100D3
:10D3200010B50B4C02680B4BA14204DC0A4981602A
:10D33000CC2149040AE0094CA14203DC0849816080
:10D34000802102E007498160CD21C904D15010BD80
:10D350008FD0030024050000A08601007F1A06007C
:10D3600090D00300801A0600F8B5E0256D00041C7B
:10D370005619A020C025E027C005ED007F00B600AB
:10D380003550CE19B60035502068A125ED00425128
:10D39000054A8150191C201CFFF7C2FF2268A023F8
:10D3A0000521DB00D150F8BD0C050000F8B52A4B73
:10D3B0000F1C1978161CC9B2051C1A1C012909D1A9
:10D3C0005C78F8B2844205D19878F3B2984201D1E2
:10D3D000697316E0214908780B1C012807D14C78A5
:10D3E000F8B2844203D18878F1B2884214D011781F
:10D3F000002908D10123F9B213705170F1B2917074
:10D400006B73174C10E01A78002A09D101221A70A8
:10D41000FAB25A70F2B29A7002236B73114C03E0A5
:10D42000114803F030FC0024201C00F035F9221CC8
:10D430000023FC326E712F712C609362A022D20007
:10D44000A3500A4A281CA3500123A350391C321CA4
:10D45000074BFFF789FFF8BD282B00202C2B00205D
:10D460000030004000400040F0480200FC0F000087
:10D47000A086010008B503680022191CFC318A62ED
:10D48000A021C9005A5006495A5001225A5004217D
:10D490000522415682568368FFF766FF08BDC046E5
:10D4A000FC0F0000036830B5191CFC318A6A0020AB
:10D4B000012A08D1044C1C5988625A610220A50730
:10D4C00000D40120404230BDC4040000F7B51F1C49
:10D4D00001920368B1224910D200995080210122A3
:10D4E00089005A50191CFC310026CE60051C1A60B8
:10D4F0007C1E019BA64213DA9919281C0022FFF713
:10D50000F1FE00280AD0281CFFF7CCFF071C281CBE
:10D51000FFF7B0FF341C002F1ADA18E00136E7E7F6
:10D520001919281C0122FFF7DDFE002803D0281C52
:10D53000FFF7A0FF0CE0089B3C1C002B08D02968DB
:10D540000B1CFC339A68002AFAD000229A603C1C1B
:10D55000201CFEBDF8B5171C1E1CB1220368D200AA
:10D56000491099508022920000259D500122041CF0
:10D570009A60B54211DA795D201CFFF79DFE002804
:10D5800009D0201CFFF776FF201CFFF78BFF002837
:10D590000EDA051C0CE00135EBE7069B351C002B71
:10D5A00006D0201CFFF772FE002801D001256D4235
:10D5B000281CF8BD82B00190C046C046C046C04697
:10D5C000C046C046C046C046C046C046C046C0462B
:10D5D000C046C046019B013B0193002BECD102B039
:10D5E00070470000F0B5A023DB000022C158A02442
:10D5F000C250EE22E405D200A35885B00293234B1B
:10D60000234E0191A350A15980220391A351A1233C
:10D61000DB009205E25080225205E250051C0420F6
:10D62000FFF7C8FFA223DB00E258910004D5E258BF
:10D630000123120F1A4217D11324013C002C15D0DC
:10D64000144BA0268027F6057F05F7500420FFF72E
:10D65000B1FFA123DB00F7500420FFF7ABFFA223AB
:10D66000DB00F3589A00E8D5012000E0201C029965
:10D67000A023EE22DB05D20099500399044A995069
:10D68000019AA023DB00EA5005B0F0BD0D060000B2
:10D69000740700000C050000164AA023EE21DB05EC
:10D6A000C90010B55A5014495A50031CFC330022CB
:10D6B000DA601A62A122D2001C2383500F4B1D2175
:10D6C000C1500F4BCC214904C1509C235B00C418AE
:10D6D000A2210C4BC9005C500B491D3CFF3C5C5027
:10D6E00001219950A0230522DB00C250FFF77AFFE9
:10D6F00010BDC0460C060000740700000C050000B9
:10D700002405000000F0014014050000F8B5061CD7
:10D710000C1C8F180025BC4207D0336821781B6889
:10D72000301C984701342D18F5E7281CF8BD00007F
:10D73000FF230E2801D8024B1B5C58B27047C0462D
:10D740000149020010B5FFF7F3FF041C601C04D16F
:10D75000244825495F2203F039FA631EDBB2062B09
:10D760003DD8224B01221968214B89001B68101CEF
:10D770005B011943022319431E4B1B681B04194309
:10D78000631C984003020C1C1C431B491B4B50425A
:10D790005C50C22189005850A021C9005A501A601B
:10D7A000C046C04614498022D2009A58D007FAD405
:10D7B000A1221248D2008058114A12780A2A07D0B2
:10D7C000092A03D80A24A21AD04001E00A3A90405C
:10D7D000A022D20000249C505A585A5000E0094818
:10D7E00010BDC0461049020027490200142800203D
:10D7F0000C280020302B00200405000000700040A1
:10D8000010280020FFFF000008B503F095FDFA2165
:10D81000890006F039FB08BD01207047054B1A1C32
:10D820004032107841331B784030C01A3F231840F3
:10D830007047C046342B0020084A111C101C41318F
:10D8400040300B780078984205D0D05C01333F22FD
:10D8500013400B7001E0012040427047342B002040
:10D86000064B1A1C191C413240311278097891423A
:10D8700001D0985C01E0012040427047342B002029
:10D8800007B5034B6846009303F056FC0EBDC04637
:10D890000020004007B5044B0093684603F05AFC93
:10D8A0000028FAD007BDC0460020004030B5074B25
:10D8B0003F211A1C40321478651C29401D1C41353B
:10D8C0002D788D4201D01855117030BD342B0020B9
:10D8D00000234360FA239B008360024B08330360FC
:10D8E0007047C046A049020073B5101C1E1C0C1CDA
:10D8F000FFF71EFF051C301CFFF71AFF0B4B2A1CFD
:10D90000011C6846009303F02DFB01235B421A1CA7
:10D910006846002103F026FC6846211C03F0FEFA4D
:10D9200068460021012203F0C1FB73BD00200040C6
:10D9300008B500220123FFF7D7FF08BD08B503484B
:10D9400003F0A0FD0248FFF7C3FF08BD342B002001
:10D95000782B0020F0B5021C406812680B1C01688F
:10D9600089B00C68019203AA151C1E1CA44692CE15
:10D9700092C5DB680199D36000231361E04709B0C9
:10D98000F0BD000038B50023041C016043609942DB
:10D990000AD1064D2B68002B02D100F051FD286002
:10D9A00022689300ED586560201C38BD942B002040
:10D9B000F8B500280DD1104C2668002E07D108209C
:10D9C00005F028FD311C051CFFF7DCFF25602068F1
:10D9D00010E00A4D01272E68094C3E4009D1281C51
:10D9E00005F032FD002804D0281C2760666005F091
:10D9F0003AFD201CF8BDC046882B0020982B002043
:10DA00008C2B0020436810B5041C002B02D1044865
:10DA100003F039F9606803681B69984710BDC04678
:10DA2000C8490200436810B5041C002B02D1044809
:10DA300003F029F9606803681B69984710BDC04668
:10DA4000C8490200436810B5041C002B02D10448E9
:10DA500003F019F9606803689B69984710BDC046D8
:10DA6000C8490200436810B5041C002B02D10448C9
:10DA700003F009F960680368DB6A984710BDC04687
:10DA8000C8490200704702207047022070470020FA
:10DA9000704700207047000000487047FFFF0000FB
:10DAA0000220704702207047022070470220704712
:10DAB0000220704702207047022070470220704702
:10DAC00002207047022070470220704702207047F2
:10DAD0000220704700231360704700207047022027
:10DAE00070470220704702207047022070470220D2
:10DAF00070470020704700207047002070470220C8
:10DB00007047022070474160704781607047C16074
:10DB100070470161704741617047022070470220E1
:10DB20007047022070470220704702207047022091
:10DB30007047022070470020704702207047002085
:10DB40007047704790DF704766DF704748DF704767
:10DB50005F300078431E9841C0B27047007970472B
:10DB60000C3070470C30704708B5FFF7EFFF08BD69
:10DB700008B50368002B01D0081C984708BD08B5FC
:10DB80000368002B01D0081C984708BD08B503683E
:10DB9000002B01D0081C984708BD08B50368002B6E
:10DBA00001D0081C984708BD08B50368002B01D0B8
:10DBB000081C984708BD000010B5034B041C036007
:10DBC000FEF70EFB201C10BDB04C020010B5041C6B
:10DBD000FFF7F2FF201C05F031FC201C10BD08B53A
:10DBE000081C111C1A1C029B01F0F8F908BD08B5AD
:10DBF000081C111C01F06CFA08BD08B5081C111CAA
:10DC000001F08CFA08BD08B501F04EFA08BDF0B578
:10DC100095B008230C1C69460B7104AA0B73684667
:10DC20000CAB0293009201F09FFA0023061C051E24
:10DC30002CD169460B79AB4211D96379AB4201D83B
:10DC4000257124E00722101C68432368009F1818E0
:10DC5000AB00D959013505F091FCEDB2E9E725712A
:10DC600000256B461A7B2379EB18AA420ED96279FC
:10DC700093420BDA0721029F4B43AA00D059226836
:10DC80000135D11801F08CFAEDB2EAE72371301CAE
:10DC900015B0F0BD7FB50379002B0FD0164E174C91
:10DCA0003378201C002B25D102AD281CFFF74CFF38
:10DCB000002819D16B88592B16D101E0104819E0C2
:10DCC0002B78AA88D91F012904D80092201C202172
:10DCD0000C4A03E000920C4A201C202105F072FD42
:10DCE00001233370201C05E0201C0849202205F088
:10DCF000A2FDF7E704B070BD9C2B0020E02C0020B3
:10DD0000D84B0200F24B02000F4C0200344C0200D0
:10DD100038B50379041C0920002B28D002F024FF19
:10DD2000031C0520002B22D1251CFC35A86B0028E4
:10DD300003D1286C002806D10AE003681B6A9847C3
:10DD40000028F6D013E003689B6A984700280ED19C
:10DD5000E86B002804D00368DB6A9847002806D1E6
:10DD6000201C0C3003F0C8FF002800D1207138BD02
:10DD7000F7B50093036801915B68041C171C984772
:10DD8000051C0620002D3BD11C203A1C00194ACA54
:10DD90004AC0FF68009A231CA762E562443383CA25
:10DDA00083C3009B0899DB68142223656565A01D69
:10DDB00005F0E4FB201C09991422303005F0DEFB4D
:10DDC000019E231C5D33A680013B5D700121301C48
:10DDD0001D70D9702A1CFFF7B5FE061C281C002EEA
:10DDE0000ED02368201C9B689847112E07D0054B46
:10DDF0009E4202D00620072E02D1042000E005201A
:10DE0000FEBDC0460230000038B5041CE369236241
:10DE1000206A002807D0C368211C9847236A002B7A
:10DE2000F4D01B69F3E7E069002804D0056905F028
:10DE300005FB281CF8E7E0616060A060E0602061FD
:10DE4000606138BD08B5FFF7DFFF002800D006206D
:10DE500008BD38B5041C0068002804D0056905F029
:10DE6000EDFA281CF8E7206038BD000010B5034A21
:10DE7000041C04C0FFF7EDFF201C10BDE84A02009F
:10DE800010B5041CFFF7F2FF201C05F0D7FA201C88
:10DE900010BD38B5041C0068002804D0056905F0E1
:10DEA000CDFA281CF8E7206038BD000010B5034A01
:10DEB000041C04C0FFF7EDFF201C10BDF84A02004F
:10DEC00010B5041CFFF7F2FF201C05F0B7FA201C68
:10DED00010BD000038B5074B041C036040680028E3
:10DEE00004D0056905F0AAFA281CF8E76060201C38
:10DEF00038BDC046084B020010B5041CFFF7EAFF0E
:10DF0000201C05F09BFA201C10BD000038B5074B03
:10DF1000041C03604068002804D0056905F08EFAEF
:10DF2000281CF8E76060201C38BDC046D84A0200B3
:10DF300010B5041CFFF7EAFF201C05F07FFA201C37
:10DF400010BD000038B5074B041C03604068002872
:10DF500004D0056905F072FA281CF8E76060201CFF
:10DF600038BDC046784B020010B5041CFFF7EAFF2D
:10DF7000201C05F063FA201C10BD000038B5074BCB
:10DF8000041C03604068002804D0056905F056FAB7
:10DF9000281CF8E76060201C38BDC046684B0200B2
:10DFA00010B5041CFFF7EAFF201C05F047FA201CFF
:10DFB00010BD000038B5074B041C03604068002802
:10DFC00004D0056905F03AFA281CF8E76060201CC7
:10DFD00038BDC046284A020010B5041CFFF7EAFF0E
:10DFE000201C05F02BFA201C10BD000038B5074B93
:10DFF000041C03604068002804D0056905F01EFA7F
:10E00000281CF8E76060201C38BDC046F8490200B3
:10E0100010B5041CFFF7EAFF201C05F00FFA201CC6
:10E0200010BD000038B5074B041C03604068002891
:10E0300004D0056905F002FA281CF8E76060201C8E
:10E0400038BDC046084A020010B5041CFFF7EAFFBD
:10E05000201C05F0F3F9201C10BD000038B5074B5B
:10E06000041C03604068002804D0056905F0E6F947
:10E07000281CF8E76060201C38BDC046184A020022
:10E0800010B5041CFFF7EAFF201C05F0D7F9201C8F
:10E0900010BD000038B5074B041C03604068002821
:10E0A00004D0056905F0CAF9281CF8E76060201C57
:10E0B00038BDC046C84A020010B5041CFFF7EAFF8D
:10E0C000201C05F0BBF9201C10BD00000F4B10B543
:10E0D000083303600E4B041CC3600130FF30FFF7B0
:10E0E0006BFD0C4B201CE360B830FFF763FF201C76
:10E0F000AC30FFF7B3FF201CA030FFF793FF201CCC
:10E100006C30FFF773FF201C10BDC046404C02006E
:10E1100018500200384A020010B5041CFFF7D6FF61
:10E12000201C05F08BF9201C10BD000038B5051C23
:10E13000FC352C6C002C0DD1242005F06BF9064B1E
:10E1400044608361054B8460C46004614461C461C0
:10E1500003602864286C38BDC84A0200A84B02003E
:10E1600038B5051CFC352C6C002C0DD1242005F095
:10E1700051F9064B44608361054B8460C4600461BF
:10E180004461C46103602864286C38BDC84A020039
:10E19000A84B0200F7B50379071C0E1C151C002BB9
:10E1A00006D00023019300930A246B461C7109E0FA
:10E1B00000F0B0FC041C0C20002C0CD101233B719E
:10E1C00000940194301CFFF7F3FBEB680090694664
:10E1D000281C9847201CFEBD10B500211F22041CDE
:10E1E00005F0EEF90023E37710BD0000F0B5051C43
:10E1F000AC35041C686887B0A860A86800280BD0FC
:10E20000C368211C9847AB68002B02D16968A960DC
:10E21000F3E71B69AB60F0E7251CB03528680028E0
:10E2200004D0066905F00AF9301CF8E7231C5833BE
:10E230001978FC220A402860023B9A709871187085
:10E24000201C0A30FFF7C8FF201C3430FFF7C4FF42
:10E25000606E002804D0056905F0F0F8281CF8E786
:10E26000251C606698352868002804D0066905F0EA
:10E27000E5F8301CF8E7261C2860A4363568002D28
:10E2800005D02F69281C05F0D9F83D1CF7E735604B
:10E2900001AE291C301C0C2205F092F9231C321C03
:10E2A0006C3383CA83C3094BE567A3670C22301C18
:10E2B000291C05F085F9231C803385CE85C3044ACB
:10E2C0009034281C1A60256007B0F0BD7FDB010088
:10E2D00071DB010010B50023021C03701132431CD6
:10E2E00000241C7001339342FAD1418210BD00001A
:10E2F000F0B589B0002603AC051C8680311C201CBB
:10E30000FFF7E8FF211CA81D142205F037F92F1C88
:10E31000311C0C22201C05F053F91C37201C0EC8A0
:10E320000EC70F4B311C0190AB62EE62201CFFF751
:10E33000D1FF2B1C221C303383CA83C3019A311CAA
:10E3400081CA81C30C22201C05F03AF92B1C4433EE
:10E3500086CC86C3034B301C2B656E6509B0F0BDBF
:10E360009BDB0100A9DB0100F0B597B005930368C2
:10E3700007AC1B6804910393111C231C061CA1C944
:10E38000A1C3D26800250A92291C0C220CA811AF47
:10E390000B9505F015F9094B291C381C10950F93A6
:10E3A000FFF798FF059D01970095301C0499221CEA
:10E3B0000CAB039FB84717B0F0BDC046A9DB010006
:10E3C00038B50025041C291C20C0FFF783FF2576E3
:10E3D0006583A583E5832584201C38BD10B58AB0EC
:10E3E000041C0021242201A805F0EAF801A8FFF787
:10E3F000E7FFCA235B002222E01801A905F0BEF85E
:10E400002368201C5B689847231C5F3300221A7026
:10E4100090420DD0C0235B00E358934208D0054BD7
:10E42000934205D0C0235B00E018A188C3689847D9
:10E430000AB010BD85DA010008B5FFF7CFFF08BDAF
:10E4400000487047A02B002000487047A02B0020F8
:10E45000F0B5434B434A0833061C0360C2600023F7
:10E46000A0221636011C428285B0041C0371836011
:10E4700003748382321C35310023137001328A42C7
:10E48000FAD180258021C901AD00201CF3770A1C38
:10E4900035843830009303F003F8221C4032211CED
:10E4A0000392131C5F312A1C00251D7001338B421F
:10E4B000FAD1039B201CDD77231C603319791A8065
:10E4C000FC220A409D701A711D72274B291CE366BD
:10E4D00025670C22783005F073F8231C88331D6003
:10E4E000271C224B0837FB678437291C381C0C2259
:10E4F00005F066F81E4B1F4AFB60231CA0333D61EC
:10E500001A601D4A5D60DA601C4A1D619A61DD6116
:10E51000301CFFF761FE0398FFF75EFE184B601C8E
:10E52000E360231CC4331D705D709D70FF3000F0EC
:10E5300087FE8C235B00E5508C235B00E3185D6154
:10E54000104A80235B00E250231C0122FE3352421A
:10E550005A86201C023B9D63DD631D6405B0F0BD3F
:10E56000404C0200384A0200F84902007FDB0100FB
:10E5700071DB0100084A0200184A0200284A020022
:10E5800018500200B04C020038B50C220D1C0021BE
:10E59000041C05F015F800232361024B2560201CA4
:10E5A000E36038BD8DDB0100314B70B50025041CE4
:10E5B0000E1C036085710583291C0C221C3004F09D
:10E5C000FFFF2C4BE562A362231C30331D70201C1F
:10E5D000231DDD87291C44300C2204F0F1FF264B5B
:10E5E00065652365254BA6652360231C5C331D7080
:10E5F0005D709D70DD70261C251C6035C036281CA2
:10E600000021FFF767FE0023AB82EB821835B5428D
:10E61000F5D1A8225200A618281C0021242204F0BB
:10E62000CFFF281C2435FFF7CBFEB542F4D1A82339
:10E6300000215B00E150B422231CFC335200996599
:10E64000D965196659666C61A15019675967996750
:10E65000D967A3185C61C0235B00E018FFF794FF43
:10E66000CA225200A018FFF7ABFE201C70BDC046A6
:10E67000484B02009BDB0100A9DB0100884B020034
:10E6800070B5061CFC36F56B002D1CD1B420800043
:10E6900004F0C0FE0D4B041C43600D4B856003610C
:10E6A0000C4B4561C3610C4B056283620B4BC56229
:10E6B0000360211C3430FFF777FFF6235B00E0187E
:10E6C00002F0CAFFF463F06B70BDC046F84A020066
:10E6D000E84A0200684B0200784B0200A850020092
:10E6E000264B70B50360264B00258360254B041C28
:10E6F0004361254B05710362244B4571C362C560BC
:10E70000856145620563291C3830FFF73DFF201CF9
:10E71000291C4C30FFF738FF201C291C6030FFF704
:10E7200033FF1B4B251C2360231C7435C43300228C
:10E7300004C59D42FBD1B22149006618281C002166
:10E740000822083504F03CFFB542F7D1C2235B0034
:10E75000E218002308C59542FBD1C222C321520012
:10E760004900A3546318CB21490062180021198085
:10E7700002339342FAD1201C70BDC046184B0200F0
:10E78000D84A0200E84A0200F84A0200084B020098
:10E79000E850020038B5041CFC34A36B002B07D1F1
:10E7A000CC20400004F036FE051CFFF799FFA5635E
:10E7B000A06B38BD38B5041CFC34A36B002B07D10B
:10E7C000CC20400004F026FE051CFFF789FFA5635E
:10E7D000A06B38BD70B5031C0A1C70CA70C3C96831
:10E7E0000023C160036170BD08B58130FF30FFF7C1
:10E7F000F1FF08BD30B587B0051CFFF779FD041E99
:10E8000024D12B1C5C33187058709870D870A823D2
:10E810005B00E850EA1801235B4253609360D360C9
:10E820001361B4225200A850B4225200AA18211C2D
:10E8300053609360D360136101A8FFF7A5FEC02168
:10E840004900681801A9FFF7C5FF00E00624201C55
:10E8500007B030BD70B5041C86B0236B6363606B7A
:10E86000002807D0C368211C9847636B002BF4D0A5
:10E870001B69F3E7206B002804D0056904F0DEFD76
:10E88000281CF8E7E568206320716071002D05D031
:10E890002E69281C04F0D2FD351CF7E7201CE5602A
:10E8A0001830FFF7D6FA201C2430FFF7F2FA291CA3
:10E8B00001A8FFF769FE201C01A93830FFF78AFF85
:10E8C000291C01A8FFF760FE201C01A94C30FFF7AE
:10E8D00081FF291C01A8FFF757FE201C01A9603009
:10E8E000FFF778FF281C06B070BD000010B5054C7E
:10E8F000201CFFF7ADFD201C0349044A04F0B6FDBF
:10E9000010BDC046A02B0020CDE001000028002053
:10E9100070DF704771DF704760DF704708B501F046
:10E920008DFE08BD08B502F0A5F8002008BD000066
:10E93000F0B5041C8BB001F09BF8201C00F002FA2B
:10E940000020FFF781FD0368061C1B6998473368A8
:10E95000051C9B69301C9847336801905B6A301C2A
:10E960009847031C208810380B2800D9C8E005F010
:10E9700081FA0643C7C7C782C7C7C789C7A7A68882
:10E98000281C311C277D03F0CAF9607B2B1C5833EF
:10E99000009018780122904302221043A179023B93
:10E9A0009870187806220130187000986B46D97458
:10E9B00098761E829F74231C1633E11D05A80993C7
:10E9C00004F0DCFD6846211C0E3194351B30062214
:10E9D00004F0D4FD6968A960A868002800D18FE020
:10E9E000C36804A99847AB68002B02D16A68AA6083
:10E9F000F2E71B69AB60EFE74449281CA78803F0E6
:10EA00008EF9A379301C009333681B6A9847F6216E
:10EA10004900061C06224018391C02F019FF338FEA
:10EA2000BB4204D1736B301C34309B6898472A1C5E
:10EA300056321378013BDBB21370002B05D12B1C2F
:10EA400058331A7802218A431A70A035009B6868EF
:10EA50006A4617829374A860A868002850D0C368DB
:10EA600004A99847AB68002B02D16968A960F3E755
:10EA70001B69AB60F0E75B69A088A11D002B3FD04C
:10EA800098473DE0A679002E05D12B1C58331A7803
:10EA900001218A431A706B6E002B31D01C4A002A68
:10EAA0002ED0AB66A86E00282AD0C368311C9847C8
:10EAB000AB6E002B02D16A6EAA66F3E71B69F0E722
:10EAC000A37B68465A07910FDA08677B01700272D0
:10EAD000E11D04A80622DE0704F050FD6B461878FD
:10EAE000197AF60F187659769F75DE75231C0F3349
:10EAF00007932B1C8C33281C80301B6804A9984773
:10EB00000198211C03F01AFE0BB0F0BDFFFF0000BE
:10EB100085DA01001FB5A3238022DB00D205D3587C
:10EB20000D20DA0700D508201C4948221C4B01F0B3
:10EB3000F7FF00280BD080B2002808D1BFF34F8F19
:10EB4000184A194BDA60BFF34F8FC046FDE7002328
:10EB500002A80293436001230370FFF7DDFE002843
:10EB600001D0072017E06846FFF7D4FE0028F8D14F
:10EB70006946FFF7CDFE0028F3D10C4802F000F8FB
:10EB800080B2002807D10A4802F004F880B20028B9
:10EB900001D100F099F905B000BDC046002D00205C
:10EBA00025E901000400FA0500ED00E031E901006B
:10EBB0001DE901007047000080B2002808D1BFF3B2
:10EBC0004F8F044A044BDA60BFF34F8FC046FDE716
:10EBD0007047C0460400FA0500ED00E010B5027869
:10EBE000002A09D10C78131C002C13D1428A4B8ABD
:10EBF000D31A5A4253410CE00023012A0AD10A7861
:10EC0000012A07D101300131102204F0A8FC43424F
:10EC10004341DBB2181C10BDF0B50E1C011C5F3166
:10EC200091B001910B78071C051C5C37022B7BD13E
:10EC300007AC24220021201C04F0C2FC08A80021FB
:10EC4000FFF748FB002323766383A383E3832384B6
:10EC5000CA235B00EB58079A934217D1CC235B0081
:10EC6000E81808A9FFF7BAFF00280FD0CA21490009
:10EC70006B181A7E510609D15A8B002A06D1DA691F
:10EC8000E1698A4202D11B8C002B4AD0002E32D17E
:10EC90003B78182253436033EB18DA8AD9235B00A0
:10ECA000EA522A1C3032311C02A80092FFF712FBF4
:10ECB000009802A9FFF792FF002814D1CC235B0033
:10ECC0000098E918FFF78AFF002814D0311C201C97
:10ECD000FFF700FBA81D211CFFF780FF0123584010
:10ECE000C0B2002807D0696C281C4430002902D02B
:10ECF000134B002B1DD124220021201C04F060FCAA
:10ED0000002108A8FFF7E6FACA2252000023A8183B
:10ED1000211C222223766383A383E383238404F0CC
:10ED20002DFC019901230B703B7801333B7011B02E
:10ED3000F0BDCA225200A9182B6D9847DBE7C046E8
:10ED400085DA01007FB5051C0020FFF77DFB036815
:10ED5000041C1B6998472368201C1B6A9847061CE3
:10ED6000041C288834363038082800D99AE005F089
:10ED700081F805991384212D99486500EB88002BB3
:10ED800005D1291C0C31301C03F06CFE8AE0636B4A
:10ED9000301C9B68984785E0EB88002B05D1291C27
:10EDA0000C31301C03F0E0FE7CE0301C0021FFF74A
:10EDB00033FF77E0636B301C5B689847002871D0A5
:10EDC000291C0C31301C03F02DFF6BE0AB886A4628
:10EDD0001380AB895380EB8993802B8A123502957F
:10EDE000D380A368E360E06800285BD0C36869460D
:10EDF0009847E368002B02D1A268E260F3E71B6941
:10EE0000F0E7AB886A461380AB895380AB7B137104
:10EE10002B8AD3806B8A1435039513816369A361B0
:10EE2000A06900283ED0C36869469847A369002BB3
:10EE300002D16269A261F3E71B69F0E7AB886A4619
:10EE40001380AB895380AB7B13712B8A12350295EB
:10EE5000D380236A002B25D0164A002A22D0636271
:10EE6000606A00281ED0C36869469847636A002B11
:10EE700001D1236AF3E71B69F1E7F622EB88520020
:10EE8000A018A988002B05D085225200934206D1F4
:10EE9000002205E02A1C0C3202F0EDFC02E00B22FD
:10EEA00002F0D6FC301C03F0D5FF301C03F050FFFD
:10EEB0007FBDC04685DA010077DF704778DF704795
:10EEC0007ADF70477CDF70471FB5002302AC0393E5
:10EED00028232380C8235B006380E38001A81123DB
:10EEE0000C4905220370FFF7EDFF80B200280FD117
:10EEF00080208000FFF7E2FF80B2002808D1201CAC
:10EF0000FFF7DEFF80B2002802D1FFF7D5FF80B205
:10EF100004B010BD804C02007EDF704768DF704790
:10EF200038B500200C1CFFF78FFA03685B6A98471E
:10EF30002378051C142B17D002D8132B05D042E0E0
:10EF4000152B16D0222B38D03DE063686C681888EA
:10EF50009B78D9079A07C90FDB06C9B2D20F5B0F9E
:10EF6000002C30D0A0472EE0636818889978AB68F1
:10EF70001FE0626891780B090907090F012902D087
:10EF8000022908D010E0013BDBB20021022B0ED891
:10EF90000E49C95C0BE0012B08D0023B58424341AB
:10EFA00005215B42194002E0002100E004211088A5
:10EFB000EB68002B07D0984705E0636818882B6939
:10EFC000002B00D09847002038BDC046864C020078
:10EFD000014B18787047C046492D0020F0B51C1C25
:10EFE0002D4B87B001921A78071C00200D1C82421D
:10EFF00050D101F055FB002846D1002C0FD0222023
:10F0000003A90394FFF78AFF002808D0082804D03A
:10F0100011384342584104303CE006203AE00023D6
:10F020006846037202A800F099FB011E2CD11B4E0A
:10F03000012433782540A3436A0027401D1C3D432B
:10F04000019B02270720BD43034015431C22BB4000
:10F0500095431D43357003AD0C22281C04F0B0FA13
:10F060000F4B6846311C0522113003932F7104F0B9
:10F0700085FA0C48291C00F0E3FB031E06D0042887
:10F0800007D00620082B05D00B2003E0024A14709D
:10F0900000E0072007B0F0BD492D0020182800200F
:10F0A00021EF0100482D002008B5084800F090FC31
:10F0B0000023984207D0042804D00623082802D051
:10F0C0000B2300E00723181C08BDC046482D002074
:10F0D00073B500230193104B01AD1B780E1C291C46
:10F0E0002B7000F089FE041E04D00B23052810D1DC
:10F0F00004230EE0281C311C00F0DCFB231C00283C
:10F1000007D0042804D00623082802D00B2300E0EF
:10F110000723181C76BDC046482D002073B5114C3E
:10F120000D1C061C211C6846052204F027FA012D3F
:10F1300006D0022D13D1237801221343AB4303E001
:10F1400023780222AB439343301C69462370FFF7B8
:10F15000E3FE421E90410B234042034000E00223A5
:10F16000181C76BD1828002008B5094B011C1A7818
:10F170000923002A09D0074800F0D4FB0023984255
:10F1800003D006230E2800D10323181C08BDC04657
:10F19000492D0020482D002008B500F07CFE08BD58
:10F1A00008B502230B708E230B714F234B710A1C81
:10F1B0007C238B710132043100F044FE08BD4368AA
:10F1C000426910B5D118041C00F050F8E36A002B16
:10F1D00004D1A369002B07D0984705E0A069002857
:10F1E00002D0211C1C31984710BD10B5041C00F042
:10F1F00045F80023A361E36210BD38B50D1C041C63
:10F2000000F03CF86561206901F0D9FD4119201C2E
:10F2100000F02CF838BD08B5C36A011C002B04D1DE
:10F220008369002B06D0984704E08069002801D04C
:10F230001C31984708BD08B503689B68984708BD0E
:10F24000084B10B508330360002343608360C3603C
:10F25000041C01F0B9FD0449206101F04BFD201CA4
:10F2600010BDC046C04C020037F2010008B50A1CB0
:10F27000031C011D006901F069FD08BD08B5011CF2
:10F280000431006901F07EFD08BD000010B5044B9B
:10F29000041C08330360FFF7F1FF201C10BDC046BB
:10F2A000C04C020010B5041CFFF7F0FF201C04F056
:10F2B000C5F8201C10BD08B5012004F0F5F8704712
:10F2C000704708B5FFF7FCFFFFF7F9FF02F0D4F82D
:10F2D00008BD0000084B1B681818EFF30882904225
:10F2E00005D3064B0C2201201A60404202E0024A7C
:10F2F0001060181C7047C04620280020E02E002017
:10F3000008B5002800D1FEE701F084FCFBE77FDFB1
:10F31000704782DF7047A7DF7047A9DF7047AADF19
:10F320007047002070470020704700207047002081
:10F330007047002070470020704700207047000091
:10F34000F0B58BB06C460E23E382039001914B78AD
:10F350000C225343244A1634D318188906A9221CB8
:10F360000323FFF7DCFF00283BD1019B18275B78C4
:10F370001E4D5F4300933B1C26880833EB18181C76
:10F3800006A9321C029304F0EAF82C1C00280DD1C7
:10F39000009A0C235343144AD318997A0223194034
:10F3A0001FD1E819182204F00BF91AE0ED196B6867
:10F3B000002B01D00E4F00E00E4F009B18256B4331
:10F3C0000322E250E3185E6006A9321C029804F0A2
:10F3D000D5F8019B039859782A1C69433823611892
:10F3E000B84700200BB0F0BD4E2D0020B02D0020FE
:10F3F000B50802003508020008B5FFF7A1FF08BDF7
:10F40000F7B5041C0F1C6A468178224801F0EAF91E
:10F4100000283DD162780C214A431F4B9A18927AFA
:10F42000530605D4022F03D0012F03D11B4D02E058
:10F430001B4D00E01B4DA1781C2671431A4B6846FA
:10F440005918321C0023A847002813D1022F1FD0BF
:10F4500063780C225343104A4021D3189A7A6846A5
:10F460008A439A726178114B7143321C5918331CCC
:10F47000A84701E0022F0BD023780C2253430C4AFB
:10F480006846D3189A7A0B4B9200D358211C9847A0
:10F49000F7BDC046D82D00204E2D002035080200B3
:10F4A000B508020023F301005C2D0020942D0020FC
:10F4B000C82D0020E84C0200F7B5019043781821D0
:10F4C0005943264A264F50184468002C0FD00C2070
:10F4D00058433818807A45B2002D07DA450605D41E
:10F4E0000E1C0836A5B296198C5802E00024251C83
:10F4F000261C0C225343FB181889311C2A1C231C80
:10F50000FFF70BFF0B280BD1019A311C53780C220B
:10F510005343FB1818892A1C0123FFF7FEFE012420
:10F52000002800D00F48012C17D1019D0C216B78C9
:10F530000D4A4B43FB181889FFF7EDFE00280CD04D
:10F540000A4B984208D0082806D0094B984203D0AD
:10F55000112801D0002000E00248FEBDB02D00209F
:10F560004E2D002041800000FFFF0000023000000F
:10F570000430000008B5FFF79FFF08BD70B5031CFD
:10F58000487818246043094D0E1C2818191C221CA9
:10F59000382301F0CFF9002806D173785C432D1988
:10F5A0006B68013300D1686070BDC046B02D00208B
:10F5B00008B5FFF7E3FF08BDF0B51D1C434B161C53
:10F5C0001A6893B001900F1C002A7CD01898542818
:10F5D00079D803ABFF22002469465A709A70DA701A
:10F5E0001C700C760B950A90A1B2394804AA01F060
:10F5F000F9F8002809D1019804A9082203F0AFFF07
:10F60000002802D103AB9C7002E00134022CEBD144
:10F6100003ACA278FF2A56D0032F0AD1189A06AB62
:10F62000542A01D1202200E040221A701A780321C6
:10F630003BE0284BEB1A372B11D8274B002E04D177
:10F6400001211868914008423DD0012191400A1CD7
:10F65000196891431960202206AB1A7020E01F4BF5
:10F66000EB1A1B2B09D806AB20221A7000236370FB
:10F670000CAB0B9318230A9312E019482D1A172D7F
:10F6800021D830236A461376002363700123E37088
:10F69000144B997A0223194002D1182203F090FFEB
:10F6A00006AB022F0CD11A7801210A4307481A70C1
:10F6B00009AB079306A90368321C201C984702E097
:10F6C0001A780221F1E713B0F0BDC046C82D002022
:10F6D000D82D00205C2D0020D42D0020942D00205A
:10F6E000B02D00204E2D002070B51C2444430E4E3A
:10F6F000051C3019002134190622113003F060FF77
:10F70000201C0021102203F05BFFFF232374A3764B
:10F7100001235B4223830122044BAA40151C1A6873
:10F72000AA431A6070BDC0465C2D0020D42D002075
:10F7300037B581B2051C6A46074801F053F8041E2C
:10F7400008D16846542101F03FF9041E02D1281C5B
:10F75000FFF7CAFF201C3EBDD82D0020F0B5061CC7
:10F7600085B0002857D02D4B2D48012500246F422D
:10F770001C605C729C72211C0781C7720722857213
:10F7800003F01EFF211C1822264803F019FF201C3D
:10F79000FFF7AAFF244CFF23281C2370FFF7A4FFC8
:10F7A0006A46542367709380204C0223D380204BF9
:10F7B0006846211C009300F0B5FF271C00282BD1C0
:10F7C0001C4A33781570151C002B1BD11C1CA1B2D0
:10F7D000381C02AA01F006F8061E0CD11C22131CCC
:10F7E0006343154802A9C018331C01F0A3F8002890
:10F7F00004D02E7010E000232B700DE00134022C99
:10F800000AD0E4E76B46D9889B88201C594389B20B
:10F8100001F0DAF800E0094805B0F0BDC82D00207D
:10F820004E2D0020B02D00204A2D0020D82D002084
:10F83000B9F501004C2D00205C2D00200E80000049
:10F84000F8B5174B071C1B780D1C002B22D0002885
:10F8500022D0002920D00B68002B1DD0114C266827
:10F86000002E1BD1201C08C00531052203F086FEA6
:10F87000207A2B79012188430222A37210430423AA
:10F8800098432072E07901430A439A43E271301CA5
:10F890003E7004E0044802E0044800E00448F8BD7B
:10F8A0004C2D0020C82D0020088000000E80000094
:10F8B00004800000154B1B78002B22D000281ED09E
:10F8C00000291CD00378002B1BD1114B1B68002B87
:10F8D00017D04278002A16D10E4B9B7A012B12D0FA
:10F8E0002420184003D001230B70101C0CE05BB2E5
:10F8F000002B02DA02230B7006E0087004E00648D1
:10F9000002E0064800E006487047C0464C2D002043
:10F91000C82D00204E2D00200E8000000880000021
:10F9200010800000234BF0B51B78002B25D0002859
:10F9300021D000291FD00B68002B1CD08D68002D12
:10F9400019D00378002B18D11B4A1268002A14D052
:10F950001A481A1C10301C1C194DEE7AB3420ED1F5
:10F96000AD7AAE070BD501331C30022BF4D10C71EC
:10F970000A7300201CE013481AE0134818E00D7BBE
:10F98000AA420AD2857AEE0707D4061C8F68950032
:10F99000103EEE510D4DAB5401320D79AC42E2D226
:10F9A000857AAE07DFD40F68A500E8510134DAE7A5
:10F9B000F0BDC0464C2D0020C82D00205C2D00203D
:10F9C0004E2D00200E800000088000004A2D0020EF
:10F9D000104B10B51B78002B19D0002815D00078DB
:10F9E000002814D10C4B1B68002B10D00B4B9A7EB7
:10F9F0001C1CFF2A01D0FFF79BFE36342378FF2B17
:10FA000006D00120FFF794FE02E0054800E005481B
:10FA100010BDC0464C2D0020C82D00205C2D0020BC
:10FA20000E8000000880000013B5041C81786A462F
:10FA30000B4800F0D7FE002810D160781C235843F3
:10FA4000084A694610181A1C00F074FF064B6846F5
:10FA50009A7A064B9200D358211C984713BDC04692
:10FA6000D82D0020942D0020C82D0020F84C020035
:10FA7000F0B5C64A8FB01278FF23061C0393002A04
:10FA800000D1B4E1C24A1168002900D1AFE104AD50
:10FA900005AF6B70AB70EB70031D7B602A233B815D
:10FAA000038800222A70BB4C102B22D0A17A8288B6
:10FAB0000191890707D5B8498A4200D149E12189D6
:10FAC000914200D145E1172B00D1ACE007D8132BB0
:10FAD00053D0142B2DD0112B00D088E10FE01C2B1C
:10FAE00000D11CE1522B00D111E1182B00D07EE196
:10FAF000E5E0A37A01210B4200D02FE177E10199E3
:10FB00000223019A9943A172120707D54BB2002B29
:10FB10000BDA281C0021FFF773FC06E0A878FF2809
:10FB200003D0FFF7E1FDFF23AB701023A372122374
:10FB3000F6E0E37A994FFF2B14D1F3893A8B9A427E
:10FB400004D0BA8E9A420DD1012300E0002301991E
:10FB5000082203930A43DBB2E372A272281CAB7043
:10FB6000FFF762FFE37A0021FF2B00D08C49B088B9
:10FB70003A1C0023FFF7CDFB39E1019A3B700423C7
:10FB80001343A372E37AFF2B25D184498B7EFF2B8D
:10FB900006D00B1C36331B780127FF2B29D100E040
:10FBA000002723781C207843022B09D07B4AFD23B1
:10FBB00010188376211C0722103003F0DFFC03E0CD
:10FBC000764B1818FE23837603AB1F700399CBB2D4
:10FBD000AB70E3720BE0734816230E22083000214D
:10FBE0003B7003F0EDFC019A44231343A3720024FD
:10FBF00000E06D4C0021674B0B91DB7A1C225343D4
:10FC0000664A0D91D3180C93654B614A089309918C
:10FC10000A91B088043208ABFFF779FB002800D0C6
:10FC2000E5E0221C7EE05A4901224B7A9343019A77
:10FC30004B7204239A431423A2723B70B379002BB6
:10FC400004D0E07AFFF774FDB2796BE0F3795907DD
:10FC500067D5AB78FF2B64D008210A43F17AA272F2
:10FC60008907C90F012906D11C225A434B48821823
:10FC7000907E88439076E27AFF2A52D02178474AD4
:10FC80001C2602290CD05E439619301C0722103026
:10FC9000211C03F073FCB37E02229343B37609E088
:10FCA00073433F49D318498A1A1C19839B7E01214B
:10FCB0008B439376281C0121FFF7A2FB31E0B37937
:10FCC000112B15D1019A120712D5364800210E22A8
:10FCD000083003F075FC162301993B7060230B4339
:10FCE0002B4AA372537A2A49022213434B7218E01B
:10FCF000019A80235B421343A37215233B70244B6C
:10FD0000281C9A7A294B9200D358984709E0204939
:10FD1000264B8A7A281C9200D358984767E0132311
:10FD20003B7000221A4905AC0B68281C211C98471F
:10FD30002378122B5BD11748837A012B57D00123EC
:10FD400083725B420381C3720021072203F038FCF7
:10FD50004DE0E27AAA7000226A70B4E611233B708B
:10FD60006A708388871D23810223A372201C391C9B
:10FD7000072203F003FC737DDA071BD50C4A5B08EE
:10FD8000D35CFF2B29D0039327E0C0464C2D0020E5
:10FD9000C82D00204E2D0020FFFF00005C2D00200C
:10FDA000942D0020B02D002043800000D84C02008C
:10FDB0004A2D00200F4E391C301C1030072203F052
:10FDC000CEFB002808D0301C2C30391C072203F051
:10FDD000C6FB0028A5D101200390039A281CD3B2AA
:10FDE0000A22E372A272AB70FFF71EFE99E70FB012
:10FDF000F0BDC0465C2D002030B5002912D00A7835
:10FE0000002A11D10A4B1B68002B0DD0FF23094C8F
:10FE10008B7025890523854207D14A70E37A8B7060
:10FE2000131C02E0044B00E0044B181C30BDC0461C
:10FE3000C82D00204E2D00200E80000008800000FC
:10FE40004DDF704730B500238DB00D1C141CC21A55
:10FE5000D27B69465A540133102BF8D1002104A8F3
:10FE60000D2203F0ADFB2B786A46D3776B7868469A
:10FE70009377AB785377FFF7E3FF6B462F331B780D
:10FE800023706B462E331B7863706B462D331B78C3
:10FE9000A3700DB030BD30B50378041C85B00D1CC7
:10FEA0000020022B16D1611C032201A803F066FB7F
:10FEB000211D032203A803F061FB281C03A902AA49
:10FEC000FFF7C0FF01A802A9032203F048FB434249
:10FED0005841C0B205B030BD08B5064B5869802303
:10FEE0005B05421C04D0196989B203F0CDFF00E024
:10FEF000586908BD0010001029DF704728DF7047DF
:10FF000008B5034B1A78034B9200D358984708BDA5
:10FF1000282E0020084D020037B50B1C074C8968BD
:10FF20000C254D4324681978021C181C1B69009489
:10FF3000034C08302C59A04737BDC046302E002056
:10FF4000142E002008B5104A142113784B43D318FF
:10FF5000802218695205116904335A8801389B8838
:10FF60008018C01889B203F08FFF084A031C12687A
:10FF700001209A4207D300209A4204D1044B18680A
:10FF800043425841C0B208BDE02D00200C2E002095
:10FF9000102E002008B5044B0822196891431960FF
:10FFA000FFF7AEFF08BDC046242E0020094A08B561
:10FFB000136819070AD4990702D501210B4313606E
:10FFC000054B02221A70FFF79BFF01E0FFF7E2FFEB
:10FFD00008BDC046242E0020282E002008B5064B60
:10FFE0001B681A0705D4054B01221A70FFF788FF1A
:10FFF00001E0FFF7CFFF08BD242E0020282E0020AF
:020000022000DC
:1000000008B5002814D0112805D10A4B0822196818
:100010000A431A600CE0084B14211A7851435B180C
:10002000191DFFF779FF054B04221A7000F096F8AE
:1000300008BDC046242E0020E02D0020342E0020D4
:1000400008B5FFF759FFFFF7DBFF08BDF8B5134B05
:1000500014241A78802554436D051C1904342F6923
:100060006288BFB2A088E36821690D4EBA420DD9FB
:100070002C69C018A4B2121B2C6980188918A2B26E
:100080009208FFF7DDFF2B699BB204E0C0189208CD
:10009000FFF7D6FF63883360F8BDC046E02D00202F
:1000A000402E002038B50A4A80246405236915686B
:1000B0009BB2013D5D43FFF70FFF2169054B0138FE
:1000C00089B241431A68281CFFF7BAFF38BDC04601
:1000D0000C2E00203C2E002070B5104A14211378FD
:1000E00080254B43D3181A89DC880433DB686D05FF
:1000F000A4182969E418201C89B203F009FF0E1C1A
:10010000FFF7EAFE2969013889B24143044B891996
:100110001A68201CFFF794FF70BDC046E02D002038
:10012000102E002010B5FFF7D7FE80235B051C6959
:1001300019691A69431EA0B25843044B89B21B685F
:1001400092B259439208FFF77BFF10BD0C2E00209E
:1001500008B5FFF7D3FEFFF753FF08BDF0B52B4BF3
:1001600085B0187803284FD803F084FE020E114A98
:10017000274A00231360274A1360274B5B78002B24
:1001800042D000F0DFF83FE0FFF760FF3CE0234C97
:1001900001232268142601929A431F4B2260029287
:1001A0001A78802756437F059E1933693969181CD0
:1001B00089B2039303F068FE194B051C186003987D
:1001C0003969F3880138C01889B203F05DFE8542B1
:1001D00003D1029A0223134303E0019A03239A43B3
:1001E000131C23600F4B1A680F4B002A03D12168A0
:1001F0000222114200D000221A70FFF781FE03E0B4
:10020000074B1868FFF7A4FF05B0F0BD342E00209F
:10021000382E0020402E0020E02D0020242E00202B
:100220000C2E00203C2E0020282E0020F0B53F4A46
:100230001421137885B04B43D318D8680C2242435D
:1002400002903B4880258218548910895268604387
:100250006D05821829690192DA881E6903921F8947
:10026000344CD3199B1900930023236089B2301CAE
:1002700003F04EFE00290AD12B6903989BB29842E5
:1002800008D00099019A914201D1002F02D0029B1F
:10029000022B08D12969301C89B203F0F5FD264BE9
:1002A000186003233CE02969B81989B203F030FED5
:1002B000224B89081960009A019B802464052969F2
:1002C0009A422CD089B2101C03F022FE002926D0BD
:1002D000019A0098216985B289B290B203F0D4FDE9
:1002E0002769061CB9B2281C03F0CEFDB6B280B255
:1002F000864208D1019B00989AB283B2D31A0D4965
:100300009B080B600BE023692169281C89B29CB211
:1003100003F0FEFD89B2641A064AA40814600223A1
:1003200007480370FFF71AFF05B0F0BDE02D00206D
:10033000142E0020102E00200C2E00203C2E002019
:10034000342E002008B50B4A142113784B43D318E0
:10035000D988094A1B791160032B08D0042B06D0D9
:10036000012B06D1054A1370FFF7F8FE01E0FFF7F5
:100370005DFF08BDE02D0020302E0020342E00202F
:10038000F7B508AC2488114D01946E780424022E30
:1003900019D02C78A419012C00D9023C14277C43D5
:1003A0002C196261221C20710C3281C981C2E38048
:1003B000074B01981B782081013600246E70A34200
:1003C00001D1FFF7BFFF201CFEBDC046E02D00207D
:1003D000342E002038B5124C1425217800206943B2
:1003E00061180431FFF798FD21782A1C4A43002345
:1003F000A21801251371D380D56013615361138155
:100400006278013A62704A19D2B2022A01D022708F
:1004100000E02370034A1370FFF7A0FE38BDC0460A
:10042000E02D0020342E002008B5084B14211A7846
:100430004A439B181B79042B02D0FFF7CBFF04E043
:10044000034B01221A70FFF789FE08BDE02D002042
:10045000342E0020F8B51F4D08242E68344023D1D7
:100460001D4A142113781D4F4B433F68D318802138
:100470001869DA88490504339B880969002F16D06A
:1004800001388018C01889B203F0FEFC144B1B68B9
:1004900083420CD1134B1C6001231E43124B2E6070
:1004A0001C70FFF72DFD13E0FFF774FD10E0FFF760
:1004B00049FD002804D00B4B00221A60022202E002
:1004C000002F03D00322084B1A70EAE7FFF7ACFFB6
:1004D000F8BDC046242E0020E02D0020102E002064
:1004E0000C2E00203C2E0020282E002008B5054BA5
:1004F0001B681A0702D4FFF797FF01E0FFF74AFDD8
:1005000008BDC046242E002038B5154D2C682207A2
:1005100023D4144B1A6801321A60134B04221B684F
:10052000002B04D1FFF70EFD002802D002220F4B52
:100530000CE00F4B1B68002B0CD00121221C0A4041
:100540000A4B02D10C432C6000E003221A70FFF723
:10055000D7FC04E0FFF768FF01E0FFF71BFD38BDA3
:10056000242E00200C2E00203C2E0020282E0020BF
:10057000102E002008B51E4B1B78022B30D0032B09
:1005800019D0012B32D11B4B08211A680A4222D103
:10059000194B14211A784A439A18184BD1881B68B2
:1005A000CB1A9BB2D380002B02D1FFF713FF1DE0C3
:1005B000FFF74CFD1AE00F4B08211A680A420AD1D6
:1005C0000F4B1A6801321A60FFF7BCFC002804D1F7
:1005D000FFF72AFF0AE08A431A60FFF7BFFD05E034
:1005E000084B1A78084B9200D358984708BDC0466C
:1005F000342E0020242E0020E02D0020402E00204C
:100600000C2E0020282E00201C4D020008B5024BA5
:100610001868FFF79DFD08BD0C2E002008B5FFF7F8
:100620005BFC80235B051A691969431E90B258432D
:1006300089B203F029FCFFF78BFD08BD38B5144CD7
:10064000042523781A1CAA4321D002281DD0032890
:100650001DD1104A1268110717D40F490A680132D8
:100660000A60032A04D0022B0CD1FFF749FC0EE0EC
:100670000A4B14211A780D2051435B18191DFFF7FE
:100680004BFC2570FFF76AFD01E0FFF773FF38BDF3
:10069000342E0020242E0020382E0020E02D0020B3
:1006A000174B10B5012200241C705C701C71DC809B
:1006B000DA601C615C611C811C765C831A625C627E
:1006C0009C629C830F4B1C80FFF706FC80235B051C
:1006D0001A69831E90B258430B4B042218600B4BCF
:1006E000201C1C600A4B1C601C815C81094B1C7027
:1006F000094B1C60094B1C60094B1A6010BDC046B9
:10070000E02D0020202E00202C2E00200C2E00207A
:10071000142E0020342E0020382E0020402E0020E1
:10072000242E00202B4BF7B51B680E1C0421041C43
:1007300008200B424DD0002C4AD0002E48D0226811
:10074000002A45D080277F053A69A38892B2934258
:1007500001D907203DE00F2BFBD9E288002AF8D011
:1007600053431D490D685B190193FFF7B5FB3A69C7
:10077000431E90B25843019A8242EAD8A38899074F
:10078000E7D1164A04201788012F22D00C20784385
:1007900013493760756026680A1855604650138102
:1007A000E08801375081802252055843166911694B
:1007B0001469B2B28018013889B203F0B3FBA4B255
:1007C0004443054E054B651935601F80002000E04D
:1007D0000E20FEBD242E00202C2E0020202E0020D6
:1007E000142E0020114B30B51C68082365071AD55C
:1007F000002815D0002A13D00368002B12D10C4C0E
:100800002568002D0ED02589406869430918608944
:10081000454360682D18A94204D21360516002E07C
:100820000E2300E00723181C30BDC046242E0020F4
:10083000142E0020F0B5141C1C4A051C126885B04B
:100840000F1C082051072ED5002F2BD0002D29D0AA
:100850002A680720002A26D1154E3168002922D0A7
:100860006A68039232897189766851438C4603998C
:100870006644B14217D2002C15D0944213D8E61822
:10088000964210DC0322102017420CD113420AD1E9
:10089000114208D10093291C3A1C231C0120FFF7A8
:1008A0006FFD00E00E2005B0F0BDC046242E0020F4
:1008B000142E0020F0B5141C1C4A051C126885B0CB
:1008C0000F1C082051072ED5002F2BD0002D29D02A
:1008D0002A680720002A26D1154E3168002922D027
:1008E0006A68039232897189766851438C4603990C
:1008F0006644B14217D2002C15D0944213D8E618A2
:10090000964210DC0322102017420CD113420AD168
:10091000114208D10093291C3A1C231C0420FFF724
:100920002FFD00E00E2005B0F0BDC046242E0020B3
:10093000142E0020F0B5161C214A85B012680290D2
:100940000D1C0824500738D5002931D00299002900
:100950002ED02C68002C2DD11A4F3A68002A29D0AD
:10096000398978896A68484384467868844462454E
:1009700020D2002E1ED08E421CD8F018884219DCDE
:1009800002980321084217D10B4215D1114003915F
:1009900012D19918321C02F0F1FD29680C234B4347
:1009A0000096FE58281C0221039A029BB04704E0DF
:1009B0000E2402E0072400E01024201C05B0F0BD46
:1009C000242E0020142E0020F0B5204B85B01B688B
:1009D000061C0D1C08245A0734D5002831D00368A2
:1009E0000724002B2ED11A4B1A68002A2AD01A8904
:1009F0004768029258685B8953431B1803939F42D0
:100A000020D21024BB071DD1381A111C03F080FA24
:100A10000724002916D1281C029903F079FA89B21B
:100A200000290FD1002D0DD0039AEB19934209D85C
:100A3000002200920320311C2B1CFFF7A1FC041C98
:100A400000E00E24201C05B0F0BDC046242E00207E
:100A5000142E00202EDF704751DF704710DF7047E3
:100A600011DF704761DF704708B5081C111CFEF7E5
:100A7000A1F808BDF0B5254B85B01B78002B42D0FE
:100A8000234E244F3268544254413A68E4B25542EE
:100A90005541EDB2002C34D103A8FFF7DDFF052846
:100AA0000AD0002804D0211C221CFEF785F804E09F
:100AB00003983368984700E00124002D1ED1164B9F
:100AC00003A91B880B80154B1B68181C0193FFF7AB
:100AD000C9FF051E052D0BD0002805D000210A1CDA
:100AE000FEF76AF8002504E001983A68904700E0B4
:100AF0000125002CCED0002DCCD004E0002C02D15A
:100B0000C8E7002DDBD005B0F0BDC046442E002064
:100B10004C2E0020502E0020462E0020482E002073
:100B200038B5041C0720002913D08D0711D10948BE
:100B300001600949201C0A80084A09491360FFF72F
:100B40008DFF002805D1074B012216201A70FFF7F0
:100B500081FF38BD482E0020462E0020542E002054
:100B6000690A0200442E002008B5FFF779FF021C35
:100B7000531E9A41014BD2B21A7008BD442E002078
:100B8000002803D0024B1860002000E00E207047C0
:100B9000502E0020002803D0024B1860002000E0F7
:100BA0000E2070474C2E002008B5074B1B68002B09
:100BB00007D09847002806D000210A1CFDF7FCFF4B
:100BC00001E0FFF757FF08BD542E002038B5051C83
:100BD0000C1C131C291C0248221C00F054F838BDC0
:100BE000304D020038B50023C356041C0D1C0133E0
:100BF00004D1064806492422FFF7E8FF6368002D68
:100C000001D0E26800E02269136038BD614D020046
:100C1000794D020000B599B068460F2100F065F8E3
:100C200006A80F2100F061F80CA80F2100F05DF874
:100C300012A80F2100F059F868460121FFF7D2FFF2
:100C400006A80021FFF7CEFF0CA80021FFF7CAFF7E
:100C500012A80121FFF7C6FF962000F0CCF86846E5
:100C60000021FFF7BFFF06A80121FFF7BBFF0CA87B
:100C70000121FFF7B7FF12A80021FFF7B3FF96206D
:100C800000F0B9F8D8E70FB4012008B502F00CFC69
:100C900038B50023C356041C0D1C013304D106488B
:100CA00006492422FFF792FF6368002D01D0E26815
:100CB00000E02269136038BD614D0200794D0200E9
:100CC00070B50D1C041C161C00F09CF801350BD0EF
:100CD000201C311CFFF7DCFF201C012100F0B0F8C4
:100CE000201C002100F0A6F870BD08B50022FFF717
:100CF000E7FF08BD38B50368041C1B680D1C984746
:100D000063681D6038BD38B50368041CDB6898470C
:100D100063685A682368002A02D19B68984714E0E8
:100D20005B681568984763682D1A002D08DC5A68BF
:100D3000916859601B68002BEAD050689847E7E734
:100D40005B68226818681369984738BDF8B50D1CB0
:100D500072B64B600A60416800234C68002C05D0D5
:100D60002768D61B02D4231CA468F7E7002B05D103
:100D700003684D601B69101C984700E09D60AC60E3
:100D800062B6F8BD08B572B6426853688B420FD19F
:100D90009B6853600268002B02D1936898470CE06F
:100DA00018681369984708E09A688A4203D0131CB0
:100DB000002BF9D101E08968996062B608BD08B5D9
:100DC00003685B68984708BD00487047304E0200D2
:100DD00008B50248FFF797FF08BDC046304E020035
:100DE00038B5041C00F0A8FA051C00F0A5FA401B59
:100DF000A042FAD338BD08B5FA239B005843FFF749
:100E0000EFFF08BD01704B1C0AD001238B404360EB
:100E1000044BC360044B0361044B4361044B836088
:100E20007047C046080500500C05005010050050E2
:100E30001405005008B5007840B200F01FF808BD56
:100E400038B50023C356051C0C1C013304D10948D6
:100E500009492A22FFF7BAFE002C01D0012C07D144
:100E60000022AA56A023C132FF329200DB05D450E3
:100E700038BDC046614D0200384E020038B5041C32
:100E80000D1C431C04D10A480A491A22FFF79EFE92
:100E9000A023A000DB05C018E023DB00C2580C2112
:100EA0008A43C250C258AD001543C55038BDC04634
:100EB000664D0200D74E0200114A00211165114A09
:100EC000114B1188114A9950114A1178002904D008
:100ED00010490888A821C90058505178002903D02A
:100EE0000C4948880C4958509278002A04D0094A85
:100EF0009188A922D200995001221A607047C046F9
:100F0000FCA000402428002000A000404C05000068
:100F1000602E00202628002044050000962210B5EF
:100F20000123D200914203DC9E210268C90212E033
:100F30000A4ADC00A458A14207DA013BDB00D218C0
:100F400001685268064BCA5007E00133112BEFD1FC
:100F5000802102684905024BD15010BD744F020038
:100F600024050000F8B5314B161C0360304AA0235D
:100F7000DB05051C0F1C01209958B840014399500E
:100F80009C58802149000C439C502A4C1A5910430C
:100F900018511A59281C114319511A590121B140ED
:100FA0008A431A511959244A0A4096211A51890133
:100FB000FFF7B4FF2B68214900205850A0210420DE
:100FC000C9005850012199601960191CFC31002298
:100FD0000120CA6042421A481A501A4800220A6286
:100FE0001A5017480A6A012AFCD10021A12269601F
:100FF000D20008219950A2220A21D2001F509950F4
:101000001E517A1C03D0381C0321FFF737FF731CD5
:1010100003D0301C0321FFF731FF0B4B01221A6074
:10102000291C0822094802F0A9FAF8BD0020004056
:101030000405000014050000FFFBFFFF6C05000025
:101040000C0500001C050000642E0020702E0020FE
:10105000124AC1239B00D15810B5080603D5104988
:10106000096A002911D1D3585A0716D50C4BDA68F2
:10107000002A12D00024DC60084AA323DB00D058E9
:10108000C0B2FCF713FC211C00E00121054B1868DD
:10109000002802D0044B1B68984710BD0020004078
:1010A000FC2000406C2E0020682E002030B5036824
:1010B0001E4C1819444260414000002A1BD00029F0
:1010C00003D0012905D1802100E00421C122920032
:1010D0009950174BC022920040B29C58C100FF2586
:1010E0008D40AC43C0258D40291C214399500122DD
:1010F00082401A6018E0002908D0012914D1C222C8
:10110000920080249C509B589B0806E0C2229200CB
:10111000042199509B580121DB09994304D00123F4
:101120008340181C034BD86730BDC04600E0FFBFAA
:1011300000E100E004E100E003681A1CFC32106AE0
:101140000128FAD100201062014AC9B299507047B3
:101150001C0500000368FC33186A013843425841FB
:1011600070470000F7B50E1C01930223041C0D1CF0
:10117000171C9E43012E13D11F4BA022D205D1581C
:10118000301CB8400143D150381C0321FFF776FED4
:101190002368A122D2009F50184A99580E439E50AE
:1011A000AB1E012B16D8144BA022019ED20501259F
:1011B000D158281CB0408143D150301C0321FFF787
:1011C0005DFE2368A222D2009E500C4A99580D431E
:1011D0009D500FE0002D0DD123680122A121524224
:1011E000C9005A50A221C9005A50044A01209958F6
:1011F00081439950F7BDC046140500006C050000FE
:101200000A490B4A88680B4B002808D0186801303F
:101210001860002088600220D22181405050064989
:101220001B6852581806190A10437047FC100140F9
:10123000001001407C2E0020040500002F23C04632
:10124000C046C046C046C046C046C046C046C0466E
:10125000C046C046C046C046C046013B002BEED14A
:1012600070470000F8B5184B9A68002A0AD0174A50
:10127000022011680131116000229A601449D222C3
:10128000824088505B6C124C002B1CD00E4B80258A
:10129000D222920000266D025E64A5500D4A13789A
:1012A000B34210D00C4B1F68FFF7AAFF3F1AB7429A
:1012B00009DC084BD2221E70C2239B009200E5502D
:1012C000A550FFF785FDF8BDFC1001407C2E0020E5
:1012D00000100140812E0020782E002038B5124CDD
:1012E0002278002A1FD1114BA121C9005A50022295
:1012F000D22191405A50C12191405A500C4AC421E8
:10130000890055580B482840C0252D0228435050CD
:101310008021C020890240000125115011601D600C
:10132000FFF78CFF257038BD802E00200010014093
:1013300000E100E0FF00FFFF08B50B4B1B78002B1E
:1013400001D1FFF7CBFFFFF75BFF064B044A02F02A
:101350006BFE4904C00B084308BDC046C046C046EA
:1013600040420F0000000000802E0020C046C04612
:101370002F4B70B51B78061C002B01D1FFF7AEFF79
:10138000FFF73EFF254B244A02F04EFE4B04C00BF4
:10139000002400251843CD0B0023321CA4185D4106
:1013A00080231B06984205D9002E03DB1C4A1D4BE7
:1013B000A4185D41610CEB030B43E2031A481B497F
:1013C00080185941154B144A02F00EFE194D041CA9
:1013D0002B78194E002B02D0336898421BD0FFF7B0
:1013E0000FFF201A022802DCFFF70AFF841C2102EB
:1013F000124BA822D200090A99502A783460002A98
:1014000009D101222A70D2218022520289005A5029
:10141000C12189005A5070BD40420F0000000000F9
:1014200000000000010000003F420F00000000002B
:10143000802E0020812E0020782E002000100140F8
:10144000074B1A78002A0AD0064A8021C220490296
:1014500080001150D2208000115000221A70704775
:10146000812E002000100140024B00229A605A6435
:101470007047C046FC10014008B5FBF76FF9FBF759
:1014800087F9FCE710B50021041C402202F098F80F
:10149000221C40320023201C1370537010BD00002A
:1014A000F7B5FA260093B60008AB041C1B78301C75
:1014B00048431449171C019302F0E6FC85B2301C26
:1014C000258078430F4902F0DFFC009B80B2A380A7
:1014D000019B6080A371032D01D8042323802288FF
:1014E0008023DB019A4200D92380032801D80422FB
:1014F000628062889A4202D98023DB016380201CCB
:10150000FEBDC0467102000093DF704708B5036856
:10151000002B01D0081C984708BD08B50368002BB4
:1015200001D0081C984708BD10B50B78041C037047
:101530004B8A102243820131013002F01FF8201C37
:1015400010BD38B502680B68051C0C1C9A4201D00E
:1015500000202CE00379002B07D10B79002BF7D169
:10156000C28ACB8A9A42F3D10BE0012BF0D10B79DE
:10157000012BEDD105300531102201F0F0FF0028DC
:10158000E6D12A7E217E7F231A400B409A42DFD18A
:101590006A8B638B9A42DBD1EA69E36900209A4245
:1015A00005D1238C288CC01A43425841C0B238BDA3
:1015B00070B5051C0E1C00242819311CFFF7C1FF53
:1015C000002803D14C34E42CF6D100E0012070BD9A
:1015D00007B501AB1980191C5A80FFF795FF102839
:1015E0000CD003D8002398420BD009E00523112822
:1015F00007D0054A0423904203D001E0032300E012
:101600000B23181C0EBDC0460230000070B500252B
:10161000041C291C20C0FCF75DFE0C26201C291C84
:10162000321C25766583A583E5832584243001F06B
:10163000C7FF074B201C65632363291C321C38300D
:1016400001F0BEFF034BA564201C636470BDC0465F
:101650000D1502001B15020010B5041CFFF7D6FF84
:10166000201C4C30FFF7D2FF201C9830FFF7CEFF34
:10167000201C10BDF8B50D1C1E1C08C9041C08C098
:10168000171CFFF751FF2B7E3A1C23766B8B63836D
:10169000AB8BA383EB8BE3832B8C2384231C24331E
:1016A00023CA23C3FF68002227636263311C083307
:1016B000A1C9A1C3F668201C6664A264F8BD70B518
:1016C0000E1C8AB00168041C038C0190684603ADAF
:1016D00003911230111CAB80FFF726FF201C6E8394
:1016E00002952430236B01A998470AB070BD07B555
:1016F000031C6A460090117138305B6C694698474C
:1017000007BDF0B5A7B00B790C1C086869460B71D2
:10171000E38A00906846161CCB821022611D0530BA
:1017200001F02CFF237E6D462B76638B221C6B838E
:10173000A38B2432AB83E38BEB83238C2B8409AB09
:10174000A1CAA1C3216B00250C910D950EAB0832E7
:1017500083CA83C3626C13A811921295FFF756FFD8
:1017600013A9201C222201F009FF231C1CAA2433E8
:1017700083CA83C31F9A65632263083321AA83CA7D
:1017800083C3249AA56462646846311CFFF7AFFFE7
:1017900027B0F0BD30B595B0041C01A8FFF736FFA7
:1017A000201C01A9FFF7CDFE0025A84218D00D9AF4
:1017B000236B9A4214D1211C0AA824310C2201F077
:1017C000CEFEA8420CD1129B626C934208D1211C20
:1017D00038310FA80C2201F0C2FE45424541EDB25E
:1017E000281C15B030BDF8B5061C0F1C0025741957
:1017F000201C391CFFF7A5FE002804D0201CFFF791
:10180000C9FF002803D04C35E42DF0D10024201C62
:10181000F8BD10B5041CFFF7E6FF011E03D0201C25
:101820000022FFF76EFF10BDF8B50F1C041C032546
:10183000238C261CBB4204D1201CFFF7ABFF0028E1
:1018400004D0013D4C34002DF2D12E1C301CF8BDCB
:1018500038B5041C151CFFF7E7FF011E03D0201C40
:101860002A1CFFF74EFF38BD08B5FFF7DDFF431E0A
:101870009841C0B208BDF0B589B0061C0091171C94
:10188000FFF7D2FF041E2AD000253A88062395428E
:101890000FD26B43FB185A88998803A8019201352F
:1018A000FCF718FD201C019903AAFFF708FFADB251
:1018B000EBE7013A5343FF187988E28B013189B293
:1018C000914203D9301C211C002206E00098FFF74A
:1018D0007FFE021E03D0301C211CFFF712FF09B04F
:1018E000F0BD70B5061C00243519281CFFF752FF07
:1018F000002803D14C34E42CF6D1051C281C70BD03
:10190000F0B51E1C4B8B041C0233C88B99B09BB2E4
:101910000D1C03920F8C01930290984207D200276E
:1019200005910697F368301C05A998472DE0201C07
:10193000391CFFF799FF002801D0052725E0201C5E
:10194000FFF7CFFF041EF8D0381C0199029AFFF769
:101950003FFE071E19D1291C331C039A05A8FFF767
:1019600089FE05A92222201C01F008FE231C243335
:101970000EAA23CA23C3119908332163676313AAEC
:1019800023CA23C3169AA7646264381C19B0F0BD39
:1019900070DF704771DF704772DF704773DF704729
:1019A00074DF704775DF704776DF704777DF704709
:1019B00078DF704779DF70477ADF70477BDF7047E9
:1019C0007CDF70477DDF704786DF704787DF7047B9
:1019D00088DF70471420704764207047A020800182
:1019E000704708B5FFF7F2FF421E904140420523C1
:1019F0000340181C08BD10B5041CFFF7D1FF021CE2
:101A00000320002A06D1201C5830037801218B4383
:101A10000370101C10BD08B53B239A4200D013235D
:101A2000081C191CFFF7C0FF002800D0032008BDC8
:101A300008B50A1C0368011CFE31C98C1B6A984753
:101A400008BD08B5081CFFF7B9FF002800D0032027
:101A500008BD08B5081CFFF7AFFF002800D0032021
:101A600008BD08B5081C111CFFF79CFF421E9041E1
:101A7000404203230340181C08BD13B50C1E012C63
:101A800007D86846111C0130062201F077FD0020BE
:101A900005E08B1E012B01D9032007E001206B46D6
:101AA00069461C70FFF774FF0028F5D116BD37B5E5
:101AB00068460D1C141CFFF76DFF032300280FD18F
:101AC000002D02D06A4613782B70002C07D069468F
