:020000021000EC
:10C0000000000120D9D6010001D7010003D70100AB
:10C0100005D7010007D7010009D701000000000083
:10C020000000000000000000000000000BD701002D
:10C030000DD70100000000000FD7010011D701004B
:10C0400013D7010013D70100113F0200257702002A
:10C050003577020013D701008D7B020013D7010052
:10C0600013D7010013D7010013D7010013D7010024
:10C0700013D7010013D7010013D7010013D7010014
:10C0800013D70100F541020013D7010013D70100B7
:10C0900013D701003D610200713C020013D701007B
:10C0A00013D7010013D7010013D7010013D70100E4
:10C0B0005D7D020013D701000000000000000000B9
:10C0C00013D701006D7D02007D7D020045770200DF
:10C0D00013D7010013D7010013D70100000000009F
:10C0E0000000000000000000000000000000000050
:10C0F0000000000000000000000000000000000040
:10C10000000000000000000000000000000000002F
:10C11000000000000000000000000000000000001F
:10C4000010B5054C237833B9044B13B10448AFF38E
:10C4100000800123237010BD0C520020000000009A
:10C4200078BE020008B5064B1BB106480649AFF3BB
:10C4300000800648036813B1054B03B1984708BD57
:10C440000000000078BE02001052002020510020A1
:10C4500000000000154B002B08BF134B9D46A3F5B1
:10C46000803A00218B460F461348144A121A0CF0EA
:10C47000B7FA0F4B002B00D098470E4B002B00D083
:10C4800098470020002104000D000D48002802D02C
:10C490000C48AFF300800CF02BFA2000290001F0CB
:10C4A00021FC0CF011FA00BF000008000000012080
:10C4B0000000000057FF01000C520020C060002067
:10C4C000000000000000000008B503680BB108463A
:10C4D000984708BD08B503680BB10846984708BDE2
:10C4E00008B50368984708BD08B10B68036070473A
:10C4F000704708B503680BB10846984708BD08B5F2
:10C5000003680BB10846984708BD08B503680BB12E
:10C510000846984708BD000030B5094A4388D48BC7
:10C520009C4287B009D1074801F044FE03682146C8
:10C530005D6801AA0DF10203A84707B030BD00BF36
:10C5400034530020FC530020F8B50446C07F1D463C
:10C55000C3181D2B0F4616461BDC691C2044012204
:10C560000CF03EFAE07F0130C0B2E077394620445B
:10C5700001220CF035FAE07F0130C0B2E0772A46A4
:10C58000204431460CF008FAE37F1D44E577002093
:10C59000F8BD0120F8BD0000F8B58D1EEDB2132DD9
:10C5A000069C22D8012606FA05F7264D3D40E5B146
:10C5B000C17FCD181F2D42DC0144651CA94204D95E
:10C5C00011F80169CD186E70F7E70021CDB29D42D8
:10C5D00004D26518565CAE700131F7E722781A4430
:10C5E0002270C27F1344C3770DE02678751EEDB22A
:10C5F000AB420AD10021C8B2984204D26018555CFF
:10C6000085700131F7E70020F8BDC77F7F1B1F440D
:10C610001F2F12DCAF1C3C44C77F00EB070E744594
:10C6200005D214F801EB671B07F803ECF4E7F643B7
:10C630003744C777FFF788FFF8BD0120F8BD3046C3
:10C64000F8BD00BF3F000800F7B5C67F0024B44224
:10C650000CD205196F788F4203D10095FFF79CFF2C
:10C6600006E0055D01352C44E4B2F0E7FFF76CFF0E
:10C6700003B0F0BDF0B58BB000F10A0301AA044687
:10C680008E4600F12A0C1F46164618685968154652
:10C6900003C5083363452A46F7D10AAA1B882B80B5
:10C6A000012102F825ED30460B46FFF7CDFFB0B96A
:10C6B0002246204652F8343B31469B6F984770B96A
:10C6C00034463B4609AD224603CAAA421860596067
:10C6D000144603F10803F6D112881A8000200BB02B
:10C6E000F0BD38B50123044600F8013B00230025C6
:10C6F000C5540133102BFAD165820125257042B94A
:10C7000001F110038B4207D013F8012D00F8012B23
:10C71000F8E71A460CF049F9A27B637B43EA02234F
:10C720006382204638BD10B501F036FD014604464F
:10C7300051F8043BDB6F984728B994F8583043F020
:10C74000010384F8583010BD08B50248FFF7EBFF2D
:10C7500008BD00BFFC53002008B501F00FFD806D3F
:10C7600008BDF7B516461D460F4601F023FD9DF89E
:10C77000202003680092DC68394632462B46A047E9
:10C7800003B0F0BD2DE9F04F934885B0FFF7E4FF0B
:10C79000830740F11E8101F0B5FB904CDFF870B2C9
:10C7A0002060052001F0AEFADFF868C2DFF868A269
:10C7B000CCF800000420CDF808C001F0A3FA884AA4
:10C7C000DFF85892D18DABF80010118EDFF850824F
:10C7D000AAF80010518E834FA9F80010118D824BDA
:10C7E000824EA8F80010518D814D3980918D1860CE
:10C7F00031808048918E2980D18E01807E49128FB0
:10C800000A807E48216803930A2201F04BFA7C4992
:10C810007A4801F00AFADDF808C07848DCF8001020
:10C820000A2201F05DFA7649744801F0FEF9039B93
:10C83000724819680A2201F053FA71496F4801F0F1
:10C84000F4F90A22BBF900106C4801F049FA6C496E
:10C850006A4801F0EAF90A22BAF90010674801F0C3
:10C860003FFA6749654801F0E0F90A22B9F900107A
:10C87000624801F035FA6249604801F0D6F90A22AF
:10C88000B8F900105D4801F02BFA5D495B4801F0F2
:10C89000CCF90A22B7F90010584801F021FA58499A
:10C8A000564801F0C2F90A22B6F90010534801F0C7
:10C8B00017FA5349514801F0B8F90A22B5F90010A6
:10C8C0004E4801F00DFA4E494C4801F0AEF9494A84
:10C8D0004A48B2F900100A2201F002FA48494748D2
:10C8E00001F0A3F9444A4548B2F900100A2201F0C8
:10C8F000F7F94349414801F098F942493F4801F0AE
:10C90000A9F9414A344801211170E1785170A178A8
:10C9100091706178D17021781171DDF808C09CF8B0
:10C92000011051719CF800109171039BDFF8F4C065
:10C9300059781B78D17100241372BCF81E10547200
:10C940009472D472147354739473D47314745474AF
:10C95000947413230094CDF808C0FFF702FF2B4A0C
:10C9600024482549022313709BF8013053709BF82B
:10C97000003093709AF80130D3709AF80030137138
:10C9800099F80130537199F80030937198F801309B
:10C99000D37198F8003013727B7853723B7893729E
:10C9A0007378D372337813736B7853732B789373D4
:10C9B0004378D373037813744B7853740B78937460
:10C9C000DDF808C00448BCF81E1000941323FFF7DC
:10C9D000C8FE05B0BDE8F08FFC53002030520020A7
:10C9E000A85200202E53002048520020305300202F
:10C9F0009C5300202E520020F45300203C55002070
:10CA0000E4A70200E6A70200885300209452002009
:10CA100028520020F85300202A5200202C520020D7
:10CA20002C530020A053002008481E2310B50124D9
:10CA300083706B230470437000F048FC00B9FEE77C
:10CA400021460D20BDE8104001F08EBAA85200200A
:10CA50002DE9F0418EB000210C2268460BF0C0FF9A
:10CA60009DE8070005AC614B089384E807000026A9
:10CA700021465F48099601F01EFB31460C226846AC
:10CA80000BF0AEFF5A48DFF8848101F085FBCDF84A
:10CA9000008007469DE8070084E80700142003F0A3
:10CAA000D3FACDF81480034694E8070083E8070022
:10CAB000504ADA601E61D7F8A42002B11A61C7F8A3
:10CAC000A4304B4801F076FB00210C22054620469D
:10CAD0000BF086FF142003F0B7FA474A059203468D
:10CAE00094E8070083E80700444ADA6000221A61EC
:10CAF000AA6902B11A61AB613D4801F04DFB062104
:10CB0000FFF7B8FD3A4801F047FB00F10A0305467C
:10CB1000224600F12A0E1F4618685968164603C6B9
:10CB2000083373453246F7D11B88338020460821ED
:10CB3000334A0B23FFF788FDA0B92A46284652F84E
:10CB4000343B21469B6F984760B93B460DAD22466A
:10CB500003CAAA4218605960144603F10803F6D1CB
:10CB600012881A80224801F017FB00230371204825
:10CB700001F020FB036823491B6898471C4801F01B
:10CB80000BFB03681E495B6B9847194801F004FBD7
:10CB9000036804215B6C9847154801F0FDFA0368AF
:10CBA0009B6804469847A02804D9236820469B68C0
:10CBB000984700E0A0204FF47A73584340F2712365
:10CBC000B0FBF3F0E0800A4801F0E6FA00230381AD
:10CBD000074801F0E1FA03680B49DB6A984704480B
:10CBE000FFF7A1FD0EB0BDE8F08100BFF3C4010066
:10CBF000FC5300200BC5010019C50100FFC4010052
:10CC0000E8A702004C5200200450002049C7010050
:10CC100008B50A48FFF7A0FD83070AD5084800F0C9
:10CC2000D1FB074800F0FDFB0548BDE8084000F0D7
:10CC300039BC0248BDE8084001F0CABAFC530020E4
:10CC4000A852002010B5C36804460BB19B689847F2
:10CC5000204610BD38B505460B4B45F8183B044639
:10CC600003F00AF92846FFF7EDFF204603F054F9D8
:10CC7000204638BD2846FFF7E5FFFFE7204603F0D2
:10CC80004BF90BF090F900BF50B5020010B5044607
:10CC9000FFF7E0FF204603F0EBF9204610BD00004F
:10CCA0001FB516484FF4E13101F0E6F90D200121DE
:10CCB00001F030F9FFF7CCFEFFF7B6FE104B009302
:10CCC0001048114B0393FFF7BDFF039B63B90F4857
:10CCD000039B436242F2107103F0BAF86846FFF713
:10CCE000B1FF05B05DF804FB5B68064869469847EC
:10CCF000EDE76846FFF7A6FF0BF055F93C5500201D
:10CD000085C7010084520020A8A702006C520020B1
:10CD10002DE9F047002186B0514D5248DFF87CA143
:10CD2000DFF87C9101F0DCF94F48002400F007F9AE
:10CD3000284603F0D1F84D4B6C6228464C494D4AC9
:10CD40002B604D4D03F036F9224601A84B49FFF701
:10CD5000C8FC9DF804302B70BDF816306B820DF1C5
:10CD60000501681C10220BF017FE01260C274FF05E
:10CD70001308434B6B61A5F8188008236E832E7748
:10CD8000EC8321463A4605F12C0085F8203085F8E1
:10CD900021606C6285F8284085F8294085F82A4092
:10CDA0000BF01EFEEC63C5F838A021463A4605F1AB
:10CDB00040000BF015FE2C65C5F84C902246314D15
:10CDC000314901A8FFF78DFC9DF804302B70BDF8A8
:10CDD00016306B82A8190DF1050110220BF0DCFD55
:10CDE0002A4B6B61A5F818806E832E77EC834FF089
:10CDF000100821463A4605F12C0085F8208085F878
:10CE000021606C6285F8284085F8294085F82A4021
:10CE10000BF0E6FDEC63C5F838A021463A4605F173
:10CE200040000BF0DDFD2C65C5F84C902246184DF6
:10CE3000184901A8FFF755FC9DF804302B70BDF888
:10CE400016306B82A8190DF1050142460BF0A4FDC6
:10CE500002232B75104BAB61AC8306B0BDE8F087A5
:10CE60006C520020FC530020A852002050B5020054
:10CE700055CC01000050002034530020C4A702000C
:10CE800034520020A0530020B4A702001854002000
:10CE90004C520020D4A702000C500020D5C4010041
:10CEA000C9C401000170062101720176FF2130B56D
:10CEB00083700224F523017704214270C38001228C
:10CEC0000023C47580F820100324072102714274E6
:10CED0008274C27443728372C37203734373837325
:10CEE000C37303740275827542768276C276437785
:10CEF0008377C27780F8223080F8211080F82340B1
:10CF000080F8244080F8253080F8263080F82720EB
:10CF1000034602460021D16391645165013C4FF004
:10CF20000001A3F86010A3F86610A3F86C1002F1DA
:10CF3000040203F10203EDD180F8801030BD10B57A
:10CF4000012104466B221E23FFF7ACFF204610BDD3
:10CF5000C388B3F5FA7F06D0B3F5FA6F05D0F52B89
:10CF600005D1034B02E0034B00E0034B43677047DE
:10CF7000295C0F3C295C8F3C295C8F3DC37D042BD1
:10CF80000AD002D8022B05D07047082B06D0102BF0
:10CF900006D07047044B04E0044B02E0044B00E071
:10CFA000044B8367704700BF40DA7F3840DAFF38B0
:10CFB00040DA7F39B0E33F3A90F82030043B0C2B45
:10CFC00010D8DFE803F0070F0F0F090F0F0F0B0F3B
:10CFD0000F0F0D00044B04E0044B02E0044B00E093
:10CFE000044BC367704700BFF7CC1239240B983944
:10CFF0009F71E139240B183AC388F52B07D0B3F59C
:10D00000FA7F04D0B3F5FA6F1CBFF523C380C37D4C
:10D01000022B07D0042B05D0082B03D0102B1CBFEC
:10D020000223C37590F8203003F0F702042A06D0DB
:10D03000082B04D0102B1CBF042380F8203070472D
:10D0400070B5094C154620461E4600F0D7FA294611
:10D05000204600F065FA2046314600F061FA20468D
:10D06000BDE8704000F006BB2C5400201346027847
:10D07000012A30B50D4606D12A4690F87310BDE856
:10D080003040FFF7DDBF30BD10B50379044613B162
:10D09000037A5B01DBB2E288B2F5FA7F05D0B2F524
:10D0A000FA6F04D143F0180301E043F00803627AF9
:10D0B00002F003021A4320461021FFF7D7FF002297
:10D0C00020461121FFF7D2FFA37A002BE37A0CBF91
:10D0D000002280222BB1237B03F00F0343F0400397
:10D0E0001A4320461221FFF7C1FFE37C002BA37CEB
:10D0F00014BF2022002213B142F01002D2B2637C8E
:10D100000BB142F00802237D0BB142F0020220462F
:10D110001E21FFF7ABFF637B002BA37B14BF2022F4
:10D12000002213B142F01002D2B2E37B0BB142F005
:10D13000080220461321BDE81040FFF797BF10B545
:10D14000C37E002B837E044614BF2022002213B12D
:10D1500042F01002D2B2637E0BB142F008022046C8
:10D160001F21FFF783FFA27D12B1227E5201D2B2AE
:10D17000E37D082B06D0102B07D0042B07D142F0FB
:10D18000100204E042F0180201E042F00802237F9E
:10D19000190605D403F003031A4342F00402D2B285
:10D1A00020462021FFF762FF627F2AB1A27F02F0B2
:10D1B0000302520142F0800220462121BDE81040C6
:10D1C000FFF754BF13460278012A30B50D4606D149
:10D1D0002A4690F87210BDE83040FFF731BF30BDED
:10D1E00010B590F8232090F8223090F8211002F02A
:10D1F0000302002B01F007014FEA4212044614BF5C
:10D200008023002342EA81021A432021FFF7DAFF3C
:10D2100094F82030083BDBB2082B96BF124A00225C
:10D22000D25C20462121FFF7CDFF94F82530002B5A
:10D2300094F8263014BF2022002203F00303204676
:10D240001A432221FFF7BEFF94F8242002F00302C4
:10D25000204623219200FFF7B5FF2046242100221B
:10D26000BDE81040FFF7AEBFF4A7020070B50C4C4C
:10D27000164620460D4600F0C1F93146204600F022
:10D280004FF92046002100F0C5F929460122204629
:10D2900000F018FA204600F039F9C0B270BD00BFA6
:10D2A0002C5400200A460178012903D190F873100C
:10D2B000FFF7DCBFFF2070470A460178012903D140
:10D2C00090F87210FFF7D2BFFF20704738B543784F
:10D2D00080F87330837880F872300446FFF78CFE54
:10D2E0002046FFF735FE2046FFF766FE2046FFF793
:10D2F00045FE2378012B02D10F4800F077F90F216A
:10D300002046FFF7D9FF0F2105462046FFF7CAFF49
:10D3100045EA002005B246F63D039D420AD120466B
:10D32000FFF7B2FE2046FFF70AFF2046FFF758FF3F
:10D33000284638BD002038BD2C5400202DE9F0418E
:10D34000164C9DF81860204617460D46984600F08A
:10D3500055F9236847F080011B682046984720460E
:10D36000002100F057F9074610B10020BDE8F08118
:10D3700029462046324600F0A5F9B0420546F4D1D0
:10D380003C46AC4206DA054800F0C0F808F8040054
:10D390000134F6E72846BDE8F08100BF2C54002098
:10D3A00073B515460278012A04460E4618BFFF20C1
:10D3B00006D1009394F8731032462B46FFF7BEFF58
:10D3C00002B070BD13B5062328216A460446FFF754
:10D3D000E7FF062823D19DF800309DF801109DF845
:10D3E00003209DF8050043EA01219DF80230E18504
:10D3F00043EA02229DF80430228643EA002394F88F
:10D400008000638658B1B4F86600091AE185B4F863
:10D410006810521A2286B4F86A209B1A638602B0FA
:10D4200010BD13B5062318216A460446FFF7B8FF5E
:10D43000062823D19DF800309DF801109DF80320A7
:10D440009DF8050043EA01219DF80230218543EA59
:10D4500002229DF80430628543EA002394F880009C
:10D46000A38558B1B4F86000091A2185B4F8621098
:10D47000521A6285B4F864209B1AA38502B010BDCD
:10D4800073B515460278012A04460E4618BFFF20E0
:10D4900006D1009394F8721032462B46FFF74EFFE8
:10D4A00002B070BD13B5062328216A460446FFF773
:10D4B000E7FF062814D19DF801209DF8003043EACB
:10D4C0000223A3869DF803209DF8023043EA02233D
:10D4D000E3869DF805209DF8043043EA0223238764
:10D4E00002B010BDF8B505460E4617460024BC42F2
:10D4F00007D02B68315D1B682846984708B1013476
:10D50000F5E72046F8BD103000F0E5BC08B5103056
:10D5100000F0C8FC08BD08B5103000F0B1FC08BD33
:10D5200038B590F8C030032B0D4605D100F15404F6
:10D53000204600F0DCFC08B1002038BD204629461A
:10D5400000F090FC012038BD08B5103000F0BAFCA6
:10D5500008BD0000F8B506464FF47A7300258360D5
:10D56000124B456046F8103B0446294604F1540727
:10D57000304640220BF034FA29464022A4F850509D
:10D58000A4F8525038460BF02BFA3046A4F89450C9
:10D59000A4F8965000F09FFC384600F09CFC84F8FC
:10D5A000985084F8C0502046F8BD00BF38A802004B
:10D5B000F8B51E4690F8C03004461546A3B9084693
:10D5C00000F096FB0746284600F092FB04F19C050C
:10D5D00001463A46284600F0DBF82846314600F07E
:10D5E0004BF9012384F8C030F8BD0000032102226A
:10D5F000014BFFF7DDBF00BFA086010010B5490059
:10D60000044680F89810543000F065FC032384F839
:10D61000C03010BD2DE9F041044692B08846002686
:10D6200004F15407384600F02BFCF5B2013638B14E
:10D63000384600F037FC12AB1D4405F8400CEFE70C
:10D640002B4694F89810CDF8008002AA04F19C00B3
:10D6500000F054F9064604F1100000F03CFC70B2F2
:10D660000223854214BF0420002084F8C03012B089
:10D67000BDE8F0810121FFF7CDBFF0B54900C9B287
:10D68000402A93B00646144680F8981002D81746F0
:10D690004AB100E04024009306F19C0002AA234610
:10D6A00000F00CF9C7B20025EBB2A34207D202ABDF
:10D6B00006F11000595D00F0D5FB0135F4E738465E
:10D6C00013B0F0BD0123FFF7D8BF00000148FFF7FA
:10D6D00041BF00BF2C5400200649074A074B9B1A44
:10D6E00003DD043BC858D050FBDC00F039F9FEF7ED
:10D6F000B1FE0000E4C80200005000200C520020DF
:10D70000FEE7FEE7FEE7FEE7FEE7FEE7FEE7FEE7F1
:10D71000FEE7FEE708B50E4A0B78242101FB032340
:10D7200001221A750278012A0AD005D3022A0BD1E8
:10D730009A6942F0020206E09A6942F0080202E0A9
:10D740009A6942F004029A61DB6903B1984708BD07
:10D75000F054002070B50B4C067804EBC604054667
:10D76000204604F0A3FF084B242202FB063120468A
:10D770002B460431054A04F0CBFD2046BDE870403D
:10D7800004F06CBF80A80200F054002015D70100FF
:10D790007FB5334C237805462BB1A3688B4202D169
:10D7A000636893420CD094F824002D4BA0B1D86A42
:10D7B000884211D19B6A934208BF01230CD100E03B
:10D7C0000023242202FB03442B704FF0CC73E36050
:10D7D0002846FFF7BFFF41E04FF0CC7302930623CA
:10D7E0008DF80C302378009201911BB194F824300D
:10D7F00083B913E01B4B0320596800F0A9F81A48BD
:10D800001A4A69462B4604F083FD0028EED1164ED5
:10D81000034612E0164802F04FFD1FE0114B0420B2
:10D82000D96800F095F81348104A69462B4604F071
:10D830006FFD0028EED10F4E012324222B7053439D
:10D840000121E1542B7804AD02FB034415E90F00DC
:10D85000043484E80F00304604F000FF04B070BDCB
:10D86000F054002050A8020080A8020015D7010043
:10D8700060A8020088A8020002780C4B242000FB5C
:10D8800002330B48814202DC4FF0CC7106E00948BC
:10D890008142D4BF4FF080614FF0CD61D96006491D
:10D8A000DB6851F83220C2F824357047F05400206C
:10D8B0008FD003007F1A060080A8020070B50D4CBF
:10D8C00000780D4D242606FB004605EBC00500241C
:10D8D00034752846C1F34701DBB204F081FF38B943
:10D8E000337D002BFCD02846BDE8704004F092BF89
:10D8F000204670BDF054002080A8020073B5124C81
:10D900000078124D242606FB004605EBC00506985C
:10D910000024B0EB040EDEF1000050EB0E00347575
:10D92000C1F347010090DBB2284604F03DFF40B947
:10D93000337D002BFCD0284602B0BDE8704004F0D7
:10D9400069BF204602B070BDF054002080A80200DC
:10D950001030024B43F82010704700BF24510020C4
:10D96000904B1B78062B0AD18F4B1B681A0706D1E8
:10D970008E4B1B6803F0F003302B00F0A280894B24
:10D980001B78062B0FD1884B1B681B070BD1874BCD
:10D990001B6803F0F002302A00F0978003F0E003E8
:10D9A000402B00F092807F4B1B78062B0AD17E4BD8
:10D9B0001B68180706D17D4B1B6803F0F003302B62
:10D9C00000F08A80774B1B78062B0ED1764B1B68B4
:10D9D00019070AD1754B1B6803F0F002302A00F0DA
:10D9E000818003F0E003402B7CD06E4B1B78062B2C
:10D9F00009D16D4B1B681A0705D16C4B1B6803F0EE
:10DA0000F003302B78D0674B1B78062B0AD1664B7E
:10DA10001B6813F00F0305D1644A126802F0F0028C
:10DA2000302A6DD05F4B1B78062B09D15E4B1B68EB
:10DA30001B0705D15D4B1B6803F0F003502B69D029
:10DA40004FF01023D3F80C3213F0010127D0584BBC
:10DA50000122C3F80425D3F80024002AFBD04FF09C
:10DA60001023D3F80C2222F00102C3F80C22504BF1
:10DA7000D3F80024002AFAD00022C3F80425D3F8F2
:10DA80000024002AFBD0BFF34F8F4A4A4A4BD1688B
:10DA900001F4E0610B43D360BFF34F8FFEE7474BC8
:10DAA000474A1A604FF080430122C3F81825C3F893
:10DAB00004119A604FF08043D3F80431002BF9D061
:10DAC0007047404B404A1A6059E7404B1A68404B38
:10DAD000C2F342321A6066E73E4BDA6822F0807287
:10DAE000DA606FE74FF080430022C3F80C21C3F8DF
:10DAF0001021C3F8382578E7374B03221A6082E7F4
:10DB0000364A05211160012191679360344B3F2211
:10DB10001A6087E74FF08052324BD2F80414C3F8F2
:10DB20002015D2F80814C3F82415D2F80C14C3F841
:10DB30002815D2F81014C3F82C15D2F81414C3F811
:10DB40003015D2F81814C3F83415D2F81C14C3F8E1
:10DB50004015D2F82014C3F84415D2F82414C3F8A1
:10DB60004815D2F82814C3F84C15D2F82C14C3F871
:10DB70005015D2F83014C3F85415D2F83414C3F841
:10DB80006015D2F83814C3F86415D2F83C14C3F801
:10DB90006815D2F84014C3F86C15D2F84424C3F8C1
:10DBA00070254DE7E00F00F0E40F00F0E80F00F003
:10DBB00000E0014000ED00E00400FA0514500020F0
:10DBC0000090D00374C007400DF0ADBA44020010BD
:10DBD0003C050040F0ED00E0A0050040105600407C
:10DBE0001456004000C00040F8B506460C468F1899
:10DBF0000025BC4207D0336814F8011B1B6830466F
:10DC000098470544F5E72846F8BD70B505460C462B
:10DC100049B1036808465E680BF012F821460246D7
:10DC20002846B04770BD084670BD08B5FFF7EDFF48
:10DC300008BD08B503681B68984708BD38B50D21B5
:10DC40000546FFF7F6FF0A2104462846FFF7F1FFD5
:10DC5000204438BD38B50446FFF7D7FF05462046B7
:10DC6000FFF7ECFF284438BD30B58BB000238DF8AA
:10DC70002430012A98BF0A220DF12304B1FBF2F3EC
:10DC800003FB1211CDB2092D94BF30353735EDB2FB
:10DC9000214604F801590BB11946EFE7FFF7B5FF2C
:10DCA0000BB030BDF8B506460D46144622B90368E0
:10DCB000C9B21B689847F8BD0A2A0CD100290BDAB3
:10DCC0002D21FFF7B6FF6942074622463046FFF78F
:10DCD000CBFF3844F8BDD2B2BDE8F840FFF7C4BF6F
:10DCE000FFF7E0BF08B5FEF7DBFFFEF791FFFCE7AB
:10DCF0000F289ABF024B185CFF2040B2704700BF4C
:10DD00009FA8020070B5FFF7F3FF052819D007DCC4
:10DD100003281CD013DC022840F09A80012317E06E
:10DD20001D2810D004DC1C2840F0928005230FE051
:10DD30001E280AD01F2840F08B80082308E0032308
:10DD400006E0042304E0062302E0072300E00223A8
:10DD5000404D2A78082A09D90A2A0AD90C2A8CBFE8
:10DD60000E210C218CBF0320022004E0082100209A
:10DD700001E00A210120384A4FF0FF34C2F8F005D3
:10DD80000020C2F8F405C2F808430124C2F80401D7
:10DD9000C2F80801C2F800450246140104F18044AB
:10DDA00004F5E04401320020082AC4F81405C4F840
:10DDB0001005F2D1294A126882424FEA023414BF98
:10DDC0004FF400760646244A44F400343443C2F843
:10DDD0001845C2F81405C2F81035214B18800120EF
:10DDE000C2F82C36C2F8300610601846D2F800414E
:10DDF000194B002CFAD00022C3F8002101225A60EE
:10DE0000154BD3F80421002AFAD00022C3F80421CC
:10DE100001229A60D3F81421002AFBD00E4A002375
:10DE2000C2F81431B0F900209A42BCBF0C4A1380EA
:10DE3000094AC2F800352B78B0F90000994208D0A1
:10DE40008BBFC3EB0101C1EB0301C840884070BD2B
:10DE5000002070BD1C5000200070004018500020B1
:10DE600038550020B0F8402010B5531CB0F842409F
:10DE700003F03F039C421CBF8154A0F8403010BD0A
:10DE8000B0F84030B0F84220054840339B1A1840A3
:10DE9000002803DA013860F03F00013080B270479B
:10DEA0003F000080B0F84230B0F840209A4207D0DE
:10DEB000C25C013303F03F03A0F8423010467047C4
:10DEC000FF207047B0F84230B0F840209A4214BFAB
:10DED000C05CFF20704710B50021044640220AF0C4
:10DEE0007FFD0023A4F84030A4F8423010BDB0F804
:10DEF0004030B0F84200013303F03F03C31A5842E8
:10DF00005841704708B506F02FFA4FF47A73B0FB0A
:10DF1000F3F008BD73B50C46FFF7EAFE431C054657
:10DF200004D10F480F49412202F026F9012C8DF847
:10DF3000045006D004D3022C10D10024032601E0A3
:10DF40000024002601A8294605F07AFF01A82146F1
:10DF500005F0BCFF01A8314605F096FF02B070BD88
:10DF6000AFA80200C6A8020038B50D46FFF7C0FEF4
:10DF7000431C044604D108480849632202F0FCF817
:10DF800001224FF0A04302FA04F415B1C3F808458A
:10DF900038BDC3F80C4538BDAFA80200C6A80200C2
:10DFA0000120704708B50248FFF76AFF08BD00BFAF
:10DFB0005055002008B50248FFF774FF08BD00BFA8
:10DFC0005055002008B50248FFF77CFF08BD00BF90
:10DFD0005055002008B5034806F0F4F80028FAD19F
:10DFE00008BD00BF4C55002008B5024806F0DEF819
:10DFF000012008BD4C55002001460148FFF732BF03
:10E000005055002038B54FF47A7300258360054BD6
:10E010004560044603600448FFF75DFF034B1D6045
:10E02000204638BD60A90200505500204C55002004
:10E0300070B5D8B20D461446FFF75AFE0646E0B258
:10E04000FFF756FE0B4C02463146204605F0C6FF50
:10E050002046294606F072F84FF0FF322046002194
:10E06000134606F0B7F8204600210122BDE87040B3
:10E0700006F082B84C55002000220123FFF7D8BFDC
:10E0800010B5074C0748FFF7BDFF2046002140228E
:10E090000AF0A6FC0023A4F84030A4F8423010BDDA
:10E0A000505500203C550020704708B503680BB15F
:10E0B0000846984708BDF0B5456807682B680C46C8
:10E0C00007C987B09E6801AB83E80700E268049245
:10E0D00000220592284639461A46B04707B0F0BDDF
:10E0E00070B50446002521600E464560294608307B
:10E0F0000C220AF075FC084BA56163614EB9074D0F
:10E100002B6813B900F04EFE2860236855F82330C1
:10E110006360204670BD00BFABE00100B455002035
:10E1200070B560B9124D2E683EB91C2001F08CFF0D
:10E1300031460446FFF7D4FF2C60286870BD0D48B7
:10E140000368DB0709D401F037FF30B10A48012129
:10E15000FFF7C6FF074801F049FF074870BD20469A
:10E1600001F086FF02E0034801F058FF09F01BFFB1
:10E1700094550020B85500209855002010B54368EC
:10E18000044613B9034802F097F8606803689B6976
:10E19000984710BD98A9020010B54368044613B90A
:10E1A000034802F089F8606803689B69984710BDCE
:10E1B00098A9020010B54368044613B9034802F059
:10E1C0007BF8606803681B6A984710BD98A9020035
:10E1D00010B54368044613B9034802F06DF860684F
:10E1E00003685B6B984710BD98A9020007B503460A
:10E1F00008309A6832B1054A22B102A941F8043DBB
:10E200005B69984703B05DF804FB00BFA9E001001B
:10E21000022070470220704700207047002070479E
:10E220004FF6FF70704702207047022070470220AF
:10E23000704702207047022070470220704702207A
:10E24000704702207047022070470220704702206A
:10E250007047022070470220704700231360704708
:10E26000002070470220704702207047022070474C
:10E27000022070470220704700207047002070473E
:10E2800000207047022070470220704741607047AD
:10E2900081607047C160704701617047416170479C
:10E2A000022070470220704702207047022070470A
:10E2B00002207047022070470220704700207047FC
:10E2C00002207047022070470020704770470220EC
:10E2D0007047022070477047022070470020704747
:10E2E000704790DF704766DF704748DF704790F8EF
:10E2F0005F00003018BF01207047007970470C3074
:10E3000070470C30704708B503689B6B9847BDE8B1
:10E310000840FFF7EABF08B503680BB10846984705
:10E3200008BD08B503680BB10846984708BD08B595
:10E3300003680BB10846984708BD08B503680BB1E0
:10E340000846984708BD08B503680BB108469847CA
:10E3500008BD084611461A46009B01F0F5BA08466A
:10E36000114601F051BB0846114601F077BB01F0A0
:10E3700037BBF0B595B008238DF8043004AA8DF8AA
:10E380000C3068460CAB0C460092029301F0A2FBE5
:10E39000054608B9024611E0002323712CE0561C03
:10E3A00062799A42F9D92168C3EBC3000844009905
:10E3B000072251F823100AF0EFFA32469DF80410B4
:10E3C000D3B29942EBD8237100229DF80C10D3B23E
:10E3D0009942217919440ED9571C627991420ADA7F
:10E3E00026680298C1EBC10150F82300314401F0C6
:10E3F00087FB3A46E9E72171284615B0F0BD0000D9
:10E40000034B1A781AB100221A7005F085BB7047C9
:10E410001C5700201FB5037963B1164B1A781C46B0
:10E42000CAB902A8FFF75FFFE0B9BDF80A30592B5F
:10E4300018D101E010481BE09DF80830DA1F012ACE
:10E44000BDF80C2009D800920C480D4A20210AF092
:10E45000BBFB0123237009480AE000920748094AE0
:10E460002021F4E70849054820220AF0F1FBF2E7F1
:10E4700004B010BDBC550020E8B30200FC560020DB
:10E4800002B402001FB4020044B4020038B503799C
:10E490000446002B2CD005F0CBFB00282AD1D4F861
:10E4A0002C0118B9D4F8340150B905E003681B6A8F
:10E4B00098470028F6D038BDD4F8300180B905E07F
:10E4C00003689B6A98470028F6D038BD04F10C0019
:10E4D00006F042FC054648B901F026FB257105E02F
:10E4E0000368DB6A98470028F0D038BD284638BD5D
:10E4F000092038BD052038BDF8B51E4603685B68A5
:10E5000004460F46154698470346002849D195E82A
:10E51000070004F11C0E8EE80700EA68A262E362BD
:10E5200096E8070004F1440585E80700F268636592
:10E53000069B226503F11401A21D53F8040B42F857
:10E54000040B8B42F9D1079B04F1300203F1100652
:10E5500018685968154603C50833B3422A46F7D1EF
:10E560001868286000220121A78084F85D2084F8C3
:10E570005C2084F85F103846FFF7B3FE054668B1AB
:10E58000236820469B689847112D08D043F2020368
:10E590009D4201D0072D04D10420F8BDF8BD05200F
:10E5A000F8BD0620F8BD38B50446E3692362206A49
:10E5B00038B1C36821469847236A002BF5D01B6900
:10E5C000F4E7E06920B1056901F052FD2846F9E75A
:10E5D000E0616060A060E0602061606138BD08B506
:10E5E000FFF7E1FF002814BF0620002008BD38B562
:10E5F0000446006820B1056901F03AFD2846F9E7B4
:10E60000206038BD10B5044A044640F8042BFFF7DB
:10E61000EEFF204610BD00BFB8B2020010B50446A0
:10E62000FFF7F0FF204601F023FD204610BD38B56E
:10E630000446006820B1056901F01AFD2846F9E793
:10E64000206038BD10B5044A044640F8042BFFF79B
:10E65000EEFF204610BD00BFC8B2020010B5044650
:10E66000FFF7F0FF204601F003FD204610BD38B54E
:10E670000446E36A2363206B38B1C3682146984798
:10E68000236B002BF5D01B69F4E7E06A20B1056924
:10E6900001F0EEFC2846F9E7E06204F10800FFF71C
:10E6A000C6FF04F11400FFF7A2FF206A20B105693C
:10E6B00001F0DEFC2846F9E7206238BD38B5064B8C
:10E6C00003600446406820B1056901F0D1FC28468A
:10E6D000F9E76060204638BDD8B2020010B50446A4
:10E6E000FFF7ECFF204601F0C3FC204610BD000000
:10E6F00038B5064B03600446406820B1056901F057
:10E70000B7FC2846F9E76060204638BD98B20200A1
:10E7100010B50446FFF7ECFF204601F0A9FC2046A7
:10E7200010BD000038B5064B03600446406820B1B8
:10E73000056901F09DFC2846F9E76060204638BD78
:10E74000D8B1020010B50446FFF7ECFF204601F0F7
:10E750008FFC204610BD000038B5064B0360044610
:10E76000406820B1056901F083FC2846F9E7606044
:10E77000204638BDE8B1020010B50446FFF7ECFFB3
:10E78000204601F075FC204610BD000038B5064B50
:10E7900003600446406820B1056901F069FC284621
:10E7A000F9E76060204638BDF8B1020010B50446B4
:10E7B000FFF7ECFF204601F05BFC204610BD000097
:10E7C00038B5064B03600446406820B1056901F086
:10E7D0004FFC2846F9E76060204638BDC8B102000A
:10E7E00010B50446FFF7ECFF204601F041FC20463F
:10E7F00010BD000038B5064B03600446406820B1E8
:10E80000056901F035FC2846F9E76060204638BD0F
:10E8100048B3020010B50446FFF7ECFF204601F0B4
:10E8200027FC204610BD000038B5064B03600446A7
:10E83000406820B1056901F01BFC2846F9E76060DB
:10E84000204638BD38B3020010B50446FFF7ECFF90
:10E85000204601F00DFC204610BD000038B5064BE7
:10E8600003600446406820B1056901F001FC2846B8
:10E87000F9E76060204638BDA8B2020010B5044632
:10E88000FFF7ECFF204601F0F3FB204610BD00002F
:10E8900038B5D0F83441054674B9242001F0D4FBD2
:10E8A000074A8261074A44608460C460046144612D
:10E8B000C4610260C5F83401D5F8340138BD00BF29
:10E8C00098B20200B0B3020038B5D0F83441054622
:10E8D00074B9242001F0B8FB074A8261074A4460FA
:10E8E0008460C46004614461C4610260C5F834019D
:10E8F000D5F8340138BD00BF98B20200B0B30200B1
:10E90000F7B5037906460F46144633B100230A25AE
:10E91000019300938DF8045007E000F077FD054661
:10E9200078B901233371009001903846FFF7F8FB66
:10E9300002A941F8080D2046E36869469847284631
:10E9400000E00C2003B0F0BD10B5002104461F22EA
:10E950000AF046F80023E37710BD000070B50446C6
:10E9600086B0D4F8B030C4F8B430D4F8B40040B1B4
:10E97000C36821469847D4F8B430002BF1D01B6906
:10E98000F1E7D4F8B00020B1056901F071FB284629
:10E99000F9E794F85830C4F8B00060F3000360F36E
:10E9A000410384F8583084F8560084F85C0004F180
:10E9B0000A00FFF7C9FF04F13400FFF7C5FF606EDE
:10E9C00020B1056901F054FB2846F9E76066D4F8E8
:10E9D000980020B1056901F04BFB2846F9E7D4F80F
:10E9E000A450C4F898002DB12E69284601F040FBD0
:10E9F0003546F8E701AE2946C4F8A45030460C224B
:10EA000009F0EEFF96E8070004F16C0383E80700C5
:10EA10000A4BA3672946E56730460C2209F0E0FF60
:10EA200096E8070004F1800383E80700044BC4F86C
:10EA30008C302846C4F8905006B070BD23E3010026
:10EA400017E301000246002310B502F8013B002441
:10EA5000D4540133102BFAD1418210BD2DE9F0417D
:10EA600086B0002101AC054681802046FFF7EAFF11
:10EA70002646AB1D05AF324603CABA42186059603C
:10EA8000164603F10803F6D11068186000212046ED
:10EA90000C2209F0A5FF94E8070005F11C0383E8A8
:10EAA00007004FF00008114BAB624146C5F82C80BF
:10EAB00020462746FFF7C6FF0FCF05F130060FC6E9
:10EAC0003B683360414620460C2209F089FF94E8F8
:10EAD000070005F1440383E80700054B2B6540461A
:10EAE000C5F8548006B0BDE8F08100BF3BE30100EB
:10EAF00047E301002DE9F0470646894615469A4648
:10EB0000036807CA92B003ACD3F8008084E807001A
:10EB1000EA680692002529460C220DAF08A8079541
:10EB200009F05EFF084B0B93294638460C95FFF71A
:10EB300089FFCDF800A0019730464946224608AB30
:10EB4000C04712B0BDE8F08747E3010010B50A4B9B
:10EB5000044640F8AC3BFFF719FE04F1A000FFF7B4
:10EB6000FBFD04F19400FFF7DDFD04F16000FFF709
:10EB700027FE204610BD00BF08B2020038B504468B
:10EB8000002540F8045B2946FFF75CFF2576658386
:10EB9000A583E5832584204638BD000070B58AB082
:10EBA00004460021242201A809F01AFF01A8FFF75A
:10EBB000E5FF01AD04F5CA7309AE2A4603CAB242A5
:10EBC00018605960154603F10803F6D112881A80BF
:10EBD000236820465B689847002384F85F3050B173
:10EBE000D4F880313BB1054B2BB1D4F88C31A188DE
:10EBF00004F5C07098470AB070BD00BFA9E00100DD
:10EC000008B5FFF7CBFF08BDF7B5494B494A03608C
:10EC1000C2600023A0224282044603718360037411
:10EC2000838200F116061A460023B35401321F2ACC
:10EC3000FAD14FF400724FF48041E28684F8353007
:10EC4000009304F138000A4605F0C6FB04F14007C2
:10EC500000230025FD5401331F2BFAD14FF400731C
:10EC6000A4F8603094F8643084F85F5003F0FE0339
:10EC700065F3410384F864302F4BE36629460C2288
:10EC800084F8625084F86850256704F1780009F030
:10EC9000A7FE2A4BC4F8843029460C22C4F88850B9
:10ECA00004F18C0009F09CFE254BC4F89830254BEC
:10ECB000C4F8A030244BC4F8AC30244BC4F8B830AE
:10ECC0003046C4F89C50C4F8A450C4F8B050C4F8FE
:10ECD000BC50FFF739FE3846FFF736FE1C4BE360A9
:10ECE00084F8C45084F8C55084F8C65004F5807088
:10ECF00001F0F2F8174AC4F8002100234FF6FF7222
:10ED00002046C4F82431A4F82821C4F82C31C4F8D2
:10ED10003031C4F8343103B0F0BD04F10C00FFF71A
:10ED200015FFFFE7204605F03FFB09F03CF900BF67
:10ED300060B4020008B20200C8B1020023E301007F
:10ED400017E30100D8B10200E8B10200F8B10200F7
:10ED5000C8BA020078B5020008B50D480368DB07A1
:10ED600013D401F029F980B10A48FFF74DFF084894
:10ED700001F03CF90849094A064801F01BF904E092
:10ED8000034801F04BF909F00EF9024808BD00BF35
:10ED9000F8560020C0550020D1ED010000500020A1
:10EDA000FFF7DABFFFF7D8BF10B5034B0360044687
:10EDB000FDF750FF204610BD78B5020010B504469F
:10EDC000FFF7F2FF204601F053F9204610BD000086
:10EDD00038B50D4B03600D4BC360044600F10C05C4
:10EDE00000F58070FFF7E0FF2846FFF7AFFE2046F2
:10EDF00005F0DAFA204638BD2846FFF7A7FE204680
:10EE000005F0D2FA09F0CFF860B40200C8BA0200E7
:10EE100010B50446FFF7DCFF204601F029F9204633
:10EE200010BD000038B50C2204460D46002109F043
:10EE3000D7FD00232361024B2560E360204638BDE7
:10EE40002FE3010070B5324B0360002504460E46E7
:10EE50008571058329460C221C3009F0C1FD2D4B1C
:10EE6000E562A36284F83050A4F84250294604F1C8
:10EE700044000C2209F0B4FD274B2365274B656540
:10EE8000A66584F85C5084F85D5084F85E5084F880
:10EE90005F50236004F1600504F1C006284600219C
:10EEA000FFF7D0FD0023AB82EB821835B542F5D1D8
:10EEB00004F5A87628460021242209F091FD284671
:10EEC0002435FFF75BFEB542F4D10021C4F85011A0
:10EED000C4F85411C4F85811C4F85C11C4F8601196
:10EEE000C4F86811C4F86C11C4F87011C4F8741136
:10EEF000C4F87811C4F86441C4F87C4104F5C070CA
:10EF0000FFF790FF04F5CA70FFF738FE204670BD8A
:10EF100018B302003BE3010047E3010090B3020095
:10EF200070B5D0F830510646002D33D14FF434700F
:10EF300001F08AF8194B4360194B0361194BC36107
:10EF4000194B83620446194B856045610562C562B1
:10EF5000214640F8343BFFF775FF04F5F67005F0E5
:10EF60002DFBC6F8304115E02046114B40F8283BF8
:10EF7000FFF740FC04F11C00FFF756FC04F1100001
:10EF8000FFF740FB201DFFF75DFB204601F070F806
:10EF900009F009F8D6F8300170BD00BFC8B2020010
:10EFA000B8B2020038B3020048B3020070BB0200DE
:10EFB00058B30200234B70B50360234B8360234B8F
:10EFC0004361234B03620025224BC3620446057153
:10EFD0004571C56085614562056329463830FFF794
:10EFE00021FF294604F14C00FFF71CFF04F16000EB
:10EFF0002946FFF717FF2346174A43F8742B0022D0
:10F000005A510435502DFAD104F1C40504F5B276F5
:10F01000284600210822083509F0E2FCB542F7D164
:10F0200000220023B3500432202AFAD184F884311C
:10F0300004F5C3720021D1520233102BFAD12046BD
:10F0400070BD00BFE8B20200A8B20200B8B2020070
:10F05000C8B20200D8B20200D0BB020038B5D0F866
:10F060002C31044643B94FF4CC7000F0EDFF054657
:10F07000FFF7A0FFC4F82C51D4F82C0138BD38B5E7
:10F08000D0F82C31044643B94FF4CC7000F0DCFFCB
:10F090000546FFF78FFFC4F82C51D4F82C0138BD7A
:10F0A00010B503460C4607C983E80700E268DA603A
:10F0B00000221A61184610BD08B500F5C070FFF7B0
:10F0C000EFFF08BD30B587B00446FFF7C7FC054623
:10F0D00038BB4FF0FF3384F85C0084F85D0084F89F
:10F0E0005E0084F85F00C4F85001C4F86801294646
:10F0F000C4F85431C4F85831C4F85C31C4F86031F4
:10F10000C4F86C31C4F87031C4F87431C4F8783183
:10F1100001A8FFF787FE04F5C07001A9FFF7C0FF43
:10F1200000E00625284607B030BD70B5044686B01D
:10F13000236B6363606B38B1C36821469847636B88
:10F14000002BF5D01B69F4E7206B20B1056900F0B6
:10F150008FFF2846F9E7E5682063207160712DB1C3
:10F160002E69284600F084FF3546F8E704F11800C0
:10F17000E560FFF73CFA04F12400FFF758FA29464E
:10F1800001A8FFF74FFE01A904F13800FFF788FF3F
:10F19000294601A8FFF746FE01A904F14C00FFF73C
:10F1A0007FFF294601A8FFF73DFE04F1600001A999
:10F1B000FFF776FF284606B070BD70DF704771DF3D
:10F1C000704704F099BB000010B5064B1C783CB9A1
:10F1D000012220461A70FFF7E3FD214605F0F4F8FE
:10F1E000002010BD1C5700202DE9F047054686B0D1
:10F1F00001F07EF8284602F0DDF9284600F01CFAFE
:10F200000020FFF7CDFD036806469B6998473368E9
:10F2100004461B6A3046984733688046DB6A3046AE
:10F2200098472B88103B0D2B00F2E680DFE813F0A7
:10F230000E006600E400E400E400A300E400E40043
:10F24000E400E400E400AC00E400C400AE88AF7D5C
:10F250002046314605F092FD94F858102B7AEA7B4F
:10F2600001F0FE0141F0020184F8581094F85610A4
:10F27000013184F856108DF8033000238DF80430E6
:10F280008DF805308DF806308DF807308DF8083090
:10F290008DF809308DF80A208DF80B308DF80C3080
:10F2A0008DF80D308DF80E308DF80F308DF8103050
:10F2B00005F1090105F11803062201A8ADF8006067
:10F2C0008DF80270059309F067FB0DF10B0005F155
:10F2D0001001062209F060FBD4F89830C4F89C3085
:10F2E000D4F89C00002800F08780C36869469847DE
:10F2F000D4F89C30002BEFD01B69EFE74FF6FF717D
:10F300002046AF8805F03AFD336895F808909B6A6F
:10F31000304698470646394600F5F670062205F055
:10F3200066FA338FBB4204D1736B06F134009B68DD
:10F33000984794F85630013BDBB284F856302BB92D
:10F3400094F8582063F3410284F85820ADF8007017
:10F350008DF80290D4F8A430C4F8A830D4F8A800EE
:10F36000002849D0C36869469847D4F8A830002BD4
:10F37000F0D01B69F0E74369AA8805F10801002B6A
:10F380003AD01046984737E02E7A2EB994F8583084
:10F3900066F3000384F85830636E6BB31A4A5AB3AD
:10F3A000A366A06E40B3C36831469847A36E0BB9FD
:10F3B000636EF5E71B69F3E72B7C95F80FA005F169
:10F3C000090168460622C3F30009C3F34107C3F3EA
:10F3D000C40609F0E1FA05F111038DF806A08DF8D5
:10F3E00007908DF808708DF809600393D4F88C307D
:10F3F00004F18000694698474046294606F002FA23
:10F4000006B0BDE8F08700BFA9E0010000B51620F6
:10F4100089B02449FEF79CFA01238DF800300723B8
:10F420008DF8033000238DF801308DF802306846E6
:10F430001D491E4B482204F0BFFB08B104F0B6FA88
:10F440000320012103AA04F025FC4FF4C0630793B5
:10F450009DF8183043F001038DF818300423ADF8FF
:10F460000C3008B107201AE003A804F02BFC002898
:10F47000F8D101A8FFF7A3FE0028F3D101A9FFF7F7
:10F480009CFE0028EED10A4804F0DEFB80B230B9C1
:10F49000084804F0E3FB80B208B900F08FF909B026
:10F4A0005DF804FB713C020020570020C9F1010007
:10F4B000E9F10100C3F1010008B503783BB90B780D
:10F4C0008BB9428A4B8A9A420DD1012008BD012B8B
:10F4D00009D10B78012B06D101300131102209F03E
:10F4E0004CFA0028F1D0002008BD0000F0B590F8DB
:10F4F0005F30022B8FB004460D4640F08F802422EF
:10F50000002105A809F06CFA06A80021FFF79AFA75
:10F5100000238DF82C30ADF82E30ADF83030ADF83A
:10F520003230ADF83430D4F89421059B9A4220D182
:10F5300004F5CC7006A9FFF7BFFFD0B194F8AC2159
:10F540009DF82C3002F07F0203F07F039A4210D125
:10F55000B4F8AE21BDF82E309A420AD1D4F8B021C9
:10F560000C9B9A4205D1B4F8B421BDF834309A42CC
:10F5700051D004F5CA7765BB94F85C30182202FBC1
:10F5800003432946B3F87630A4F8B23104F13006CB
:10F590006846FFF757FA30466946FFF78DFF90B986
:10F5A000304604F5CC71FFF787FF90B1294605A8D6
:10F5B000FFF748FAA01D05A9FFF77EFF80F00100C4
:10F5C00010F0FF0F05D0636C04F144000BB1194B30
:10F5D0005BBB2422002105A809F002FA0EAE06A8A2
:10F5E0000021FFF72FFA00228DF82C20ADF82E20F5
:10F5F000ADF83020ADF8322026F8042D05AD3B469D
:10F600002A4603CAB24218605960154603F108033E
:10F61000F6D112881A80012384F85F3094F85C30A8
:10F62000013384F85C300FB0F0BD236D3946984744
:10F63000CFE700BFA9E001007FB504460020FFF737
:10F64000AFFB03689B6A98472388303B054600F16F
:10F65000340600F5F670092B00F29E80DFE803F017
:10F66000059C1284911E2A9C4665E3882BB930467E
:10F6700004F10C0106F072FA8EE06B6B30469B6869
:10F68000984789E0E388304623B904F10C0106F07D
:10F69000EFFA81E00021FFF729FF7DE06B6B304638
:10F6A0005B689847002877D0304604F10C0106F0DB
:10F6B0003DFB71E0A388ADF80030A389ADF80230BE
:10F6C000E389ADF80430123434F8023CADF806306A
:10F6D0000294AB68EB60E86800285DD0C3686946B7
:10F6E0009847EB68002BF4D01B69F3E7A388ADF8CB
:10F6F0000030A389ADF80230A37B8DF80430238A53
:10F70000ADF80630143434F8023CADF808300394F8
:10F710006B69AB61A86900283ED0C3686946984709
:10F72000AB69002BF4D01B69F3E7A388ADF8003078
:10F73000A389ADF80230A37B8DF80430123434F87D
:10F74000023CADF8063002942B6A2BB3164A1AB36A
:10F750006B62686A00B3C368694698476B6A0BB905
:10F760002B6AF5E71B69F3E7E388A18823B1B3F5BA
:10F77000857F0ED100220DE004F10C0205F04CF85B
:10F780000AE0E388A18823B904F10C0205F089F8A6
:10F7900002E00B2205F02BF8304606F0EBFB30467A
:10F7A00006F06CFB04B070BDA9E0010077DF704784
:10F7B00078DF70477ADF70477CDF70471FB5002322
:10F7C00003931023ADF80830A023ADF80A3064236A
:10F7D000ADF80E309DF804301048012262F30303A7
:10F7E00004AC62F3071304F80C3D09F029FA0B4945
:10F7F00082B22046FFF7E0FF80B268B94FF4007094
:10F80000FFF7D6FF80B238B902A8FFF7D3FF80B266
:10F8100010B9FFF7CBFF80B204B010BDA0B4020056
:10F8200087DF704768DF704737B504460020FFF771
:10F83000B7FA0368DB6A9847237805460C2B73D820
:10F84000DFE803F0500715476B6172547272725B08
:10F850005D00364B60881B786C6803F00101C3F3D0
:10F860004002C3F3021304B1A04701222EE0237A21
:10F87000012B02D1A08802F017F8AB6860880BB1A9
:10F8800000219847608801A9FFF7CAFF9DF804305E
:10F8900003F00F02012A02D0022A07D00EE01B0952
:10F8A000013B022B0AD8224AD15C0AE01B09012B3A
:10F8B00006D0022B0CBF0521002102E0002100E050
:10F8C00004216088EB6803B198470022194B1A7035
:10F8D0002AE061896088AB68B1F5805F34BFC9B246
:10F8E0008821F0E7A08801F0DFFF1DE0637ADBB933
:10F8F0002B696088C3B1984716E0002200E003221C
:10F900000D4B1A6010E003F029FE0E280CD030F0E9
:10F91000080209D004F04AF806E002A9012301F820
:10F92000043D608801F0CCFE03B030BD1D500020C6
:10F93000A6B402006D57002068570020014B1878CC
:10F94000704700BF6C570020F7B5224D16462A7845
:10F9500004460F46B2BB73B102A9222041F8083D0C
:10F960006946FFF75FFF30B1082829D011280CBF86
:10F97000052004202BE001F031FE28BB164B1A783D
:10F9800064F3000267F3410266F306121A70DA7834
:10F9900014B142F0030203E064F3000264F3410295
:10F9A0000D48DA7001F072FE10B90C4801F05AFEF1
:10F9B00007280BD0082803D030B901232B7006E0AC
:10F9C000062004E0002002E00B2000E0042003B049
:10F9D000F0BD00BF6C5700201D50002029F8010029
:10F9E00010B5084C1123236001F0DAFE28B9236812
:10F9F000112BFCD0034B186818B108280CBF062047
:10FA00000B2010BD6857002013B50C4601A901F06A
:10FA100063FEA0B99DF80430C3F3400212B1022383
:10FA2000237016E013F0010013D00B4B1B781BB1B1
:10FA30000123237010460CE02370184609E00828C3
:10FA400006D043F2020398420CBF04200B2000E0D2
:10FA5000062002B010BD00BF6D570020012910B56F
:10FA600004460CD002292CD1184B1A7842F001021E
:10FA70006FF341021A70DA7842F0010209E0134B89
:10FA80001A7802F0FE026FF341021A70DA786FF30F
:10FA900000020E48DA7001F0F9FD014618B920465F
:10FAA00001F004FE014607290DD0082905D031B91F
:10FAB000074B01221A70084610BD062010BD0B200E
:10FAC00010BD022010BD042010BD00BF1D5000203D
:10FAD0006C57002008B5084B1B7802464BB100203C
:10FAE000082101F0EFFD28B10E2814BF06200320E5
:10FAF00008BD092008BD00BF6C57002000F06CBF96
:10FB000002230B708E230B714F230A464B717C230B
:10FB10008B710132043100F037BFA2DF7047A3DFE1
:10FB2000704763DF70470000014B00221A60704786
:10FB3000705700207FB500238DF8073002AAC15C02
:10FB400099540133102BF9D110460DF10701FFF73D
:10FB5000E8FF10B99DF8070000E0002007B05DF84D
:10FB600004FB00002DE9F3470378B0F81280044647
:10FB7000EBB1264A1768461C00239146BB4225D0AC
:10FB800019012348CD1805440022A2F1020CBCF152
:10FB9000010F05D915F802A016F802C0E24513D1ED
:10FBA0000132102AF1D10B441844057C00E00125F4
:10FBB0008DF80650BDF80630002068F30F0063F39F
:10FBC0001F4002B0BDE8F0870133D7E73046FFF7AA
:10FBD000B1FF237805460BB904F11206042FE7D0D4
:10FBE0000B4C07EB071031461022204408F0D4FEDE
:10FBF000D9F8003003EB0312224400210133917045
:10FC0000D1701574C9F80030D2E700BF70570020DA
:10FC1000745700202DE9F04192B007468DF8072077
:10FC2000884603A80DF1070101221D461C9EBDF860
:10FC3000744008F0B1FE9DF80C3013F0300F1BD06B
:10FC4000032204A8002108F0CBFE9DF81230012207
:10FC500062F342038DF812309DF8103062F3030313
:10FC600062F307138DF810309DF8113062F303032F
:10FC700062F307138DF811301C220BA8002108F045
:10FC8000AFFE9DF80C208DF82C2012F0300318BF29
:10FC900004AB10932CB126B10C96ADF83440ADF8FE
:10FCA00036409DF878100023ADF8143061F3C3039B
:10FCB0009DF87C1061F30413012161F342039DF868
:10FCC0006C1012F0320F61F300038DF8163029D05A
:10FCD0006B1E042B26D8DFE803F003070E151C006B
:10FCE0009DF81430012117E09DF81430012161F3D3
:10FCF0000303022112E09DF81430012161F3030394
:10FD000003210BE09DF81430022161F3030301216C
:10FD100004E09DF81430022161F3030361F307133B
:10FD20008DF8143012F00C0F29D0013D042D26D887
:10FD3000DFE805F003070E151C009DF815300122C1
:10FD400017E09DF81530012262F30303022212E04E
:10FD50009DF81530012262F3030303220BE09DF8A6
:10FD60001530022262F30303012204E09DF81530EE
:10FD7000022262F3030362F307138DF8153006A81D
:10FD80000021142208F02CFE05AB0793BDF8643067
:10FD9000ADF82030BDF86830ADF82430189B0A93D8
:10FDA00038460BA906AA209BCDF81880FFF7B5FEB0
:10FDB00080B212B0BDE8F0812DE9F04387B0012494
:10FDC00099469DF83C3004FA04F563F300058DF87C
:10FDD0000250254664F307158DF8005025468046ED
:10FDE0000F46164664F3071501A8002114228DF86A
:10FDF000015008F0F5FD00AB02934046BDF83830E5
:10FE0000109A019701A9ADF80C90ADF81030059645
:10FE1000FFF785FE80B207B0BDE8F08338B54368D0
:10FE200041690446194400F06BF8636A04F118054F
:10FE30002BB90548054940F28F2200F09DF9636A0D
:10FE400028461B68984738BDB8B40200BDB402000C
:10FE500038B504460D4600F0E7F9204600F056F8A4
:10FE60006561206900F078F94119204600F048F8F2
:10FE7000BDE8384000F002BA38B5044604F1180570
:10FE800000F0D2F9204600F041F82846FCF7DAFEEF
:10FE90000DB100236362BDE8384000F0EFB9000007
:10FEA00038B5436A044600F118052BB905480649E0
:10FEB00040F28F2200F060F9636A28461B68984779
:10FEC00038BD00BFB8B40200BDB4020008B5036875
:10FED0009B68984708BD0000074B10B503600023DE
:10FEE00043608360C360044600F03CF9034920612D
:10FEF00000F0C2F8204610BDA8B50200CDFE0100FA
:10FF000003460A460069191D00F0E2B801460431B3
:10FF1000006900F0FEB8000010B5034B0360044612
:10FF2000FFF7F4FF204610BDA8B5020010B5044647
:10FF3000FFF7F2FF204600F09BF8204610BD704707
:10FF4000014800F0B9B900BFCCB5020008B50120E6
:10FF500008F0BAFC704708B5FFF7F1FFFFF7FAFFAA
:10FF600008BD00000C4B1A681318EFF308818B4290
:10FF700005D30A4B0C221A604FF0FF307047084936
:10FF8000096821B10748006801448B42F1D2024957
:10FF900010460B60704700BF24500020BC6000205A
:10FFA000B8570020BC57002008B500B9FEE700F0A4
:10FFB000F5F8FBE70120704710B5037803F0030361
:10FFC000012B04460CD02BB10648074940F22132E0
:10FFD00000F0D2F8237843F002032370012010BD13
:10FFE000002010BDD6B50200FCB5020010B50378A4
:10FFF00003F00303022B044605D00648064940F2ED
:020000022000DC
:10000000293200F0B9F8237823F0030343F0010309
:10001000237010BD76B60200FCB5020010B503785F
:1000200003F00303022B044605D00548054940F2BE
:10003000313200F0A1F8237823F00203237010BDC1
:1000400076B60200FCB5020010B508F077FC044655
:1000500048B9064800F030F905E0013101D007F059
:10006000A2FF08F083F8204610BD00BFB5B602001D
:1000700008B108F06BBC704738B5036804461B68CC
:100080000D46984763681D6038BD38B50368DB6866
:100090000446984763685A68236812B99B68984772
:1000A00038BD5B6815689847281A0028636809DC22
:1000B0005A689168596063681B68002BEAD05068E1
:1000C0009847E7E75A68216810680B69984738BD78
:1000D000F8B50D461C461646074600F0A5F82E60FA
:1000E0006C607A685468002334B12168711A002961
:1000F00002DB2346A468F7E72BB955603B6830461E
:100100001B69984700E09D60AC60BDE8F84000F0D6
:10011000B5B838B504460D4600F086F862685368F5
:10012000AB4210D19B685360636822685B6813B967
:10013000936898470CE012691868904708E09A683D
:10014000AA4203D01346002BF9D101E0AA689A60B5
:10015000BDE8384000F092B808B503685B6898477E
:1001600008BD0000004870479CB702000148FFF737
:100170008CBF00BF9CB7020070B506460D46144602
:1001800000F052F831462A462346034800F038F87A
:10019000BDE8704000F002B8A4B7020008B500F056
:1001A00043F8962000F09EF8962000F09BF8F8E7C0
:1001B00030B50546A1B00C4600F036F82946684631
:1001C000224609F03FF8051E03DC00F057F821B085
:1001D00030BD094B1B6823B908480621082203F0EB
:1001E000FDFE00241DF804100448013403F0DEFF76
:1001F000AC42F7D1E9E700BF185F0020B8600020EB
:100200000FB407B504A951F8040B0191FFF7D0FF13
:1002100003B05DF804EB04B07047EFF3108000F01A
:10022000010080F00100704738B5FFF7F6FF80F05D
:100230000100C5B272B60C4C23680BB90B4B1D7094
:100240002368013304D10A480A493322FFF794FF97
:1002500023682BB125B9084806493722FFF78CFFE0
:1002600023680133236038BDC8570020CC570020D5
:10027000D5B70200FBB7020078B8020010B50A4CEF
:10028000236883B1FFF7C9FF20B108480849482215
:10029000FFF772FF2368013B236023681BB9054BFE
:1002A0001B7803B962B610BDC857002078B80200A9
:1002B000FBB70200CC5700200FB407B504A951F8D2
:1002C000040B0191FFF774FF012008F0FDFA38B527
:1002D000044604F049F8054604F046F8401BA042E5
:1002E000FAD338BD4FF47A735843FFF7F0BF0000DC
:1002F000F0B50388112B89B0044644D01A2B48D09E
:10030000102B60D1314E727D337D03A8311D23EA5D
:10031000020203F0DDFB0025039B9D420DD203AAE0
:1003200002EB45032A489B880022009200F110014D
:100330001D2203F093FB0135EEE7307DA788234DA6
:10034000C043C0B203F07CFB4FF6FF73984237D036
:1003500005EB400005F1150187803A46281D012371
:1003600003F09CFB281D05F114013A46012303F01C
:1003700095FBA37DA2889C1E634205F1040005F154
:100380001601634119E01248A28800F1110100230F
:1003900013E0037A0E48A2881F2B00F1130194BFCB
:1003A0000023012303F07AFB237A0948A2882F2B2C
:1003B00000F1140194BF0023012303F06FFB02E05E
:1003C000042003F0F3FA09B0F0BD00BFD0570020BD
:1003D000D457002038B5094C0546217D201D2A46FA
:1003E00003F065FB40B1201DA17D2A4603F05FFBB1
:1003F00000280CBF0120022038BD00BFD0570020CC
:1004000038B5094C0546217D201D2A4603F04FFBD7
:1004100040B1201D617D2A4603F049FB00280CBF36
:100420000120022038BD00BFD0570020024B0246F9
:10043000D97D181D03F03BBBD0570020024B02466C
:10044000197E181D03F033BBD057002010B5044BA4
:100450000446191D1A7D03F03BFB204610BD00BF6A
:10046000D057002010B508490A6800230C46012126
:1004700099401142D8B202D10A43226010BD013323
:10048000182BF4D1184610BDD057002030B5084BBA
:1004900001251C688D40024615EA040006D0194467
:1004A000181D497EBDE8304003F001BB30BD00BFE0
:1004B000D057002060B5064607481346056801225C
:1004C0008A402A4207D00144324604301931BDE83F
:1004D000604003F0E3BA60BDD0570020044A012118
:1004E000136881400B401ABF8018407E1846704741
:1004F000D05700204DDF704738B505460024054B26
:100500001A7B944205D253F8243028469847013488
:10051000F5E738BD0458002010B50024084B0C2224
:1005200002FB043293F83711108AFFF7AFFF08B9C6
:10053000E0B210BD0134082CF0D1FF2010BD00BF87
:100540000458002038B50A4C94F837110546FFF7D7
:100550009DFF58B100230C2202FB0342128AAA42DB
:1005600001D1D8B238BD0133082BF4D1FF2038BDFA
:100570000458002070B505460C4609B9FF2070BD2F
:100580004FF6FF739842F9D00F4E012296F83711BB
:10059000FFF790FF2846FFF7D5FFFF2803D1FFF7AD
:1005A000BBFFFF28EAD00C2303FB00634FF6FF716B
:1005B0001D82D9812168C3F8121003F11202A388A9
:1005C0009380A379937170BD045800200023C25C0E
:1005D00022B90133102BFAD1104670470120704721
:1005E00008B588B169B102780B789A420BD1013114
:1005F0000622013008F0C1F9D0F1010038BF002017
:1006000008BD084608BD002008BDF8B5471C0546D2
:1006100038460C46FFF7DAFF48B13846611C102215
:1006200008F0ABF9D0F1010638BF002600E006461D
:1006300005F1110004F11101FFF7D2FF16F0010FCF
:1006400018BF012000F00100F8BD000070B506469B
:1006500078B3194C257B25B1237B174A022B22D96D
:1006600019E0204629464FF49C7208F0B9F9182386
:10067000257384F8365184F8373163190C354FF6F9
:10068000FF72602D1A82F8D1FFF7ECFE0A4B182892
:1006900083F8370101D1042070BD084800F0CCFA7E
:1006A0000028D9D070BD591C42F823601173002076
:1006B00070BD0E2070BD00BF045800204507020029
:1006C00008B5FFF73FFF064B1A7B32B1FF2804D075
:1006D0000C2202FB0033D88908BD4FF6FF7008BD1D
:1006E0000458002038B50D4D2B7B0C4683B189B1E1
:1006F000FFF728FFFF280FD00C2303FB005050F812
:10070000123F23608388A3808379A371002038BDC2
:10071000082038BD0E2038BD052038BD0458002003
:100720000023074A0C2101FB0322D189814201D118
:10073000108A70470133082BF3D14FF6FF707047D2
:1007400004580020F0B5054687B0002833D0037860
:100750008BBB017907292ED140886A4600F0CAFA7E
:1007600048BB4FF6FF7000F031FD4FF6FF73984223
:10077000044620D02046072102AA002300F0BAFA3E
:100780000646B0B96B88A34213D001980399FFF7CE
:100790003CFF70B16F883846FFF7C2FFADF812001A
:1007A00004A88DF81060ADF81470ADF81640FFF78E
:1007B000A3FE2046D7E707B0F0BD03883BB9C218B7
:1007C000927822B90133082BF9D1104670470120E5
:1007D000704738B504460D46FFF7EFFF70B1228829
:1007E0002B889A4209D1A01CA91C082208F0C5F840
:1007F000D0F1010038BF002038BD002038BD37B52A
:1008000005464FF6FF7000F0E1FC4FF6FF7398428B
:10081000044614D0204607216A46002300F06AFAF5
:1008200058B9019928464631FFF7D3FF38B90199E5
:1008300028462A31FFF7CDFF08B92046E3E72046D6
:1008400003B030BD10B50C46FFF77CFEFF2804D086
:10085000024B0C2202FB0030C48110BD0458002062
:10086000F8B50F4D2B7B0446ABB1FFF759FF074698
:10087000204600F013FB4FF6FF76B74204460CD03B
:1008800058B93846FFF75EFEFF2806D00C2303FB5D
:100890000055EE8101E00820F8BD2046F8BD00BFFC
:1008A000045800202DE9F74F354E337B8946144616
:1008B000002B5ED0002A5ED000251571157380468E
:1008C00086F8365106F1FF074D4550D238F8020B35
:1008D000FFF726FFFFF794FD022845D038F8020CF9
:1008E00007216A46002300F005FA20F002000528DF
:1008F00001D1072040E02368A3B101994B7C023B62
:10090000012B0FD906223846123108F045F8019B19
:100910005A7C3B4603F8012D226842F825302379A2
:1009200001332371A368FBB1019B03F1010B58460E
:10093000FFF74CFEC0B1134B03EB051A10225046D3
:10094000594608F029F8A36843F825A0237B013312
:10095000237306EB450338F8022CA3F86E2096F8B3
:100960003631013386F8363101350737ACE70020E0
:1009700002E0082000E00E2003B0BDE8F08F00BFC9
:10098000045800208258002030B500238DB00D4659
:100990001446C21AD27B0DF803200133102BF8D174
:1009A00000210D2204A808F01BF82B788DF81F30C9
:1009B0006B788DF81E306846AB788DF81D30FFF7E8
:1009C00099FD9DF82F3023709DF82E3063709DF8AF
:1009D0002D30A3700DB030BD30B50378022B85B03B
:1009E00004460D4618D1611C032201A807F0D4FF6C
:1009F000211D032203A807F0CFFF284603A902AA5E
:100A0000FFF7C2FF01A802A9032207F0B6FFD0F149
:100A1000010038BF002000E0002005B030BD00001C
:100A200073B50388102B044660D1C37DDA0705D562
:100A30002F4A03F0FE031344DD883AE0037A032BC8
:100A400035D04FF6FF7000F0C1FB4FF6FF7506463C
:100A50004FF6FF739E422CD09D422AD1237A012B60
:100A600002D9022B0ED01DE0304607216A46002332
:100A700000F040F9B0B9019904F108001131FFF715
:100A8000AFFD0CE0304607216A46002300F032F942
:100A900040B9019904F108000131FFF79DFF0028DA
:100AA00018BF3546304600F091FB0646D0E74FF6BA
:100AB000FF75A08804F10801FFF75CFD4FF6FF7396
:100AC0009D4213D0A088FFF73DFDFF2804D0094BBD
:100AD0000C2202FB0030C581A388ADF8023002A8C9
:100AE000012300F8083D6846FFF706FD02B070BD1F
:100AF0006C5800200458002038B505460024054BEA
:100B00001A7E944205D253F824302846984701347F
:100B1000F5E738BDBC5B00208378013B072B0ED87E
:100B2000DFE803F0060D0D0D0D060408142305E0A3
:100B3000012303E043689B8809339B0803807047C7
:100B4000F0B585B016461D4602AA01AB07460A9CC1
:100B500005F09AFF60B9204606F02CF808B10E287F
:100B600014D138463146019A2B4606F0CBF80EE0F8
:100B700005280CD1384631461CB92A4606F07AF8C9
:100B800005E022462B4606F02DF800E0032005B0D4
:100B9000F0BD000038B50446002563689D4207D2C9
:100BA000E1780C482944C9B200F01EFF0135F4E792
:100BB0004FF6FF732380A370FF23E370237A03F0C3
:100BC000FC036FF38203237200236360E3602361FD
:100BD00038BD00BFD85B002070B500230446144D1B
:100BE000142058432A18928DA24202D128442C3056
:100BF00003E00133082BF2D100200023B8B1827842
:100C00008A4214D00B48013314261A4606FB03000F
:100C1000072A0AD830F8146FA64204D1142000FB2A
:100C200002502C30EAE70132F2E7002070BD70BDBF
:100C3000BC5B0020D45B002030B5244C217E05290C
:100C400085B005463CD800283CD031B1237E44F81D
:100C5000235001332376002035E02046D02207F0D0
:100C6000BFFE234604F1A0004FF6FF71998583F87B
:100C70002E10FF2183F82F1093F8341001F0FC019F
:100C800000226FF3820183F834101A639A63DA63E7
:100C900014338342E8D10E4805F0CCFE08B103209E
:100CA00011E00121082250238DE80E0009480A496D
:100CB0000A4B4FF4207200F065FE0028EFD1C5E723
:100CC000042000E00E2005B030BD00BFBC5B00205A
:100CD0008D100200D85B00203C5900208C5C002065
:100CE000034B1B7E0BB106F05DB84FF6FF707047EB
:100CF000BC5B002010B5044C247E1CB1BDE8104044
:100D000005F0C2BE082010BDBC5B00202DE9F843F1
:100D10001F46514B1B7E81460E461546002B00F0A8
:100D20008C80002F00F08C80CB1F012B02D9072074
:100D3000BDE8F883531E072BF9D806F05FF80028AA
:100D4000F5D048463146FFF747FF0446002834D027
:100D50004368AB4220D24FF0000862685FFA88F324
:100D6000934208F1010806D2E2783C489918C9B2CA
:100D700000F03AFEF1E74FF6FF732380A370FF23E4
:100D8000E370237A03F0FC036FF3820323720023E2
:100D90006360E360236110E01AD95FFA85F8636845
:100DA000984515D2E1782D484144C9B208F10108AF
:100DB00000F01AFE5FFA88F8F1E74FF6FF70FF21A6
:100DC000FFF70AFF0446002843D0A4F80090A6705D
:100DD000E378FF2B15D12148294600F019FEFF28A2
:100DE000E07011D14FF6FF732380237AA07003F0D7
:100DF000FC036FF38203237200236360E3602361CB
:100E000027E04FF0000801E04FF00108656013484B
:100E1000E17800F0D2FDB0B105EB85052D01ADB252
:100E2000AD08BE7078603D80B8F1000F0ED0082E7E
:100E30000CD1AD00063D858008E00820BDE8F883B0
:100E40000E20BDE8F8830320BDE8F8830020BDE84C
:100E5000F8831120BDE8F883BC5B0020D85B00203C
:100E600038B50D4B1B7E93B1FFF7B6FE044680B13B
:100E7000C06830B105F09EFE002814BF0325002590
:100E800000E005462046FFF785FE284638BD0820CD
:100E900038BD052038BD00BFBC5B0020F8B5204F31
:100EA0003B7E0646002B36D0002214235343F9180C
:100EB000898DB14203D11A4A13442C3303E0013225
:100EC000082AF2D1002300252C46D3B13046997868
:100ED000FFF7C6FF10B1052818BF0324114A0135DA
:100EE00014212B4601FB0522072B0AD832F8141FC8
:100EF000B14204D1142202FB03732C33E5E7013322
:100F0000F2E754B9304605F061FF30B1072814BF4D
:100F100003200720F8BD0820F8BD2046F8BD00BF1B
:100F2000BC5B0020D45B0020F7B51B4F3B7E0E4618
:100F300043B3CB1F012B27D8FFF74EFE044628B33F
:100F4000C5682DBB07F11C00E17800F036FD009567
:100F500001958DF8026098B16368019003EB8303FB
:100F60001B019BB202AD9B0825F8083D6846FFF7C0
:100F7000D3FD684604F10C0105F0F2FD092808D103
:100F8000032006E0082004E0072002E0052000E03E
:100F9000002003B0F0BD00BFBC5B00202DE9FF4185
:100FA000394D2B7E80460E46002B62D0CB1F012B85
:100FB00061D80027029703978DF80A10FFF70CFEFF
:100FC0000446002859D0037A5B0758D405F11C0069
:100FD000E17800F0F2FC08B9032051E06268039068
:100FE00002EB8202120104AF92B2920827F8082D98
:100FF00038468DF80A60FFF78FFDE368009340469E
:1010000004F1100331463A46FFF79AFD237A03F0C4
:101010000303032B04D1D5F8CC30013BC5F8CC3009
:1010200038B9237A43F0040360F3000360F341030B
:101030001AE011280CD1D5F8CC300133C5F8CC30EA
:10104000237A43F001036FF341032372002017E07A
:1010500004280BD1D5F8CC300133C5F8CC30237A35
:1010600003F0FE0343F00203237209E00728B3D123
:1010700006E0082004E0072002E0052000E03846F2
:1010800004B0BDE8F08100BFBC5B0020F0B50546B0
:1010900085B000211022684607F0A2FC68882979F3
:1010A000ADF802008DF80410FFF796FD2B78464E40
:1010B000092B53D8DFE803F00505371D1D3E4042DC
:1010C000485088B1037A5C070ED5FFF763FD2B7893
:1010D000581E43424341002468468DF800408DF875
:1010E0000830FFF709FD3AE001238DF80030AB68C6
:1010F00028E090B10269AB689A420ED1037A590791
:101100000BD5D6F8CC300133C6F8CC30037A03F0D7
:10111000FB0343F00103037220E002238DF800304B
:10112000EB68039302E003238DF800306846FFF775
:10113000E3FC13E0042302E00523F5E706238DF822
:101140000030EB680293F1E7072368468DF8003022
:101150000124FFF7D1FC02E0EB6802930024D6F8EB
:10116000CC3073B3184F0025142303FB056393F8A9
:101170003430DA0702D49B071ED5ECB1B88D97F84E
:101180002E10FFF70BFFB8B1142303FB05650428ED
:10119000AB8DADF8023095F82E308DF8043003D1C8
:1011A00008238DF8003003E009238DF80030029009
:1011B0006846FFF7A1FC04E00135082D07F114078C
:1011C000D2D105B0F0BD00BFBC5B0020034B1B7E3D
:1011D0000BB105F025BE4FF6FF707047BC5B0020D9
:1011E00010B5054C247E13461CB1BDE8104005F037
:1011F0008DBC082010BD00BFBC5B002013B513469A
:10120000064A127E0C4632B10022897800922246AC
:10121000FFF796FC00E0082002B010BDBC5B002088
:1012200038B505460024064B1A7F944206DA03EBD4
:10123000840328461B6998470134F4E738BD00BF92
:10124000905C002010B5044686B00021142201A84D
:1012500007F0C6FB6088ADF80800FFF761FA237855
:10126000ADF80600092B2CD8DFE803F005050D0FBB
:10127000111B1D2E1F2307238DF8043000238DF82A
:101280000D3008230AE00D2310E00E230EE00723A3
:101290008DF8043000238DF80D3005238DF80C30C7
:1012A0000FE00F2302E0102300E005238DF8043047
:1012B00007E006238DF80430A3680393A388ADF8F4
:1012C000063001A8FFF7ACFF06B010BDF0B504462C
:1012D00087B001A80021142207F082FB23786088E0
:1012E000ADF80600013B0B2B00F29080DFE803F025
:1012F0009806192E3A46515D6C72748A2679494FC8
:10130000321C18BF01220125797F8DF80450FFF7A8
:10131000D1F8731B5A426088B97F5A41FFF7CAF867
:1013200075E002238DF8043023793E4D002B0CBF6D
:1013300002230123697F8DF80C300122FFF7BAF8F0
:101340006088A97F2279FFF7B5F859E003238DF86B
:101350000430344B997FFFF799F800280CBF022323
:1013600001230FE02F4B597FFFF790F8002857D14A
:1013700002238DF804308DF80C0041E003238DF832
:10138000043000238DF80C30A3798DF81030A38839
:1013900034E007238DF80430A2888DF80C30002348
:1013A000ADF808208DF80D3037E008238DF80430B3
:1013B000A388ADF8083007238DF80C3000238DF892
:1013C0000D30A368059328E006238DF80430636888
:1013D000039315E0052316E003238DF80430114B29
:1013E000997FFFF753F800280CBF022301238DF8E3
:1013F0000C3000238DF8103041F20113ADF80E309F
:10140000012504E004238DF80430F9E70025608805
:10141000FFF756F9ADF8080015B101A8FFF700FF76
:1014200007B0F0BD905C002030B504468BB00021C1
:101430001422684607F0D4FA6088ADF80400FFF77C
:101440006FF92378ADF80200092B00F2AE80DFE8D7
:1014500003F00516324B576384ACA4A607238DF81E
:10146000003023798DF8083000238DF8093003937C
:101470009DF80A3043F001038DF80A3092E09DF8A0
:101480000A20A168039142F001028DF80A20484A1F
:1014900007238DF80030506823798DF80830002339
:1014A0008DF8093000287DD088427BD1BDF804102A
:1014B0005360918122E008238DF8003023798DF864
:1014C0000830E36804933A4BA168586803910022FE
:1014D0008DF80920002865D0884263D199685A6048
:1014E0000139996003925DE007238DF8003023797C
:1014F0008DF8083001238DF809300023039351E063
:1015000008238DF8003023798DF8083001238DF8F9
:101510000930A368049345E0254D09238DF8003078
:101520002B7858073ED54FF6FF70FFF74FFE4FF66A
:10153000FF739842044635D12B7805A86FF38203D8
:10154000002114222B7007F04BFA0B238DF8143076
:10155000ADF81840ADF816401BE00A238DF80030B6
:10156000A3680293124B1A7851071BD56FF38202BE
:101570001A7005A80021142207F032FA0C238DF806
:1015800014304FF6FF73ADF81830ADF81630A3687D
:10159000079305A8FFF744FE04E0052300E00623B7
:1015A0008DF800306846FFF73BFE0BB030BD00BF42
:1015B000905C002010B5084B1B78DB07044609D56A
:1015C000FFF72EFA204600F0E5FC2046BDE810406B
:1015D00004F080BF10BD00BF905C002038B51C48EF
:1015E000FFF72AFB18B1082830D0032038BD19486E
:1015F00000F084FC0028F8D1174804F027FF0028E9
:10160000F3D11648FFF722F805460028EDD1144C17
:1016100029462022204607F0E3F94FF6FF73A38105
:10162000182365606377A377FEF71CFF182860779F
:10163000DBD0FEF717FF1828A077D6D0237865F304
:101640004103DBB243F001032370284638BD00BFDD
:1016500029140200CD1202004512020055170200A3
:10166000905C0020084B1A78D20709D51A7F022A0D
:1016700008D8111D013243F821001A770020704765
:101680000820704704207047905C002008B5064B86
:101690001B78DB0705D500F08BFC082808BF03206A
:1016A00008BD082008BD00BF905C0020034B1B78DC
:1016B000DB0701D500F0D0BC08207047905C00200B
:1016C00000F0C0BC034B1B78DB0701D5FFF7EAB87D
:1016D00008207047905C002070B5184E3378DA0708
:1016E00005460C4622D519B3FEF78AFE10B3831EB9
:1016F00058425841237860F300032370B17F284695
:10170000FEF7C4FE237860F3C30323702846FEF778
:101710008DFE237860F3410323702846FEF78EFE8A
:10172000237860F382032370002070BD082070BD11
:101730000E2070BD43F2020070BD00BF905C00201F
:10174000034B1B78DB0701D5FFF78AB808207047E9
:10175000905C002010B5027886B00446CAB1012A18
:101760001AD10E4B4088997FFEF7A4FE0021142267
:1017700001A807F035F96088ADF80600FEF7A0FF74
:101780000023ADF8080001A88DF80430FFF748FDEC
:1017900002E0C088FFF7D4FF06B010BD905C0020C7
:1017A00010B50E4B1A78D10713D542F004021A7007
:1017B0004FF6FF70FFF70AFD4FF6FF73984204469D
:1017C00005D02046FFF7BCFF28B92046F2E70020ED
:1017D00010BD082010BD032010BD00BF905C00208C
:1017E0002DE9F04F1F462F4B1B78DB0787B0834650
:1017F0008A4691464CD54FF6FF70FFF7E7FC00256F
:10180000012304950621ADF8103004AA03AB044669
:1018100003950593FFF7E4FC07283BD04FF6FF78CC
:10182000C4464FF0FF362B46B0B9039D9D4224BFFE
:10183000A4462B462046B5422CBF3546A0468DE82F
:101840000810FFF7C3FC062104AA04462E46FFF742
:10185000C7FC9DE80810E7E7052802D100220392A3
:10186000E3E74FF6FF72944216D1BBF1000F01D0AF
:10187000ABF800C0BAF1000F01D0CAF80030B9F1DE
:10188000000F01D0A9F8008047B13E60002006E0BB
:10189000082004E0052002E0032000E0384607B0FD
:1018A000BDE8F08F905C00202DE9F041334D2A789F
:1018B000D10788B006465BD5314B93E803000DF1A4
:1018C0000408C2F3400288E803006AB905F10C007D
:1018D00005F108011346FFF783FF08B1052803D17E
:1018E0002B7843F002032B702A78244B920701D403
:1018F00011243EE05C68002CFAD19A89B24220D1D2
:101900009B68F3B12146142203A807F069F8072366
:1019100030468DF80C30FEF703FF06238DF81430A7
:101920009DF81630ADF80E0064F3000303A8ADF87F
:1019300010608DF8154006948DF81630FFF770FC96
:1019400017E0AB680D4F0133304641463A1DAB609E
:10195000FFF754FC68B100237B60BB68112803F1DA
:10196000FF33BB60C4D004280CBF0424032400E070
:101970000824204608B0BDE8F08100BF905C00203C
:101980008CB8020070B5059C069DA0B199B193B1C9
:1019900005FB04F6B2420ED3049AE61DB2EBD60F55
:1019A00009D344B13DB180E83A001846A1B200F035
:1019B00067F8002070BD072070BD38B50D4604469D
:1019C00008B9002038BD0368002BFAD04068002811
:1019D000F7D0FF29F5D000F0CEF80028F1D0E0686C
:1019E000236800FB053038BD38B50D46044670B19C
:1019F000036863B1406850B1FF2908D000F0BBF81C
:101A000028B160682946BDE8384000F065B838BDA7
:101A10002DE9F8438846064610B9FF20BDE8F88353
:101A20000368002BF9D04368002BF6D00027FF2570
:101A3000B368FCB29C42A146EFD27068214600F028
:101A400026F850B1FF2D18BF2C46C4EB09035A1CD1
:101A500010DB013343450DD10FE0FF2D01D1FF24F1
:101A600008E0A542FBD2294630460135FFF7BCFF0E
:101A7000EDB2F6E701372546DAE72046BDE8F88300
:101A800020B1CA1DD208002106F0AABF70472DE977
:101A9000F3410446E0B1CE0801F007054FF001081C
:101AA00008FA05F5875DEDB22F4010D102A800F8C5
:101AB000017D01F089FFA35D9DF807002B4205BF62
:101AC0001D43A5553C46444601F0A4FF00E0002418
:101AD000204602B0BDE8F08173B5C1F3C705012609
:101AE00001F007018E40F3B2044680B1425D13421B
:101AF0000DD002A8002300F8013D01F065FF635DF1
:101B00009DF8070023EA0606665501F083FF02B040
:101B100070BD2DE9F74F8946054608B9484627E0CC
:101B20000027BCB24C45F9D24FEAD40804F00706AE
:101B30004FF0010B0BFA06F615F808A0F6B216EAFC
:101B40000A0A12D102A800F801AD01F03DFF15F814
:101B500008309DF80700334205BF1E4305F80860B2
:101B600056465E4601F056FF0EB90137D9E72046CA
:101B700003B0BDE8F08F58B1CB080122C35C01F07F
:101B8000070102FA01F10B420CBF0020012070474F
:101B90000120704738B505460024054B1A7B944256
:101BA00005D253F82430284698470134F5E738BD6C
:101BB0002850002010B50378182B044602D1FEF7F8
:101BC00051FC207010BD30B585B00C460546002193
:101BD00001A80C2206F004FF0D2CADF8065002946B
:101BE00001D10B2303E0042C0CBF0A23092301A815
:101BF0008DF80430FFF7CEFF05B030BDF0B585B0ED
:101C00000446FEF7E7FB012805462F4E19D1204672
:101C1000FEF756FD4FF6FF73984212D02046F17C36
:101C20002A46FEF747FC01A800210C2206F0D8FE48
:101C30000C2301A88DF80430ADF80640FFF7AAFF89
:101C400004E02046F17C0022FEF734FC737D1E4D3B
:101C50004BB12046E97CFEF719FC20B9204605F17E
:101C60001601EA6902E0002120460A4605F092FAD0
:101C7000042805460DD0112805D020B1204629465C
:101C8000FFF7A1FF1DE0B5F111035F425F410022A4
:101C900001E0002701222046B17CFEF70BFC204624
:101CA000717C3A46FEF706FC2046B17B0022FEF727
:101CB00001FC2046717B0022FEF7FCFB0DB1112DCB
:101CC000DCD105B0F0BD00BF2850002070B586B053
:101CD000064601A8FEF7BAFB0024019B9C420DD2E8
:101CE00001AA02EB440331469D882846FEF7CEFB4D
:101CF00010B12846FFF782FF0134EEE706B070BD51
:101D00002DE9F0470546174698460E4629B933494E
:101D10004B7D23B90520BDE8F087002100E0163196
:101D200005F0D4FA042804460BD0112801D000286D
:101D300050D1B4F11103D3F1000959EB030900228A
:101D400002E04FF000090122DFF890A028469AF83F
:101D50000E10FEF7AFFB28469AF80D104A46FEF724
:101D6000A9FBB8F1000F06D08CB3112C21D0284666
:101D70002146FFF728FF082C29D011D83CB3042CAA
:101D800024D1DFF85880284698F810103246FEF724
:101D900091FB284698F80F103A46FEF78BFB16E0A9
:101DA000112C06D043F202039C4210D00D2C0DD111
