:020000021000EC
:10C000000080002021D401005DD401005FD4010034
:10C010000000000000000000000000000000000020
:10C0200000000000000000000000000061D40100DA
:10C03000000000000000000063D4010065D401008E
:10C0400067D4010067D401008510020067D40100A5
:10C0500067D401000000000067D4010067D401002C
:10C0600067D4010067D401002110020067D40100E9
:10C0700067D4010067D4010067D4010067D40100D0
:10C0800067D401007111020067D4010067D4010078
:10C0900067D4010085320200110D020067D401004F
:10C0A00067D4010067D40100000000000000000018
:10C0B0000000000000000000000000000000000080
:10C0C00010B5064C2378002B07D1054B002B02D06E
:10C0D000044800E000BF0123237010BDC4280020E5
:10C0E000000000008851020008B5084B002B03D067
:10C0F0000748084900E000BF07480368002B03D049
:10C10000064B002B00D0984708BDC0460000000039
:10C1100088510200C8280020C42800200000000028
:10C12000164B002B00D1144B9D46402292029A1AC6
:10C13000924600218B460F461348144A121A07F004
:10C140002DFA0F4B002B00D098470E4B002B00D040
:10C1500098470020002104000D000D48002802D05F
:10C160000C4800E000BF07F0A3F92000290003F00D
:10C170005CF907F087F9C046000008000080002045
:10C180000000000000000000C428002084310020CE
:10C19000000000000000000008B50368002B01D07B
:10C1A000081C984708BD08B50368002B01D0081C7F
:10C1B000984708BD08B50368002B01D0081C9847B4
:10C1C00008BD08B50368002B01D0081C984708BDBE
:10C1D00010B5054B041C036003F0BBF8201C03F0F2
:10C1E00009F9201C10BDC046D04C020010B5041C3B
:10C1F000FFF7EEFF201C07F00FF9201C10BD70B5F3
:10C200001D1CC37F041C5E1901201D2E13DC281881
:10C21000E054E37F0133DBB2E377E154E07F111CAC
:10C220000130C0B2E0772A1C201807F095F9E37FAF
:10C230000020ED18E57770BDF7B58E1EF6B2051C2F
:10C24000089C132E22D80120071CB7403E1C284F03
:10C250003E421BD0E97FCE1869181F2E46DC601CB9
:10C26000814203D90878C8540139F8E70021C8B2DF
:10C27000984204D2565C601886700131F7E7227844
:10C280009A182270EA7F9B18EB770FE02078061C43
:10C29000013EF6B20090B3420AD10021C8B29842E2
:10C2A00004D2555C601885700131F7E700201DE06D
:10C2B000E87F801BC0188446674601201F2F15DCCD
:10C2C000E87F8446B01C201801906746E819019F5A
:10C2D000874204D2A019807820700134F0E70098DA
:10C2E000C7436744EF77281CFFF789FFFEBDC046B0
:10C2F0003F000800F7B5C67F0024B4420CD20519F0
:10C300006F788F4203D10095FFF796FF06E0055D39
:10C3100001356419E4B2F0E7FFF771FFFEBD70B5B7
:10C32000061C8AB00A360C1C2222311C051C01A8EE
:10C3300007F012F96A460121033201A80B1C1470A0
:10C34000FFF7D8FF041E0DD12B682A1C34329B6FD7
:10C35000281C01A99847041E04D1301C01A92222DF
:10C3600007F0FAF8201C0AB070BDF0B5051C8DB0BE
:10C370000A35161C0F1C2222291C041C03A8019339
:10C3800007F0EAF8321C03A8391C019BFFF7B2FF43
:10C39000061E0DD12368221C34329B6F201C03A97A
:10C3A0009847061E04D1281C03A9222207F0D4F8BE
:10C3B000301C0DB0F0BD10B50023021C037011320B
:10C3C000431C00241C7001339342FAD1418210BDFA
:10C3D00010B50B78041C03704B8A10224382013184
:10C3E000013007F0B9F8201C10BD0000F7B500932C
:10C3F00008AB1E8809AB1B78041C01930CAB171CFF
:10C400001D78FFF7E5FF009A25776283019A0025E2
:10C41000631C67612683E583DA77A31C0122DA7740
:10C420000A9B0B9A6362231C28330C26201C5D7028
:10C430009D70291C1A702C30321C07F0AFF8074B86
:10C44000201CE563A363291C321C403007F0A6F8CA
:10C45000034B2565201CE364FEBDC046A7C1010057
:10C4600099C1010010B501F09FFB011C08C9041C13
:10C47000DB6F9847002804D15834237801221343F6
:10C48000237010BD08B50248FFF7ECFF08BDC04699
:10C49000882C002010B50C1C01F096FB0368211CB1
:10C4A0001B68984710BDF7B51C1C08AB0E1C151C6B
:10C4B0001F7801F089FB03680097DF68311C2A1C94
:10C4C000231CB847FEBD0000F0B57F488FB001F0D7
:10C4D0005BFB836D7C48990703D57C4B1B78002B55
:10C4E00008D17B4B7B4A1B7853707B4BD98B002345
:10C4F0000093E4E0794E301C00F012FE301C00F096
:10C500003DFE301C00F074FE0E2001F083FA744AE8
:10C5100010700C2001F07EFA724B734D18702E21B2
:10C52000705E07F0C7FD28603022B05E07F0C2FDE4
:10C530006E4C6F4F20603223F05E07F0BBFD386019
:10C540002821705E07F0B6FD6A4A10602A23F05E6B
:10C5500007F0B0FD684908602C22B05E07F0AAFD24
:10C56000664B18603421705E07F0A4FD644A1060C9
:10C570003623F05E07F09EFD624908603822B05E07
:10C5800007F098FD604B02AE186000210D22301CB0
:10C5900007F004F8EB7800217370AB780D22B370CC
:10C5A0006B78F3702B7806AD3371E378281C7371C8
:10C5B000A378B3716378F37123780AAC3372FB7894
:10C5C0007372BB78B3727B78F3723B780027337356
:10C5D00006F0E4FF4749484ACB78201C6B708B7803
:10C5E000AB704B78EB700B7844492B71D3786B713F
:10C5F0009378AB715378EB7113780D222B72CB7853
:10C600006B728B78AB724B78EB720B7800212B73CB
:10C6100006F0C4FF3A4A3B49D3782B4863709378BD
:10C62000A3705378E3701378374A2371CB78637122
:10C630008B78A3714B78E3710B782372D378637294
:10C640009378A3725378E3721378321C23732F4BC1
:10C65000D98B0D230097FFF726FF2D4B2A1CD98B72
:10C6600019480D230097FFF71EFF2A4B221CD98B78
:10C6700015480D230097FFF716FF1949264A0B7836
:10C6800018495370254C0B780F486370244BD98B95
:10C6900002230097FFF707FF224B221CD98B0A4881
:10C6A00002230097FFF7FFFE094A0748137801337A
:10C6B000DBB21370074A5370074BD98B00970223E4
:10C6C000FFF7F1FE0FB0F0BD882C0020662D002092
:10C6D000E42C0020152C0020902C00203C2A002067
:10C6E000042A0020142C0020102C00208C2900206B
:10C6F000982B0020742C0020082A00201C2C0020DD
:10C700003C2B0020602D0020282B00203429002005
:10C71000C42A0020442B0020402B0020642D002040
:10C72000202C0020B0290020F0B58DB002AD07AC60
:10C730000021281C0C2206F031FF231C2A1C43CAAE
:10C7400043C33D4E3D4B0027211C301C0A930B97E1
:10C7500001F0C2F90C22391C281C06F01FFF301C06
:10C7600001F022FA01903648231C029007CD07C33E
:10C77000142006F03DFE324D031C079526CC26C33F
:10C78000304B0761C360019BA4331A68BA4200D0E2
:10C7900002611860301C01F007FA0621FFF7BFFDA7
:10C7A000301C01F001FA0321274A0623FFF7DDFDC3
:10C7B000301C01F0F9F9254C0921221C0B23FFF74D
:10C7C000D4FD301C01F0F0F9002303712049301C26
:10C7D000FFF760FE1F49301CFFF75CFE301C01F0C4
:10C7E000E3F90368211C5B6B9847301C01F0DCF90E
:10C7F000036804215B6C9847301C01F0D5F903688D
:10C80000041C9B689847A023984204D92368201CE5
:10C810009B689847031CFA2080000F49584307F093
:10C8200021FBE080301C01F0BFF900230381301CA4
:10C83000FFF718FE0DB0F0BD882C0020B5C1010037
:10C8400085C40100C3C10100284902001C4902003F
:10C850003C2D00209C2B00207102000008481E2364
:10C8600010B5837001246B234370047000F0E6FB65
:10C87000044B002801D1187000E01C7010BDC046A8
:10C880003C2A0020662D002008B50648064B0749C3
:10C8900083610023C36202F064FDFFF745FFFFF7E9
:10C8A000DDFF08BD0C2A0020C9C4010020A107003B
:10C8B00008B5024801F098F908BDC046882C002050
:10C8C000F0B500218DB0A04801F01EF99F4800F09E
:10C8D000F5F99F4C0027201C02F066FD9D4BA761D7
:10C8E000E762201C9C499D4A236006F0ADFD9C4BED
:10C8F0009C4EDA789C4972709A7807A8B2705A7880
:10C900001B78F2703371994B0225DA7872719A783C
:10C91000B2715A781B78F2713372954BDA78727271
:10C920009A78B2725A781B78F2723373914BDA7834
:10C930004A709A788A705A781B78CA700B718E4B3D
:10C940008E4CDA784A719A788A715A781B78CA7153
:10C950000B728B4BDA784A729A788A725A781B7803
:10C96000CA720B73874B8849DA7862709A78A27022
:10C970005A781B78E2702371844BDA7862719A7866
:10C98000A2715A781B78E2712372814BDA78627255
:10C990009A78A2725A781B78E2722373FFF70BFD24
:10C9A0000D22012300920493321C07A90D23019547
:10C9B000029703977748FFF719FD07A87649FFF715
:10C9C000FAFC0D2101220091049207A9664A0D2369
:10C9D0000195029703977148FFF708FD07A8704972
:10C9E000FFF7E9FC0D2301210093221C049101951E
:10C9F00007A9029703976B48FFF7F8FC802107A867
:10CA0000C901FFF7D8FC684C07A9201CFFF7E0FC20
:10CA100003232375654BA783A361654B654C1B7886
:10CA2000654A6370654B664E1B7866495370664B6A
:10CA3000664A1B7807A87370654B1B784B70654B73
:10CA400065491B785370FFF7B6FC0123221C049341
:10CA500007A92B1C00950195029703975F48FFF7E4
:10CA6000C5FC07A85E49FFF7A6FC01212B1C049119
:10CA7000514A07A900950195029703975948FFF776
:10CA8000B5FC07A85849FFF796FC01222B1C04921D
:10CA900007A9321C00950195029703975348FFF7A9
:10CAA000A5FC07A85249FFF786FC0123049307A9B8
:10CAB0002B1C444A00950195029703974D48FFF7B8
:10CAC00095FC07A84C49FFF776FC01213F4A2B1C37
:10CAD0000491009507A90195029703974748FFF72E
:10CAE00085FC07A84649FFF766FC464C07A9201CB1
:10CAF000FFF76EFC05232375434BA783A361434BCC
:10CB0000434C1B7807A843496370FFF754FC10237C
:10CB10000122019304922B1C221C07A90095029765
:10CB200003973D48FFF762FC07A83C49FFF743FC29
:10CB30003B4C07A9201CFFF74BFC01232375394B05
:10CB4000A783A3610DB0F0BD882C00203C2A0020F3
:10CB50000C2A0020D04C0200D1C101000028002086
:10CB6000102C00202C2B0020782C00208C29002059
:10CB7000982B0020742C0020082A0020182B00205D
:10CB80001C2C00203C2B002001400000602D0020C8
:10CB9000282B00203429002002400000C42A002055
:10CBA00003400000442B00203C2D002004280020DE
:10CBB000042A0020402B0020642D0020142C00208B
:10CBC000172C0020672D0020882900205C2D0020D4
:10CBD000252B0020C02A002005400000202C00202A
:10CBE00006400000B029002007400000BC2B0020B8
:10CBF00008400000E028002009400000E82C002048
:10CC0000044000009029002014280020E42C00207B
:10CC1000152C00200B400000902C00200A40000042
:10CC20009C2B00201028002070B501700621427056
:10CC30008370012201720176F5230224FF21C38053
:10CC4000C475002301770424811802714274827430
:10CC5000C2740275827542768276C276C27743725A
:10CC60008372C372037343738373C3730374437711
:10CC70008377CC77811C0724CC77C11CCB77041D2C
:10CC80000321E177441DE177811DCB77C11DCB776F
:10CC90008918CA77021CC4180021261CD16391642C
:10CCA0005165603600216C3402333180F1800432EA
:10CCB0002180062BEFD18030017070BD10B50121AD
:10CCC000041C6B221E23FFF7AFFF201C10BD0000C9
:10CCD000C388FA225200934207D0FA22D20093422C
:10CCE00005D0F52B05D1034B02E0034B00E0034BCD
:10CCF00043677047295C0F3C295C8F3C295C8F3D62
:10CD0000C37D042B0AD003D8022B0BD1064B08E0BD
:10CD1000082B05D0102B05D1044B02E0044B00E09A
:10CD2000044B83677047C04640DA7F38B0E33F3A30
:10CD300040DAFF3840DA7F3900B5421C031CD07F4F
:10CD400004380C2810D807F083F8070F0F0F090FCD
:10CD50000F0F0B0F0F0F0D00044A04E0044A02E00E
:10CD6000044A00E0044ADA6700BDC046F7CC123935
:10CD7000240B98399F71E139240B183AC388F52B9D
:10CD800009D0FA225200934205D0FA22D2009342EF
:10CD900001D0F523C380C37D022B07D0042B05D01F
:10CDA000082B03D0102B01D00223C3750130C37FA1
:10CDB0000822191C9143042905D0082B03D0102BFD
:10CDC00001D00423C377704770B5094C161C201C92
:10CDD0001D1C00F0AEFA311C201C00F04CFA291C7E
:10CDE000201C00F048FA201C00F0E8FA70BDC04694
:10CDF0006C2D002010B5131C021C0C1C7332117812
:10CE0000221CFFF7E1FF10BD10B502790023041CBE
:10CE10009A4202D0037A5B01DBB2E288FA21490030
:10CE20008A4205D0FA21C9008A4203D1182200E0C3
:10CE300008221343617A03220A401A43201C10215E
:10CE4000FFF7D8FF0022201C1121FFF7D3FFA27AA1
:10CE5000531E9A41E37AD201002B05D0217B0F2388
:10CE60000B4040210B431A43201C1221FFF7C2FF45
:10CE7000E27C531E9A41A37C5201002B01D0102367
:10CE80001A43637C002B01D008231A43237D002B17
:10CE900001D002231A43201C1E21FFF7ABFF627B47
:10CEA000531E9A41A37B5201002B01D010231A4339
:10CEB000E37B002B01D008231A43201C1321FFF72A
:10CEC00099FF10BD10B5C27E041C531E9A41837E8B
:10CED0005201002B01D010231A43637E002B01D096
:10CEE00008231A43201C1F21FFF784FFA37D002283
:10CEF000934202D0227E5201D2B2E37D082B05D0AC
:10CF0000102B05D0042B05D1102302E0182300E0DC
:10CF100008231A43237F59B2002904DB03210B4065
:10CF200004210A431A43201C2021FFF763FF637F7B
:10CF30000022934205D0A27F03231A40520180238E
:10CF40001A43201C2121FFF755FF10BD10B5131CFB
:10CF5000021C0C1C72321178221CFFF735FF10BD29
:10CF600038B5C31CDB7F041C5A1E9341821CD17F41
:10CF700007221140021DD07F032202408900520186
:10CF8000DB010A431A43201C2021FFF7DFFF631C4B
:10CF9000DB7F0022083BDBB2082B01D8104AD25CB1
:10CFA000201C2121FFF7D2FFA31DDB7F03255A1E82
:10CFB0009341E21DD27F5B012A401A43201C2221AB
:10CFC000FFF7C4FF631DDA7F201C1540AA00232150
:10CFD000FFF7BCFF201C24210022FFF7B7FF38BD5C
:10CFE0002E49020070B50C4C161C201C0D1C00F0C4
:10CFF000A0F9311C201C00F03EF9201C002100F09B
:10D00000A7F9291C0122201C00F0FCF9201C00F0CB
:10D0100013F9C0B270BDC0466C2D002008B5031CCA
:10D0200073330A1C1978FFF7DDFF08BD08B5031C30
:10D0300072330A1C1978FFF7D5FF08BD70B5031CC1
:10D04000427873331A708278013B1A70041CFFF720
:10D0500095FE201CFFF73CFE201CFFF76DFE201CF8
:10D06000FFF74EFE0E4800F051F90F21201CFFF78C
:10D07000DDFF0F21061C201CFFF7D0FF05022E4309
:10D08000084B35B200209D4209D1201CFFF7BCFEA1
:10D09000201CFFF717FF201CFFF762FF281C70BD44
:10D0A0006C2D00203D680000F7B5164C1D1C201C9F
:10D0B00008AB0F1C01921E7800F03BF92368019A1F
:10D0C000802111431B68201C9847201C002100F080
:10D0D0003FF9002801D0002012E0391C201C321C2E
:10D0E00000F090F9071EB742F5D12E1C731BBB420E
:10D0F00005DA201C00F0A0F830700136F6E7381C85
:10D10000FEBDC0466C2D002037B5141C021C0D1C42
:10D110007332117800932A1C231CFFF7C5FF3EBD14
:10D1200037B5062328216A46041CFFF7EDFF0628C1
:10D1300023D168464178037809021943E185C27812
:10D14000837812021A432286437900791B02034333
:10D15000201C63868030007800280ED0201C6630AA
:10D160000088091AE185211C68310988521A228633
:10D17000221C6A3212889B1A638637BD37B5062394
:10D1800018216A46041CFFF7BFFF062823D1684612
:10D1900041780378090219432185C2788378120205
:10D1A0001A436285437900791B020343201CA3853F
:10D1B0008030007800280ED0201C60300088091ACA
:10D1C0002185211C62310988521A6285221C643231
:10D1D00012889B1AA38537BD37B5141C021C0D1C81
:10D1E0007232117800932A1C231CFFF75DFF3EBDAD
:10D1F00013B5062328216A46041CFFF7EDFF062815
:10D200000FD169464B780A781B021343A386CB786B
:10D210008A781B021343E3864B790A791B02134376
:10D22000238713BD031C3133303002781B78002074
:10D23000934200D8D01A7047021C011C31323031A1
:10D2400013780978994204D9591C1170C318187CB5
:10D2500001E0012040427047031C021C3133303290
:10D260001B7812789A4202D9C018007C01E0012094
:10D2700040427047704710B5021C68321278031C98
:10D280000120022A0AD11C1C523422781F2A05D8F8
:10D290009B181018303320709970002010BD70B5A5
:10D2A000031C68331C780023022C0ED193420CD04F
:10D2B000051C52352C781F2C07D8661C2E70CD5CAF
:10D2C00004193034A5700133F0E7181C70BD00005C
:10D2D00038B5FA239B0083600B4B002508330360AD
:10D2E000031C303345601D705D702233041C1D70BB
:10D2F0005D709D70291C1022583006F04FF9231CD8
:10D3000068331D70201C38BD3849020038B5041C34
:10D31000032000F075FB051C022000F071FB011CCE
:10D32000201C2A1C583000F0A9F96834002323700F
:10D3300038BD031C49005433021C197053320023BA
:10D340001370013A137068300223037070470000B5
:10D35000F7B5031C051C071C0E1C5433021C523766
:10D360005835041C197832323B78281C009600F09E
:10D3700059FA231C00206833012238701A70A36DFB
:10D38000041C191CFC318A6A012A0DD10A481F5855
:10D39000BF0703D58C625A61FF2405E01858470780
:10D3A00002D58C625A61FE24002E02D0281C00F0A7
:10D3B000C9F960B2FEBDC046C404000008B5012131
:10D3C000FFF7C6FF08BD73B5151C4900021CC9B2A2
:10D3D0005432041C1170202D02D8002D0AD000E018
:10D3E0002025201C221C0093583010322B1C00F0EA
:10D3F000D5F9C6B2231C313300223034301C1A70E8
:10D40000267076BD08B50123FFF7DDFF08BD0000DB
:10D4100008B50248FFF75CFF08BDC0466C2D002030
:10D420000848026803210A4302600749074A084B7B
:10D430009B1A03DD043BC858D050FBDC05488047ED
:10D4400005480047240500409451020000280020B0
:10D45000C428002069D4010021C10100FEE7FEE7D5
:10D46000FEE7FEE7FEE7FEE7334B10B51A78181C1F
:10D47000012A12D1314B1B6819070ED1304BF02213
:10D480001B68E024191C1140234204D12D4B1B685A
:10D49000134202D140E03029F8D00378012B0DD19E
:10D4A000264A1268110709D1254A1168F022114055
:10D4B000402903D123490968114235D08023A32193
:10D4C000DB050122C9005A501F49002088609A607C
:10D4D0001E4B8A68002A2DD1C822C046C046C046CD
:10D4E000C046C046C046C046C046C046C046C0460C
:10D4F000C046C046C046013A002AEED1013B002B8F
:10D50000E7D18022A320D205C000135001239360ED
:10D510008B68002BFCD00DE00D490E4A1160802174
:10D520000D4A09021160B8E7C1228021D200C90565
:10D530008B50C3E710BDC046E00F00F0E40F00F0D1
:10D54000E80F00F0EC0F00F0FC0000408813000032
:10D55000DFFF07C004050040186C0040036800218D
:10D560001A1CFC32916001215961064B9168002917
:10D5700004D1013B002BF9D1012002E00023037309
:10D58000181C7047A1860100084B0068C150084B69
:10D59000021CFC32116A002904D1013B002BF7D197
:10D5A000012001E0002010627047C0461C05000009
:10D5B000A186010010B50368002A03D00220802252
:10D5C0008240985001221A62084A1C1CFC34E06810
:10D5D000002804D1013A002AF7D1012005E00020FB
:10D5E000A322E060D2009B580B7010BDA186010001
:10D5F00010B50B4C02680B4BA14204DC0A49816058
:10D60000CC2149040AE0094CA14203DC08498160AD
:10D61000802102E007498160CD21C904D15010BDAD
:10D620008FD0030024050000A08601007F1A0600A9
:10D6300090D00300801A0600F8B5E0256D00041CA8
:10D640005619A020C025E027C005ED007F00B600D8
:10D650003550CE19B60035502068A125ED00425155
:10D66000054A8150191C201CFFF7C2FF2268A02325
:10D670000521DB00D150F8BD0C050000F8B52A4BA0
:10D680000F1C1978161CC9B2051C1A1C012909D1D6
:10D690005C78F8B2844205D19878F3B2984201D10F
:10D6A000697316E0214908780B1C012807D14C78D2
:10D6B000F8B2844203D18878F1B2884214D011784C
:10D6C000002908D10123F9B213705170F1B29170A1
:10D6D0006B73174C10E01A78002A09D101221A70D6
:10D6E000FAB25A70F2B29A7002236B73114C03E0D3
:10D6F000114803F07CFB0024201C00F035F9221CAB
:10D700000023FC326E712F712C609362A022D20034
:10D71000A3500A4A281CA3500123A350391C321CD1
:10D72000074BFFF789FFF8BDD82D0020DC2D002026
:10D73000003000400040004058490200FC0F00004B
:10D74000A086010008B503680022191CFC318A621A
:10D75000A021C9005A5006495A5001225A500421AA
:10D760000522415682568368FFF766FF08BDC04612
:10D77000FC0F0000036830B5191CFC318A6A0020D8
:10D78000012A08D1044C1C5988625A610220A5075D
:10D7900000D40120404230BDC4040000F7B51F1C76
:10D7A00001920368B1224910D200995080210122D0
:10D7B00089005A50191CFC310026CE60051C1A60E5
:10D7C0007C1E019BA64213DA9919281C0022FFF740
:10D7D000F1FE00280AD0281CFFF7CCFF071C281CEC
:10D7E000FFF7B0FF341C002F1ADA18E00136E7E724
:10D7F0001919281C0122FFF7DDFE002803D0281C80
:10D80000FFF7A0FF0CE0089B3C1C002B08D0296808
:10D810000B1CFC339A68002AFAD000229A603C1C48
:10D82000201CFEBDF8B5171C1E1CB1220368D200D7
:10D83000491099508022920000259D500122041C1D
:10D840009A60B54211DA795D201CFFF79DFE002831
:10D8500009D0201CFFF776FF201CFFF78BFF002864
:10D860000EDA051C0CE00135EBE7069B351C002B9E
:10D8700006D0201CFFF772FE002801D001256D4262
:10D88000281CF8BD82B00190C046C046C046C046C4
:10D89000C046C046C046C046C046C046C046C04658
:10D8A000C046C046019B013B0193002BECD102B066
:10D8B00070470000F0B5A023DB000022C158A0246F
:10D8C000C250EE22E405D200A35885B00293234B48
:10D8D000234E0191A350A15980220391A351A1236A
:10D8E000DB009205E25080225205E250051C042024
:10D8F000FFF7C8FFA223DB00E258910004D5E258ED
:10D900000123120F1A4217D11324013C002C15D009
:10D91000144BA0268027F6057F05F7500420FFF75B
:10D92000B1FFA123DB00F7500420FFF7ABFFA223D8
:10D93000DB00F3589A00E8D5012000E0201C029992
:10D94000A023EE22DB05D20099500399044A995096
:10D95000019AA023DB00EA5005B0F0BD0D060000DF
:10D96000740700000C050000164AA023EE21DB0519
:10D97000C90010B55A5014495A50031CFC330022F8
:10D98000DA601A62A122D2001C2383500F4B1D21A2
:10D99000C1500F4BCC214904C1509C235B00C418DB
:10D9A000A2210C4BC9005C500B491D3CFF3C5C5054
:10D9B00001219950A0230522DB00C250FFF77AFF16
:10D9C00010BDC0460C060000740700000C050000E6
:10D9D0002405000000F0014014050000F8B5061C05
:10D9E0000C1C8F180025BC4207D0336821781B68B7
:10D9F000301C984701342D18F5E7281CF8BD0000AD
:10DA0000FF230E2801D8024B1B5C58B27047C0465A
:10DA10006949020010B5FFF7F3FF041C601C04D134
:10DA2000244825495F2203F085F9631EDBB2062BEB
:10DA30003DD8224B01221968214B89001B68101C1C
:10DA40005B011943022319431E4B1B681B04194336
:10DA5000631C984003020C1C1C431B491B4B504287
:10DA60005C50C22189005850A021C9005A501A6048
:10DA7000C046C04614498022D2009A58D007FAD432
:10DA8000A1221248D2008058114A12780A2A07D0DF
:10DA9000092A03D80A24A21AD04001E00A3A904089
:10DAA000A022D20000249C505A585A5000E0094845
:10DAB00010BDC046784902008F490200302800207E
:10DAC00028280020E02D0020040500000070004000
:10DAD0002C280020FFFF0000F0B5021C40681268EF
:10DAE0000B1C016889B00C68019203AA151C1E1C4E
:10DAF000A44692CE92C5DB680199D36000231361DE
:10DB0000E04709B0F0BD000038B50023041C0160F7
:10DB1000436099420AD1064D2B68002B02D100F0D8
:10DB200043FD286022689300ED586560201C38BDD5
:10DB3000F02D0020F8B500280DD1104C2668002EDD
:10DB400007D1082005F054FC311C051CFFF7DCFF51
:10DB50002560206810E00A4D01272E68094C3E40E0
:10DB600009D1281C05F05EFC002804D0281C276081
:10DB7000666005F066FC201CF8BDC046E42D002060
:10DB8000F42D0020E82D0020436810B5041C002B64
:10DB900002D1044803F02BF9606803681B699847B9
:10DBA00010BDC046024A0200436810B5041C002B99
:10DBB00002D1044803F01BF9606803681B699847A9
:10DBC00010BDC046024A0200436810B5041C002B79
:10DBD00002D1044803F00BF9606803689B69984719
:10DBE00010BDC046024A0200436810B5041C002B59
:10DBF00002D1044803F0FBF860680368DB6A9847C9
:10DC000010BDC046024A0200704702207047022041
:10DC100070470020704700207047000000487047A0
:10DC2000FFFF00000220704702207047022070476B
:10DC30000220704702207047022070470220704780
:10DC40000220704702207047022070470220704770
:10DC500002207047022070470023136070470020A5
:10DC60007047022070470220704702207047022050
:10DC70007047022070470020704700207047002046
:10DC800070470220704702207047416070478160F2
:10DC90007047C16070470161704741617047022061
:10DCA0007047022070470220704702207047022010
:10DCB0007047022070470220704700207047022002
:10DCC000704700207047704790DF704766DF7047ED
:10DCD00048DF70475F300078431E9841C0B27047FC
:10DCE000007970470C3070470C30704708B5FFF76B
:10DCF000EFFF08BD08B50368002B01D0081C98474A
:10DD000008BD08B50368002B01D0081C984708BD62
:10DD100008B50368002B01D0081C984708BD08B55A
:10DD20000368002B01D0081C984708BD08B503689C
:10DD3000002B01D0081C984708BD000010B5034B0C
:10DD4000041C0360FEF744FA201C10BDE84C0200DE
:10DD500010B5041CFFF7F2FF201C05F05DFB201C32
:10DD600010BD08B5081C111C1A1C029B01F0EAF931
:10DD700008BD08B5081C111C01F05EFA08BD08B505
:10DD8000081C111C01F07EFA08BD08B501F040FA2C
:10DD900008BDF0B595B008230C1C69460B7104AAA8
:10DDA0000B7368460CAB0293009201F091FA0023CA
:10DDB000061C051E2CD169460B79AB4211D963793B
:10DDC000AB4201D8257124E00722101C6843236868
:10DDD000009F1818AB00D959013505F0BDFBEDB215
:10DDE000E9E7257100256B461A7B2379EB18AA42D7
:10DDF0000ED9627993420BDA0721029F4B43AA00A6
:10DE0000D05922680135D11801F07EFAEDB2EAE767
:10DE10002371301C15B0F0BD7FB50379002B0FD0F6
:10DE2000164E174C3378201C002B25D102AD281C30
:10DE3000FFF74CFF002819D16B88592B16D101E050
:10DE4000104819E02B78AA88D91F012904D800921C
:10DE5000201C20210C4A03E000920C4A201C2021A7
:10DE600005F09EFC01233370201C05E0201C0849AE
:10DE7000202205F0CEFCF7E704B070BDF82D00209D
:10DE80003C2F0020104C02002A4C0200474C02009C
:10DE90006C4C020038B50379041C0920002B28D0F3
:10DEA00002F016FF031C0520002B22D1251CFC3597
:10DEB000A86B002803D1286C002806D10AE003686B
:10DEC0001B6A98470028F6D013E003689B6A9847BE
:10DED00000280ED1E86B002804D00368DB6A98475D
:10DEE000002806D1201C0C3003F0E8FE002800D1E9
:10DEF000207138BDF7B50093036801915B68041C7D
:10DF0000171C9847051C0620002D3BD11C203A1CED
:10DF100000194ACA4AC0FF68009A231CA762E5623A
:10DF2000443383CA83C3009B0899DB6814222365AA
:10DF30006565A01D05F010FB201C099914223030E6
:10DF400005F00AFB019E231C5D33A680013B5D703A
:10DF50000121301C1D70D9702A1CFFF7B5FE061C6C
:10DF6000281C002E0ED02368201C9B689847112E79
:10DF700007D0054B9E4202D00620072E02D1042076
:10DF800000E00520FEBDC0460230000038B5041C8C
:10DF9000E3692362206A002807D0C368211C9847E0
:10DFA000236A002BF4D01B69F3E7E069002804D052
:10DFB000056905F031FA281CF8E7E0616060A060AF
:10DFC000E0602061606138BD08B5FFF7DFFF002821
:10DFD00000D0062008BD38B5041C0068002804D015
:10DFE000056905F019FA281CF8E7206038BD000023
:10DFF00010B5034A041C04C0FFF7EDFF201C10BD40
:10E00000204B020010B5041CFFF7F2FF201C05F0A6
:10E0100003FA201C10BD38B5041C0068002804D089
:10E02000056905F0F9F9281CF8E7206038BD000003
:10E0300010B5034A041C04C0FFF7EDFF201C10BDFF
:10E04000304B020010B5041CFFF7F2FF201C05F056
:10E05000E3F9201C10BD000038B5074B041C036019
:10E060004068002804D0056905F0D6F9281CF8E7B7
:10E070006060201C38BDC046404B020010B5041C37
:10E08000FFF7EAFF201C05F0C7F9201C10BD0000B7
:10E0900038B5074B041C03604068002804D00569AC
:10E0A00005F0BAF9281CF8E76060201C38BDC046AE
:10E0B000104B020010B5041CFFF7EAFF201C05F00E
:10E0C000ABF9201C10BD000038B5074B041C0360E1
:10E0D0004068002804D0056905F09EF9281CF8E77F
:10E0E0006060201C38BDC046B04B020010B5041C57
:10E0F000FFF7EAFF201C05F08FF9201C10BD00007F
:10E1000038B5074B041C03604068002804D005693B
:10E1100005F082F9281CF8E76060201C38BDC04675
:10E12000A04B020010B5041CFFF7EAFF201C05F00D
:10E1300073F9201C10BD000038B5074B041C0360A8
:10E140004068002804D0056905F066F9281CF8E746
:10E150006060201C38BDC046604A020010B5041C37
:10E16000FFF7EAFF201C05F057F9201C10BD000046
:10E1700038B5074B041C03604068002804D00569CB
:10E1800005F04AF9281CF8E76060201C38BDC0463D
:10E19000304A020010B5041CFFF7EAFF201C05F00E
:10E1A0003BF9201C10BD000038B5074B041C036070
:10E1B0004068002804D0056905F02EF9281CF8E70E
:10E1C0006060201C38BDC046404A020010B5041CE7
:10E1D000FFF7EAFF201C05F01FF9201C10BD00000E
:10E1E00038B5074B041C03604068002804D005695B
:10E1F00005F012F9281CF8E76060201C38BDC04605
:10E20000504A020010B5041CFFF7EAFF201C05F07D
:10E2100003F9201C10BD000038B5074B041C036037
:10E220004068002804D0056905F0F6F8281CF8E7D6
:10E230006060201C38BDC046004B020010B5041CB5
:10E24000FFF7EAFF201C05F0E7F8201C10BD0000D6
:10E250000F4B10B5083303600E4B041CC360013034
:10E26000FF30FFF76BFD0C4B201CE360B830FFF76D
:10E2700063FF201CAC30FFF7B3FF201CA030FFF77A
:10E2800093FF201C6C30FFF773FF201C10BDC046AD
:10E29000784C0200F04F0200704A020010B5041CD6
:10E2A000FFF7D6FF201C05F0B7F8201C10BD0000BA
:10E2B00038B5051CFC352C6C002C0DD1242005F044
:10E2C00097F8064B44608361054B8460C460046129
:10E2D0004461C46103602864286C38BD004B0200AF
:10E2E000E04B020038B5051CFC352C6C002C0DD120
:10E2F000242005F07DF8064B44608361054B846063
:10E30000C46004614461C46103602864286C38BD42
:10E31000004B0200E04B0200F7B50379071C0E1C0E
:10E32000151C002B06D00023019300930A246B4692
:10E330001C7109E000F0A2FC041C0C20002C0CD184
:10E3400001233B7100940194301CFFF7F3FBEB6851
:10E3500000906946281C9847201CFEBD10B500217E
:10E360001F22041C05F01AF90023E37710BD0000FA
:10E37000F0B5051CAC35041C686887B0A860A868B7
:10E3800000280BD0C368211C9847AB68002B02D132
:10E390006968A960F3E71B69AB60F0E7251CB0353D
:10E3A0002868002804D0066905F036F8301CF8E724
:10E3B000231C58331978FC220A402860023B9A70CB
:10E3C00098711870201C0A30FFF7C8FF201C3430E9
:10E3D000FFF7C4FF606E002804D0056905F01CF843
:10E3E000281CF8E7251C606698352868002804D0AA
:10E3F000066905F011F8301CF8E7261C2860A436E1
:10E400003568002D05D02F69281C05F005F83D1C46
:10E41000F7E7356001AE291C301C0C2205F0BEF870
:10E42000231C321C6C3383CA83C3094BE567A36783
:10E430000C22301C291C05F0B1F8231C803385CE3A
:10E4400085C3044A9034281C1A60256007B0F0BDCB
:10E4500003DD0100F5DC0100F0B589B0002603AC56
:10E46000051C8680311C201CFDF7A5FF211CA81D62
:10E47000142205F071F82F1C311C0C22201C05F011
:10E480008DF81C37201C0EC80EC70F4B311C019095
:10E49000AB62EE62201CFDF78EFF2B1C221C30337A
:10E4A00083CA83C3019A311C81CA81C30C22201CF8
:10E4B00005F074F82B1C443386CC86C3034B301C08
:10E4C0002B656E6509B0F0BD1FDD01002DDD01007B
:10E4D000F0B597B00593036807AC1B6804910393EC
:10E4E000111C231C061CA1C9A1C3D26800250A92D5
:10E4F000291C0C220CA811AF0B9505F04FF8094B05
:10E50000291C381C10950F93FDF755FF059D0197A9
:10E510000095301C0499221C0CAB039FB84717B020
:10E52000F0BDC0462DDD010038B50025041C291CB6
:10E5300020C0FDF740FF25766583A583E58325840C
:10E54000201C38BD10B58AB0041C0021242201A86B
:10E5500005F024F801A8FFF7E7FFCA235B00222299
:10E56000E01801A904F0F8FF2368201C5B689847B5
:10E57000231C5F3300221A7090420DD0C0235B0031
:10E58000E358934208D0054B934205D0C0235B006B
:10E59000E018A188C36898470AB010BD09DC0100E3
:10E5A00008B5FFF7CFFF08BD00487047FC2D0020DD
:10E5B00000487047FC2D0020F0B5434B434A083318
:10E5C000061C0360C2600023A0221636011C428292
:10E5D00085B0041C0371836003748382321C35315F
:10E5E0000023137001328A42FAD180258021C901AB
:10E5F000AD00201CF3770A1C35843830009302F0FC
:10E600003DFF221C4032211C0392131C5F312A1C47
:10E6100000251D7001338B42FAD1039B201CDD774E
:10E62000231C603319791A80FC220A409D701A71EC
:10E630001D72274B291CE36625670C22783004F0F5
:10E64000ADFF231C88331D60271C224B0837FB6756
:10E650008437291C381C0C2204F0A0FF1E4B1F4AD3
:10E66000FB60231CA0333D611A601D4A5D60DA60C7
:10E670001C4A1D619A61DD61301CFFF76FFE039833
:10E68000FFF76CFE184B601CE360231CC4331D7045
:10E690005D709D70FF3000F087FE8C235B00E550BD
:10E6A0008C235B00E3185D61104A80235B00E2501D
:10E6B000231C0122FE3352425A86201C023B9D63DA
:10E6C000DD631D6405B0F0BD784C0200704A0200A5
:10E6D000304A020003DD0100F5DC0100404A02007F
:10E6E000504A0200604A0200F04F0200E84C02006B
:10E6F00038B50C220D1C0021041C04F04FFF002330
:10E700002361024B2560201CE36038BD11DD010050
:10E71000314B70B50025041C0E1C03608571058308
:10E72000291C0C221C3004F039FF2C4BE562A3623B
:10E73000231C30331D70201C231DDD87291C443011
:10E740000C2204F02BFF264B65652365254BA6653F
:10E750002360231C5C331D705D709D70DD70261C72
:10E76000251C6035C036281C0021FDF724FE00233F
:10E77000AB82EB821835B542F5D1A8225200A6181B
:10E78000281C0021242204F009FF281C2435FFF74F
:10E79000CBFEB542F4D1A82300215B00E150B422A6
:10E7A000231CFC3352009965D965196659666C6162
:10E7B000A150196759679967D967A3185C61C0238D
:10E7C0005B00E018FFF794FFCA225200A018FFF781
:10E7D000ABFE201C70BDC046804B02001FDD010057
:10E7E0002DDD0100C04B020070B5061CFC36F56B38
:10E7F000002D1CD1B420800004F0FAFD0D4B041C48
:10E8000043600D4B856003610C4B4561C3610C4B4C
:10E81000056283620B4BC5620360211C3430FFF735
:10E8200077FFF6235B00E01802F0F8FEF463F06B6C
:10E8300070BDC046304B0200204B0200A04B0200CE
:10E84000B04B020080500200264B70B50360264B8F
:10E8500000258360254B041C4361254B0571036231
:10E86000244B4571C362C560856145620563291CFF
:10E870003830FFF73DFF201C291C4C30FFF738FFD4
:10E88000201C291C6030FFF733FF1B4B251C236025
:10E89000231C7435C433002204C59D42FBD1B22130
:10E8A00049006618281C00210822083504F076FE6D
:10E8B000B542F7D1C2235B00E218002308C5954298
:10E8C000FBD1C222C32152004900A3546318CB21BB
:10E8D000490062180021198002339342FAD1201CAA
:10E8E00070BDC046504B0200104B0200204B02008E
:10E8F000304B0200404B0200C050020038B5041CEF
:10E90000FC34A36B002B07D1CC20400004F070FD39
:10E91000051CFFF799FFA563A06B38BD38B5041C33
:10E92000FC34A36B002B07D1CC20400004F060FD29
:10E93000051CFFF789FFA563A06B38BD70B5031CEC
:10E940000A1C70CA70C3C9680023C160036170BD2E
:10E9500008B58130FF30FFF7F1FF08BD30B587B053
:10E96000051CFFF779FD041E24D12B1C5C331870A5
:10E9700058709870D870A8235B00E850EA180123FB
:10E980005B4253609360D3601361B4225200A8507D
:10E99000B4225200AA18211C53609360D360136103
:10E9A00001A8FFF7A5FEC0214900681801A9FFF7DB
:10E9B000C5FF00E00624201C07B030BD70B5041C64
:10E9C00086B0236B6363606B002807D0C368211C8B
:10E9D0009847636B002BF4D01B69F3E7206B00288A
:10E9E00004D0056904F018FD281CF8E7E5682063E9
:10E9F00020716071002D05D02E69281C04F00CFDDB
:10EA0000351CF7E7201CE5601830FFF7E4FA201CFE
:10EA10002430FFF700FB291C01A8FFF769FE201C2A
:10EA200001A93830FFF78AFF291C01A8FFF760FE13
:10EA3000201C01A94C30FFF781FF291C01A8FFF71A
:10EA400057FE201C01A96030FFF778FF281C06B094
:10EA500070BD000010B5054C201CFFF7ADFD201C5B
:10EA60000349044A04F0F0FC10BDC046FC2D002010
:10EA700051E201000028002070DF704771DF70470D
:10EA800060DF704708B501F08DFE08BD08B502F0E3
:10EA9000A5F8002008BD0000F0B5041C8BB001F003
:10EAA0009BF8201C00F002FA0020FFF781FD0368AC
:10EAB000061C1B6998473368051C9B69301C9847E6
:10EAC000336801905B6A301C9847031C208810381B
:10EAD0000B2800D9C8E005F0BBF90643C7C7C782B9
:10EAE000C7C7C789C7A7A688281C311C277D03F084
:10EAF000F8F8607B2B1C5833009018780122904363
:10EB000002221043A179023B987018780622013046
:10EB1000187000986B46D97498761E829F74231CD7
:10EB20001633E11D05A8099304F016FD6846211C63
:10EB30000E3194351B30062204F00EFD6968A96081
:10EB4000A868002800D18FE0C36804A99847AB6883
:10EB5000002B02D16A68AA60F2E71B69AB60EFE79D
:10EB60004449281CA78803F0BCF8A379301C009303
:10EB700033681B6A9847F6214900061C0622401894
:10EB8000391C02F047FE338FBB4204D1736B301C3B
:10EB900034309B6898472A1C56321378013BDBB20D
:10EBA0001370002B05D12B1C58331A7802218A438D
:10EBB0001A70A035009B68686A4617829374A86033
:10EBC000A868002850D0C36804A99847AB68002BF8
:10EBD00002D16968A960F3E71B69AB60F0E75B6984
:10EBE000A088A11D002B3FD098473DE0A679002EBC
:10EBF00005D12B1C58331A7801218A431A706B6E89
:10EC0000002B31D01C4A002A2ED0AB66A86E0028FB
:10EC10002AD0C368311C9847AB6E002B02D16A6EB4
:10EC2000AA66F3E71B69F0E7A37B68465A07910FD2
:10EC3000DA08677B01700272E11D04A80622DE0774
:10EC400004F08AFC6B461878197AF60F1876597614
:10EC50009F75DE75231C0F3307932B1C8C33281CE8
:10EC600080301B6804A998470198211C03F048FDD7
:10EC70000BB0F0BDFFFF000009DC01001FB5A323AE
:10EC80008022DB00D205D3580D20DA0700D50820FA
:10EC90001C4948221C4B01F0F7FF00280BD080B222
:10ECA000002808D1BFF34F8F184A194BDA60BFF321
:10ECB0004F8FC046FDE7002302A802934360012363
:10ECC0000370FFF7DDFE002801D0072017E068463B
:10ECD000FFF7D4FE0028F8D16946FFF7CDFE0028E3
:10ECE000F3D10C4802F000F880B2002807D10A489E
:10ECF00002F004F880B2002801D100F099F905B0C3
:10ED000000BDC0465C2F00208DEA01000400FA051A
:10ED100000ED00E099EA010085EA0100704700007B
:10ED200080B2002808D1BFF34F8F044A044BDA6049
:10ED3000BFF34F8FC046FDE77047C0460400FA0599
:10ED400000ED00E010B50278002A09D10C78131C00
:10ED5000002C13D1428A4B8AD31A5A4253410CE0F9
:10ED60000023012A0AD10A78012A07D10130013192
:10ED7000102204F0E2FB43424341DBB2181C10BDF9
:10ED8000F0B50E1C011C5F3191B001910B78071C8E
:10ED9000051C5C37022B7BD107AC24220021201CF0
:10EDA00004F0FCFB08A80021FDF705FB00232376F7
:10EDB0006383A383E3832384CA235B00EB58079A0E
:10EDC000934217D1CC235B00E81808A9FFF7BAFFDC
:10EDD00000280FD0CA2149006B181A7E510609D1AC
:10EDE0005A8B002A06D1DA69E1698A4202D11B8C6A
:10EDF000002B4AD0002E32D13B7818225343603387
:10EE0000EB18DA8AD9235B00EA522A1C3032311C13
:10EE100002A80092FDF7CFFA009802A9FFF792FF2F
:10EE2000002814D1CC235B000098E918FFF78AFF73
:10EE3000002814D0311C201CFDF7BDFAA81D211C90
:10EE4000FFF780FF01235840C0B2002807D0696C4B
:10EE5000281C4430002902D0134B002B1DD1242242
:10EE60000021201C04F09AFB002108A8FDF7A3FA5A
:10EE7000CA2252000023A818211C22222376638371
:10EE8000A383E383238404F067FB019901230B70C0
:10EE90003B7801333B7011B0F0BDCA225200A91873
:10EEA0002B6D9847DBE7C04609DC01007FB5051CE8
:10EEB0000020FFF77DFB0368041C1B69984723684B
:10EEC000201C1B6A9847061C041C288834363038DE
:10EED000082800D99AE004F0BBFF05991384212D7E
:10EEE00099486500EB88002B05D1291C0C31301C9A
:10EEF00003F09AFD8AE0636B301C9B68984785E0BD
:10EF0000EB88002B05D1291C0C31301C03F00EFEC0
:10EF10007CE0301C0021FFF733FF77E0636B301C8F
:10EF20005B689847002871D0291C0C31301C03F015
:10EF30005BFE6BE0AB886A461380AB895380EB893C
:10EF400093802B8A12350295D380A368E360E06832
:10EF500000285BD0C36869469847E368002B02D15C
:10EF6000A268E260F3E71B69F0E7AB886A461380AA
:10EF7000AB895380AB7B13712B8AD3806B8A14359A
:10EF8000039513816369A361A06900283ED0C3681B
:10EF900069469847A369002B02D16269A261F3E731
:10EFA0001B69F0E7AB886A461380AB895380AB7B63
:10EFB00013712B8A12350295D380236A002B25D03A
:10EFC000164A002A22D06362606A00281ED0C368F5
:10EFD00069469847636A002B01D1236AF3E71B69EE
:10EFE000F1E7F622EB885200A018A988002B05D083
:10EFF00085225200934206D1002205E02A1C0C32E1
:10F0000002F01BFC02E00B2202F004FC301C03F0B7
:10F0100003FF301C03F07EFE7FBDC04609DC01000B
:10F0200077DF704778DF70477ADF70477CDF7047A3
:10F030001FB5002302AC039328232380C8235B0061
:10F040006380E38001A811230C4905220370FFF7B8
:10F05000EDFF80B200280FD180208000FFF7E2FF93
:10F0600080B2002808D1201CFFF7DEFF80B2002804
:10F0700002D1FFF7D5FF80B204B010BDB84C02003A
:10F080007EDF704768DF704738B500200C1CFFF743
:10F090008FFA03685B6A98472378051C142B17D0F6
:10F0A00002D8132B05D042E0152B16D0222B38D0D6
:10F0B0003DE063686C6818889B78D9079A07C90F88
:10F0C000DB06C9B2D20F5B0F002C30D0A0472EE078
:10F0D000636818889978AB681FE0626891780B09BB
:10F0E0000907090F012902D0022908D010E0013BCD
:10F0F000DBB20021022B0ED80E49C95C0BE0012BBC
:10F1000008D0023B5842434105215B42194002E0CE
:10F11000002100E004211088EB68002B07D09847FD
:10F1200005E0636818882B69002B00D09847002001
:10F1300038BDC046BE4C0200014B18787047C0462F
:10F14000A52F0020F0B51C1C2D4B87B001921A781A
:10F15000071C00200D1C824250D101F055FB0028F5
:10F1600046D1002C0FD0222003A90394FFF78AFF79
:10F17000002808D0082804D01138434258410430F0
:10F180003CE006203AE000236846037202A800F043
:10F1900099FB011E2CD11B4E012433782540A3433B
:10F1A0006A0027401D1C3D43019B02270720BD43E9
:10F1B000034015431C22BB4095431D43357003ADEE
:10F1C0000C22281C04F0EAF90F4B6846311C05227A
:10F1D000113003932F7104F0BFF90C48291C00F083
:10F1E000E3FB031E06D0042807D00620082B05D019
:10F1F0000B2003E0024A147000E0072007B0F0BDC6
:10F20000A52F00203428002089F00100A42F002021
:10F2100008B5084800F090FC0023984207D0042865
:10F2200004D00623082802D00B2300E00723181C73
:10F2300008BDC046A42F002073B500230193104BD6
:10F2400001AD1B780E1C291C2B7000F089FE041EDA
:10F2500004D00B23052810D104230EE0281C311CF8
:10F2600000F0DCFB231C002807D0042804D0062370
:10F27000082802D00B2300E00723181C76BDC046E7
:10F28000A42F002073B5114C0D1C061C211C6846D0
:10F29000052204F061F9012D06D0022D13D1237847
:10F2A00001221343AB4303E023780222AB43934391
:10F2B000301C69462370FFF7E3FE421E90410B238A
:10F2C0004042034000E00223181C76BD3428002091
:10F2D00008B5094B011C1A780923002A09D00748F0
:10F2E00000F0D4FB0023984203D006230E2800D15F
:10F2F0000323181C08BDC046A52F0020A42F002002
:10F3000008B500F07CFE08BD08B502230B708E2303
:10F310000B714F234B710A1C7C238B71013204311A
:10F3200000F044FE08BD4368426910B5D118041CC2
:10F3300000F050F8E36A002B04D1A369002B07D03A
:10F34000984705E0A069002802D0211C1C3198478D
:10F3500010BD10B5041C00F045F80023A361E36262
:10F3600010BD38B50D1C041C00F03CF86561206927
:10F3700001F0D9FD4119201C00F02CF838BD08B56A
:10F38000C36A011C002B04D18369002B06D0984767
:10F3900004E08069002801D01C31984708BD08B5F9
:10F3A00003689B68984708BD084B10B50833036095
:10F3B000002343608360C360041C01F0B9FD04496D
:10F3C000206101F04BFD201C10BDC046F84C02002E
:10F3D0009FF3010008B50A1C031C011D006901F020
:10F3E00069FD08BD08B5011C0431006901F07EFD0E
:10F3F00008BD000010B5044B041C08330360FFF780
:10F40000F1FF201C10BDC046F84C020010B5041CD2
:10F41000FFF7F0FF201C03F0FFFF201C10BD08B514
:10F42000012004F02FF87047704708B5FFF7FCFF84
:10F43000FFF7F9FF01F0A8FF08BD0000084B1B68AB
:10F440001818EFF30882904205D3064B0C220120D6
:10F450001A60404202E0024A1060181C7047C04621
:10F460003C2800208031002008B5002800D1FEE7AC
:10F4700001F084FCFBE77FDF704782DF7047A7DF86
:10F480007047A9DF7047AADF70470020704700204F
:10F490007047002070470020704700207047002010
:10F4A0007047002070470000F0B58BB06C460E230B
:10F4B000E382039001914B780C225343244A163483
:10F4C000D318188906A9221C0323FFF7DCFF0028A4
:10F4D0003BD1019B18275B781E4D5F4300933B1C7B
:10F4E00026880833EB18181C06A9321C029304F076
:10F4F00024F82C1C00280DD1009A0C235343144AE5
:10F50000D318997A022319401FD1E819182204F060
:10F5100045F81AE0ED196B68002B01D00E4F00E0A2
:10F520000E4F009B18256B430322E250E3185E60E8
:10F5300006A9321C029804F00FF8019B0398597831
:10F540002A1C694338236118B84700200BB0F0BD6E
:10F55000AA2F00200C3000201D0A02009D09020085
:10F5600008B5FFF7A1FF08BDF7B5041C0F1C6A46DC
:10F570008178224801F0EAF900283DD162780C2117
:10F580004A431F4B9A18927A530605D4022F03D090
:10F59000012F03D11B4D02E01B4D00E01B4DA17854
:10F5A0001C2671431A4B68465918321C0023A84781
:10F5B000002813D1022F1FD063780C225343104A26
:10F5C0004021D3189A7A68468A439A726178114B1F
:10F5D0007143321C5918331CA84701E0022F0BD08D
:10F5E00023780C2253430C4A6846D3189A7A0B4B63
:10F5F0009200D358211C9847F7BDC04634300020F4
:10F60000AA2F00209D0902001D0A02008BF40100B0
:10F61000B82F0020F02F002024300020204D0200C1
:10F62000F7B50190437818215943264A264F5018C0
:10F630004468002C0FD00C2058433818807A45B20B
:10F64000002D07DA450605D40E1C0836A5B296191A
:10F650008C5802E00024251C261C0C225343FB1866
:10F660001889311C2A1C231CFFF70BFF0B280BD118
:10F67000019A311C53780C225343FB1818892A1C19
:10F680000123FFF7FEFE0124002800D00F48012CC3
:10F6900017D1019D0C216B780D4A4B43FB1818893B
:10F6A000FFF7EDFE00280CD00A4B984208D008283E
:10F6B00006D0094B984203D0112801D0002000E069
:10F6C0000248FEBD0C300020AA2F0020418000001F
:10F6D000FFFF0000023000000430000008B5FFF713
:10F6E0009FFF08BD70B5031C487818246043094D7E
:10F6F0000E1C2818191C221C382301F0CFF90028F1
:10F7000006D173785C432D196B68013300D16860B2
:10F7100070BDC0460C30002008B5FFF7E3FF08BD00
:10F72000F0B51D1C434B161C1A6893B001900F1CBA
:10F73000002A7CD01898542879D803ABFF220024E3
:10F7400069465A709A70DA701C700C760B950A90A4
:10F75000A1B2394804AA01F0F9F8002809D10198AA
:10F7600004A9082203F0E9FE002802D103AB9C7033
:10F7700002E00134022CEBD103ACA278FF2A56D070
:10F78000032F0AD1189A06AB542A01D1202200E097
:10F7900040221A701A7803213BE0284BEB1A372BD2
:10F7A00011D8274B002E04D101211868914008423E
:10F7B0003DD0012191400A1C196891431960202213
:10F7C00006AB1A7020E01F4BEB1A1B2B09D806ABB7
:10F7D00020221A70002363700CAB0B9318230A933A
:10F7E00012E019482D1A172D21D830236A461376B6
:10F7F000002363700123E370144B997A02231940AC
:10F8000002D1182203F0CAFE06AB022F0CD11A78DF
:10F8100001210A4307481A7009AB079306A9036838
:10F82000321C201C984702E01A780221F1E713B03D
:10F83000F0BDC0462430002034300020B82F002016
:10F8400030300020F02F00200C300020AA2F0020A4
:10F8500070B51C2444430E4E051C30190021341988
:10F860000622113003F09AFE201C0021102203F022
:10F8700095FEFF232374A37601235B422383012299
:10F88000044BAA40151C1A68AA431A6070BDC046F2
:10F89000B82F00203030002037B581B2051C6A46F1
:10F8A000074801F053F8041E08D16846542101F0BE
:10F8B0003FF9041E02D1281CFFF7CAFF201C3EBDE1
:10F8C00034300020F0B5061C85B0002857D02D4BF1
:10F8D0002D48012500246F421C605C729C72211C23
:10F8E0000781C7720722857203F058FE211C182277
:10F8F000264803F053FE201CFFF7AAFF244CFF23E9
:10F90000281C2370FFF7A4FF6A4654236770938076
:10F91000204C0223D380204B6846211C009300F02A
:10F92000B5FF271C00282BD11C4A33781570151CF5
:10F93000002B1BD11C1CA1B2381C02AA01F006F836
:10F94000061E0CD11C22131C6343154802A9C018C3
:10F95000331C01F0A3F8002804D02E7010E000231F
:10F960002B700DE00134022C0AD0E4E76B46D988F5
:10F970009B88201C594389B201F0DAF800E009485D
:10F9800005B0F0BD24300020AA2F00200C3000204C
:10F99000A62F00203430002021F70100A82F0020DE
:10F9A000B82F00200E800000F8B5174B071C1B78FD
:10F9B0000D1C002B22D0002822D0002920D00B685B
:10F9C000002B1DD0114C2668002E1BD1201C08C016
:10F9D0000531052203F0C0FD207A2B7901218843EF
:10F9E0000222A3721043042398432072E07901435A
:10F9F0000A439A43E271301C3E7004E0044802E07E
:10FA0000044800E00448F8BDA82F0020243000205E
:10FA1000088000000E80000004800000154B1B7859
:10FA2000002B22D000281ED000291CD00378002BE8
:10FA30001BD1114B1B68002B17D04278002A16D11E
:10FA40000E4B9B7A012B12D02420184003D00123A7
:10FA50000B70101C0CE05BB2002B02DA02230B705F
:10FA600006E0087004E0064802E0064800E00648A8
:10FA70007047C046A82F002024300020AA2F002065
:10FA80000E8000000880000010800000234BF0B5BD
:10FA90001B78002B25D0002821D000291FD00B680F
:10FAA000002B1CD08D68002D19D00378002B18D1A5
:10FAB0001B4A1268002A14D01A481A1C10301C1C49
:10FAC000194DEE7AB3420ED1AD7AAE070BD50133A4
:10FAD0001C30022BF4D10C710A7300201CE0134877
:10FAE0001AE0134818E00D7BAA420AD2857AEE0785
:10FAF00007D4061C8F689500103EEE510D4DAB5497
:10FB000001320D79AC42E2D2857AAE07DFD40F68BC
:10FB1000A500E8510134DAE7F0BDC046A82F002067
:10FB200024300020B82F0020AA2F00200E800000D3
:10FB300008800000A62F0020104B10B51B78002B6A
:10FB400019D0002815D00078002814D10C4B1B6860
:10FB5000002B10D00B4B9A7E1C1CFF2A01D0FFF704
:10FB60009BFE36342378FF2B06D00120FFF794FE4E
:10FB700002E0054800E0054810BDC046A82F00205F
:10FB800024300020B82F00200E80000008800000E4
:10FB900013B5041C81786A460B4800F0D7FE002894
:10FBA00010D160781C235843084A694610181A1C63
:10FBB00000F074FF064B68469A7A064B9200D358C1
:10FBC000211C984713BDC04634300020F02F002080
:10FBD00024300020304D0200F0B5C64A8FB01278B4
:10FBE000FF23061C0393002A00D1B4E1C24A116826
:10FBF000002900D1AFE104AD05AF6B70AB70EB70C5
:10FC0000031D7B602A233B81038800222A70BB4CA2
:10FC1000102B22D0A17A82880191890707D5B84993
:10FC20008A4200D149E12189914200D145E1172B57
:10FC300000D1ACE007D8132B53D0142B2DD0112BAF
:10FC400000D088E10FE01C2B00D11CE1522B00D129
:10FC500011E1182B00D07EE1E5E0A37A01210B42EF
:10FC600000D02FE177E101990223019A9943A17213
:10FC7000120707D54BB2002B0BDA281C0021FFF727
:10FC800073FC06E0A878FF2803D0FFF7E1FDFF230F
:10FC9000AB701023A3721223F6E0E37A994FFF2B87
:10FCA00014D1F3893A8B9A4204D0BA8E9A420DD17C
:10FCB000012300E000230199082203930A43DBB2E9
:10FCC000E372A272281CAB70FFF762FFE37A002197
:10FCD000FF2B00D08C49B0883A1C0023FFF7CDFBE6
:10FCE00039E1019A3B7004231343A372E37AFF2B9B
:10FCF00025D184498B7EFF2B06D00B1C36331B7815
:10FD00000127FF2B29D100E0002723781C2078430E
:10FD1000022B09D07B4AFD2310188376211C072271
:10FD2000103003F019FC03E0764B1818FE2383769D
:10FD300003AB1F700399CBB2AB70E3720BE0734857
:10FD400016230E22083000213B7003F027FC019A95
:10FD500044231343A372002400E06D4C0021674B41
:10FD60000B91DB7A1C225343664A0D91D3180C93F6
:10FD7000654B614A089309910A91B088043208AB37
:10FD8000FFF779FB002800D0E5E0221C7EE05A490D
:10FD900001224B7A9343019A4B7204239A43142312
:10FDA000A2723B70B379002B04D0E07AFFF774FDA8
:10FDB000B2796BE0F379590767D5AB78FF2B64D044
:10FDC00008210A43F17AA2728907C90F012906D1D5
:10FDD0001C225A434B488218907E88439076E27AE0
:10FDE000FF2A52D02178474A1C2602290CD05E43B4
:10FDF0009619301C07221030211C03F0ADFBB37E96
:10FE000002229343B37609E073433F49D318498AEA
:10FE10001A1C19839B7E01218B439376281C012198
:10FE2000FFF7A2FB31E0B379112B15D1019A12072C
:10FE300012D5364800210E22083003F0AFFB1623FE
:10FE400001993B7060230B432B4AA372537A2A49D2
:10FE5000022213434B7218E0019A80235B42134342
:10FE6000A37215233B70244B281C9A7A294B9200CD
:10FE7000D358984709E02049264B8A7A281C9200DB
:10FE8000D358984767E013233B7000221A4905AC0A
:10FE90000B68281C211C98472378122B5BD117482C
:10FEA000837A012B57D0012383725B420381C37293
:10FEB0000021072203F072FB4DE0E27AAA700022D3
:10FEC0006A70B4E611233B706A708388871D2381B2
:10FED0000223A372201C391C072203F03DFB737D13
:10FEE000DA071BD50C4A5B08D35CFF2B29D00393A0
:10FEF00027E0C046A82F002024300020AA2F002091
:10FF0000FFFF0000B82F0020F02F00200C30002051
:10FF100043800000104D0200A62F00200F4E391C18
:10FF2000301C1030072203F008FB002808D0301CDA
:10FF30002C30391C072203F000FB0028A5D101203A
:10FF40000390039A281CD3B20A22E372A272AB7008
:10FF5000FFF71EFE99E70FB0F0BDC046B82F002096
:10FF600030B5002912D00A78002A11D10A4B1B683B
:10FF7000002B0DD0FF23094C8B702589052385426A
:10FF800007D14A70E37A8B70131C02E0044B00E047
:10FF9000044B181C30BDC04624300020AA2F00207E
:10FFA0000E800000088000004DDF704730B5002350
:10FFB0008DB00D1C141CC21AD27B69465A540133F1
:10FFC000102BF8D1002104A80D2203F0E7FA2B78BA
:10FFD0006A46D3776B7868469377AB785377FFF7A9
:10FFE000E3FF6B462F331B7823706B462E331B7851
:10FFF00063706B462D331B78A3700DB030BD30B5E8
:020000022000DC
:100000000378041C85B00D1C0020022B16D1611C46
:10001000032201A803F0A0FA211D032203A803F084
:100020009BFA281C03A902AAFFF7C0FF01A802A996
:10003000032203F082FA43425841C0B205B030BDFA
:1000400008B5064B586980235B05421C04D019692A
:1000500089B203F007FF00E0586908BD00100010E6
:1000600029DF704728DF704708B5034B1A78034B28
:100070009200D358984708BD84300020404D0200BC
:1000800037B50B1C074C89680C254D43246819783B
:10009000021C181C1B690094034C08302C59A04703
:1000A00037BDC0468C3000207030002008B5104AA3
:1000B000142113784B43D318802218695205116913
:1000C00004335A8801389B888018C01889B203F01D
:1000D000C9FE084A031C126801209A4207D3002077
:1000E0009A4204D1044B186843425841C0B208BD3B
:1000F0003C300020683000206C30002008B5044BF4
:100100000822196891431960FFF7AEFF08BDC04689
:1001100080300020094A08B5136819070AD49907E6
:1001200002D501210B431360054B02221A70FFF721
:100130009BFF01E0FFF7E2FF08BDC04680300020D2
:100140008430002008B5064B1B681A0705D4054B00
:1001500001221A70FFF788FF01E0FFF7CFFF08BD0B
:10016000803000208430002008B5002814D01128E9
:1001700005D10A4B082219680A431A600CE0084BA3
:1001800014211A7851435B18191DFFF779FF054BAD
:1001900004221A7000F096F808BDC0468030002096
:1001A0003C3000209030002008B5FFF759FFFFF7E2
:1001B000DBFF08BDF8B5134B14241A78802554438F
:1001C0006D051C1904342F696288BFB2A088E368EA
:1001D00021690D4EBA420DD92C69C018A4B2121B68
:1001E0002C6980188918A2B29208FFF7DDFF2B69ED
:1001F0009BB204E0C0189208FFF7D6FF6388336013
:10020000F8BDC0463C3000209C30002038B50A4A7A
:1002100080246405236915689BB2013D5D43FFF7A7
:100220000FFF2169054B013889B241431A68281C28
:10023000FFF7BAFF38BDC046683000209830002074
:1002400070B5104A1421137880254B43D3181A89AE
:10025000DC880433DB686D05A4182969E418201CC8
:1002600089B203F043FE0E1CFFF7EAFE296901384C
:1002700089B24143044B89191A68201CFFF794FF87
:1002800070BDC0463C3000206C30002010B5FFF738
:10029000D7FE80235B051C6919691A69431EA0B249
:1002A0005843044B89B21B6892B259439208FFF736
:1002B0007BFF10BD6830002008B5FFF7D3FEFFF7C5
:1002C00053FF08BDF0B52B4B85B0187803284FD8E5
:1002D00003F0BEFD020E114A274A00231360274A8D
:1002E0001360274B5B78002B42D000F0DFF83FE033
:1002F000FFF760FF3CE0234C0123226814260192A3
:100300009A431F4B226002921A78802756437F053A
:100310009E1933693969181C89B2039303F0A2FD51
:10032000194B051C186003983969F3880138C01807
:1003300089B203F097FD854203D1029A0223134349
:1003400003E0019A03239A43131C23600F4B1A689E
:100350000F4B002A03D121680222114200D0002253
:100360001A70FFF781FE03E0074B1868FFF7A4FF40
:1003700005B0F0BD90300020943000209C3000206B
:100380003C30002080300020683000209830002071
:1003900084300020F0B53F4A1421137885B04B43D8
:1003A000D318D8680C22424302903B48802582181B
:1003B00054891089526860436D0582182969019239
:1003C000DA881E6903921F89344CD3199B19009354
:1003D0000023236089B2301C03F088FD00290AD174
:1003E0002B6903989BB2984208D00099019A9142D8
:1003F00001D1002F02D0029B022B08D12969301CA9
:1004000089B203F02FFD264B186003233CE02969D5
:10041000B81989B203F06AFD224B89081960009A65
:10042000019B8024640529699A422CD089B2101C52
:1004300003F05CFD002926D0019A0098216985B25D
:1004400089B290B203F00EFD2769061CB9B2281CD0
:1004500003F008FDB6B280B2864208D1019B009835
:100460009AB283B2D31A0D499B080B600BE0236943
:100470002169281C89B29CB203F038FD89B2641A44
:10048000064AA4081460022307480370FFF71AFF06
:1004900005B0F0BD3C300020703000206C300020F2
:1004A00068300020983000209030002008B50B4ABA
:1004B000142113784B43D318D988094A1B7911604A
:1004C000032B08D0042B06D0012B06D1054A13704C
:1004D000FFF7F8FE01E0FFF75DFF08BD3C300020AC
:1004E0008C30002090300020F7B508AC2488114DE6
:1004F00001946E780424022E19D02C78A419012CB2
:1005000000D9023C14277C432C196261221C207103
:100510000C3281C981C2E380074B01981B7820818E
:10052000013600246E70A34201D1FFF7BFFF201CEB
:10053000FEBDC0463C3000209030002038B5124C43
:10054000142521780020694361180431FFF798FDD4
:1005500021782A1C4A430023A21801251371D38055
:10056000D5601361536113816278013A62704A1950
:10057000D2B2022A01D0227000E02370034A137025
:10058000FFF7A0FE38BDC0463C3000209030002070
:1005900008B5084B14211A784A439B181B79042B81
:1005A00002D0FFF7CBFF04E0034B01221A70FFF7E4
:1005B00089FE08BD3C30002090300020F8B51F4D6A
:1005C00008242E68344023D11D4A142113781D4F6E
:1005D0004B433F68D31880211869DA8849050433F2
:1005E0009B880969002F16D001388018C01889B27D
:1005F00003F038FC144B1B6883420CD1134B1C6076
:1006000001231E43124B2E601C70FFF72DFD13E0DB
:10061000FFF774FD10E0FFF749FD002804D00B4BF5
:1006200000221A60022202E0002F03D00322084BAE
:100630001A70EAE7FFF7ACFFF8BDC0468030002033
:100640003C3000206C3000206830002098300020C2
:100650008430002008B5054B1B681A0702D4FFF749
:1006600097FF01E0FFF74AFD08BDC046803000203B
:1006700038B5154D2C68220723D4144B1A68013263
:100680001A60134B04221B68002B04D1FFF70EFDE8
:10069000002802D002220F4B0CE00F4B1B68002BEE
:1006A0000CD00121221C0A400A4B02D10C432C60C1
:1006B00000E003221A70FFF7D7FC04E0FFF768FFA1
:1006C00001E0FFF71BFD38BD8030002068300020BE
:1006D00098300020843000206C30002008B51E4B7C
:1006E0001B78022B30D0032B19D0012B32D11B4B9E
:1006F00008211A680A4222D1194B14211A784A4358
:100700009A18184BD1881B68CB1A9BB2D380002B48
:1007100002D1FFF713FF1DE0FFF74CFD1AE00F4B6E
:1007200008211A680A420AD10F4B1A6801321A606E
:10073000FFF7BCFC002804D1FFF72AFF0AE08A4338
:100740001A60FFF7BFFD05E0084B1A78084B9200CE
:10075000D358984708BDC046903000208030002014
:100760003C3000209C300020683000208430002085
:10077000544D020008B5024B1868FFF79DFD08BDF7
:100780006830002008B5FFF75BFC80235B051A6921
:100790001969431E90B2584389B203F063FBFFF717
:1007A0008BFD08BD38B5144C042523781A1CAA43C8
:1007B00021D002281DD003281DD1104A126811072C
:1007C00017D40F490A6801320A60032A04D0022BA9
:1007D0000CD1FFF749FC0EE00A4B14211A780D20CA
:1007E00051435B18191DFFF74BFC2570FFF76AFD9D
:1007F00001E0FFF773FF38BD90300020803000200B
:10080000943000203C300020174B10B5012200240A
:100810001C705C701C71DC80DA601C615C611C8186
:100820001C765C831A625C629C629C830F4B1C800A
:10083000FFF706FC80235B051A69831E90B25843BC
:100840000B4B042218600B4B201C1C600A4B1C60D5
:100850001C815C81094B1C70094B1C60094B1C609E
:10086000094B1A6010BDC0463C3000207C3000208F
:100870008830002068300020703000209030002048
:10088000943000209C300020803000202B4BF7B5A6
:100890001B680E1C0421041C08200B424DD0002CA8
:1008A0004AD0002E48D02268002A45D080277F05F4
:1008B0003A69A38892B2934201D907203DE00F2BF9
:1008C000FBD9E288002AF8D053431D490D685B1913
:1008D0000193FFF7B5FB3A69431E90B25843019A62
:1008E0008242EAD8A3889907E7D1164A04201788DC
:1008F000012F22D00C207843134937607560266899
:100900000A18556046501381E088013750818022D3
:1009100052055843166911691469B2B2801801383A
:1009200089B203F0EDFAA4B24443054E054B6519B4
:1009300035601F80002000E00E20FEBD80300020CA
:10094000883000207C30002070300020114B30B502
:100950001C68082365071AD5002815D0002A13D073
:100960000368002B12D10C4C2568002D0ED0258970
:100970004068694309186089454360682D18A94299
:1009800004D21360516002E00E2300E00723181C1C
:1009900030BDC0468030002070300020F0B5141CFF
:1009A0001C4A051C126885B00F1C082051072ED563
:1009B000002F2BD0002D29D02A680720002A26D10D
:1009C000154E3168002922D06A68039232897189F4
:1009D000766851438C4603996644B14217D2002C85
:1009E00015D0944213D8E618964210DC032210204A
:1009F00017420CD113420AD1114208D10093291C8D
:100A00003A1C231C0120FFF76FFD00E00E2005B00B
:100A1000F0BDC0468030002070300020F0B5141CBE
:100A20001C4A051C126885B00F1C082051072ED5E2
:100A3000002F2BD0002D29D02A680720002A26D18C
:100A4000154E3168002922D06A6803923289718973
:100A5000766851438C4603996644B14217D2002C04
:100A600015D0944213D8E618964210DC03221020C9
:100A700017420CD113420AD1114208D10093291C0C
:100A80003A1C231C0420FFF72FFD00E00E2005B0C8
:100A9000F0BDC0468030002070300020F0B5161C3C
:100AA000214A85B0126802900D1C0824500738D5E1
:100AB000002931D0029900292ED02C68002C2DD18C
:100AC0001A4F3A68002A29D0398978896A684843D8
:100AD000844678688444624520D2002E1ED08E421F
:100AE0001CD8F018884219DC02980321084217D15B
:100AF0000B4215D11140039112D19918321C02F00A
:100B00002BFD29680C234B430096FE58281C02211C
:100B1000039A029BB04704E00E2402E0072400E0A1
:100B20001024201C05B0F0BD803000207030002063
:100B3000F0B5204B85B01B68061C0D1C08245A0715
:100B400034D5002831D003680724002B2ED11A4B4E
:100B50001A68002A2AD01A894768029258685B8965
:100B600053431B1803939F4220D21024BB071DD16F
:100B7000381A111C03F0BAF90724002916D1281CD1
:100B8000029903F0B3F989B200290FD1002D0DD0DD
:100B9000039AEB19934209D8002200920320311CDA
:100BA0002B1CFFF7A1FC041C00E00E24201C05B048
:100BB000F0BDC04680300020703000202EDF70472E
:100BC00051DF704710DF704711DF704761DF7047FA
:100BD00008B5081C111CFEF7A1F808BDF0B5254B9F
:100BE00085B01B78002B42D0234E244F32685442EC
:100BF00054413A68E4B255425541EDB2002C34D12B
:100C000003A8FFF7DDFF05280AD0002804D0211C27
:100C1000221CFEF785F804E003983368984700E04B
:100C20000124002D1ED1164B03A91B880B80154BE8
:100C30001B68181C0193FFF7C9FF051E052D0BD07B
:100C4000002805D000210A1CFEF76AF8002504E000
:100C500001983A68904700E00125002CCED0002D85
:100C6000CCD004E0002C02D1C8E7002DDBD005B0C9
:100C7000F0BDC046A0300020A8300020AC300020DD
:100C8000A2300020A430002038B5041C0720002921
:100C900013D08D0711D1094801600949201C0A8031
:100CA000084A09491360FFF78DFF002805D1074B5B
:100CB000012216201A70FFF781FF38BDA4300020F2
:100CC000A2300020B0300020D10B0200A030002064
:100CD00008B5FFF779FF021C531E9A41014BD2B2AF
:100CE0001A7008BDA0300020002803D0024B186005
:100CF000002000E00E207047AC300020002803D018
:100D0000024B1860002000E00E207047A830002041
:100D100008B5074B1B68002B07D09847002806D062
:100D200000210A1CFDF7FCFF01E0FFF757FF08BD9B
:100D3000B030002038B5051C0C1C131C291C0248BF
:100D4000221C00F054F838BD684D020038B500236D
:100D5000C356041C0D1C013304D106480649242245
:100D6000FFF7E8FF6368002D01D0E26800E0226928
:100D7000136038BD994D0200B14D020000B599B025
:100D800068460F2100F065F806A80F2100F061F811
:100D90000CA80F2100F05DF812A80F2100F059F8FF
:100DA00068460121FFF7D2FF06A80021FFF7CEFF1A
:100DB0000CA80021FFF7CAFF12A80121FFF7C6FF08
:100DC000962000F0CCF868460021FFF7BFFF06A888
:100DD0000121FFF7BBFF0CA80121FFF7B7FF12A805
:100DE0000021FFF7B3FF962000F0B9F8D8E70FB461
:100DF000012008B502F046FB38B50023C356041C99
:100E00000D1C013304D1064806492422FFF792FF46
:100E10006368002D01D0E26800E02269136038BDEC
:100E2000994D0200B14D020070B50D1C041C161C3A
:100E300000F09CF801350BD0201C311CFFF7DCFFC3
:100E4000201C012100F0B0F8201C002100F0A6F8C1
:100E500070BD08B50022FFF7E7FF08BD38B503688D
:100E6000041C1B680D1C984763681D6038BD38B5AD
:100E70000368041CDB68984763685A682368002A83
:100E800002D19B68984714E05B68156898476368CF
:100E90002D1A002D08DC5A68916859601B68002BD8
:100EA000EAD050689847E7E75B68226818681369DA
:100EB000984738BDF8B50D1C72B64B600A604168A2
:100EC00000234C68002C05D02768D61B02D4231CB5
:100ED000A468F7E7002B05D103684D601B69101C5F
:100EE000984700E09D60AC6062B6F8BD08B572B688
:100EF000426853688B420FD19B6853600268002B95
:100F000002D1936898470CE018681369984708E085
:100F10009A688A4203D0131C002BF9D101E089683A
:100F2000996062B608BD08B503685B68984708BD5C
:100F300000487047684E020008B50248FFF797FF67
:100F400008BDC046684E020038B5041C00F07CF9AC
:100F5000051C00F079F9401BA042FAD338BD08B552
:100F6000FA239B005843FFF7EFFF08BD01704B1CAD
:100F70000AD001238B404360044BC360044B0361E0
:100F8000044B4361044B83607047C0460805005022
:100F90000C050050100500501405005008B50078ED
:100FA00040B200F01FF808BD38B50023C356051C39
:100FB0000C1C013304D1094809492A22FFF7BAFE63
:100FC000002C01D0012C07D10022AA56A023C13247
:100FD000FF329200DB05D45038BDC046994D020067
:100FE000704E020038B5041C0D1C431C04D10A4885
:100FF0000A491A22FFF79EFEA023A000DB05C018B5
:10100000E023DB00C2580C218A43C250C258AD0015
:101010001543C55038BDC0469E4D02000F4F02001B
:10102000114A00211165114A114B1188114A99503A
:10103000114A1178002904D010490888A821C90054
:1010400058505178002903D00C4948880C49585011
:101050009278002A04D0094A9188A922D200995096
:1010600001221A607047C046FCA0004040280020C2
:1010700000A000404C050000BC30002042280020A9
:1010800044050000124AC1239B00D15810B5080640
:1010900003D51049096A002911D1D3585A0716D52A
:1010A0000C4BDA68002A12D00024DC60084AA32323
:1010B000DB00D058C0B200F0B7F9211C00E00121DC
:1010C000054B1868002802D0044B1B68984710BDD8
:1010D00000200040FC200040C4300020C030002030
:1010E00003681A1CFC32106A0128FAD10020106231
:1010F000014AC9B2995070471C0500000368FC33CF
:10110000186A013843425841704700000A490B4AA7
:1011100088680B4B002808D0186801301860002040
:1011200088600220D2218140505006491B685258E5
:101130001806190A10437047FC10014000100140C6
:10114000CC300020040500002F23C046C046C04616
:10115000C046C046C046C046C046C046C046C0465F
:10116000C046C046C046013B002BEED17047000090
:10117000F8B5184B9A68002A0AD0174A022011685D
:101180000131116000229A601449D22282408850B5
:101190005B6C124C002B1CD00E4B8025D22292008F
:1011A00000266D025E64A5500D4A1378B34210D03C
:1011B0000C4B1F68FFF7AAFF3F1AB74209DC084B28
:1011C000D2221E70C2239B009200E550A550FFF76B
:1011D000B3FEF8BDFC100140CC30002000100140EF
:1011E000D1300020C830002038B5124C2278002AB7
:1011F0001FD1114BA121C9005A500222D221914086
:101200005A50C12191405A500C4AC4218900555866
:101210000B482840C0252D02284350508021C02073
:10122000890240000125115011601D60FFF78CFFFD
:10123000257038BDD03000200010014000E100E0F2
:10124000FF00FFFF0000000008B50B4B1B78002BD0
:1012500001D1FFF7C9FFFFF759FF064B044A02F01F
:10126000D1FE4904C00B084308BDC046C046C04675
:1012700040420F0000000000D0300020C046C046B1
:101280002F4B70B51B78061C002B01D1FFF7ACFF6C
:10129000FFF73CFF254B244A02F0B4FE4B04C00B81
:1012A000002400251843CD0B0023321CA4185D41F7
:1012B00080231B06984205D9002E03DB1C4A1D4BD8
:1012C000A4185D41610CEB030B43E2031A481B4970
:1012D00080185941154B144A02F074FE194D041C34
:1012E0002B78194E002B02D0336898421BD0FFF7A1
:1012F0000DFF201A022802DCFFF708FF841C2102E0
:10130000124BA822D200090A99502A783460002A88
:1013100009D101222A70D2218022520289005A501A
:10132000C12189005A5070BD40420F0000000000EA
:1013300000000000010000003F420F00000000001C
:10134000D0300020D1300020C830002000100140F3
:10135000074B1A78002A0AD0064A8021C220490287
:1013600080001150D2208000115000221A70704766
:10137000D130002000100140024B00229A605A64D4
:101380007047C046FC10014008B5FBF77DFAFBF73B
:101390008FFAFCE701207047054B1A1C4032107889
:1013A00041331B784030C01A3F2318407047C04675
:1013B000D2300020084A111C101C413140300B78FB
:1013C0000078984205D0D05C01333F2213400B7067
:1013D00001E0012040427047D2300020064B1A1C29
:1013E000191C4132403112780978914201D0985C41
:1013F00001E0012040427047D230002007B5034B86
:1014000068460093FFF76CFE0EBDC046002000400A
:1014100007B5044B00936846FFF770FE0028FAD02A
:1014200007BDC0460020004030B5074B3F211A1CC5
:1014300040321478651C29401D1C41352D788D42A1
:1014400001D01855117030BDD23000200023436008
:10145000FA239B008360024B083303607047C04649
:10146000B04F020008B5034801F038FF0248FFF70B
:10147000EDFF08BDD230002014310020F7B5FA2668
:101480000093B60008AB041C1B78301C4843144979
:10149000171C019302F0E6FC85B2301C25807843CE
:1014A0000F4902F0DFFC009B80B2A380019B6080AB
:1014B000A371032D01D80423238022888023DB011C
:1014C0009A4200D92380032801D8042262806288CE
:1014D0009A4202D98023DB016380201CFEBDC046F6
:1014E0007102000093DF704708B50368002B01D03C
:1014F000081C984708BD08B50368002B01D0081CDC
:10150000984708BD38B502680B68051C0C1C9A4248
:1015100001D000202CE00379002B07D10B79002BA0
:10152000F7D1C28ACB8A9A42F3D10BE0012BF0D1DA
:101530000B79012BEDD105300531102201F0FDFFB3
:101540000028E6D12A7E217E7F231A400B409A4252
:10155000DFD16A8B638B9A42DBD1EA69E3690020B1
:101560009A4205D1238C288CC01A43425841C0B2FC
:1015700038BD70B5051C0E1C00242819311CFFF75E
:10158000C1FF002803D14C34E42CF6D100E0012047
:1015900070BD000007B501AB1980191C5A80FFF718
:1015A000A1FF10280CD003D8002398420BD009E0EB
:1015B0000523112807D0054A0423904203D001E0F7
:1015C000032300E00B23181C0EBDC04602300000B0
:1015D00070B50025041C291C20C0FAF7ECFE0C266F
:1015E000201C291C321C25766583A583E583258470
:1015F000243001F0D3FF074B201C65632363291CB3
:10160000321C383001F0CAFF034BA564201C636410
:1016100070BDC046E9140200F714020010B5041CA6
:10162000FFF7D6FF201C4C30FFF7D2FF201C98306C
:10163000FFF7CEFF201C10BDF8B50D1C1E1C08C9FD
:10164000041C08C0171CFAF7C3FE2B7E3A1C237635
:101650006B8B6383AB8BA383EB8BE3832B8C238418
:10166000231C243323CA23C3FF6800222763626339
:10167000311C0833A1C9A1C3F668201C6664A264AA
:10168000F8BD70B50E1C8AB00168041C038C019073
:10169000684603AD03911230111CAB80FAF798FE37
:1016A000201C6E8302952430236B01A998470AB051
:1016B00070BD07B5031C6A460090117138305B6C31
:1016C0006946984707BDF0B5A7B00B790C1C0868B0
:1016D00069460B71E38A00906846161CCB82102283
:1016E000611D053001F038FF237E6D462B76638B3C
:1016F000221C6B83A38B2432AB83E38BEB83238C81
:101700002B8409ABA1CAA1C3216B00250C910D95B7
:101710000EAB083283CA83C3626C13A81192129570
:10172000FFF756FF13A9201C222201F015FF231CEE
:101730001CAA243383CA83C31F9A656322630833B8
:1017400021AA83CA83C3249AA56462646846311CB3
:10175000FFF7AFFF27B0F0BD30B595B0041C01A86E
:10176000FFF736FF201C01A9FFF7CCFE0025A84299
:1017700018D00D9A236B9A4214D1211C0AA8243147
:101780000C2201F0DAFEA8420CD1129B626C93424B
:1017900008D1211C38310FA80C2201F0CEFE4542A1
:1017A0004541EDB2281C15B030BDF8B5061C0F1C24
:1017B00000257419201C391CFFF7A4FE002804D052
:1017C000201CFFF7C9FF002803D04C35E42DF0D1D1
:1017D0000024201CF8BD10B5041CFFF7E6FF011E15
:1017E00003D0201C0022FFF76EFF10BDF8B50F1CC0
:1017F000041C0325238C261CBB4204D1201CFFF7AC
:10180000ABFF002804D0013D4C34002DF2D12E1C3A
:10181000301CF8BD38B5041C151CFFF7E7FF011E8E
:1018200003D0201C2A1CFFF74EFF38BD08B5FFF778
:10183000DDFF431E9841C0B208BDF0B589B0061C5B
:101840000091171CFFF7D2FF041E2AD000253A880A
:10185000062395420FD26B43FB185A88998803A838
:1018600001920135FAF7A7FD201C019903AAFFF7A1
:1018700008FFADB2EBE7013A5343FF187988E28BDA
:10188000013189B2914203D9301C211C002206E0AB
:101890000098FFF77FFE021E03D0301C211CFFF7CB
:1018A00012FF09B0F0BD70B5061C00243519281CC4
:1018B000FFF752FF002803D14C34E42CF6D1051C6D
:1018C000281C70BDF0B51E1C4B8B041C0233C88B4A
:1018D00099B09BB20D1C03920F8C01930290984219
:1018E00007D2002705910697F368301C05A9984791
:1018F0002DE0201C391CFFF799FF002801D0052797
:1019000025E0201CFFF7CFFF041EF8D0381C0199FA
:10191000029AFFF73FFE071E19D1291C331C039AB8
:1019200005A8FFF789FE05A92222201C01F014FE5C
:10193000231C24330EAA23CA23C31199083321631D
:10194000676313AA23CA23C3169AA7646264381C68
:1019500019B0F0BD70DF704771DF704772DF7047FC
:1019600073DF704774DF704775DF704776DF70474D
:1019700077DF704778DF704779DF70477ADF70472D
:101980007BDF70477CDF70477DDF704786DF704705
:1019900087DF704788DF70471420704764207047E6
:1019A000A0208001704708B5FFF7F2FF421E90416A
:1019B000404205230340181C08BD10B5041CFFF766
:1019C000D1FF021C0320002A06D1201C58300378C6
:1019D00001218B430370101C10BD08B53B239A42B4
:1019E00000D01323081C191CFFF7C0FF002800D0EB
:1019F000032008BD08B50A1C0368011CFE31C98C10
:101A00001B6A984708BD08B5081CFFF7B9FF0028F6
:101A100000D0032008BD08B5081CFFF7AFFF002861
:101A200000D0032008BD08B5081C111CFFF79CFF5F
:101A3000421E9041404203230340181C08BD13B5C9
:101A40000C1E012C07D86846111C0130062201F03B
:101A500083FD002005E08B1E012B01D9032007E048
:101A600001206B4669461C70FFF774FF0028F5D112
:101A700016BD37B568460D1C141CFFF76DFF032318
:101A800000280FD1002D02D06A4613782B70002C4D
:101A900007D06946201C0131062201F05DFD0023BC
:101AA00000E0231C181C3EBD08B5081C111CFFF7E4
:101AB0006BFF421E9041404203230340181C08BDA7
:101AC00008B5081CFFF756FF421E90414042032311
